:100000000C9469000C943C030C9415030C9491001F
:100010000C9491000C9491000C9491000C9491001C
:100020000C9491000C9491000C9491000C9491000C
:100030000C9491000C9491000C9491000C949100FC
:100040000C94CB020C9491000C9491000C949100B0
:100050000C9491000C9491000C9491000C949100DC
:100060000C9463030C949100D804DB04DE04E104D7
:10007000E404E704EA0400000000240027002A004A
:1000800000000000250028002B00000000002300D5
:1000900026002900040404040404040402020202E9
:1000A000020203030303030301020408102040803B
:1000B00001020408102001020408102000000008BA
:1000C000000201000003040700000000000000001F
:1000D000E41111241FBECFEFD8E0DEBFCDBF11E089
:1000E000A0E0B1E0EEEBF4E202C005900D92AA317F
:1000F000B107D9F722E0AAE1B1E001C01D92A9350C
:10010000B207E1F710E0C9E6D0E004C02197FE0194
:100110000E945212C836D107C9F70E94090A0C94EE
:100120005D120C9400003FB7F89480917501909196
:100130007601A0917701B091780126B5A89B05C002
:100140002F3F19F00196A11DB11D3FBFBA2FA92F56
:10015000982F8827820F911DA11DB11DBC01CD01D3
:1001600042E0660F771F881F991F4A95D1F70895BF
:10017000089585ED8093BC008091BC0084FDFCCF88
:1001800010924002089540914B01262F30E0240F39
:10019000311D21323105DCF4209140022430C9F4B4
:1001A000FC0180E090E0861758F430914B012191DA
:1001B000DC01A75DBE4FA30FB11D2C930196F3CFB9
:1001C00080914B01680F60934B0180E0089581E0BE
:1001D000089582E008950895E091440280914302D9
:1001E000E81730F4F0E0E852FE4F808190E0089587
:1001F0008FEF9FEF089590914402809143029817EA
:1002000050F4E92FF0E0E852FE4F208130E09F5F8C
:100210009093440202C02FEF3FEFC90108958091EF
:10022000430290E020914402821B91090895CF92ED
:10023000DF92EF92FF920F931F93CF93DF937C0196
:10024000262F972F8A0180911C02882391F0C62FB8
:10025000D72F6E01C40ED51ECC15DD0571F0699146
:10026000D701ED91FC910190F081E02DC701099536
:10027000F3CF642F822F0E94C300C801DF91CF917A
:100280001F910F91FF90EF90DF90CF900895CF9343
:10029000DF931F92CDB7DEB7698320911C02222322
:1002A000D1F020914102203240F021E030E0FC0109
:1002B0003383228380E090E015C080914202E82FD2
:1002C000F0E0E35EFD4F998190838F5F809342025F
:1002D0008093410205C061E0CE0101960E94C300F7
:1002E00081E090E00F90DF91CF910895089580E034
:1002F00090E00895FF920F931F93CF93DF931F9287
:10030000CDB7DEB78C01F62E0E9430128A3011F084
:10031000843129F461E08A3091F060E010C0F1107E
:1003200002C064E101C06AE0C80169830E94301222
:100330006981681719F0C8010E9438126F2D862F45
:100340000F90DF91CF911F910F91FF90089583300F
:1003500081F028F4813099F08230A1F0089587303F
:10036000A9F08830B9F08430D1F4809180008F7D7D
:1003700003C0809180008F7780938000089584B5BA
:100380008F7702C084B58F7D84BD08958091B000C1
:100390008F7703C08091B0008F7D8093B000089567
:1003A0001F93CF93DF93282F30E0F901E454FF4FE0
:1003B0008491F901E855FF4FD491F901EC56FF4FB4
:1003C000C491CC23C9F0162F81110E94A701EC2FF4
:1003D000F0E0EE0FFF1FE058FF4FA591B4918FB7EB
:1003E000F894111105C09C91ED2FE095E92302C00E
:1003F000EC91ED2BEC938FBFDF91CF911F9108957E
:10040000CF93DF9390E0FC01E855FF4F2491FC016E
:10041000EC56FF4F8491882361F190E0880F991F7B
:10042000FC01EA58FF4FC591D491FC01E058FF4F01
:10043000A591B491611109C09FB7F8948881209566
:1004400082238883EC912E230BC0623061F49FB726
:10045000F8943881822F809583238883EC912E2B0A
:100460002C939FBF06C08FB7F894E8812E2B28836A
:100470008FBFDF91CF9108952FB7F89460917101EC
:100480007091720180917301909174012FBF089552
:10049000CF92DF92EF92FF920F931F93CF938091B1
:1004A00028010E945507C82F0E943C020091240198
:1004B0001091250120912601309127016B017C01CB
:1004C000C01AD10AE20AF30A970186010B3F11050F
:1004D0002105310510F010922301609324017093DF
:1004E00025018093260190932701909123019F5F1E
:1004F000909323019A3050F4923068F4913009F0CF
:1005000040C010922201109221013DC09A30B1F0FA
:100510009B3001F136C0809121018C0F8093210125
:100520002091220130E035952795C11102C080E06D
:1005300001C080E8282B2093220125C09091210141
:1005400091709C1719F0909321011DC08DEF80933D
:10055000210119C0809121018D3F98F4809189017A
:100560008F5F803108F080E090918A01891749F00F
:10057000E82FF0E090912201E758FE4F908380939E
:10058000890110922301CF911F910F91FF90EF905D
:10059000DF90CF9008951F920F920FB60F92112403
:1005A0002F933F938F939F93AF93BF93809171014C
:1005B00090917201A0917301B0917401309170011A
:1005C00023E0230F2D3720F40196A11DB11D05C096
:1005D00026E8230F0296A11DB11D20937001809380
:1005E000710190937201A0937301B0937401809193
:1005F000750190917601A0917701B09178010196F3
:10060000A11DB11D8093750190937601A093770190
:10061000B0937801BF91AF919F918F913F912F91AE
:100620000F900FBE0F901F9018951F920F920FB64C
:100630000F9211242F933F934F935F936F937F9368
:100640008F939F93AF93BF93EF93FF93E09102013A
:10065000F09103010995FF91EF91BF91AF919F91A7
:100660008F917F916F915F914F913F912F910F905B
:100670000FBE0F901F9018951F920F920FB60F92FA
:1006800011242F933F934F935F936F937F938F9397
:100690009F93AF93BF93EF93FF93E0910001F0918D
:1006A00001010995FF91EF91BF91AF919F918F91BA
:1006B0007F916F915F914F913F912F910F900FBE5E
:1006C0000F901F9018951F920F920FB60F92112442
:1006D0002F933F934F935F936F937F938F939F934A
:1006E000AF93BF93EF93FF938091B900887F8036DB
:1006F00009F49CC068F5883209F45BC090F480313D
:1007000009F454C038F4882309F4F6C0883009F499
:100710004DC0F6C0883109F44CC0803209F45DC088
:10072000EFC0803409F468C048F4803309F455C040
:10073000883309F0E5C080931B02D8C0803509F4E6
:100740004FC0883509F45DC0883409F0D9C0D6C0DF
:10075000883909F4C7C0A8F4883709F467C038F4A9
:10076000883609F463C0803709F460C0C9C088388E
:1007700009F4B8C0803909F45FC0803809F0C0C0FE
:100780005BC0803B09F486C038F4803A09F466C047
:10079000883A09F47FC0B4C0803C09F4A7C0883C03
:1007A00009F4A4C0883B09F48AC0AAC08091F8016A
:1007B00010C090911A0280911902981770F5E0917B
:1007C0001A0281E08E0F80931A02F0E0E750FE4F8C
:1007D00080818093BB0085EC86C080931B028EC015
:1007E000E0911A0281E08E0F80931A028091BB0083
:1007F000F0E0E750FE4F808390911A028091190239
:100800006EC0E0911A0281E08E0F80931A028091EF
:10081000BB00F0E0E750FE4F808380913F028111E2
:100820006DC081E080933E0284EA61C083E08093E2
:10083000400210926F01CFCF80916F01803208F09B
:1008400051C0E0916F0181E08E0F80936F01809124
:10085000BB00F0E0E15BFE4F8083BDCF85EC809371
:10086000BC001092400280916F01803230F4E09120
:100870006F01F0E0E15BFE4F108260916F0170E06C
:10088000E0914D01F0914E018FE491E009951092B5
:100890006F0136C084E08093400210924C011092A8
:1008A0004B01E0914901F0914A01099580914B017A
:1008B000811105C081E080934B0110922901E091E4
:1008C0004C0181E08E0F80934C01F0E0E75DFE4F1C
:1008D00080818093BB0090914C0180914B019817CF
:1008E00008F479CF85E88093BC000AC085EC80933A
:1008F000BC001092400204C010921B020E94B9007A
:10090000FF91EF91BF91AF919F918F917F916F91E7
:100910005F914F913F912F910F900FBE0F901F90BD
:10092000189590918A0180918901981749F08091DA
:100930008A0190918901891B87FF03C0805F089518
:1009400080E008950F931F93CF93DF931F92CDB74D
:10095000DEB78C01611102C064E101C06AE0C80128
:1009600069830E9430126981681741F0C8010F90B5
:10097000DF91CF911F910F910C9438120F90DF915E
:10098000CF911F910F910895BF92CF92DF92EF9276
:10099000FF920F931F93CF93DF9390E0FC01B197E9
:1009A000E730F10508F0DDC0EC5CFF4F0C9452120B
:1009B00060931F01D6C060931E01D3C060931D01D8
:1009C000D0C060931C01CDC060931B01CAC060936E
:1009D0001A01C7C0C0901A0100911B0110911C019F
:1009E000F0901D01E0901E01D0901F010E94A00810
:1009F0008091530291E090931C0280933D021092EB
:100A000042021092410282E090E00E94C4078D2DC4
:100A10002BE32D1508F48BE36AE00E944612692F40
:100A200030E1839F600D112485E492E00E9447012C
:100A30008E2D9BE39E1508F48BE36AE00E9446121C
:100A4000692F20E1829F600D112485E492E00E94CD
:100A500047018F2D37E13F1508F487E16AE00E94D6
:100A60004612692F20E1829F600D112485E492E0F7
:100A70000E9447010E94C9070E94A8080E94A0087E
:100A8000CC2DD0E0CC5DD7403C2F3C7FB32EC31B98
:100A9000D1098091530291E090931C0280933D0212
:100AA000109242021092410285E090E00E94C40739
:100AB000112329F0812F103218F08FE101C081E05D
:100AC0006AE00E944612292F30E1839F200D1124F5
:100AD000CE0136E0880F991F3A95E1F7622F682B17
:100AE00085E492E00E944701002329F0802F0D3019
:100AF00018F08CE001C081E06AE00E944612692F84
:100B000020E1829F600D112485E492E00E9447015C
:100B10000E94C9078091530291E090931C02809338
:100B20003D02109242021092410280E190E00E9448
:100B3000C4076B2D85E492E00E944701CE010E941C
:100B4000C4070E94C9070E94A808D092BB01E09286
:100B5000BA01F092B9010093B7011093B801C092A5
:100B6000B601DF91CF911F910F91FF90EF90DF9031
:100B7000CF90BF90089508958EBD00000DB407FE7C
:100B8000FDCF8EB508958CBD9DBD0895CF92DF92A7
:100B9000EF92FF920F931F93CF93DF9310E0D0E07B
:100BA000C12CD12C7601C39420E030E0C0E0E12FCD
:100BB000E20FE932F0F4F0E0E457FE4F8081882341
:100BC00061F0D701C601022E04C0880F991FAA1F29
:100BD000BB1F0A94D2F7C82B0CC0D701C601022E46
:100BE00004C0880F991FAA1FBB1F0A94D2F78095D3
:100BF000C8232F5F3F4F28303105C9F6809151023D
:100C0000909152020E94C30560E087E00E94D001EB
:100C1000DF5F8D2F0E94BC05082F8C2F0E94BC0522
:100C2000C82F61E087E00E94D001002321F06C2FE3
:100C3000802F0E94C404185FD63009F0B5CFDF9131
:100C4000CF911F910F91FF90EF90DF90CF9008957B
:100C50008F929F92AF92BF92CF92DF92EF92FF92CC
:100C600060E08AE00E94D0010E9493004B015C0189
:100C70008AE0C82ED12CE12CF12C0E949300DC01DB
:100C8000CB0188199909AA09BB09883E9340A1059F
:100C9000B10558F021E0C21AD108E108F10888EE48
:100CA000880E83E0981EA11CB11CC114D104E1047C
:100CB000F10419F7ECE8F1E0119281E0E53BF80767
:100CC000D9F70E94C60561E08AE0FF90EF90DF90BF
:100CD000CF90BF90AF909F908F900C94D001CF9306
:100CE000CFB7F89480912001811127C0EEE9F0E0A0
:100CF0008491E2EBF0E09491E82FF0E0EE0FFF1F1B
:100D0000EA58FF4FA591B491EC91E92321F461E0F9
:100D10008AE00E94D00161E08AE00E9400028CB566
:100D200080618CBD8CB580648CBD61E08DE00E94DB
:100D3000000261E08BE00E940002809120018F5F41
:100D400080932001CFBF61E087E00E94000261E054
:100D500087E00E94D00161E086E00E94000261E02D
:100D600086E00E94D00162E082E00E94000262E020
:100D700084E00E94000262E083E00E94000262E0E0
:100D800085E00E94000261E08AE00E94000261E0CA
:100D90008AE00E94D00161E089E00E94000261E0E7
:100DA00089E00E94D00161E088E00E94000261E0D9
:100DB00088E00E94D00162E08FE00E94000261E0C2
:100DC0008EE00E940002ECE8F1E0119281E0E53B48
:100DD000F807D9F760918B0180E090E00E947A01DA
:100DE00080938B016091040181E090E00E947A0180
:100DF0008093040160918B0181E0682789E00E9463
:100E0000D0010E94280684E08093280162E082E0FD
:100E10000E94000262E084E00E94000210928901B8
:100E200010928A0188E492E090930101809300017E
:100E3000809169008C7F826080936900E89A0E94AB
:100E4000BE098093B50160E086E0CF910C94D0019B
:100E5000CF92DF92EF92FF920F931F93CF93DF9386
:100E60006C017A018B01C0E0D0E0CE15DF0589F07E
:100E7000D8016D918D01D601ED91FC910190F08129
:100E8000E02DC6010995892B11F47E0102C021963F
:100E9000ECCFC701DF91CF911F910F91FF90EF90A1
:100EA000DF90CF9008950E945812CF93DF93282FA0
:100EB00030E0F901E454FF4F8491F901E855FF4F08
:100EC000D491F901EC56FF4FC491CC2391F08111DC
:100ED0000E94A701EC2FF0E0EE0FFF1FE657FF4F37
:100EE000A591B491EC91ED2381E090E021F480E0B4
:100EF00002C080E090E0DF91CF910895CF93C82F9A
:100F000061E00E94000260E08C2FCF910C94D00130
:100F1000CF92DF92EF92FF92CF93DF93EC010E948A
:100F20003C026B017C010E943C02AB01BC014C19EC
:100F30005D096E097F09483E53406105710548F41B
:100F4000809154020E9455078C179D0761F781E03C
:100F500001C080E0DF91CF91FF90EF90DF90CF90C4
:100F60000895CF93DF9380E090E00E9488078091FE
:100F700056020E945507EC0181E090E00E9488072C
:100F8000CE01DF91CF910895682F85E492E00C9413
:100F900047012091410290913D02213208F04AC060
:100FA000809140028111FCCF32E03093400231E069
:100FB00030933F023FEF30931B0210921A022093AE
:100FC0001902ADE1B2E049EF51E0FA013E2F341BC6
:100FD000321718F43D913193F9CF1092F801209116
:100FE000F801990F922B9093F80190913E02913065
:100FF00061F410923E029091F8019093BB009091A1
:10100000BC0093FDF8CF95EC01C095EE9093BC0029
:10101000909140029230E1F390911B029F3F79F052
:1010200080911B02803241F080911B02803331F0AD
:1010300084E005C081E003C082E001C083E010923B
:1010400042021092410210921C020895CF93C62FC3
:101050009091530221E020931C0290933D02109244
:10106000420210924102682F85E492E00E944701FB
:101070006C2F85E492E00E944701CF910C94C90740
:101080009091530221E020931C0290933D02109214
:10109000420210924102682F85E492E00E944701CB
:1010A0000E94C90780915302909140029111FCCF98
:1010B00091E09093400290933F022FEF20931B0208
:1010C00010921A02109219029093F8019091F8016F
:1010D000880F892B8093F80180913E02813061F462
:1010E00010923E028091F8018093BB008091BC0079
:1010F00083FDF8CF85EC01C085EE8093BC00809124
:1011000040028130E1F380911A02811103C0809185
:101110001A0201C081E0A9EFB1E028ED31E0F90148
:101120009E2F921B981718F49D919193F9CF1092CE
:1011300044028093430285E492E00E94FB000895FC
:1011400080E00E944008682F606880E00C942608C8
:1011500080E00E944008682F6F7780E00C9426089A
:10116000CF93C82F60E00E94000261E08C2FCF91E6
:101170000C94D0012091560230915702019721F42E
:10118000C9010E94B00803C0C9010E947E0781E026
:1011900090E00E94880780E090E00C948807CF924E
:1011A000DF92EF92FF920F931F93CF93809154029F
:1011B000909155020E94B00880915602909157027A
:1011C0000E94B00883EC90E00197F1F780E090E096
:1011D0000E9488078FE090E00197F1F781E090E0AE
:1011E0000E94880700E010E0C0E0C12CD12C7601FD
:1011F000C3940E94B107892B61F0D701C601002E6C
:1012000004C0880F991FAA1FBB1F0A94D2F7C82BCE
:101210000CC0D701C601002E04C0880F991FAA1F59
:10122000BB1F0A94D2F78095C8230F5F1F4F083069
:101230001105F9F60E94B1070E94B107809154028E
:10124000909155020E947E078C2FCF911F910F9194
:10125000FF90EF90DF90CF900895BF92CF92DF92F2
:10126000EF92FF920F931F93CF93DF93C82E80913D
:101270005602909157020E94B008809154029091BA
:1012800055020E94B008CBEAD4E0CE010197F1F7F5
:1012900080915402909155020E947E072197F1F7A8
:1012A00080915602909157020E947E0783E290E05F
:1012B0000197F1F780915402909155020E94B00875
:1012C00080E090E00E948807B82E882309F43FC090
:1012D000EE24E394F12CC0E0D0E00C2C000CDD08EF
:1012E00086010C2E02C0159507950A94E2F701704D
:1012F0001127C8010E94BA08E026F1262196C830BD
:10130000D10571F7C7010E94BA08809156029091E9
:1013100057020E94B00883EC90E00197F1F780E05B
:1013200090E00E948807809154020E945507892B03
:10133000D1F3809156020E945507892BA1F3809129
:101340005402909155020E947E070E94CF088B2D77
:10135000DF91CF911F910F91FF90EF90DF90CF9091
:10136000BF900895CF93DF93EC0183EF90E00E944C
:101370002D09CE01DF91CF910C942D09CF9380914F
:101380005402909155020E94B008809156029091AB
:1013900057020E94B0088FEF90E00E942D09C82FDD
:1013A0008823A1F10E94CF080E94CF0888EC90E02A
:1013B0000E94B20984E690E00E94B20980E590E0C4
:1013C0000E94B20982EF90E00E942D090E94CF088E
:1013D00091E0833009F090E09093580288EE90E01D
:1013E0000E942D0983E090E00E942D0986EE90E096
:1013F0000E942D0988E290E00E94B20980EF90E0FF
:101400000E942D098BE891E00197F1F78C2FCF9185
:101410000895789484B5826084BD84B5816084BD6C
:1014200085B5826085BD85B5816085BD80916E0082
:10143000816080936E0010928100809181008260B3
:1014400080938100809181008160809381008091F0
:1014500080008160809380008091B10084608093DF
:10146000B1008091B00081608093B00080917A00DB
:10147000846080937A0080917A00826080937A0001
:1014800080917A00816080937A0080917A008068F0
:1014900080937A001092C1000E946F0690E0E92EBE
:1014A00090E0F92EC1E00E943C024B015C010E94D9
:1014B0009104882309F423C50E949104811102C07C
:1014C0008FEF12C0E0918A0180918901E817C1F382
:1014D000EF5FE03108F0E0E0E0938A01F0E0E758E8
:1014E000FE4F8081882361F3082F10E0C093D7015D
:1014F0008092D3019092D401A092D501B092D601EE
:1015000061E086E00E94D001003E110519F4C0930D
:10151000C201F5C4013E110529F4C093C201C09374
:10152000C101EDC4003F110539F48091C001811162
:1015300003C0C093C001E3C48091C201811107C000
:101540008091C101811103C080E090E002C080E081
:1015500091E0800F911F8534910509F479C30CF057
:1015600022C18332910509F40BC30CF091C08E3077
:10157000910509F4EFC30CF04BC08730910509F4D5
:1015800063C41CF58430910509F42EC47CF48130C9
:10159000910509F449C4039709F07EC48091C00104
:1015A0008C2780939E018093B40176C48530910589
:1015B00009F412C4069709F06FC48091C0018C270A
:1015C0008093B3018093B40167C48B30910509F413
:1015D0001BC47CF48930910509F42EC40A9709F0E4
:1015E0005BC48091C0018C278093B2018093B401C9
:1015F00053C48C30910509F4FFC30D9709F04CC416
:101600008091C0018C2780938C018093A10144C4F8
:101610008A31910509F416C3D4F48431910509F493
:101620000BC244F48131910509F419C2429709F4BF
:10163000F2C132C48531910509F4E0C2469709F040
:101640002BC48091C0018C2780938F0125C48D31DC
:10165000910509F4EBC26CF48B31910509F4D4C205
:101660004C9709F019C48091C0018C2780938D019B
:1016700013C48132910509F47DC20CF0DDC24E978E
:1016800009F00AC48091C0018C278093970104C49B
:101690008333910509F48CC20CF043C08B32910561
:1016A00009F47AC2FCF48632910509F4D7C26CF4CD
:1016B0008432910509F46AC2859709F0EDC38091DF
:1016C000C0018C278093A701E7C38932910509F4F3
:1016D0004BC28A9709F0E0C38091C0018C278093A8
:1016E000AC01DAC38E32910509F4BEC26CF48C32BF
:1016F000910509F48FC28D9709F0CEC38091C00186
:101700008C278093A601C8C38133910509F466C272
:10171000C29709F0C1C38091C0018C278093B301A7
:10172000BBC38C33910509F47BC2FCF4863391056D
:1017300009F4A0C26CF48433910509F433C2C5974F
:1017400009F0AAC38091C0018C278093B101A4C382
:101750008A33910509F43CC2CB9709F09DC380916F
:10176000C0018C278093AA0197C38134910509F4A5
:10177000B9C26CF48D33910509F482C2CE9709F099
:101780008BC38091C0018C278093A00185C32091D9
:10179000C0018334910509F411C20CF025C22C2735
:1017A0002093A20179C38537910509F48FC20CF00B
:1017B00095C08935910509F42EC10CF048C08D34CF
:1017C000910509F415C2F4F48A34910509F4A2C212
:1017D0004CF48634910509F459C28934910509F411
:1017E00089C25AC38B34910509F4ECC18C3491053C
:1017F00009F052C38091C0018C2780939B01809394
:1018000099014AC38435910509F47CC284F48E346D
:10181000910509F497C28235910509F03DC3809185
:10182000C0018C2780939B018093910135C385353E
:10183000910509F47FC28835910509F02DC3809187
:10184000C0018C2780939B0180938C0125C38B362C
:10185000910509F427C21CF58D35910509F462C282
:1018600084F48A35910509F479C18B35910509F025
:1018700013C38091C0018C2780939B018093A901A1
:101880000BC38636910509F45FC18936910509F0CD
:1018900003C38091C0018C2780938F01FDC28137E3
:1018A000910509F427C274F48C36910509F408C235
:1018B0008037910509F0F0C28091C0018C27809398
:1018C0009001EAC22091C0018337910509F4F0C16B
:1018D0000CF0F2C12C2720939701DEC2843101E085
:1018E000900709F4A9C00CF042C08C37910509F4A7
:1018F00039C22CF58937910509F43CC284F4863746
:10190000910509F40EC18837910509F0C5C280918F
:10191000C0018C2780938E0180939B01BDC28A37C2
:10192000910509F4B9C18B37910509F0B5C28091D1
:10193000C0018C2780939B018093AA01ADC283389C
:10194000910509F469C24CF48D37910509F4C4C1BD
:101950008E37910509F480C29FC2813121E0920740
:1019600009F492C08231914009F489C295C280374E
:1019700041E0940709F4B4C00CF5893601E0900702
:1019800009F422C254F48A3421E0920709F4C2C156
:101990008A35914009F4E2C07FC28B3641E094075A
:1019A00009F4AFC08C36914009F076C28091C00135
:1019B0008C278093A2018093B4016EC2843701E02A
:1019C000900709F4A6C08CF4813721E0920709F44E
:1019D00070C08237914009F05FC28091C0018C27AE
:1019E00080938C018093B00157C28A3741E09407FD
:1019F00009F4D9C18D3751E0950709F4C3C1853782
:101A0000914009F049C28091C0018C2780938C01DC
:101A10008093A80141C280910401811103C080E03C
:101A200090E002C08FE090E0FC01E457FE4F20916F
:101A3000C0012C27208330C280910401811103C092
:101A40002FE030E002C020E030E08091C0018C2720
:101A5000F901E457FE4F80838093BF011DC280913E
:101A6000C0018C2780939B0190910401911103C0C8
:101A700020E030E002C026E030E0F901E457FE4FFC
:101A800080838093BE0108C28091C0018C2780931F
:101A90009B0190910401911103C020E030E002C04D
:101AA00027E030E0F901E457FE4F80838093BE01C8
:101AB000F3C1909104018091C001992339F0982FCE
:101AC0009C27909391019093B40106C0982F9C2776
:101AD00090939B019093A4018C278093BD01DCC15E
:101AE000909104018091C0018C27992329F0809363
:101AF00099018093B401D0C180939B0180938D01A3
:101B0000CBC18091C0018C2780938C018093AF0161
:101B1000C3C18091C0018C2780938C018093A00168
:101B2000BBC12091C0012C2720938C01809104011E
:101B3000811103C087E090E002C083E090E0FC01E7
:101B4000E457FE4F2083A8C18091C0018C27809369
:101B50008C01809390018093BC019EC18091C00153
:101B60008C278093920198C18091C0018C2780932B
:101B7000930192C18091C0018C278093A4018CC1F4
:101B80008091C0018C2780939D0186C18091C00106
:101B90008C2780939E0180C18091C0018C27809307
:101BA000A5017AC18091C0018C278093AD0174C1D9
:101BB0008091C0018C278093B2016EC12C272093A5
:101BC000A1016AC18091C0018C2780939A0164C1F0
:101BD0008091C0018C278093A3015EC18091C001D8
:101BE0008C278093AB0158C12C272093990154C1B5
:101BF0008091C0018C27809391014EC18091C001DA
:101C00008C2780938E0148C18091C0018C278093DE
:101C1000950142C18091C0018C278093AE013CC1E7
:101C20008091C0018C278093A90136C18091C001A9
:101C30008C278093960130C18091C0018C278093BE
:101C40009C012AC18091C0018C278093940124C1FA
:101C50008091C0018C27809390011EC18091C001AA
:101C60008C2780939F0118C18091C0018C2780939D
:101C7000AF0112C18091C0018C278093B0010CC1CB
:101C80008091C0018C278093A80106C18091C0017A
:101C90008C278093980100C18091C0018C2780938C
:101CA0009F01FAC08091C0018C278093A701F4C0E6
:101CB0002C272093AF01F0C02C272093B001ECC05B
:101CC0008091C0018C278093A801E6C08091C0015B
:101CD0008C278093A001E0C08091C0018C27809365
:101CE0009801DAC08091C0018C2780939B0180937A
:101CF000AB01D2C08091C0018C2780939B0180935F
:101D0000A301CAC08091C0018C2780939B0180935E
:101D1000B101C2C08091C0018C2780939B01809348
:101D2000AC01BAC08091C0018C2780939B01809345
:101D30009D01B2C08091C0018C2780939B0180934C
:101D40009A01AAC08091C0018C2780939B01809347
:101D5000AA01A2C08091C0018C2780939B0180932F
:101D6000A8019AC08091C0018C2780939B01809329
:101D7000B30192C08091C0018C2780939B01809316
:101D8000A2018AC0909104018091C0018C279923FF
:101D900029F08093A3018093B4017EC080938C01CD
:101DA00080939F0179C0909104018091C0018C279C
:101DB000992329F08093AB018093B4016DC0809387
:101DC0008C018093A70168C08091C0018C2780930B
:101DD0009A018093B40160C08091C0018C278093E8
:101DE0008D018093B40158C08091C0018C278093ED
:101DF000A4018093B40150C08091C0018C278093CE
:101E00009D018093B40148C08091C0018C278093CC
:101E1000A5018093B40140C08091C0018C278093BC
:101E2000AD018093B40138C08091C0018C278093AC
:101E3000A1018093B40130C08091C0018C278093B0
:101E4000AA018093B40128C08091C0018C2780939F
:101E5000960180939B0120C08091C0018823E1F00E
:101E600060918B01D62FDC27D0938B0189E00E94F3
:101E7000D0016D2F80E090E00E94A2040DC08091FF
:101E8000C001882349F0609104016C27609304012C
:101E900081E090E00E94A2048091BF01882381F03C
:101EA0008091BE01882361F08091BD01882341F0BB
:101EB0001092BF011092BE011092BD010E9428062F
:101EC0008091BF01882381F08091BE01882361F059
:101ED0008091BC01882341F01092BF011092BE0195
:101EE0001092BC010E946F061092C0018091C10146
:101EF000882319F01092C10102C01092C2010E9401
:101F0000C6058091D3019091D401A091D501B091E3
:101F1000D601A5019401281B390B4A0B5B0B283C09
:101F200031054105510530F060E086E00E94D001A6
:101F30001092D7018091CF019091D001A091D10151
:101F4000B091D20195018401081B190B2A0B3B0BA0
:101F5000D901C801883E9340A105B10508F438C1F4
:101F600085E00E944008082F10E086E0159507954F
:101F70008A95E1F781E10E944008C82E80E10E9425
:101F80004008D82FC01659F00C1528F4DC5F6D2FCF
:101F900080E10E942608602F81E10E9426082D2FF3
:101FA00030E02452384F020F131F0093BB0186E02C
:101FB0000E944008982F9695969596959270292F95
:101FC000220F220F920F8F70890F8093BA0185E044
:101FD0000E944008982F9695969596959670292F71
:101FE000220F220F920F8F70890F8093B90184E026
:101FF0000E944008982F9695969596959670292F51
:10200000220F220F920F8F70890F8093B80183E007
:102010000E944008982F9695969596959E70292F28
:10202000220F220F920F8F70890F8093B70182E0E9
:102030000E944008982F9695969596959E70292F08
:10204000220F220F920F8F70890F8093B60180921A
:10205000CF019092D001A092D101B092D201809193
:102060005102909152020E94C30560E087E00E94F5
:10207000D00181E10E94BC05D82F802F0E94BC05B1
:10208000182F61E087E00E94D0010E94BB05DD238C
:1020900021F0612F8D2F0E94C404809151029091F4
:1020A00052020E94C30560E087E00E94D00182E1F5
:1020B0000E94BC05D82F8091BA010E94BC05182F40
:1020C00061E087E00E94D0010E94BB05DD2321F082
:1020D000612F8D2F0E94C404809151029091520271
:1020E0000E94C30560E087E00E94D00183E10E9466
:1020F000BC05D82F8091B9010E94BC05182F61E062
:1021000087E00E94D0010E94BB05DD2321F0612FF2
:102110008D2F0E94C40480915102909152020E941E
:10212000C30560E087E00E94D00184E10E94BC0505
:10213000D82F8091B8010E94BC05182F61E087E07C
:102140000E94D0010E94BB05DD2321F0612F8D2F5D
:102150000E94C40480915102909152020E94C305D2
:1021600060E087E00E94D00185E10E94BC05D82F85
:102170008091B7010E94BC05182F61E087E00E94A2
:10218000D0010E94BB05DD2321F0612F8D2F0E941D
:10219000C40480915102909152020E94C30560E0F4
:1021A00087E00E94D00186E10E94BC05D82F809173
:1021B000B6010E94BC05182F61E087E00E94D001A3
:1021C0000E94BB05DD2321F0612F8D2F0E94C404E6
:1021D00080910501909106011816190654F5209179
:1021E000B501211126C04091CB015091CC016091E5
:1021F000CD017091CE0195018401041B150B260BB6
:10220000370BB901A801493E53406105710588F0BB
:10221000019790930601809305010E94BE09809367
:10222000B5018092CB019092CC01A092CD01B092E9
:10223000CE018091B501882309F4BFC08091C70108
:102240009091C801A091C901B091CA01A501940162
:10225000281B390B4A0B5B0B25363105410551050F
:1022600008F4ABC08BEE90E00E942D090E94CF08CD
:10227000082F0E94CF08182F0E94CF08D82F8091D6
:102280005802882331F00E94CF08282F880F330B83
:1022900002C020E030E04091C6014C274093C601C7
:1022A0001093C501D093C401902F9270502F547099
:1022B00000FF02C0206101C02F7E2093C3018091E6
:1022C000C301992311F0806201C08F7D8093C30107
:1022D0009091C301552311F0906401C09F7B9093AE
:1022E000C3019091C301442311F0906801C09F770E
:1022F0009093C30180915102909152020E94C305B4
:1023000060E087E00E94D0018AE00E94BC05082FAF
:10231000812F0E94BC05182F61E087E00E94D00148
:102320000E94BB05002321F0612F802F0E94C4046E
:1023300080915102909152020E94C30560E087E0B3
:102340000E94D0018BE00E94BC05182F8D2F0E94A7
:10235000BC05D82F61E087E00E94D0010E94BB0538
:10236000112321F06D2F812F0E94C404809151020E
:10237000909152020E94C30560E087E00E94D00164
:102380008CE00E94BC05D82F8091C3010E94BC053F
:10239000182F61E087E00E94D0010E94BB05DD2379
:1023A00021F0612F8D2F0E94C4048092C70190926A
:1023B000C801A092C901B092CA01E114F10409F464
:1023C00072C80E9400006EC8CF93DF93E5E4F2E08C
:1023D0001382128288EE93E0A0E0B0E084839583BC
:1023E000A683B7838BE091E091838083E4E5F2E0FC
:1023F00083E090E09183808385E090E09383828303
:102400001482D0E5D09353021092440210924302FA
:10241000109242021092410210924002C1E0C09319
:102420003F0210923E0261E082E10E94D00161E031
:1024300083E10E94D001E9EBF0E080818E7F808310
:1024400080818D7F808388E48093B80085E48093C9
:10245000BC00E1E5F2E0D083C183DF91CF91089524
:10246000F999FECF92BD81BDF89A992780B508955C
:10247000262FF999FECF1FBA92BD81BD20BD0FB6A0
:10248000F894FA9AF99A0FBE01960895991B79E08B
:1024900004C0991F961708F0961B881F7A95C9F7F4
:1024A00080950895EE0FFF1F0590F491E02D09949B
:0E24B00081E090E0F8940C945D12F894FFCF58
:1024BE00B800B800010200000000004701170177C4
:0A24CE0001EB000F01FB00EC000021
:107800000C94343C0C94513C0C94513C0C94513CE1
:107810000C94513C0C94513C0C94513C0C94513CB4
:107820000C94513C0C94513C0C94513C0C94513CA4
:107830000C94513C0C94513C0C94513C0C94513C94
:107840000C94513C0C94513C0C94513C0C94513C84
:107850000C94513C0C94513C0C94513C0C94513C74
:107860000C94513C0C94513C11241FBECFEFD8E036
:10787000DEBFCDBF11E0A0E0B1E0ECE9FFE702C060
:1078800005900D92A230B107D9F712E0A2E0B1E065
:1078900001C01D92AD30B107E1F70E942D3D0C945F
:1078A000CC3F0C94003C982F959595959595959582
:1078B000905D8F708A307CF0282F295A8091C0000B
:1078C00085FFFCCF9093C6008091C00085FFFCCF60
:1078D0002093C6000895282F205DF0CF982F809127
:1078E000C00085FFFCCF9093C6000895EF92FF92F1
:1078F0000F931F93EE24FF2487018091C00087FD22
:1079000017C00894E11CF11C011D111D81E4E8164B
:1079100082E4F8068FE0080780E0180770F3E09132
:107920000401F091050109958091C00087FFE9CF1E
:107930008091C6001F910F91FF90EF9008950E94D3
:10794000763C982F8091C00085FFFCCF9093C600B5
:1079500091362CF490330CF09053892F089597555D
:10796000892F08951F930E949F3C182F0E949F3CCF
:107970001295107F810F1F9108951F93182F882350
:1079800021F00E94763C1150E1F71F9108951F935A
:10799000182F0E94763C803249F0809103018F5F5E
:1079A000809303018530C1F01F9108958091C0003C
:1079B00085FFFCCF84E18093C6008091C00085FFE5
:1079C000FCCF1093C6008091C00085FFFCCF80E102
:1079D0008093C6001F910895E0910401F091050184
:1079E00009951F9108950E94763C803241F0809164
:1079F00003018F5F80930301853081F008958091AA
:107A0000C00085FFFCCF84E18093C6008091C00058
:107A100085FFFCCF80E18093C6000895E0910401CA
:107A2000F09105010995089540E951E08823A1F0FE
:107A30002D9A28EE33E0FA013197F1F721503040CA
:107A4000D1F72D9828EE33E0FA013197F1F7215064
:107A50003040D1F7815061F708953F924F925F9285
:107A60006F927F928F929F92AF92BF92CF92DF924E
:107A7000EF92FF920F931F93CF93DF93000080E16B
:107A80008093C4001092C50088E18093C10086E015
:107A90008093C2005098589A259A81E00E94143D24
:107AA00024E1F22E9EE1E92E85E9D82E0FE0C02ECA
:107AB00010E1B12EAA24A394B1E49B2EA6E58A2E50
:107AC000F2E57F2EE0E26E2E79E4572E63E5462E36
:107AD00050E5352E0E94763C8033B1F18133B9F107
:107AE000803409F46FC0813409F476C0823409F41B
:107AF00085C0853409F488C0803531F1823521F1A3
:107B0000813511F1853509F485C0863509F48DC0BC
:107B1000843609F496C0843709F403C1853709F423
:107B200072C1863709F466C0809103018F5F80932C
:107B30000301853079F6E0910401F0910501099582
:107B40000E94763C803351F60E94F33CC3CF0E94E2
:107B5000763C803249F78091C00085FFFCCFF092DF
:107B6000C6008091C00085FFFCCF9092C600809136
:107B7000C00085FFFCCF8092C6008091C00085FFC9
:107B8000FCCF7092C6008091C00085FFFCCF609250
:107B9000C6008091C00085FFFCCF5092C600809146
:107BA000C00085FFFCCF4092C6008091C00085FFD9
:107BB000FCCF3092C6008091C00085FFFCCFB09210
:107BC000C60088CF0E94763C863808F4BDCF0E945C
:107BD000763C0E94F33C7ECF0E94763C803809F4CC
:107BE0009CC0813809F40BC1823809F43CC1883942
:107BF00009F48FC080E00E94C73C6CCF84E10E94F2
:107C0000BD3C0E94F33C66CF85E00E94BD3C0E94D3
:107C1000F33C60CF0E94763C809306010E94763C44
:107C2000809307010E94F33C55CF0E94763C80333D
:107C300009F41DC183E00E94BD3C80E00E94C73C66
:107C400049CF0E94763C809309020E94763C809343
:107C5000080280910C028E7F80930C020E94763C79
:107C6000853409F415C18091080290910902892B8D
:107C700089F000E010E00E94763CF801E85FFE4FDA
:107C800080830F5F1F4F80910802909109020817AF
:107C9000190788F30E94763C803209F045CF809125
:107CA0000C0280FF01C16091060170910701660F0F
:107CB000771F7093070160930601A0910802B091AD
:107CC00009021097C9F0E8E0F1E09B01AD014E0F09
:107CD0005F1FF999FECF32BD21BD819180BDFA9A17
:107CE000F99A2F5F3F4FE417F50799F76A0F7B1F4B
:107CF00070930701609306018091C00085FFFCCF5F
:107D0000F092C6008091C00085FFFCCFB092C60003
:107D1000E1CE83E00E94C73CDDCE82E00E94C73CFA
:107D2000D9CE0E94763C809309020E94763C8093D3
:107D300008028091060190910701880F991F909386
:107D40000701809306010E94763C853409F4A6C0A1
:107D500080910C028E7F80930C020E94763C8032D0
:107D600009F0B8CE8091C00085FFFCCFF092C6002C
:107D7000609108027091090261157105B9F140E046
:107D800050E080910C02A82FA170B82FB27011C0E2
:107D9000BB2309F45CC0E0910601F0910701319624
:107DA000F0930701E09306014F5F5F4F46175707B7
:107DB000E8F4AA2369F3F999FECF209106013091E6
:107DC000070132BD21BDF89A90B58091C00085FFB2
:107DD000FCCF9093C6002F5F3F4F30930701209355
:107DE00006014F5F5F4F4617570718F38091C00099
:107DF00085FDE5CE8091C00085FFF8CFE0CE81E023
:107E00000E94C73C67CE0E94763C803209F08CCE3F
:107E10008091C00085FFFCCFF092C6008091C00029
:107E200085FFFCCFE092C6008091C00085FFFCCFAB
:107E3000D092C6008091C00085FFFCCFC092C600E2
:107E40008091C00085FFFCCFB092C60043CEE09188
:107E50000601F091070194918091C00085FFFCCF4D
:107E60009093C6009CCF80E10E94C73C33CE0E9415
:107E7000763C0E94763C182F0E94763C112309F430
:107E800083C0113009F484C08FE00E94C73C22CE29
:107E900080910C02816080930C02E5CE80910C02EF
:107EA000816080930C0259CF809107018823880F4D
:107EB000880B8A2180930B02809106019091070123
:107EC000880F991F90930701809306018091080203
:107ED00080FF09C080910802909109020196909359
:107EE000090280930802F894F999FECF1127E091D6
:107EF0000601F0910701C8E0D1E08091080290915D
:107F00000902103091F40091570001700130D9F34B
:107F100003E000935700E89500915700017001308D
:107F2000D9F301E100935700E89509901990009169
:107F3000570001700130D9F301E000935700E89534
:107F40001395103498F011270091570001700130FB
:107F5000D9F305E000935700E895009157000170B0
:107F60000130D9F301E100935700E895329602976A
:107F700009F0C7CF103011F00296E5CF112480919F
:107F8000C00085FFB9CEBCCE8EE10E94C73CA2CD19
:0C7F900085E90E94C73C9ECDF894FFCF0D
:027F9C00800063
:040000030000780081
:00000001FF
