:1000000058C067C33FC37AC079C078C077C0F0C218
:1000100075C074C073C072C071C070C06FC06EC054
:100020006DC000003A0037003400310026000000A7
:100030003B00380035003200270000003900360050
:100040003300300025000202020202020202040410
:10005000040404040404030303030303030301016E
:1000600001010101010105050501020408102040FC
:100070008001020408102040800102040810204082
:1000800080010204081020408001020401000000E9
:10009000000000000000000000040000000000005C
:1000A000000000000000000000000000000005004B
:1000B0001C0A11241FBECFE5D2E0DEBFCDBF10E089
:1000C000A0E6B0E0E0E6F4E102C005900D92A636AD
:1000D000B107D9F720E0A6E6B0E001C01D92AB3D24
:1000E000B207E1F710E0C9E5D0E003C02197FE01B7
:1000F000AFD9C835D107D1F713D3B0C981CF843078
:1001000041F0853049F0813059F483B78F7D83BF4A
:1001100007C08FB58F7702C08FB58F7D8FBD0895D3
:100120000895CF93DF93282F30E0F901E457FF4F74
:100130008491F901E759FF4FD491F901EA5BFF4F30
:10014000C491CC2389F08111DADFEC2FF0E0EE0FBF
:10015000FF1FE65CFF4FA591B491EC91ED2381E088
:1001600090E021F480E002C080E090E0DF91CF9148
:1001700008951F93CF93DF93282F30E0F901E457C0
:10018000FF4F8491F901E759FF4FD491F901EA5BE0
:10019000FF4FC491CC23C1F0162F8111B0DFEC2F9B
:1001A000F0E0EE0FFF1FE25DFF4FA591B4918FB716
:1001B000F894111105C09C91ED2FE095E92302C040
:1001C000EC91ED2BEC938FBFDF91CF911F910895B0
:1001D000CF93DF9390E0FC01E759FF4F2491FC019E
:1001E000EA5BFF4F8491882361F190E0880F991FAB
:1001F000FC01EE5DFF4FC591D491FC01E25DFF4F24
:10020000A591B491611109C09FB7F8948881209598
:1002100082238883EC912E230BC0623061F49FB758
:10022000F8943881822F809583238883EC912E2B3C
:100230002C939FBF06C08FB7F894E8812E2B28839C
:100240008FBFDF91CF910895CF93C82F61E0C0DFBA
:1002500060E08C2FCF918DCFCF93C82F60E0B8DFB7
:1002600061E08C2FCF9185CF2FB7F8946091720009
:100270007091730080917400909175002FBF089564
:10028000CF92DF92EF92FF92CF93DF93EC01ECDFFE
:100290006B017C01E9DFAB01BC014C195D096E0902
:1002A0007F09483E53406105710540F48091D600B6
:1002B00038DF8C179D0771F781E001C080E0DF9186
:1002C000CF91FF90EF90DF90CF900895CF93DF9381
:1002D00080E090E0D5DF8091D80023DFEC0181E061
:1002E00090E0CEDFCE01DF91CF910895CF92DF92E3
:1002F000EF92FF920F931F93CF938091D60090912E
:10030000D700AADF8091D8009091D900A5DF82ECB8
:1003100090E00197F1F780E090E0B2DF8EE090E0AE
:100320000197F1F781E090E0ABDF00E010E0C0E082
:10033000C12CD12C7601C394C9DF892B61F0D70180
:10034000C601002E04C0880F991FAA1FBB1F0A9464
:10035000D2F7C82B0CC0D701C601002E04C0880FED
:10036000991FAA1FBB1F0A94D2F78095C8230F5F5D
:100370001F4F0830110501F7A9DFA8DF8091D600D3
:100380009091D70061DF8C2FCF911F910F91FF903B
:10039000EF90DF90CF9008952091D8003091D90050
:1003A000019719F4C90158DF02C0C9014DDF81E08E
:1003B00090E066DF80E090E063CFBF92CF92DF9263
:1003C000EF92FF920F931F93CF93DF93C82E8091EC
:1003D000D8009091D90040DF8091D6009091D7004D
:1003E0003BDFCAEAD4E0CE010197F1F78091D60055
:1003F0009091D70029DF2197F1F78091D800909153
:10040000D90022DF82E290E00197F1F78091D600D7
:100410009091D70021DF80E090E032DFB82E882372
:10042000B9F1EE24E394F12CC0E0D0E00C2C000CE8
:10043000DD0886010C2E02C0159507950A94E2F797
:1004400001701127C801A8DFE026F1262196C830E7
:10045000D10579F7C701A0DF8091D8009091D9002C
:10046000FBDE82EC90E00197F1F780E090E008DF9E
:100470008091D60056DE892BD9F38091D80051DEC9
:10048000892BB1F38091D6009091D700DDDE2EDF6D
:100490008B2DDF91CF911F910F91FF90EF90DF9007
:1004A000CF90BF900895CF93DF93EC0183EF90E05E
:1004B00084DFCE01DF91CF9180CFCF92DF92EF9298
:1004C000FF920F931F93CF93809176002ADEC82F5F
:1004D000CBDE0091690010916A0020916B00309191
:1004E0006C006B017C01C01AD10AE20AF30A970181
:1004F00086010B3F11052105310510F010926800AF
:100500006093690070936A0080936B0090936C0015
:10051000909168009F5F909368009A3050F49230F9
:1005200068F4913009F040C01092670010926600A4
:100530003DC09A30B1F09B3001F136C08091660029
:100540008C0F809366002091670030E035952795E9
:10055000C11102C080E001C080E8282B2093670011
:1005600025C09091660091709C1719F090936600D9
:100570001DC08DEF8093660019C0809166008D3F8D
:1005800098F4809187008F5F803108F080E090912F
:100590008800891749F0E82FF0E090916700E9584A
:1005A000FF4F90838093870010926800CF911F9136
:1005B0000F91FF90EF90DF90CF9008950895909164
:1005C000880080918700981749F080918800909169
:1005D0008700891B87FF03C0805F089580E008952E
:1005E000CF93C82F61E0F4DD60E08C2FCF91C1CDB7
:1005F0001F920F920FB60F9211242F933F938F9358
:100600009F93AF93BF938091720090917300A091DC
:100610007400B09175003091710023E0230F2D37E5
:1006200020F40196A11DB11D05C026E8230F0296F6
:10063000A11DB11D209371008093720090937300EF
:10064000A0937400B093750080916D0090916E003E
:10065000A0916F00B09170000196A11DB11D809313
:100660006D0090936E00A0936F00B0937000BF91E7
:10067000AF919F918F913F912F910F900FBE0F904F
:100680001F9018951F920F920FB60F9211242F935F
:100690003F934F935F936F937F938F939F93AF930A
:1006A000BF93EF93FF93E0916200F091630009958F
:1006B000FF91EF91BF91AF919F918F917F916F913A
:1006C0005F914F913F912F910F900FBE0F901F9010
:1006D00018951F920F920FB60F9211242F933F93EC
:1006E0004F935F936F937F938F939F93AF93BF933A
:1006F000EF93FF93E0916000F09161000995FF9105
:10070000EF91BF91AF919F918F917F916F915F9189
:100710004F913F912F910F900FBE0F901F90189502
:10072000789483B7826083BF83B7816083BF83B7C8
:10073000806483BF83B7886083BF89B7826089BFC5
:100740001EBC8EB582608EBD8EB581608EBD8FB5AC
:1007500081608FBD1AB860E087E13ADD62E08BE02E
:1007600037DD62E086E134DD62E085E131DD62E0C3
:1007700084E12EDD61E08CE02BDD61E084E028DDAA
:1007800061E08DE025DD60E08CE0F3DC60E084E09A
:10079000F0DC60E08DE0EDDC61E080E019DD61E03F
:1007A00080E0E7DC61E082E013DD61E082E0E1DC33
:1007B00061E081E00DDD61E081E0DBDCE0E9F0E0BB
:1007C000119220E0E13DF207D9F786E180937600AF
:1007D00062E08BE0FDDC62E086E1FADC10928700EB
:1007E000109288008DE592E0909363008093620000
:1007F00085B7837F886085BF8BB780688BBF80910A
:10080000D6009091D70028DD8091D8009091D90032
:1008100023DD8FEF90E0D1DDC82F882341F166DD25
:1008200065DD88EC90E03FDE84E690E03CDE80E52C
:1008300090E039DE82EF90E0C0DD58DD91E083305A
:1008400009F090E09093DA0088EE90E0B6DD83E066
:1008500090E0B3DD86EE90E0B0DD88E290E023DE4C
:1008600080EF90E0AADD8AE891E00197F1F7C0936C
:10087000D50000E010E0C1E0A2DE882309F4EFC457
:100880009EDE811102C08FEF12C0E091880080913E
:100890008700E817C1F3EF5FE03108F0E0E0E09394
:1008A0008800F0E0E958FF4F8081882361F3282F0A
:1008B00030E0203E310519F4C0938F00D0C4213EB2
:1008C000310529F4C0938F00C0938E00C8C4203F27
:1008D000310539F480918D00811103C0C0938D00E2
:1008E000BEC480918F00811107C080918E0081115C
:1008F00003C080E090E002C080E091E0820F931F8F
:100900008534910509F477C30CF022C18332910537
:1009100009F409C30CF091C08E30910509F4EDC3C0
:100920000CF04BC08730910509F461C41CF584308C
:10093000910509F42CC47CF48130910509F447C475
:10094000039709F072C480918D008C278093A200D8
:100950008093B8006AC48530910509F410C40697E5
:1009600009F063C480918D008C278093B700809339
:10097000B8005BC48B30910509F419C47CF489304C
:10098000910509F42CC40A9709F04FC480918D0099
:100990008C278093B6008093B80047C48C309105B3
:1009A00009F4FDC30D9709F040C480918D008C2798
:1009B000809390008093A50038C48A31910509F492
:1009C00014C3D4F48431910509F40BC244F4813189
:1009D000910509F419C2429709F4F2C126C4853180
:1009E000910509F4DEC2469709F01FC480918D007D
:1009F0008C278093930019C48D31910509F4E9C2C5
:100A00006CF48B31910509F4D2C24C9709F00DC4F6
:100A100080918D008C278093910007C481329105CD
:100A200009F47BC20CF0DBC24E9709F0FEC3809143
:100A30008D008C2780939B00F8C38333910509F4C4
:100A40008AC20CF043C08B32910509F478C2FCF4E1
:100A50008632910509F4D5C26CF48432910509F40B
:100A600068C2859709F0E1C380918D008C2780933F
:100A7000AB00DBC38932910509F449C28A9709F0BA
:100A8000D4C380918D008C278093B000CEC38E326A
:100A9000910509F4BCC26CF48C32910509F48DC245
:100AA0008D9709F0C2C380918D008C278093AA0096
:100AB000BCC38133910509F464C2C29709F0B5C380
:100AC00080918D008C278093B700AFC38C33910544
:100AD00009F479C2FCF48633910509F49EC26CF4E2
:100AE0008433910509F431C2C59709F09EC3809102
:100AF0008D008C278093B50098C38A33910509F443
:100B00003AC2CB9709F091C380918D008C278093D6
:100B1000AE008BC38134910509F4B7C26CF48D33F8
:100B2000910509F480C2CE9709F07FC380918D00B2
:100B30008C278093A40079C320918D008334910584
:100B400009F40FC20CF023C22C272093A6006DC31A
:100B50008537910509F48DC20CF095C08935910552
:100B600009F42EC10CF048C08D34910509F413C26C
:100B7000F4F48A34910509F4A0C24CF4863491054A
:100B800009F457C28934910509F487C24EC38B34E6
:100B9000910509F4EAC18C34910509F046C38091AE
:100BA0008D008C2780939F0080939D003EC38435E9
:100BB000910509F47AC284F48E34910509F495C242
:100BC0008235910509F031C380918D008C27809387
:100BD0009F008093950029C38535910509F47DC256
:100BE0008835910509F021C380918D008C27809371
:100BF0009F008093900019C38B36910509F425C29C
:100C00001CF58D35910509F460C284F48A3591058F
:100C100009F477C18B35910509F007C380918D00E8
:100C20008C2780939F008093AD00FFC2863691058C
:100C300009F45FC18936910509F0F7C280918D00F2
:100C40008C2780939300F1C28137910509F425C266
:100C500074F48C36910509F406C28037910509F0C9
:100C6000E4C280918D008C2780939400DEC2209195
:100C70008D008337910509F4EEC10CF0F0C12C27EB
:100C800020939B00D2C2843131E0930709F4A9C0BC
:100C90000CF042C08C37910509F437C22CF5893726
:100CA000910509F43AC284F48637910509F40EC11E
:100CB0008837910509F0B9C280918D008C27809307
:100CC000920080939F00B1C28A37910509F4B7C1A1
:100CD0008B37910509F0A9C280918D008C278093F4
:100CE0009F008093AE00A1C28338910509F467C2CA
:100CF0004CF48D37910509F4C2C18E37910509F482
:100D00007EC293C2813151E0950709F492C08231CD
:100D1000914009F481C289C28037F1E09F0709F44C
:100D2000B4C00CF5893631E0930709F420C254F4BD
:100D30008A3451E0950709F4C0C18A35914009F41D
:100D4000E0C073C28B36F1E09F0709F4AFC08C3668
:100D5000914009F06AC280918D008C278093A60093
:100D60008093B80062C2843731E0930709F4A6C0CB
:100D70008CF4813751E0950709F470C082379140B7
:100D800009F053C280918D008C278093900080934E
:100D9000B4004BC28A37F1E09F0709F4D7C18D3701
:100DA00021E0920709F4C1C18537914009F03DC2A5
:100DB00080918D008C27809390008093AC0035C289
:100DC00080916400811103C080E090E002C08FE058
:100DD00090E0FC01E057FF4F20918D002C272083ED
:100DE00024C280916400811103C02FE030E002C072
:100DF00020E030E080918D008C27F901E057FF4F13
:100E0000808380938C0011C280918D008C27809309
:100E10009F0090916400911103C020E030E002C077
:100E200026E030E0F901E057FF4F808380938B008C
:100E3000FCC180918D008C2780939F00909164006D
:100E4000911103C020E030E002C027E030E0F9015A
:100E5000E057FF4F808380938B00E7C1909164003F
:100E600080918D00992339F0982F9C2790939500BD
:100E70009093B80006C0982F9C2790939F00909362
:100E8000A8008C2780938A00D0C190916400809143
:100E90008D008C27992329F080939D008093B800C2
:100EA000C4C180939F0080939100BFC180918D0049
:100EB0008C27809390008093B300B7C180918D0000
:100EC0008C27809390008093A400AFC120918D0067
:100ED0002C272093900080916400811103C087E04B
:100EE00090E002C083E090E0FC01E057FF4F2083D8
:100EF0009CC180918D008C278093900080939400FA
:100F000094C180918D008C27809396008EC1809132
:100F10008D008C278093970088C180918D008C274D
:100F20008093A80082C180918D008C278093A100BE
:100F30007CC180918D008C278093A20076C1809126
:100F40008D008C278093A90070C180918D008C2723
:100F50008093B1006AC180918D008C278093B60088
:100F600064C12C272093A50060C180918D008C273F
:100F700080939E005AC180918D008C278093A7009A
:100F800054C180918D008C278093AF004EC12C27D7
:100F900020939D004AC180918D008C2780939500FD
:100FA00044C180918D008C27809392003EC1809136
:100FB0008D008C278093990038C180918D008C27FB
:100FC0008093B20032C180918D008C278093AD0058
:100FD0002CC180918D008C2780939A0026C180912E
:100FE0008D008C278093A00020C180918D008C27DC
:100FF000809398001AC180918D008C278093940073
:1010000014C180918D008C278093A3000EC1809124
:101010008D008C278093B30008C180918D008C27B0
:101020008093B40002C180918D008C278093AC0026
:10103000FCC080918D008C2780939C00F6C080912D
:101040008D008C278093A300F0C080918D008C27A9
:101050008093AB00EAC02C272093B300E6C02C2776
:101060002093B400E2C080918D008C278093AC0067
:10107000DCC080918D008C278093A400D6C0809125
:101080008D008C2780939C00D0C080918D008C2790
:1010900080939F008093AF00C8C080918D008C2703
:1010A00080939F008093A700C0C080918D008C2703
:1010B00080939F008093B500B8C080918D008C27ED
:1010C00080939F008093B000B0C080918D008C27EA
:1010D00080939F008093A100A8C080918D008C27F1
:1010E00080939F0080939E00A0C080918D008C27EC
:1010F00080939F008093AE0098C080918D008C27D4
:1011000080939F008093AC0090C080918D008C27CD
:1011100080939F008093B70088C080918D008C27BA
:1011200080939F008093A60080C09091640080917E
:101130008D008C27992329F08093A7008093B80015
:1011400074C0809390008093A3006FC0909164005E
:1011500080918D008C27992329F08093AF00809394
:10116000B80063C0809390008093AB005EC0809114
:101170008D008C2780939E008093B80056C080918C
:101180008D008C27809391008093B8004EC0809191
:101190008D008C278093A8008093B80046C0809172
:1011A0008D008C278093A1008093B8003EC0809171
:1011B0008D008C278093A9008093B80036C0809161
:1011C0008D008C278093B1008093B8002EC0809151
:1011D0008D008C278093A5008093B80026C0809155
:1011E0008D008C278093AE008093B8001EC0809144
:1011F0008D008C2780939A0080939F0016C0809169
:101200008D00882391F060918900862F8C27809330
:10121000890082E0AED709C080918D00882329F033
:10122000809164008C278093640060918C00662319
:1012300041F080918B00882329F060918A006C270F
:1012400001C061E080E095D710928D0080918E0002
:10125000882319F010928E0002C010928F0004D8DB
:101260002B013C018091D500882309F4B2C0809104
:10127000D1009091D200A091D300B091D400A301ED
:101280009201281B390B4A0B5B0B253631054105B2
:1012900051050CF49EC08BEE90E08FD827D8E82E35
:1012A00025D8F82EA82E880FBB0820D8D82FC82EF6
:1012B000880FDD088091DA00882329F017D8282FBD
:1012C000880F330B02C020E030E08F2D81708093B7
:1012D000B900F1FA882780F98093BA00F2FA8827DA
:1012E00080F98093BB00F3FA882780F98093BC00D3
:1012F000F4FA882780F98093BD00F5FA882780F9F1
:101300008093BE00F6FAFF24F0F8F092BF00C5010A
:10131000880F892F881F990B919581708093C00049
:101320008D2F81708093C100D1FB882780F9809335
:10133000C200D2FB882780F98093C300D3FB8827A3
:1013400080F98093C400D4FB882780F98093C5007E
:10135000D5FB882780F98093C600D6FBDD27D0F91E
:10136000D093C700C601880F892F881F990B9195CC
:1013700081708093C8008E2D81708093C900E1FA3E
:10138000882780F98093CA00E2FAEE24E0F8E09220
:10139000CB00822F81708093CC0021FB882780F9BD
:1013A0008093CD0022FB882780F98093CE0023FB19
:1013B000222720F92093CF008091D0008C278093A2
:1013C000D0004092D1005092D2006092D30070922F
:1013D000D40060E084E0FCD661E084E0CAD684E01A
:1013E00090E0FED880E9E82E80E0F82EF7018191A8
:1013F0007F01813039F460E08DE0EAD661E08DE074
:10140000B8D603C08DE090E0EBD860E08CE0E0D689
:1014100061E08CE0AED68CE090E0E2D8F1EDEF1622
:10142000F0E0FF0619F78DE090E0DAD8011511051C
:1014300009F422CAE5D51FCAE6EDF0E085E190E0A7
:101440009183808384E190E0938382831482089562
:10145000EE0FFF1F0590F491E02D0994F894FFCF53
:06146000DE02DE020100C5
:00000001FF
