:100000000C94FF000C9471060C944A060C94270182
:100010000C9427010C9427010C9427010C942701C0
:100020000C9427010C9427010C9427010C942701B0
:100030000C9427010C9427010C9427010C942701A0
:100040000C9400060C9427010C9470040C944A0440
:100050000C9427010C9427010C9427010C94270180
:100060000C9498060C94270129002028003A003AA5
:100070000020002D002D0000000000250028002B8E
:1000800000000000002300260029000000000800F6
:10009000020100000304070000000000000000004F
:1000A000000000240027002A00010204081020405C
:1000B0008001020408102001020408102004040436
:1000C0000404040404020202020202030303030301
:1000D000034275696C74696E20636F6D6D616E6447
:1000E000733A2048454C502C205345542C2047450A
:1000F00054005A58204B6579626F617264202F203A
:100100006D6F75736520636F6E74726F6C6C657262
:100110002076312E3100496E76616C696420666FFD
:10012000726D617420676976656E2E20506C656112
:100130007365207573652074686520636F6D6D61EC
:100140006E6420746F20736574206461746520741C
:10015000696D653A205345542059595959204D4DE0
:1001600020444420484820494920535320570053F5
:1001700065742074696D65204F4B0043757272651C
:100180006E742074696D652069733A004745543A6E
:10019000005345542059595959204D4D204444206D
:1001A00048482049492053532057202D2077696C17
:1001B0006C207365742052544320746F20746865FA
:1001C00020676976656E20617267756D656E747300
:1001D00000474554202D2077696C6C207072696E41
:1001E0007420612063757272656E74206461746539
:1001F0002F74696D650048454C503A00C5181124AC
:100200001FBECFEFD8E0DEBFCDBF23E0A2E4B1E058
:1002100001C01D92A03AB207E1F711E0A0E0B1E001
:10022000E0E9F8E302C005900D92A234B107D9F7D6
:1002300010E0CFEFD0E004C02197FE010E94021A27
:10024000CE3FD107C9F70E94E30D0C94461C0C94D5
:100250000000CF92DF92EF92FF920F931F93CF9304
:10026000DF936C017A018B01C0E0D0E0CE15DF0591
:1002700089F0D8016D918D01D601ED91FC9101902D
:10028000F081E02DC6010995892B11F47E0102C091
:100290002196ECCFC701DF91CF911F910F91FF9075
:1002A000EF90DF90CF900895FC01538D448D252F62
:1002B00030E0842F90E0821B930B541710F0CF9600
:1002C000089501970895FC01918D828D981761F032
:1002D000828DDF01A80FB11D5D968C91928D9F5F7D
:1002E0009F73928F90E008958FEF9FEF0895FC0128
:1002F000918D828D981731F0828DE80FF11D858DDB
:1003000090E008958FEF9FEF0895FC01918D228D6D
:10031000892F90E0805C9F4F821B91098F739927F2
:10032000089584EE92E00E94850121E0892B09F472
:1003300020E0822F0895FC01848DDF01A80FB11DFC
:10034000A35ABF4F2C91848D90E001968F7399270B
:10035000848FA689B7892C93A089B1898C918064F8
:100360008C93938D848D981306C00288F389E02DB9
:1003700080818F7D80830895EF92FF920F931F936A
:10038000CF93DF93EC0181E0888F9B8D8C8D981348
:1003900005C0E889F989808185FD24C0F62E0B8D82
:1003A00010E00F5F1F4F0F731127E02E8C8DE812A6
:1003B0000CC00FB607FCFACFE889F989808185FF68
:1003C000F5CFCE010E949B01F1CF8B8DFE01E80F8E
:1003D000F11DE35AFF4FF0820B8FEA89FB89808180
:1003E000806207C0EE89FF896083E889F98980818E
:1003F0008064808381E090E0DF91CF911F910F9125
:10040000FF90EF900895CF93DF93EC01888D8823C0
:10041000C9F0EA89FB89808185FD05C0A889B98971
:100420008C9186FD0FC00FB607FCF5CF808185FF4C
:10043000F2CFA889B9898C9185FFEDCFCE010E94BA
:100440009B01E7CFDF91CF91089580E090E0892B69
:1004500029F00E94910181110C94000008958330CD
:1004600081F028F4813099F08230A1F0089587302E
:10047000A9F08830B9F08430D1F4809180008F7D6C
:1004800003C0809180008F7780938000089584B5A9
:100490008F7702C084B58F7D84BD08958091B000B0
:1004A0008F7703C08091B0008F7D8093B000089556
:1004B0003FB7F8948091950190919601A091970192
:1004C000B091980126B5A89B05C02F3F19F0019661
:1004D000A11DB11D3FBFBA2FA92F982F8827820FCA
:1004E000911DA11DB11DBC01CD0142E0660F771F1A
:1004F000881F991F4A95D1F70895089585ED809337
:10050000BC008091BC0084FDFCCF10928303089551
:1005100040916B01262F30E0240F311D213231052F
:10052000DCF4209183032430C9F4FC0180E090E0E6
:10053000861758F430916B012191DC01A75BBE4F07
:10054000A30FB11D2C930196F3CF80916B01680F1F
:1005500060936B0180E0089581E0089582E0089542
:100560000895E091870380918603E81730F4F0E066
:10057000E258FD4F808190E008958FEF9FEF08953E
:100580009091870380918603981750F4E92FF0E04B
:10059000E258FD4F208130E09F5F9093870302C0B7
:1005A0002FEF3FEFC90108958091860390E02091DD
:1005B0008703821B91090895CF92DF92EF92FF92F9
:1005C0000F931F93CF93DF937C01262F972F8A01E0
:1005D0008091C202882391F0C62FD72F6E01C40EDE
:1005E000D51ECC15DD0571F06991D701ED91FC9117
:1005F0000190F081E02DC7010995F3CF642F822F80
:100600000E948802C801DF91CF911F910F91FF9046
:10061000EF90DF90CF900895CF93DF931F92CDB7E7
:10062000DEB769832091C2022223D1F02091840396
:10063000203240F021E030E0FC013383228380E06F
:1006400090E015C080918503E82FF0E0ED53FD4F59
:10065000998190838F5F809385038093840305C085
:1006600061E0CE0101960E94880281E090E00F9047
:10067000DF91CF910895089580E090E008950E9461
:10068000FF1BEF92FF920F931F93CF93DF93EC0129
:100690007B018A0188819981009729F02A813B8119
:1006A00024173507F8F4B8016F5F7F4F0E94351BA0
:1006B000009759F0998388831B830A832C813D819D
:1006C000232B81F4FC0110820DC088819981009751
:1006D00011F00E949D1A198218821D821C821B82B1
:1006E0001A8207C01D830C83B701888199810E94FB
:1006F000161CCE01DF91CF911F910F91FF90EF90CB
:100700000895CF93DF93DC01ED91FC91EB01A8817B
:10071000B981309711F01097C9F4109759F0EB0197
:100720002C813D81232B31F08C9190E09195819526
:10073000910914C0309781F0DC0114968D919C9141
:100740001597892B49F0808190E008C0BD01CF0149
:10075000DF91CF910C940D1C80E090E0DF91CF9160
:100760000895FC01808191810C949D1AFB01DC01AC
:1007700011961C921E9213961C921E921297159619
:100780001C921E9214978617970749F06081718119
:100790006115710521F0448155810C944103089540
:1007A000FC0111821082138212821582148261155B
:1007B000710551F0FB0101900020E9F73197AF017D
:1007C000461B570B0C9441030895BF92CF92DF92C2
:1007D000EF92FF920F931F93CF93DF937C016B01F6
:1007E000EA0189012417350720F48D2FE901042F30
:1007F000182F61E471E0C7010E94D003D60114965E
:100800008D919C911597C817D907C8F58017910746
:1008100008F48C01D601ED91FC911197E00FF11FC6
:10082000B08010824D915C91BA016C0F7D1F6115F3
:10083000710561F0FB0101900020E9F73197AF01EC
:10084000461B570BC7010E94410313C0F70180816B
:100850009181009711F00E949D1AD70111961C9268
:100860001E9215961C921E92149713961C921E921D
:100870001297D601ED91FC91E00FF11FB082C701F4
:10088000DF91CF911F910F91FF90EF90DF90CF906C
:10089000BF9008951F920F920FB60F9211242F93BD
:1008A0003F934F935F936F937F938F939F93AF93F8
:1008B000BF93EF93FF9384EE92E00E949B01FF9120
:1008C000EF91BF91AF919F918F917F916F915F91C8
:1008D0004F913F912F910F900FBE0F901F90189541
:1008E0001F920F920FB60F9211242F938F939F9305
:1008F000EF93FF93E091F402F091F5028081E09193
:10090000FA02F091FB0282FD12C090818091FD02FB
:100910008F5F8F732091FE02821751F0E091FD02EC
:10092000F0E0EC51FD4F958F8093FD0201C0808176
:10093000FF91EF919F918F912F910F900FBE0F908C
:100940001F901895CF93DF93282F30E0F901E557DA
:10095000FF4F8491F901E755FF4FD491F901E3541A
:10096000FF4FC491CC2391F081110E942F02EC2FF4
:10097000F0E0EE0FFF1FEF57FF4FA591B491EC9100
:10098000ED2381E090E021F480E002C080E090E07F
:10099000DF91CF9108951F93CF93DF93282F30E0FD
:1009A000F901E557FF4F8491F901E755FF4FD491C5
:1009B000F901E354FF4FC491CC23C9F0162F8111E4
:1009C0000E942F02EC2FF0E0EE0FFF1FE958FF4FBF
:1009D000A591B4918FB7F894111105C09C91ED2F9A
:1009E000E095E92302C0EC91ED2BEC938FBFDF91F2
:1009F000CF911F910895CF93DF9390E0FC01E755CD
:100A0000FF4F2491FC01E354FF4F8491882361F14F
:100A100090E0880F991FFC01E156FF4FC591D491DA
:100A2000FC01E958FF4FA591B491611109C09FB72E
:100A3000F8948881209582238883EC912E230BC023
:100A4000623061F49FB7F8943881822F80958323B8
:100A50008883EC912E2B2C939FBF06C08FB7F89400
:100A6000E8812E2B28838FBFDF91CF9108958F923D
:100A70009F92AF92BF92CF92DF92EF92FF926B0163
:100A80007C010E9458024B015C01C114D104E104B5
:100A9000F104F1F00E945802DC01CB018819990998
:100AA000AA09BB09883E9340A105B10570F321E076
:100AB000C21AD108E108F10888EE880E83E0981E7A
:100AC000A11CB11CC114D104E104F10419F7DDCF5C
:100AD000FF90EF90DF90CF90BF90AF909F908F905E
:100AE00008952FB7F89460919101709192018091CF
:100AF0009301909194012FBF0895CF92DF92EF92CE
:100B0000FF920F931F93CF93809199010E94A204AB
:100B1000C82F0E9471050091450110914601209156
:100B20004701309148016B017C01C01AD10AE20AE9
:100B3000F30A970186010B3F11052105310510F0DD
:100B400010924401609345017093460180934701E0
:100B500090934801909144019F5F909344019A3093
:100B600050F4923068F4913009F040C01092430183
:100B7000109242013DC09A30B1F09B3001F136C075
:100B8000809142018C0F809342012091430130E01B
:100B900035952795C11102C080E001C080E8282B5F
:100BA0002093430125C09091420191709C1719F048
:100BB000909342011DC08DEF8093420119C0809136
:100BC00042018D3F98F48091AA018F5F803108F037
:100BD00080E09091AB01891749F0E82FF0E0909107
:100BE0004301E656FE4F90838093AA011092440180
:100BF000CF911F910F91FF90EF90DF90CF900895CC
:100C00001F920F920FB60F9211242F933F938F9341
:100C10009F93AF93BF938091910190919201A09186
:100C20009301B09194013091900123E0230F2D376F
:100C300020F40196A11DB11D05C026E8230F0296E0
:100C4000A11DB11D20939001809391019093920179
:100C5000A0939301B0939401809195019091960196
:100C6000A0919701B09198010196A11DB11D8093AB
:100C7000950190939601A0939701B0939801BF912D
:100C8000AF919F918F913F912F910F900FBE0F9039
:100C90001F9018951F920F920FB60F9211242F9349
:100CA0003F934F935F936F937F938F939F93AF93F4
:100CB000BF93EF93FF93E0910201F0910301099537
:100CC000FF91EF91BF91AF919F918F917F916F9124
:100CD0005F914F913F912F910F900FBE0F901F90FA
:100CE00018951F920F920FB60F9211242F933F93D6
:100CF0004F935F936F937F938F939F93AF93BF9324
:100D0000EF93FF93E0910001F09101010995FF91AC
:100D1000EF91BF91AF919F918F917F916F915F9173
:100D20004F913F912F910F900FBE0F901F901895EC
:100D30001F920F920FB60F9211242F933F934F9350
:100D40005F936F937F938F939F93AF93BF93EF9333
:100D5000FF938091B900887F803609F49CC068F5C4
:100D6000883209F45BC090F4803109F454C038F43F
:100D7000882309F4F6C0883009F44DC0F6C08831E4
:100D800009F44CC0803209F45DC0EFC0803409F42E
:100D900068C048F4803309F455C0883309F0E5C0D1
:100DA0008093C102D8C0803509F44FC0883509F45A
:100DB0005DC0883409F0D9C0D6C0883909F4C7C0ED
:100DC000A8F4883709F467C038F4883609F463C09A
:100DD000803709F460C0C9C0883809F4B8C08039C8
:100DE00009F45FC0803809F0C0C05BC0803B09F4E3
:100DF00086C038F4803A09F466C0883A09F47FC0A6
:100E0000B4C0803C09F4A7C0883C09F4A4C0883B66
:100E100009F48AC0AAC080919E0210C09091C002BD
:100E20008091BF02981770F5E091C00281E08E0FAB
:100E30008093C002F0E0E156FD4F80818093BB00BB
:100E400085EC86C08093C1028EC0E091C00281E033
:100E50008E0F8093C0028091BB00F0E0E156FD4F01
:100E600080839091C0028091BF026EC0E091C00269
:100E700081E08E0F8093C0028091BB00F0E0E156CC
:100E8000FD4F80838091820381116DC081E080934A
:100E9000810384EA61C083E08093830310928F0111
:100EA000CFCF80918F01803208F051C0E0918F0147
:100EB00081E08E0F80938F018091BB00F0E0E159BB
:100EC000FE4F8083BDCF85EC8093BC0010928303DE
:100ED00080918F01803230F4E0918F01F0E0E15990
:100EE000FE4F108260918F0170E0E0916D01F091F2
:100EF0006E018FE691E0099510928F0136C084E073
:100F00008093830310926C0110926B01E091690150
:100F1000F0916A01099580916B01811105C081E012
:100F200080936B0110924901E0916C0181E08E0F7A
:100F300080936C01F0E0E75BFE4F80818093BB0003
:100F400090916C0180916B01981708F479CF85E836
:100F50008093BC000AC085EC8093BC001092830390
:100F600004C01092C1020E947E02FF91EF91BF91D6
:100F7000AF919F918F917F916F915F914F913F9131
:100F80002F910F900FBE0F901F9018959091AB016D
:100F90008091AA01981749F08091AB019091AA0124
:100FA000891B87FF03C0805F089580E00895EF925A
:100FB000FF920F931F93CF93DF93CDB7DEB7EDB6BC
:100FC000FEB6FC01448155814F5F5F4F2DB73EB7A0
:100FD000241B350B0FB6F8943EBF0FBE2DBF0DB7C7
:100FE0001EB70F5F1F4F4115510531F00115110557
:100FF00019F0B8010E94B40DC8010E9439190FB64A
:10100000F894FEBE0FBEEDBEDF91CF911F910F9100
:10101000FF90EF900895CF92DF92EF92FF92C090F1
:10102000DB01D090DC010D2C000CEE08FF08F7FE70
:1010300014C0E091E402F091E5020190F081E02D0E
:101040006DE284EE92E0099566277727CB016C1953
:101050007D098E099F094AE003C04AE0C701B60135
:101060000E94630D85E790E00E94420D6091DA01D5
:1010700070E080E090E04AE00E94630D83E790E03A
:101080000E94420D6091D90170E080E090E04AE05A
:101090000E94630D81E790E00E94420D6091D701AC
:1010A00070E080E090E04AE00E94630D8FE690E0FF
:1010B0000E94420D6091D60170E080E090E04AE02D
:1010C0000E94630D8DE690E00E94420D6091D50173
:1010D00070E080E090E04AE00E94630D8AE690E0D4
:1010E0000E94420D6091D80170E080E090E04AE0FB
:1010F0000E94630D88E690E00E94420DFF90EF9001
:10110000DF90CF900C943A0D0F931F93CF93DF9302
:101110001F92CDB7DEB78C01611102C064E101C03E
:101120006AE0C80169830E945F196981681741F00C
:10113000C8010F90DF91CF911F910F910C94671907
:101140000F90DF91CF911F910F910895FF920F9310
:101150001F93CF93DF931F92CDB7DEB78C01F62E8E
:101160000E945F198A3011F0843129F461E08A30DD
:1011700091F060E010C0F11002C064E101C06AE0CB
:10118000C80169830E945F196981681719F0C80155
:101190000E9467196F2D862F0F90DF91CF911F91BD
:1011A0000F91FF900895CF92DF92EF92FF920F93ED
:1011B0001F93CF93DF93F090D801C090DB01D090C4
:1011C000DC011091DA010091D901D091D701E090B2
:1011D000D601C091D5010E94F00B8091960391E059
:1011E0009093C2028093E3021092850310928403CD
:1011F00082E090E00E94E30A8C2FCC3308F08BE36E
:101200006AE00E94AC19692F20E1829F600D1124D1
:1012100088E893E00E940C038E2D8C3308F08BE35A
:101220006AE00E94AC19692F30E1839F600D1124A0
:1012300088E893E00E940C038D2FD83108F087E1F5
:101240006AE00E94AC19692F20E1829F600D112491
:1012500088E893E00E940C030E94E80A0E94F80BC1
:101260000E94F00BE601CC5DD7403C2F3C7FE32E83
:10127000C31BD1098091960391E09093C2028093A1
:10128000E302109285031092840385E090E00E94AF
:10129000E30A002329F0802F003218F08FE101C00B
:1012A00081E06AE00E94AC19292F30E1839F200D74
:1012B0001124CE0136E0880F991F3A95E1F7622F8D
:1012C000682B88E893E00E940C03112329F0812FFA
:1012D0001D3018F08CE001C081E06AE00E94AC197A
:1012E00020E1829F900D112436E03F1528F08F2DCC
:1012F0008295880F807E01C080EC682F692B88E87A
:1013000093E00E940C030E94E80A8091960391E00A
:101310009093C2028093E30210928503109284039B
:1013200080E190E00E94E30A6E2D88E893E00E943D
:101330000C03CE010E94E30A0E94E80ADF91CF91DC
:101340001F910F91FF90EF90DF90CF900C94F80BCE
:10135000CF93DF93D82FC62F90919403809195035C
:101360009CBD8DBD60E087E00E94CB04DEBD000027
:101370000DB407FEFDCFDEB5CEBD00000DB407FEF7
:10138000FDCFCEB561E087E00E94CB04DD2369F19B
:1013900080E88D0F8F3348F58630C9F038F48230FD
:1013A00099F0843011F5C093D7011BC08830B9F093
:1013B00098F08930D1F48C2F90E08053984F90931F
:1013C000DC018093DB010DC0C093D6010AC08FEF12
:1013D0008C0F8093D80105C0C093D90102C0C0937F
:1013E000DA01DF91CF910C94D308DF91CF9108956A
:1013F0006091D50180E40E94A8096091D60182E441
:101400000E94A8096091D70184E40E94A809609114
:10141000D8016F5F86E40E94A8096091D90187E432
:101420000E94A8096091DA0188E40E94A8098091CD
:10143000DB019091DC0164E670E00E94B819682F2E
:1014400089E40C94A809CF92DF92EF92FF92CF9398
:10145000DF93D0E0C0E0C12CD12C7601C39420E012
:1014600030E060E0ED2FE20FE932F0F4F0E0E45517
:10147000FE4F8081882361F0D701C601022E04C08F
:10148000880F991FAA1FBB1F0A94D2F7682B0CC0A4
:10149000D701C601022E04C0880F991FAA1FBB1FC7
:1014A0000A94D2F7809568232F5F3F4F283031058B
:1014B000C9F6CF5F8C2F0E94A809D85FC63079F695
:1014C000DF91CF91FF90EF90DF90CF90089560E093
:1014D0008AE00E94CB04ECEAF1E0119281E0E53D64
:1014E000F807D9F70E94230A6AE070E080E090E0F4
:1014F0000E94370561E08AE00C94CB04CF93C82F9B
:1015000061E00E94FB0460E08C2FCF910C94CB042F
:10151000CF93C82F60E00E94FB0461E08C2FCF9135
:101520000C94CB04CF92DF92EF92FF92CF93DF9394
:10153000EC010E9471056B017C010E947105AB01F9
:10154000BC014C195D096E097F09483E5340610595
:10155000710548F4809197030E94A2048C179D079F
:1015600061F781E001C080E0DF91CF91FF90EF90C3
:10157000DF90CF9008952091990330919A030197BD
:1015800021F4C9010E94880A03C0C9010E947E0A91
:1015900081E090E00E94920A80E090E00C94920A30
:1015A000CF93DF9380E090E00E94920A80919903AC
:1015B0000E94A204EC0181E090E00E94920ACE0118
:1015C000DF91CF910895682F88E893E00C940C0385
:1015D000209184039091E302213208F04AC0809167
:1015E00083038111FCCF32E03093830331E03093E9
:1015F00082033FEF3093C1021092C0022093BF02DA
:10160000A3ECB2E04FE952E0FA013E2F341B32174F
:1016100018F43D913193F9CF10929E0220919E02D1
:10162000990F922B90939E0290918103913061F4D7
:101630001092810390919E029093BB009091BC0008
:1016400093FDF8CF95EC01C095EE9093BC0090917E
:1016500083039230E1F39091C1029F3F79F0809132
:10166000C102803241F08091C102803331F084E0C8
:1016700005C081E003C082E001C083E010928503D1
:10168000109284031092C2020895CF93C62F9091B6
:10169000960321E02093C2029093E3021092850307
:1016A00010928403682F88E893E00E940C036C2F4B
:1016B00088E893E00E940C03CF910C94E80A909183
:1016C000960321E02093C2029093E30210928503D7
:1016D00010928403682F88E893E00E940C030E9414
:1016E000E80A80919603909183039111FCCF91E0D9
:1016F00090938303909382032FEF2093C102109263
:10170000C0021092BF0290939E0290919E02880F99
:10171000892B80939E0280918103813061F4109225
:10172000810380919E028093BB008091BC0083FD69
:10173000F8CF85EC01C085EE8093BC0080918303D7
:101740008130E1F38091C002811103C08091C00219
:1017500001C081E0AFE9B2E02EE732E0F9019E2F4F
:10176000921B981718F49D919193F9CF10928703CB
:101770008093860388E893E00E94C0020895FF9258
:101780000F931F93CF93DF9385E00E945F0B082F89
:1017900010E086E0159507958A95E1F781E10E94B2
:1017A0005F0BF82E80E10E945F0BC82FF01659F0F6
:1017B0000F1528F4CC5F6C2F80E10E94450B602F41
:1017C00081E10E94450B2C2F30E0C9018452984FD3
:1017D000800F911FDF91CF911F910F91FF9008957E
:1017E00080E00E945F0B682F606880E00C94450BDE
:1017F00080E00E945F0B682F6F7780E00C94450BB0
:10180000CF92DF92EF92FF920F931F93CF9380912D
:101810009703909198030E94880A80919903909170
:101820009A030E94880A83EC90E00197F1F780E028
:1018300090E00E94920A8FE090E00197F1F781E03A
:1018400090E00E94920A00E010E0C0E0C12CD12C90
:101850007601C3940E94D00A892B61F0D701C6019A
:10186000002E04C0880F991FAA1FBB1F0A94D2F72D
:10187000C82B0CC0D701C601002E04C0880F991FC9
:10188000AA1FBB1F0A94D2F78095C8230F5F1F4F72
:1018900008301105F9F60E94D00A0E94D00A809102
:1018A0009703909198030E947E0A8C2FCF911F91ED
:1018B0000F91FF90EF90DF90CF900895BF92CF925D
:1018C000DF92EF92FF920F931F93CF93DF93C82E77
:1018D0008091990390919A030E94880A80919703BE
:1018E000909198030E94880ACBEAD4E0CE01019738
:1018F000F1F780919703909198030E947E0A2197B7
:10190000F1F78091990390919A030E947E0A83E2F5
:1019100090E00197F1F780919703909198030E94CE
:10192000880A80E090E00E94920AB82E882309F489
:101930003FC0EE24E394F12CC0E0D0E00C2C000C6E
:10194000DD0886010C2E02C0159507950A94E2F772
:1019500001701127C8010E94BB0AE026F1262196DA
:10196000C830D10571F7C7010E94BB0A8091990365
:1019700090919A030E94880A83EC90E00197F1F716
:1019800080E090E00E94920A809197030E94A20456
:10199000892BD1F3809199030E94A204892BA1F392
:1019A00080919703909198030E947E0A0E94000CF8
:1019B0008B2DDF91CF911F910F91FF90EF90DF90D2
:1019C000CF90BF900895CF93DF93EC0183EF90E029
:1019D0000E945E0CCE01DF91CF910C945E0CCF93F0
:1019E00080919703909198030E94880A80919903AF
:1019F00090919A030E94880A8FEF90E00E945E0CFB
:101A0000C82F8823A1F10E94000C0E94000C88ECD2
:101A100090E00E94E30C84E690E00E94E30C80E5F5
:101A200090E00E94E30C82EF90E00E945E0C0E9426
:101A3000000C91E0833009F090E090939B0388EED6
:101A400090E00E945E0C83E090E00E945E0C86EEC7
:101A500090E00E945E0C88E290E00E94E30C80EF30
:101A600090E00E945E0C8BE891E00197F1F78C2FDB
:101A7000CF91089542E050E06FE371E084EE92E090
:101A80000C9429010F931F93CF93DF938C01C0E037
:101A9000D0E0F801EC0FFD1F6491662371F0E09136
:101AA000E402F091E5020190F081E02D84EE92E0F5
:101AB0000995892B11F02196ECCFCE01DF91CF91C2
:101AC0001F910F9108958F929F92AF92BF920F93A3
:101AD0001F93CF93DF93CDB7DEB7A1970FB6F894DE
:101AE000DEBF0FBECDBF19A2423008F44AE08E011E
:101AF0000F5D1F4F842E912CA12CB12CA5019401B8
:101B00000E94CC19E62FB901CA0101501109EA302F
:101B100014F4E05D01C0E95CD801EC93232B242B85
:101B2000252B61F70115110571F0F80101900020D6
:101B3000E9F73197AF01401B510BB80184EE92E0F9
:101B40000E94290102C080E090E0A1960FB6F894AF
:101B5000DEBF0FBECDBFDF91CF911F910F91BF9020
:101B6000AF909F908F9008950F931F93CF93DF9323
:101B7000FC01248135812115310519F4FB01108206
:101B800011C0EA0121972C173D0708F4E9018B01E8
:101B9000FC0160817181AE01C8010E941D1CC00F53
:101BA000D11F1882DF91CF911F910F910895CF938C
:101BB000DF930E94420DEC010E943A0D8C0F9D1F95
:101BC000DF91CF910895CF93DF93CDB7DEB7E6973E
:101BD0000FB6F894DEBF0FBECDBF789484B5826097
:101BE00084BD84B5816084BD85B5826085BD85B5C1
:101BF000816085BD80916E00816080936E0010923F
:101C000081008091810082608093810080918100B9
:101C1000816080938100809180008160809380004A
:101C20008091B10084608093B1008091B0008160A8
:101C30008093B00080917A00846080937A008091D4
:101C40007A00826080937A0080917A00816080932C
:101C50007A0080917A00806880937A001092C100A7
:101C6000E091F402F091F50282E08083E091F002CD
:101C7000F091F1021082E091F202F091F30280E122
:101C800080831092FC02E091F802F091F90286E064
:101C90008083E091F602F091F70280818061808379
:101CA000E091F602F091F702808188608083E091F4
:101CB000F602F091F702808180688083E091F6025D
:101CC000F091F70280818F7D808384EE92E00E9404
:101CD00003021FB7F8948091DD01811127C0E7EC62
:101CE000F0E08491E3EBF0E09491E82FF0E0EE0F68
:101CF000FF1FE156FF4FA591B491EC91E92321F428
:101D000061E08AE00E94CB0461E08AE00E94FB046B
:101D10008CB580618CBD8CB580648CBD61E08DE03C
:101D20000E94FB0461E08BE00E94FB048091DD01D6
:101D30008F5F8093DD011FBF61E087E00E94FB049D
:101D400061E087E00E94CB0461E086E00E94FB0432
:101D500061E086E00E94CB0462E082E00E94FB0426
:101D600062E084E00E94FB0462E083E00E94FB04E6
:101D700062E085E00E94FB0461E08AE00E94FB04CF
:101D800061E08AE00E94CB0461E089E00E94FB04EC
:101D900061E089E00E94CB0461E088E00E94FB04DE
:101DA00061E088E00E94CB0462E08FE00E94FB04C7
:101DB00061E08EE00E94FB04ECEAF1E0119201E0A8
:101DC000E53DF007D9F76091DE0180E090E00E94E8
:101DD000A6088093DE016091040181E090E00E94FA
:101DE000A608809304016091DE0181E0682789E004
:101DF0000E94CB0482EF90E00E94D70D0E94670AF8
:101E000084E08093990162E082E00E94FB0462E03A
:101E100084E00E94FB041092AA011092AB018DE7AE
:101E200095E09093010180930001809169008C7F7F
:101E3000826080936900E89A0E94EF0C809374029C
:101E40000E94BF0B9093DC018093DB0186E00E942F
:101E50005F0B982F9695969596959270292F220F45
:101E6000220F920F8F70890F8093DA0185E00E9414
:101E70005F0B982F9695969596959670292F220F21
:101E8000220F920F8F70890F8093D90186E00E94F4
:101E90005F0B90E035E0959587953A95E1F7809353
:101EA000D80184E00E945F0B982F969596959695A1
:101EB0009670292F220F220F920F8F70890F809317
:101EC000D70183E00E945F0B982F96959695969583
:101ED0009E70292F220F220F920F8F70890F8093EF
:101EE000D60182E00E945F0B982F96959695969565
:101EF0009E70292F220F220F920F8F70890F8093CF
:101F0000D5010E94F80981ED90E00E94D70D60E0B4
:101F100086E00E94CB040E9471056B017C010E9447
:101F2000C607882309F42FC60E94C607811102C084
:101F30008FEF12C0E091AB018091AA01E817C1F3C5
:101F4000EF5FE03108F0E0E0E093AB01F0E0E6564F
:101F5000FE4F8081882361F3082F10E0BB24B394E7
:101F6000B0927D02C0927902D0927A02E0927B0216
:101F7000F0927C0261E086E00E94CB04003E1105F5
:101F800019F4B092E601FFC5013E110529F4B092A3
:101F9000E601B092E501F7C5003F110539F48091E3
:101FA000E401811103C0B092E401EDC58091E60126
:101FB000811107C08091E501811103C080E090E0AC
:101FC00002C080E091E0800F911F8534910509F4F3
:101FD0009FC30CF031C18332910509F41EC30CF08C
:101FE00098C08E30910509F4B3C40CF04FC087300F
:101FF000910509F443C52CF58430910509F408C511
:1020000084F48130910509F427C5039709F060C570
:102010009091E40181E089278093BE018093D401EF
:1020200057C58530910509F4EAC4069709F050C5F3
:102030009091E40181E089278093D3018093D401BA
:1020400047C58B30910509F4F5C484F489309105B6
:1020500009F40BC50A9709F03BC59091E40181E0B2
:1020600089278093D2018093D40132C58C309105A9
:1020700009F4D7C40D9709F02BC59091E40181E0D4
:1020800089278093AC018093C10122C58A319105D3
:1020900009F437C3DCF48431910509F40CC244F42B
:1020A0008131910509F41BC2429709F4F0C110C5B2
:1020B0008531910509F4FBC2469709F009C5909155
:1020C000E40181E089278093AF0102C58D3191053C
:1020D00009F409C374F48B31910509F4EFC24C97EC
:1020E00009F0F6C49091E40181E089278093AD0165
:1020F000EFC48132910509F489C20CF0FBC24E97FE
:1021000009F0E6C49091E40181E089278093B7014A
:10211000DFC48333910509F49CC20CF047C08B32B5
:10212000910509F488C20CF58632910509F4F7C2CD
:1021300074F48432910509F477C2859709F0C8C414
:102140009091E40181E089278093C701C1C489325D
:10215000910509F454C28A9709F0BAC49091E40138
:1021600081E089278093CC01B3C48E32910509F4B4
:10217000DDC274F48C32910509F4A7C28D9709F081
:10218000A7C49091E40181E089278093C601A0C48F
:102190008133910509F477C2C29709F099C49091EF
:1021A000E40181E089278093D30192C48C339105A7
:1021B00009F492C20CF58633910509F4BEC274F499
:1021C0008433910509F43EC2C59709F081C490910A
:1021D000E40181E089278093D1017AC48A33910593
:1021E00009F44AC2CB9709F073C49091E40181E0ED
:1021F00089278093CA016CC48134910509F4F4C223
:1022000074F48D33910509F49FC2CE9709F060C430
:102210009091E40181E089278093C00159C4209105
:10222000E4018334910509F41BC20CF033C281E050
:1022300082278093C2014CC48537910509F4B2C24C
:102240000CF083C08935910509F421C1DCF58D348A
:10225000910509F425C2BCF48A34910509F428C318
:102260004CF48634910509F476C28934910509F459
:10227000CFC22EC48B34910509F4F7C18C3491057B
:1022800009F4DAC225C48435910509F4E9C24CF495
:102290008E34910509F448C38235910509F490C242
:1022A00017C48535910509F42BC38835910509F0CC
:1022B0000FC49091E40181E089278093BB01809352
:1022C000AC0106C48B36910509F453C2ECF48D358C
:1022D000910509F401C34CF48A35910509F488C1CC
:1022E0008B35910509F4D0C2F3C38636910509F404
:1022F00074C18936910509F0EBC39091E40181E046
:1023000089278093AF01E4C38137910509F480C226
:102310007CF48C36910509F43EC28037910509F0B2
:10232000D7C39091E40181E089278093B001D0C3A5
:102330002091E4018337910509F422C20CF025C2F3
:1023400081E082278093B701C3C3843111E09107F4
:1023500009F4B1C00CF044C08C37910509F40CC3EA
:102360003CF58937910509F410C38CF48637910543
:1023700009F41FC18837910509F0AAC39091E401BF
:1023800081E089278093AE018093BB01A1C38A3786
:10239000910509F4E7C18B37910509F099C3909134
:1023A000E40181E089278093BB018093CA0190C337
:1023B0008338910509F447C34CF48D37910509F42E
:1023C000F8C18E37910509F462C382C3813131E0CF
:1023D000930709F49AC08231914009F46BC378C322
:1023E000803751E0950709F4BEC014F5893611E035
:1023F000910709F4FBC254F48A3431E0930709F4DD
:1024000057C28A35914009F4F3C062C38B3651E05C
:10241000950709F4BCC08C36914009F059C39091DE
:10242000E40181E089278093C2018093D40150C3E5
:10243000843711E0910709F4B3C094F4813731E097
:10244000930709F478C08237914009F041C3909115
:10245000E40181E089278093AC018093D00138C3E7
:102460008A3751E0950709F4ADC28D3701E0900736
:1024700009F494C28537914009F02AC39091E40190
:1024800081E089278093AC018093C80121C38091AA
:102490000401811103C020E030E002C02FE030E0F1
:1024A0009091E40181E08927F901E455FE4F808392
:1024B0008093E3010DC380910401811103C02FE0DB
:1024C00030E002C020E030E09091E40181E0892713
:1024D000F901E455FE4F80838093E201F9C29091A7
:1024E000E40181E089278093BB019091040191115F
:1024F00003C020E030E002C026E030E0F901E455FE
:10250000FE4F80838093E101E3C29091E40181E07A
:1025100089278093BB0190910401911103C020E0B1
:1025200030E002C027E030E0F901E455FE4F80833F
:102530008093E101CDC2809104019091E401882350
:1025400039F081E089278093B1018093D40106C0DE
:1025500081E089278093BB018093C40181E08927B2
:102560008093E001B5C2909104018091E401992328
:1025700039F091E089278093B9018093D401A8C2F2
:1025800091E089278093BB018093AD01A1C2909116
:10259000E40181E089278093AC018093CF0198C248
:1025A0009091E40181E089278093AC018093C00180
:1025B0008FC22091E40181E028272093AC01809113
:1025C0000401811103C087E090E002C083E090E045
:1025D000FC01E455FE4F20837BC29091E40181E031
:1025E00089278093AC018093B0018093DF0170C292
:1025F0009091E40181E089278093B20169C29091B2
:10260000E40181E089278093B30162C29091E401E3
:1026100081E089278093C4015BC29091E40181E04D
:1026200089278093BD0154C29091E40181E08927FC
:102630008093BE014DC29091E40181E0892780938F
:10264000C50146C29091E40181E089278093CD01C4
:102650003FC29091E40181E089278093D20138C282
:1026600081E082278093C10133C29091E40181E02F
:1026700089278093BA012CC29091E40181E08927D7
:102680008093C30125C29091E40181E08927809362
:10269000CB011EC291E0822F89278093B90118C215
:1026A0009091E40181E089278093B10111C290915A
:1026B000E40181E089278093AE010AC29091E40190
:1026C00081E089278093B50103C29091E40181E004
:1026D00089278093CE01FCC19091E40181E0892794
:1026E0008093C901F5C19091E40181E0892780932D
:1026F000B601EEC19091E40181E089278093BC018D
:10270000E7C19091E40181E089278093B401E0C1A1
:102710009091E40181E089278093B001D9C1909123
:10272000E40181E089278093BF01D2C19091E40147
:1027300081E089278093CF01CBC19091E40181E0B2
:1027400089278093D001C4C19091E40181E0892759
:102750008093C801BDC19091E40181E089278093F5
:10276000B801B6C19091E40181E089278093BF014F
:10277000AFC19091E40181E089278093C701A8C18E
:1027800081E082278093CF01A3C191E0822F892726
:102790008093D0019DC19091E40181E089278093CD
:1027A000C80196C19091E40181E089278093C0011E
:1027B0008FC19091E40181E089278093B80188C19D
:1027C0002091E40181E028272093BB018091E3015F
:1027D000811103C08CE190E002C085E090E0FC0133
:1027E000E455FE4F208374C12091E40181E0282745
:1027F0002093BB018091E301811103C08FE190E040
:1028000002C08AE190E0FC01E455FE4F208360C1E4
:102810002091E40181E028272093BB018091E3010E
:10282000811103C087E190E002C082E290E0FC01E8
:10283000E455FE4F20834CC12091E40181E028271C
:102840002093BB018091E301811103C08DE090E0F2
:1028500002C088E090E0FC01E455FE4F208338C1BF
:102860002091E40181E028272093BB018091E301BE
:10287000811103C085E290E002C089E190E0FC0193
:10288000E455FE4F208324C12091E40181E02827F4
:102890002093BB018091E301811103C08DE190E0A1
:1028A00002C081E290E0FC01E455FE4F208310C19C
:1028B0002091E40181E028272093BB018091E3016E
:1028C000811103C080E290E002C088E190E0FC0149
:1028D000E455FE4F2083FCC02091E40181E02827CD
:1028E0002093BB018091E301811103C081E190E05D
:1028F00002C089E090E0FC01E455FE4F2083E8C06F
:102900002091E40181E028272093BB018091E3011D
:10291000811103C08EE090E002C086E190E0FC01EE
:10292000E455FE4F2083D4C02091E40181E02827A4
:102930002093BB018091E301811103C08EE190E0FF
:1029400002C084E090E0FC01E455FE4F2083C0C04B
:102950002091E40181E028272093BB018091E301CD
:10296000811103C080E190E002C081E090E0FC01B1
:10297000E455FE4F2083ACC09091E40181E08927AB
:102980008093BB018093D301A3C09091E40181E0C7
:1029900089278093BB018093C2019AC09091040162
:1029A0008091E401992339F091E089278093C30154
:1029B0008093D4018DC091E089278093AC018093EE
:1029C000BF0186C0909104018091E401992339F000
:1029D00091E089278093CB018093D40179C091E065
:1029E00089278093AC018093C70172C09091E40164
:1029F00081E089278093BA018093D40169C09091C6
:102A0000E40181E089278093AD018093D40160C007
:102A10009091E40181E089278093C4018093D401DF
:102A200057C09091E40181E089278093BD01809394
:102A3000D4014EC09091E40181E089278093C501C3
:102A40008093D40145C09091E40181E0892780936F
:102A5000CD018093D4013CC09091E40181E08927AD
:102A60008093C1018093D40133C09091E40181E04F
:102A700089278093CA018093D4012AC09091E401F0
:102A800081E089278093B6018093BB0121C08091AA
:102A9000E4018823E9F06091DE0111E0162710932C
:102AA000DE0189E00E94CB04612F80E090E00E946B
:102AB00084080EC08091E401882351F060910401E4
:102AC00081E068276093040181E090E00E9484081F
:102AD0008091E201882391F08091E101882371F0D7
:102AE0008091E001882351F01092E2011092E101FF
:102AF0001092E0011092E3010E94670A8091E201C6
:102B00008823B1F18091E101882391F18091DF0167
:102B1000882371F11092E2011092E1011092DF011D
:102B20001092E301ECEAF1E0119221E0E53DF207B9
:102B3000D9F70E94230A60E08AE00E94CB0481E07A
:102B40008093B5010E94230A64EF71E080E090E079
:102B50000E94370561E08AE00E94CB040E94230AAC
:102B600064EF71E080E090E00E9437051092B501BB
:102B70001092E4018091E501882319F01092E5019B
:102B800002C01092E6010E94230A8091790290917E
:102B90007A02A0917B02B0917C0297018601081B0A
:102BA000190B2A0B3B0B083C11052105310530F0B0
:102BB00060E086E00E94CB0410927D028091750255
:102BC00090917602A0917702B0917802A7019601C8
:102BD000281B390B4A0B5B0BDA01C901883E934075
:102BE000A105B10508F46BC00E94BF0B9093DC01F6
:102BF0008093DB0186E00E945F0B982F9695969557
:102C000096959270292F220F220F920F8F70890FA5
:102C10008093DA0185E00E945F0B982F9695969538
:102C200096959670292F220F220F920F8F70890F81
:102C30008093D90186E00E945F0B90E025E0959596
:102C400087952A95E1F78093D80184E00E945F0B75
:102C5000982F9695969596959670292F220F220F6C
:102C6000920F8F70890F8093D70183E00E945F0BD2
:102C7000982F9695969596959E70292F220F220F44
:102C8000920F8F70890F8093D60182E00E945F0BB4
:102C9000982F9695969596959E70292F220F220F24
:102CA000920F8F70890F8093D5010E94F809C0920E
:102CB0007502D0927602E0927702F09278028091CB
:102CC0000601909107011816190654F52091740217
:102CD000211126C0409170025091710260917202E0
:102CE0007091730297018601041B150B260B370B9D
:102CF000B901A801493E53406105710588F001976B
:102D000090930701809306010E94EF0C8093740258
:102D1000C0927002D0927102E0927202F09273023D
:102D200080917402882309F472C080916C029091A2
:102D30006D02A0916E02B0916F02A7019601281B4F
:102D4000390B4A0B5B0B253631054105510508F45B
:102D50005EC08BEE90E00E945E0C0E94000CB82ECC
:102D60000E94000C082F0E94000C182F80919B03DA
:102D7000882331F00E94000C282F880F330B02C0EB
:102D800020E030E040916B0291E0492740936B02D4
:102D900000936A02109369029B2D92705B2D547010
:102DA000B0FE02C0206101C02F7E20936802809196
:102DB0006802992311F0806201C08F7D80936802C0
:102DC00090916802552311F0906401C09F7B90930D
:102DD000680290916802442311F0906801C09F77C7
:102DE00090936802602F8AE00E94A809612F8BE00F
:102DF0000E94A809609168028CE00E94A809C09214
:102E00006C02D0926D02E0926E02F0926F0284EE3C
:102E100092E00E948501892B29F48091050181119E
:102E2000B0C125C011E084EE92E00E948501892B9B
:102E3000A1F384EE92E00E9463018A3031F08D307C
:102E400021F0E0916702E7FF03C010920501EBCF8C
:102E500010930501AE2FB0E0A951BE4F8C93EF5FE8
:102E6000E0936702F0E0E951FE4F1082DCCF67EE9D
:102E700071E0CE01C1960E94D00362E371E0CE0101
:102E800001960E94D003BE016F5F7F4FCE01C196B5
:102E90000E9481038C01CE0101960E94B103012B97
:102EA00059F486EF91E00E94D70D81ED91E00E94E8
:102EB000D70D81E991E056C167E371E0CE0101963B
:102EC0000E94D003BE016F5F7F4FCE01C1960E946A
:102ED00081038C01CE0101960E94B103012B59F4AC
:102EE0008CE891E00E94D70D8BE791E00E94D70D0E
:102EF0000E940B0839C16BE371E0CE0101960E947C
:102F0000D0038DA99EA9892B71F009A91AA96981FD
:102F10007A81C8010E942C1C009729F0AC01401B4B
:102F2000510B8A0102C00FEF1FEFCE0101960E94E4
:102F3000B103012B09F01AC18DA99EA9499709F087
:102F40000FC128E030E044E050E0BE016F5C7F4FED
:102F5000CE018B960E94E5032BE030E049E050E083
:102F6000BE016F5C7F4FCE0185960E94E5032EE087
:102F700030E04CE050E0BE016F5C7F4FCE014F96D9
:102F80000E94E50321E130E04FE050E0BE016F5CBC
:102F90007F4FCE0149960E94E50324E130E042E1F3
:102FA00050E0BE016F5C7F4FCE0143960E94E50367
:102FB00027E130E045E150E0BE016F5C7F4FCE017C
:102FC0000D960E94E50329E130E048E150E0BE01A2
:102FD0006F5C7F4FCE0107960E94E503BE01655DE1
:102FE0007F4FCE0101960E94B603EDB6FEB64D812D
:102FF0005E814F5F5F4F8DB79EB7841B950B0FB6F9
:10300000F8949EBF0FBE8DBF0DB71EB70F5F1F4F49
:103010004115510541F00115110529F0B801CE0106
:1030200001960E94B40DC8010E9439190FB6F89498
:10303000FEBE0FBEEDBE9093DC018093DB01CE019E
:1030400001960E94B103BE016B5D7F4FCE010196D8
:103050000E94B603CE0101960E94D7078093DA0141
:10306000CE0101960E94B103BE01615E7F4FCE0189
:1030700001960E94B603CE0101960E94D707809365
:10308000D901CE0101960E94B103BE01675E7F4F58
:10309000CE0101960E94B603CE0101960E94D70789
:1030A0008093D701CE0101960E94B103BE016D5EEF
:1030B0007F4FCE0101960E94B603CE0101960E9479
:1030C000D7078093D601CE0101960E94B103BE01BD
:1030D000635F7F4FCE0101960E94B603CE01019639
:1030E0000E94D7078093D501CE0101960E94B103BB
:1030F000BE01695F7F4FCE0101960E94B603CE01EB
:1031000001960E94D7078093D801CE0101960E94B4
:10311000B1030E94D3080E940B088FE691E00E9441
:10312000D70D0E943A0DCE0107960E94B103CE0141
:103130000D960E94B103CE0143960E94B103CE01C9
:1031400049960E94B103CE014F960E94B103CE0171
:1031500085960E94B103CE018B960E94B10306C0F2
:1031600086E191E00E94D70D0E943A0DCE01C196F2
:103170000E94B103109267021092E70181E08093F0
:1031800005010E9425020C948B0FCF93DF93E4EE90
:10319000F2E01382128288EE93E0A0E0B0E0848334
:1031A0009583A683B78322E131E03183208325EC28
:1031B00030E03587248724EC30E03787268720EC01
:1031C00030E0318B208B21EC30E0338B228B22ECF2
:1031D00030E0358B248B26EC30E0378B268B118E3C
:1031E000128E138E148EE8E8F3E013821282848329
:1031F0009583A683B78384E291E091838083E7E996
:10320000F3E083E090E09183808385E090E0938316
:1032100082831482D0E5D093960310928703109294
:103220008603109285031092840310928303C1E0F9
:10323000C09382031092810361E082E10E94CB047B
:1032400061E083E10E94CB04E9EBF0E080818E7FB6
:10325000808380818D7F808388E48093B80085E4BB
:103260008093BC00E4E9F3E0D083C183DF91CF9188
:103270000895FC0188279927E89421912032E9F3E9
:10328000293010F02E30C8F32B3241F02D3239F4B2
:10329000689404C00E945719820F911D21912053F8
:1032A0002A30C0F31EF4909581959F4F08957AE0DF
:1032B000979F902D879F802D910D11240895F99946
:1032C000FECF92BD81BDF89A992780B50895262F2B
:1032D000F999FECF1FBA92BD81BD20BD0FB6F894FB
:1032E000FA9AF99A0FBE019608952F923F924F9243
:1032F0005F926F927F928F929F92AF92BF92CF9286
:10330000DF92EF92FF920F931F93CF93DF93CDB78E
:10331000DEB7CA1BDB0B0FB6F894DEBF0FBECDBF06
:1033200009942A88398848885F846E847D848C84D7
:103330009B84AA84B984C884DF80EE80FD800C81E0
:103340001B81AA81B981CE0FD11D0FB6F894DEBFC3
:103350000FBECDBFED010895991B79E004C0991F00
:10336000961708F0961B881F7A95C9F780950895DF
:1033700097FB072E16F4009407D077FD09D00E9422
:10338000EE1907FC05D03EF4909581959F4F089566
:10339000709561957F4F0895A1E21A2EAA1BBB1B61
:1033A000FD010DC0AA1FBB1FEE1FFF1FA217B30711
:1033B000E407F50720F0A21BB30BE40BF50B661F27
:1033C000771F881F991F1A9469F7609570958095EB
:1033D00090959B01AC01BD01CF010895AA1BBB1BB9
:1033E00051E107C0AA1FBB1FA617B70710F0A61B05
:1033F000B70B881F991F5A95A9F780959095BC0126
:10340000CD010895EE0FFF1F0590F491E02D099472
:10341000CF93DF938230910510F482E090E0E09149
:103420009E03F0919F0320E030E0C0E0D0E03097B1
:1034300011F14081518148175907C0F048175907C9
:1034400061F482819381209719F09B838A832BC03A
:1034500090939F0380939E0326C02115310519F098
:103460004217530718F49A01BE01DF01EF010280F1
:10347000F381E02DDCCF2115310509F1281B390B33
:103480002430310590F412968D919C91139761151B
:10349000710521F0FB019383828304C090939F0305
:1034A00080939E03FD01329644C0FD01E20FF31F9D
:1034B00081939193225031092D933C933AC02091EE
:1034C0009C0330919D03232B41F420910A013091FC
:1034D0000B0130939D0320939C03209108013091B0
:1034E00009012115310541F42DB73EB740910C017A
:1034F00050910D01241B350BE0919C03F0919D032D
:10350000E217F307A0F42E1B3F0B2817390778F0BA
:10351000AC014E5F5F4F2417350748F04E0F5F1F19
:1035200050939D0340939C038193919302C0E0E0EC
:10353000F0E0CF01DF91CF9108950F931F93CF93C8
:10354000DF93009709F48CC0FC013297138212823A
:1035500000919E0310919F030115110581F42081B4
:103560003181820F931F20919C0330919D03281776
:10357000390779F5F0939D03E0939C0371C0D8015E
:1035800040E050E0AE17BF0750F412962D913C91E9
:103590001397AD012115310509F1D901F3CF9D0133
:1035A000DA013383228360817181860F971F82172E
:1035B000930769F4EC0128813981260F371F2E5FAC
:1035C0003F4F318320838A819B8193838283452B64
:1035D00029F4F0939F03E0939E0342C01396FC935B
:1035E000EE931297ED01499159919E01240F351FD9
:1035F000E217F30771F480819181840F951F029681
:1036000011969C938E938281938113969C938E93B3
:103610001297E0E0F0E0D80112968D919C911397FB
:10362000009719F0F8018C01F6CF8D919C919801CB
:103630002E5F3F4F820F931F20919C0330919D037B
:103640002817390769F4309729F410929F031092D4
:103650009E0302C01382128210939D0300939C0369
:10366000DF91CF911F910F910895A0E0B0E0EBE3BF
:10367000FBE10C947919EC01009721F4CB010E9435
:10368000081AB8C0FC01E60FF71F9C01225031094F
:10369000E217F30708F4ACC0D9010D911C91119702
:1036A00006171707B0F00530110508F49FC0C801D0
:1036B00004978617970708F499C002501109061B52
:1036C000170B019311936D937C93CF010E949D1A68
:1036D0008DC05B01A01AB10A4C01800E911EA09111
:1036E0009E03B0919F0340E050E0E12CF12C109735
:1036F00009F44AC0A815B905D1F56D907C901197D1
:10370000630182E0C80ED11CCA14DB0480F1A3015E
:103710004A195B096A0182E0C80ED11C1296BC905E
:1037200012971396AC91B5E0CB16D10440F0B2825B
:10373000A38351834083D9016D937C930AC00E5FAC
:103740001F4FC301800F911FF90191838083EB2DDF
:10375000FA2FE114F10431F0D7011396FC93EE93A4
:10376000129744C0F0939F03E0939E033FC08D9156
:103770009C9111974817590708F4AC017D011296E6
:103780000D90BC91A02DB3CF80919C0390919D038F
:1037900088159905E1F446175707C8F48091080188
:1037A00090910901009741F48DB79EB740910C01AB
:1037B00050910D01841B950BE817F907C8F4F0939D
:1037C0009D03E0939C03F901718360830FC0CB01DB
:1037D0000E94081A7C01009759F0A801BE010E94BE
:1037E000041CCE010E949D1AC70104C0CE0102C074
:1037F00080E090E0CDB7DEB7EEE00C94951981E063
:1038000090E0F8940C94461CFB01DC0102C001908E
:103810000D9241505040D8F70895FB01DC018D9185
:10382000019080190110D9F3990B0895FB01DC0177
:1038300001900D920020E1F70895FB01DC01415059
:10384000504048F001900D920020C9F701C01D9230
:1038500041505040E0F70895FB0151915523A9F0E4
:10386000BF01DC014D9145174111E1F759F4CD013C
:103870000190002049F04D9140154111C9F3FB0121
:103880004111EFCF81E090E001970895F894FFCFC8
:103890007D027D02010102000000A0038000000003
:1038A0000000BC0129015401030285016301770175
:1038B000000000000C03DC023C03B002D402C00292
:1038C000B10248454C500047455400534554000D43
:0238D0000A00EC
:00000001FF
