:100000000C94A8000C945A040C9433040C94D00063
:100010000C94D0000C94D0000C94D0000C94D00020
:100020000C94D0000C94D0000C94D0000C94D00010
:100030000C94D0000C94D0000C94D0000C94D00000
:100040000C94E9030C94D0000C9493020C946D0270
:100050000C94D0000C94D0000C94D0000C94D000E0
:100060000C94D0000C94D0004D6F75736520646FB4
:100070006573206E6F7420657869737473004D6FBB
:100080007573652070726573656E74000000000002
:10009000240027002A0000000000250028002B0073
:1000A00000000000230026002900040404040404C6
:1000B0000404020202020202030303030303010217
:1000C00004081020408001020408102001020408E6
:1000D00010200000000800020100000304070000D7
:1000E0000000000000004D6F75736520696E697433
:1000F0002E2E2E00646F6E65004B6579626F617203
:100100006420696E69742E2E2E005A58204B657932
:10011000626F617264202F206D6F75736520636F4D
:100120006E74726F6C6C65722076312E30000977B8
:100130003D0009793D0009783D004D6F7573653AC2
:1001400020005363616E636F64653A200000E00D28
:1001500011241FBECFEFD8E0DEBFCDBF11E0A0E07D
:10016000B1E0EEE8FCE102C005900D92AC31B107C0
:10017000D9F722E0ACE1B1E001C01D92A233B20791
:10018000E1F710E0C8EAD0E004C02197FE010E9428
:100190003A0EC73AD107C9F70E94A6060C94450E3D
:1001A0000C940000CF92DF92EF92FF920F931F9377
:1001B000CF93DF936C017A018B01C0E0D0E0CE15C4
:1001C000DF0589F0D8016D918D01D601ED91FC918B
:1001D0000190F081E02DC6010995892B11F47E0173
:1001E00002C02196ECCFC701DF91CF911F910F91F3
:1001F000FF90EF90DF90CF900895089580E090E019
:100200000895FC01538D448D252F30E0842F90E01C
:10021000821B930B541710F0CF9608950197089501
:10022000FC01918D828D981761F0828DDF01A80FFE
:10023000B11D5D968C91928D9F5F9F73928F90E020
:1002400008958FEF9FEF0895FC01918D828D98178F
:1002500031F0828DE80FF11D858D90E008958FEFCC
:100260009FEF0895FC01918D228D892F90E0805C95
:100270009F4F821B91098F739927089580E991E020
:100280000E94320121E0892B09F420E0822F089599
:10029000FC01848DDF01A80FB11DA35ABF4F2C9123
:1002A000848D90E001968F739927848FA689B789F2
:1002B0002C93A089B1898C9180648C93938D848DCB
:1002C000981306C00288F389E02D80818F7D80839A
:1002D0000895EF92FF920F931F93CF93DF93EC015A
:1002E00081E0888F9B8D8C8D981305C0E889F989F2
:1002F000808185FD24C0F62E0B8D10E00F5F1F4F0F
:100300000F731127E02E8C8DE8120CC00FB607FC7E
:10031000FACFE889F989808185FFF5CFCE010E9467
:100320004801F1CF8B8DFE01E80FF11DE35AFF4F1D
:10033000F0820B8FEA89FB898081806207C0EE8999
:10034000FF896083E889F98980818064808381E006
:1003500090E0DF91CF911F910F91FF90EF90089562
:10036000CF93DF93EC01888D8823C9F0EA89FB895C
:10037000808185FD05C0A889B9898C9186FD0FC053
:100380000FB607FCF5CF808185FFF2CFA889B98928
:100390008C9185FFEDCFCE010E944801E7CFDF9120
:1003A000CF91089580E090E0892B29F00E943E01D2
:1003B00081110C9400000895833081F028F481307D
:1003C00099F08230A1F008958730A9F08830B9F013
:1003D0008430D1F4809180008F7D03C080918000B3
:1003E0008F7780938000089584B58F7702C084B59D
:1003F0008F7D84BD08958091B0008F7703C0809178
:10040000B0008F7D8093B0000895089590913E01D3
:1004100080913D01981749F080913E0190913D01F6
:10042000891B87FF03C0805F089580E008950E94C4
:10043000400ECF9380912D0290912E020E940805CC
:1004400080912F02909130020E9408058FEF90E07A
:100450000E948505C82F8823A1F10E9427050E94CC
:10046000270588EC90E00E940A0684E690E00E944E
:100470000A0680E590E00E940A0682EF90E00E9462
:1004800085050E94270591E0833009F090E0909364
:10049000310288EE90E00E94850583E090E00E94A2
:1004A000850586EE90E00E94850588E290E00E9436
:1004B0000A0680EF90E00E9485058BE891E00197A5
:1004C000F1F7C0938F01C11103C088E690E002C02C
:1004D0008EE790E0CF910C94FA041F920F920FB622
:1004E0000F9211242F933F934F935F936F937F93BA
:1004F0008F939F93AF93BF93EF93FF9380E991E026
:100500000E944801FF91EF91BF91AF919F918F9110
:100510007F916F915F914F913F912F910F900FBEFF
:100520000F901F9018951F920F920FB60F921124E3
:100530002F938F939F93EF93FF93E091A001F091FE
:10054000A1018081E091A601F091A70182FD12C076
:1005500090818091A9018F5F8F732091AA018217EA
:1005600051F0E091A901F0E0E057FE4F958F8093A4
:10057000A90101C08081FF91EF919F918F912F91EF
:100580000F900FBE0F901F901895CF93DF93282FD9
:1005900030E0F901EE52FF4F8491F901E254FF4F30
:1005A000D491F901E655FF4FC491CC2391F081110C
:1005B0000E94DC01EC2FF0E0EE0FFF1FE056FF4F32
:1005C000A591B491EC91ED2381E090E021F480E0DD
:1005D00002C080E090E0DF91CF9108951F93CF9308
:1005E000DF93282F30E0F901EE52FF4F8491F9019B
:1005F000E254FF4FD491F901E655FF4FC491CC234B
:10060000C9F0162F81110E94DC01EC2FF0E0EE0FF3
:10061000FF1FEA56FF4FA591B4918FB7F8941111BF
:1006200005C09C91ED2FE095E92302C0EC91ED2BE4
:10063000EC938FBFDF91CF911F910895CF93DF93FC
:1006400090E0FC01E254FF4F2491FC01E655FF4F7E
:100650008491882361F190E0880F991FFC01E45791
:10066000FF4FC591D491FC01EA56FF4FA591B4917B
:10067000611109C09FB7F8948881209582238883EF
:10068000EC912E230BC0623061F49FB7F89438814F
:10069000822F809583238883EC912E2B2C939FBFF0
:1006A00006C08FB7F894E8812E2B28838FBFDF9187
:1006B000CF9108952FB7F894609128017091290186
:1006C00080912A0190912B012FBF0895CF92DF9244
:1006D000EF92FF920F931F93CF9380912C010E9472
:1006E000C502C82F0E945A0300911F0110912001DA
:1006F00020912101309122016B017C01C01AD10AA5
:10070000E20AF30A970186010B3F11052105310525
:1007100010F010921E0160931F01709320018093CE
:1007200021019093220190911E019F5F90931E01E1
:100730009A3050F4923068F4913009F040C0109231
:100740001D0110921C013DC09A30B1F09B3001F1A7
:1007500036C080911C018C0F80931C0120911D01DB
:1007600030E035952795C11102C080E001C080E8D6
:10077000282B20931D0125C090911C0191709C177E
:1007800019F090931C011DC08DEF80931C0119C0BE
:1007900080911C018D3F98F480913D018F5F8031E5
:1007A00008F080E090913E01891749F0E82FF0E0D1
:1007B00090911D01E35DFE4F908380933D01109267
:1007C0001E01CF911F910F91FF90EF90DF90CF907E
:1007D00008951F920F920FB60F9211242F933F93FB
:1007E0008F939F93AF93BF9380912801909129019C
:1007F000A0912A01B0912B013091270123E0230F12
:100800002D3720F40196A11DB11D05C026E8230F48
:100810000296A11DB11D209327018093280190937A
:100820002901A0932A01B0932B018091230190917B
:100830002401A0912501B09126010196A11DB11DB1
:100840008093230190932401A0932501B093260166
:10085000BF91AF919F918F913F912F910F900FBEBC
:100860000F901F9018951F920F920FB60F921124A0
:100870002F933F934F935F936F937F938F939F93A8
:10088000AF93BF93EF93FF93E0910201F0910301C7
:100890000995FF91EF91BF91AF919F918F917F91BA
:1008A0006F915F914F913F912F910F900FBE0F90DD
:1008B0001F9018951F920F920FB60F9211242F932D
:1008C0003F934F935F936F937F938F939F93AF93D8
:1008D000BF93EF93FF93E0910001F091010109951F
:1008E000FF91EF91BF91AF919F918F917F916F9108
:1008F0005F914F913F912F910F900FBE0F901F90DE
:100900001895CF93C82F61E00E941E0360E08C2FE2
:10091000CF910C94EE02CF92DF92EF92FF92CF93A1
:10092000DF93EC010E945A036B017C010E945A0381
:10093000AB01BC014C195D096E097F09483E53406B
:100940006105710548F480912D020E94C5028C1743
:100950009D0761F781E001C080E0DF91CF91FF90BA
:10096000EF90DF90CF900895CF93DF9380E090E0F9
:100970000E948B0480912F020E94C502EC0181E04D
:1009800090E00E948B04CE01DF91CF9108950097F3
:1009900069F0FC0101900020E9F73197AF01481B95
:1009A000590BBC0180E991E00C94D20080E090E00A
:1009B00008950F931F93CF93DF938C01C0E0D0E095
:1009C000F801EC0FFD1F6491662371F0E091900136
:1009D000F09191010190F081E02D80E991E009957D
:1009E000892B11F02196ECCFCE01DF91CF911F9191
:1009F0000F910895CF93DF930E94D904EC0189E110
:100A000091E00E94C7048C0F9D1FDF91CF91089544
:100A1000CF93C82F60E00E941E0361E08C2FCF911E
:100A20000C94EE0220912F0230913002019721F4B4
:100A3000C9010E94080503C0C9010E94810481E028
:100A400090E00E948B0480E090E00C948B04CF92A5
:100A5000DF92EF92FF920F931F93CF9380912D021D
:100A600090912E020E94080580912F0290913002F1
:100A70000E94080583EC90E00197F1F780E090E098
:100A80000E948B048FE090E00197F1F781E090E005
:100A90000E948B0400E010E0C0E0C12CD12C760154
:100AA000C3940E94B404892B61F0D701C601002EC3
:100AB00004C0880F991FAA1FBB1F0A94D2F7C82B26
:100AC0000CC0D701C601002E04C0880F991FAA1FB1
:100AD000BB1F0A94D2F78095C8230F5F1F4F0830C1
:100AE0001105F9F60E94B4040E94B40480912D020D
:100AF00090912E020E9481048C2FCF911F910F9113
:100B0000FF90EF90DF90CF900895BF92CF92DF9249
:100B1000EF92FF920F931F93CF93DF93C82E809194
:100B20002F02909130020E94080580912D02909131
:100B30002E020E940805CBEAD4E0CE010197F1F71E
:100B400080912D0290912E020E9481042197F1F74D
:100B500080912F02909130020E94810483E290E004
:100B60000197F1F780912D0290912E020E940805C5
:100B700080E090E00E948B04B82E882309F43FC0E7
:100B8000EE24E394F12CC0E0D0E00C2C000CDD0846
:100B900086010C2E02C0159507950A94E2F70170A4
:100BA0001127C8010E941205E026F1262196C830BF
:100BB000D10571F7C7010E94120580912F02909113
:100BC00030020E94080583EC90E00197F1F780E085
:100BD00090E00E948B0480912D020E94C502892B17
:100BE000D1F380912F020E94C502892BA1F380913D
:100BF0002D0290912E020E9481040E9427058B2DC8
:100C0000DF91CF911F910F91FF90EF90DF90CF90E8
:100C1000BF900895CF93DF93EC0183EF90E00E94A3
:100C20008505CE01DF91CF910C9485058F929F921F
:100C3000AF92BF920F931F93CF93DF93CDB7DEB7E1
:100C4000A1970FB6F894DEBF0FBECDBF19A24230F8
:100C500008F44AE08E010F5D1F4F842E912CA12CC9
:100C6000B12CA50194010E94180EE62FB901CA010A
:100C700001501109EA3014F4E05D01C0E95CD801CB
:100C8000EC93232B242B252B61F7C8010E94C7046A
:100C9000A1960FB6F894DEBF0FBECDBFDF91CF9106
:100CA0001F910F91BF90AF909F908F900895CF921A
:100CB000DF92EF92FF92CF93DF936115710589F474
:100CC000E0919001F09191010190F081E02D682F69
:100CD00080E991E0DF91CF91FF90EF90DF90CF908E
:100CE00009946C01990FEE08FF086A30710519F537
:100CF000F7FE1FC0E0919001F09191010190F08109
:100D0000E02D6DE280E991E00995EC0166277727F7
:100D1000CB016C197D098E099F094AE00E941606D5
:100D20008C0F9D1FDF91CF91FF90EF90DF90CF90C0
:100D300008954AE001C0462FC701B601DF91CF9167
:100D4000FF90EF90DF90CF900C941606789484B5C6
:100D5000826084BD84B5816084BD85B5826085BDB7
:100D600085B5816085BD80916E00816080936E0045
:100D70001092810080918100826080938100809137
:100D800081008160809381008091800081608093E8
:100D900080008091B10084608093B1008091B000A8
:100DA00081608093B00080917A00846080937A00A3
:100DB00080917A00826080937A0080917A008160CD
:100DC00080937A0080917A00806880937A001092F4
:100DD000C100E091A001F091A10182E08083E09147
:100DE0009C01F0919D011082E0919E01F0919F0184
:100DF00080E180831092A801E091A401F091A50107
:100E000086E08083E091A201F091A301808180615E
:100E10008083E091A201F091A301808188608083AA
:100E2000E091A201F091A301808180688083E0912C
:100E3000A201F091A30180818F7D80838AE091E0FF
:100E40000E94FA0462E082E00E941E0362E084E0F5
:100E50000E941E0362E083E00E941E0362E085E0C0
:100E60000E941E0361E08BE00E941E0361E08CE0A3
:100E70000E941E0361E08DE00E941E0361E08BE092
:100E80000E94EE0261E08CE00E94EE0261E08DE0E3
:100E90000E94EE0261E08AE00E941E0361E08AE0A7
:100EA0000E94EE0261E089E00E941E0361E089E099
:100EB0000E94EE0261E088E00E941E0361E088E08B
:100EC0000E94EE02E6E4F1E0119201E0E738F0075B
:100ED000D9F789EF90E00E94FA0484E080932C0116
:100EE00062E082E00E941E0362E084E00E941E0332
:100EF00010923D0110923E0186E693E0909301012D
:100F000080930001809169008C7F826080936900EA
:100F1000E89A84EF90E00E94FA0486EE90E00E9446
:100F2000FA040E941902C1E00E940602882309F413
:100F300001C50E940602811102C0DFEF12C0E091DC
:100F40003E0180913D01E817C1F3EF5FE03108F009
:100F5000E0E0E0933E01F0E0E35DFE4FD081DD2371
:100F600061F30D2F10E082E491E00E94D9046D2F0F
:100F700070E080E090E040E10E94160689E191E097
:100F80000E94C704003E110519F4C0934501D2C464
:100F9000013E110529F4C0934501C0934401CAC420
:100FA000003F110539F480914301811103C0C093C2
:100FB0004301C0C480914501811107C08091440163
:100FC000811103C080E090E002C080E091E0800FDA
:100FD000911F8534910509F477C30CF022C1833247
:100FE000910509F409C30CF091C08E30910509F404
:100FF000EDC30CF04BC08730910509F461C41CF5BA
:101000008430910509F42CC47CF48130910509F4F5
:1010100047C4039709F073C4809143018C278093E0
:10102000580180936E016BC48530910509F410C49A
:10103000069709F064C4809143018C2780936D0169
:1010400080936E015CC48B30910509F419C47CF463
:101050008930910509F42CC40A9709F050C4809195
:1010600043018C2780936C0180936E0148C48C30BF
:10107000910509F4FDC30D9709F041C48091430126
:101080008C278093460180935B0139C48A31910596
:1010900009F414C3D4F48431910509F40BC244F467
:1010A0008131910509F419C2429709F4F2C127C4AC
:1010B0008531910509F4DEC2469709F020C480917C
:1010C00043018C27809349011AC48D31910509F49D
:1010D000E9C26CF48B31910509F4D2C24C9709F046
:1010E0000EC4809143018C278093470108C481324C
:1010F000910509F47BC20CF0DBC24E9709F0FFC3E7
:10110000809143018C2780935101F9C3833391056A
:1011100009F48AC20CF043C08B32910509F478C2FD
:10112000FCF48632910509F4D5C26CF48432910541
:1011300009F468C2859709F0E2C3809143018C27C6
:1011400080936101DCC38932910509F449C28A9711
:1011500009F0D5C3809143018C2780936601CFC3EA
:101160008E32910509F4BCC26CF48C32910509F4FD
:101170008DC28D9709F0C3C3809143018C27809362
:101180006001BDC38133910509F464C2C29709F0BF
:10119000B6C3809143018C2780936D01B0C38C331B
:1011A000910509F479C2FCF48633910509F49EC2D5
:1011B0006CF48433910509F431C2C59709F09FC3DB
:1011C000809143018C2780936B0199C38A339105E9
:1011D00009F43AC2CB9709F092C3809143018C275E
:1011E000809364018CC38134910509F4B7C26CF417
:1011F0008D33910509F480C2CE9709F080C38091A8
:1012000043018C2780935A017AC320914301833490
:10121000910509F40FC20CF023C22C2720935C0126
:101220006EC38537910509F48DC20CF095C08935E0
:10123000910509F42EC10CF048C08D34910509F4D4
:1012400013C2F4F48A34910509F4A0C24CF4863434
:10125000910509F457C28934910509F487C24FC337
:101260008B34910509F4EAC18C34910509F047C328
:10127000809143018C2780935501809353013FC394
:101280008435910509F47AC284F48E34910509F409
:1012900095C28235910509F032C3809143018C27B4
:1012A0008093550180934B012AC38535910509F43C
:1012B0007DC28835910509F022C3809143018C27B6
:1012C00080935501809346011AC38B36910509F42A
:1012D00025C21CF58D35910509F460C284F48A3568
:1012E000910509F477C18B35910509F008C3809108
:1012F00043018C27809355018093630100C3863698
:10130000910509F45FC18936910509F0F8C2809111
:1013100043018C2780934901F2C28137910509F47A
:1013200025C274F48C36910509F406C28037910504
:1013300009F0E5C2809143018C2780934A01DFC206
:10134000209143018337910509F4EEC10CF0F0C1FF
:101350002C2720935101D3C2843111E0910709F465
:10136000A9C00CF042C08C37910509F437C22CF5A6
:101370008937910509F43AC284F48637910509F456
:101380000EC18837910509F0BAC2809143018C27BC
:101390008093480180935501B2C28A37910509F4C0
:1013A000B7C18B37910509F0AAC2809143018C2700
:1013B0008093550180936401A2C28338910509F49A
:1013C00067C24CF48D37910509F4C2C18E3791057F
:1013D00009F47EC294C2813131E0930709F492C0CE
:1013E0008231914009F482C28AC2803751E0950768
:1013F00009F4B4C00CF58936F1E09F0709F420C266
:1014000054F48A3411E0910709F4C0C18A3591403F
:1014100009F4E0C074C28B3631E0930709F4AFC021
:101420008C36914009F06BC2809143018C278093E8
:101430005C0180936E0163C2843751E0950709F423
:10144000A6C08CF48137F1E09F0709F470C08237A1
:10145000914009F054C2809143018C27809346014A
:1014600080936A014CC28A3711E0910709F4D7C111
:101470008D3721E0920709F4C1C18537914009F009
:101480003EC2809143018C27809346018093620184
:1014900036C280910401811103C080E090E002C057
:1014A0008FE090E0FC01EA5BFE4F209143012C2786
:1014B000208325C280910401811103C02FE030E018
:1014C00002C020E030E0809143018C27F901EA5B03
:1014D000FE4F80838093420112C2809143018C278A
:1014E0008093550190910401911103C020E030E0F8
:1014F00002C026E030E0F901EA5BFE4F8083809372
:101500004101FDC1809143018C2780935501909149
:101510000401911103C020E030E002C027E030E078
:10152000F901EA5BFE4F808380934101E8C190910D
:10153000040180914301992339F0982F9C279093BF
:101540004B0190936E0106C0982F9C2790935501F4
:1015500090935E018C2780934001D1C1909104014A
:10156000809143018C27992329F080935301809324
:101570006E01C5C18093550180934701C0C1809120
:1015800043018C278093460180936901B8C1809103
:1015900043018C278093460180935A01B0C120916A
:1015A00043012C272093460180910401811103C03F
:1015B00087E090E002C083E090E0FC01EA5BFE4F30
:1015C00020839DC1809143018C27809346018093A5
:1015D0004A0195C1809143018C2780934C018FC1B2
:1015E000809143018C2780934D0189C180914301F3
:1015F0008C2780935E0183C1809143018C27809367
:1016000057017DC1809143018C278093580177C198
:10161000809143018C2780935F0171C180914301C8
:101620008C27809367016BC1809143018C27809345
:101630006C0165C12C2720935B0161C1809143013E
:101640008C27809354015BC1809143018C27809348
:101650005D0155C1809143018C27809365014FC185
:101660002C27209353014BC1809143018C278093F9
:101670004B0145C1809143018C27809348013FC1B4
:10168000809143018C2780934F0139C180914301A0
:101690008C278093680133C1809143018C2780930C
:1016A00063012DC1809143018C278093500127C194
:1016B000809143018C278093560121C18091430181
:1016C0008C2780934E011BC1809143018C2780930E
:1016D0004A0115C1809143018C27809359010FC1A4
:1016E000809143018C278093690109C18091430156
:1016F0008C2780936A0103C1809143018C278093DA
:101700006201FDC0809143018C2780935201F7C094
:10171000809143018C2780935901F1C0809143014E
:101720008C2780936101EBC02C2720936901E7C0CF
:101730002C2720936A01E3C0809143018C2780937A
:101740006201DDC0809143018C2780935A01D7C08C
:10175000809143018C2780935201D1C08091430135
:101760008C278093550180936501C9C08091430106
:101770008C278093550180935D01C1C08091430106
:101780008C278093550180936B01B9C080914301F0
:101790008C278093550180936601B1C080914301ED
:1017A0008C278093550180935701A9C080914301F4
:1017B0008C278093550180935401A1C080914301EF
:1017C0008C27809355018093640199C080914301D7
:1017D0008C27809355018093620191C080914301D1
:1017E0008C278093550180936D0189C080914301BE
:1017F0008C278093550180935C0181C090910401F6
:10180000809143018C27992329F080935D01809377
:101810006E0175C0809346018093590170C090910C
:101820000401809143018C27992329F0809365015D
:1018300080936E0164C080934601809361015FC014
:10184000809143018C278093540180936E0157C08F
:10185000809143018C278093470180936E014FC094
:10186000809143018C2780935E0180936E0147C075
:10187000809143018C278093570180936E013FC074
:10188000809143018C2780935F0180936E0137C064
:10189000809143018C278093670180936E012FC054
:1018A000809143018C2780935B0180936E0127C058
:1018B000809143018C278093640180936E011FC047
:1018C000809143018C27809350018093550117C06C
:1018D00080914301882399F060913F01862F8C27E6
:1018E00080933F0189E00E94EE0209C0809143018C
:1018F000882329F0809104018C2780930401609152
:101900004201662341F080914101882329F06091D2
:1019100040016C2701C061E08AE00E94EE02109253
:10192000430180914401882319F01092440102C0C0
:10193000109245010E945A032B013C018091050140
:10194000909106011816190644F520918F01211176
:1019500024C040918B0150918C0160918D01709158
:101960008E0193018201041B150B260B370BB90165
:10197000A801493853416105710578F001979093AA
:101980000601809305010E94190240928B0150923A
:101990008C0160928D0170928E0180918F0188235D
:1019A00009F4E2C08091870190918801A09189019A
:1019B000B0918A01A3019201281B390B4A0B5B0BE2
:1019C000253631054105510508F4CEC08BEE90E077
:1019D0000E9485050E942705082F0E942705182FC1
:1019E000A82E880FBB080E942705D82FC82E880F65
:1019F000DD0880913102882331F00E942705E82E0E
:101A0000880FFF0802C0E12CF12C812F8170809398
:101A10006F0111FB882780F98093700112FB8827E2
:101A200080F98093710113FB882780F980937201FC
:101A300014FB882780F98093730115FB882780F9B0
:101A40008093740116FB112710F910937501C501DD
:101A5000880F892F881F990B91958170809376014B
:101A60008D2F817080937701D1FB882780F9809337
:101A70007801D2FB882780F980937901D3FB8827EE
:101A800080F980937A01D4FB882780F980937B01C9
:101A9000D5FB882780F980937C01D6FBDD27D0F920
:101AA000D0937D01C601880F892F881F990B9195CE
:101AB000817080937E01802F817080937F0101FB74
:101AC000882780F98093800102FB882780F9809322
:101AD00081018E2D817080938201E1FA882780F93F
:101AE00080938301E2FA882780F980938401E3FAE6
:101AF000882780F980938501809186018C278093C7
:101B0000860140928701509288016092890170920B
:101B10008A018AE391E00E94D904602F000F770BBD
:101B2000880B990B42E00E94160686E391E00E9422
:101B3000D9046AE070E0C5010E94570682E391E093
:101B40000E94D9046AE070E0C6010E9457068EE246
:101B500091E00E94D9046AE070E0C7010E94570634
:101B600089E191E00E94C70460E08CE00E94EE02EF
:101B700061E08CE00E94EE0206E411E0F801619160
:101B80008F016C278DE00E94EE0260E08BE00E94E6
:101B9000EE0261E08BE00E94EE02F1E007381F07E1
:101BA00069F761E08DE00E94EE0261E08BE00E9447
:101BB000EE0261E08CE00E94EE020E94D201B4C904
:101BC000E0E9F1E01382128288EE93E0A0E0B0E059
:101BD00084839583A683B7838BE091E09183808390
:101BE00085EC90E09587848784EC90E097878687E2
:101BF00080EC90E0918B808B81EC90E0938B828BDA
:101C000082EC90E0958B848B86EC90E0978B868BB2
:101C1000118E128E138E148EEDE2F2E083E090E0CE
:101C20009183808385E090E093838283148208957A
:101C3000A1E21A2EAA1BBB1BFD010DC0AA1FBB1FD0
:101C4000EE1FFF1FA217B307E407F50720F0A21B42
:101C5000B30BE40BF50B661F771F881F991F1A94AF
:101C600069F760957095809590959B01AC01BD01D9
:101C7000CF010895EE0FFF1F0590F491E02D099418
:0E1C800081E090E0F8940C94450EF894FFCFAC
:101C8E0005020502010500000000006901D20001F5
:0C1C9E0001B0013201100124010D0A0008
:107800000C94343C0C94513C0C94513C0C94513CE1
:107810000C94513C0C94513C0C94513C0C94513CB4
:107820000C94513C0C94513C0C94513C0C94513CA4
:107830000C94513C0C94513C0C94513C0C94513C94
:107840000C94513C0C94513C0C94513C0C94513C84
:107850000C94513C0C94513C0C94513C0C94513C74
:107860000C94513C0C94513C11241FBECFEFD8E036
:10787000DEBFCDBF11E0A0E0B1E0ECE9FFE702C060
:1078800005900D92A230B107D9F712E0A2E0B1E065
:1078900001C01D92AD30B107E1F70E942D3D0C945F
:1078A000CC3F0C94003C982F959595959595959582
:1078B000905D8F708A307CF0282F295A8091C0000B
:1078C00085FFFCCF9093C6008091C00085FFFCCF60
:1078D0002093C6000895282F205DF0CF982F809127
:1078E000C00085FFFCCF9093C6000895EF92FF92F1
:1078F0000F931F93EE24FF2487018091C00087FD22
:1079000017C00894E11CF11C011D111D81E4E8164B
:1079100082E4F8068FE0080780E0180770F3E09132
:107920000401F091050109958091C00087FFE9CF1E
:107930008091C6001F910F91FF90EF9008950E94D3
:10794000763C982F8091C00085FFFCCF9093C600B5
:1079500091362CF490330CF09053892F089597555D
:10796000892F08951F930E949F3C182F0E949F3CCF
:107970001295107F810F1F9108951F93182F882350
:1079800021F00E94763C1150E1F71F9108951F935A
:10799000182F0E94763C803249F0809103018F5F5E
:1079A000809303018530C1F01F9108958091C0003C
:1079B00085FFFCCF84E18093C6008091C00085FFE5
:1079C000FCCF1093C6008091C00085FFFCCF80E102
:1079D0008093C6001F910895E0910401F091050184
:1079E00009951F9108950E94763C803241F0809164
:1079F00003018F5F80930301853081F008958091AA
:107A0000C00085FFFCCF84E18093C6008091C00058
:107A100085FFFCCF80E18093C6000895E0910401CA
:107A2000F09105010995089540E951E08823A1F0FE
:107A30002D9A28EE33E0FA013197F1F721503040CA
:107A4000D1F72D9828EE33E0FA013197F1F7215064
:107A50003040D1F7815061F708953F924F925F9285
:107A60006F927F928F929F92AF92BF92CF92DF924E
:107A7000EF92FF920F931F93CF93DF93000080E16B
:107A80008093C4001092C50088E18093C10086E015
:107A90008093C2005098589A259A81E00E94143D24
:107AA00024E1F22E9EE1E92E85E9D82E0FE0C02ECA
:107AB00010E1B12EAA24A394B1E49B2EA6E58A2E50
:107AC000F2E57F2EE0E26E2E79E4572E63E5462E36
:107AD00050E5352E0E94763C8033B1F18133B9F107
:107AE000803409F46FC0813409F476C0823409F41B
:107AF00085C0853409F488C0803531F1823521F1A3
:107B0000813511F1853509F485C0863509F48DC0BC
:107B1000843609F496C0843709F403C1853709F423
:107B200072C1863709F466C0809103018F5F80932C
:107B30000301853079F6E0910401F0910501099582
:107B40000E94763C803351F60E94F33CC3CF0E94E2
:107B5000763C803249F78091C00085FFFCCFF092DF
:107B6000C6008091C00085FFFCCF9092C600809136
:107B7000C00085FFFCCF8092C6008091C00085FFC9
:107B8000FCCF7092C6008091C00085FFFCCF609250
:107B9000C6008091C00085FFFCCF5092C600809146
:107BA000C00085FFFCCF4092C6008091C00085FFD9
:107BB000FCCF3092C6008091C00085FFFCCFB09210
:107BC000C60088CF0E94763C863808F4BDCF0E945C
:107BD000763C0E94F33C7ECF0E94763C803809F4CC
:107BE0009CC0813809F40BC1823809F43CC1883942
:107BF00009F48FC080E00E94C73C6CCF84E10E94F2
:107C0000BD3C0E94F33C66CF85E00E94BD3C0E94D3
:107C1000F33C60CF0E94763C809306010E94763C44
:107C2000809307010E94F33C55CF0E94763C80333D
:107C300009F41DC183E00E94BD3C80E00E94C73C66
:107C400049CF0E94763C809309020E94763C809343
:107C5000080280910C028E7F80930C020E94763C79
:107C6000853409F415C18091080290910902892B8D
:107C700089F000E010E00E94763CF801E85FFE4FDA
:107C800080830F5F1F4F80910802909109020817AF
:107C9000190788F30E94763C803209F045CF809125
:107CA0000C0280FF01C16091060170910701660F0F
:107CB000771F7093070160930601A0910802B091AD
:107CC00009021097C9F0E8E0F1E09B01AD014E0F09
:107CD0005F1FF999FECF32BD21BD819180BDFA9A17
:107CE000F99A2F5F3F4FE417F50799F76A0F7B1F4B
:107CF00070930701609306018091C00085FFFCCF5F
:107D0000F092C6008091C00085FFFCCFB092C60003
:107D1000E1CE83E00E94C73CDDCE82E00E94C73CFA
:107D2000D9CE0E94763C809309020E94763C8093D3
:107D300008028091060190910701880F991F909386
:107D40000701809306010E94763C853409F4A6C0A1
:107D500080910C028E7F80930C020E94763C8032D0
:107D600009F0B8CE8091C00085FFFCCFF092C6002C
:107D7000609108027091090261157105B9F140E046
:107D800050E080910C02A82FA170B82FB27011C0E2
:107D9000BB2309F45CC0E0910601F0910701319624
:107DA000F0930701E09306014F5F5F4F46175707B7
:107DB000E8F4AA2369F3F999FECF209106013091E6
:107DC000070132BD21BDF89A90B58091C00085FFB2
:107DD000FCCF9093C6002F5F3F4F30930701209355
:107DE00006014F5F5F4F4617570718F38091C00099
:107DF00085FDE5CE8091C00085FFF8CFE0CE81E023
:107E00000E94C73C67CE0E94763C803209F08CCE3F
:107E10008091C00085FFFCCFF092C6008091C00029
:107E200085FFFCCFE092C6008091C00085FFFCCFAB
:107E3000D092C6008091C00085FFFCCFC092C600E2
:107E40008091C00085FFFCCFB092C60043CEE09188
:107E50000601F091070194918091C00085FFFCCF4D
:107E60009093C6009CCF80E10E94C73C33CE0E9415
:107E7000763C0E94763C182F0E94763C112309F430
:107E800083C0113009F484C08FE00E94C73C22CE29
:107E900080910C02816080930C02E5CE80910C02EF
:107EA000816080930C0259CF809107018823880F4D
:107EB000880B8A2180930B02809106019091070123
:107EC000880F991F90930701809306018091080203
:107ED00080FF09C080910802909109020196909359
:107EE000090280930802F894F999FECF1127E091D6
:107EF0000601F0910701C8E0D1E08091080290915D
:107F00000902103091F40091570001700130D9F34B
:107F100003E000935700E89500915700017001308D
:107F2000D9F301E100935700E89509901990009169
:107F3000570001700130D9F301E000935700E89534
:107F40001395103498F011270091570001700130FB
:107F5000D9F305E000935700E895009157000170B0
:107F60000130D9F301E100935700E895329602976A
:107F700009F0C7CF103011F00296E5CF112480919F
:107F8000C00085FFB9CEBCCE8EE10E94C73CA2CD19
:0C7F900085E90E94C73C9ECDF894FFCF0D
:027F9C00800063
:040000030000780081
:00000001FF
