:100000000C9462000C9406040C94DF030C948A0098
:100010000C948A000C948A000C948A000C948A0038
:100020000C948A000C948A000C948A000C948A0028
:100030000C948A000C948A000C948A000C948A0018
:100040000C9495030C948A000C948A000C948A00FA
:100050000C948A000C948A000C948A000C948A00F8
:100060000C948A000C948A000000000025002800EF
:100070002B000000000023002600290000000008DB
:10008000000201000003040700000000000000005F
:1000900000000000240027002A00010204081020AC
:1000A000408001020408102001020408102004040A
:1000B0000404040404040202020202020303030310
:1000C0000303330B11241FBECFEFD8E0DEBFCDBF3B
:1000D00011E0A0E0B1E0EAE9F6E102C005900D927E
:1000E000A830B107D9F721E0A8E0B1E001C01D9226
:1000F000A037B207E1F710E0C2E6D0E004C02197D4
:10010000FE010E94450BC136D107C9F70E942D049C
:100110000C944B0B0C940000833081F028F4813058
:1001200099F08230A1F008958730A9F08830B9F0B5
:100130008430D1F4809180008F7D03C08091800055
:100140008F7780938000089584B58F7702C084B53F
:100150008F7D84BD08958091B0008F7703C080911A
:10016000B0008F7D8093B0000895CF93DF93282F48
:1001700030E0F901E458FF4F8491F901E656FF4F52
:10018000D491F901E255FF4FC491CC2391F0811134
:100190000E948C00EC2FF0E0EE0FFF1FEE58FF4F97
:1001A000A591B491EC91ED2381E090E021F480E001
:1001B00002C080E090E0DF91CF9108951F93CF932C
:1001C000DF93282F30E0F901E458FF4F8491F901C3
:1001D000E656FF4FD491F901E255FF4FC491CC236D
:1001E000C9F0162F81110E948C00EC2FF0E0EE0F69
:1001F000FF1FE859FF4FA591B4918FB7F8941111E3
:1002000005C09C91ED2FE095E92302C0EC91ED2B08
:10021000EC938FBFDF91CF911F910895CF93DF9320
:1002200090E0FC01E656FF4F2491FC01E255FF4FA0
:100230008491882361F190E0880F991FFC01E057B9
:10024000FF4FC591D491FC01E859FF4FA591B4919E
:10025000611109C09FB7F894888120958223888313
:10026000EC912E230BC0623061F49FB7F894388173
:10027000822F809583238883EC912E2B2C939FBF14
:1002800006C08FB7F894E8812E2B28838FBFDF91AB
:10029000CF910895CF93C82F61E00E940E0160E0D6
:1002A0008C2FCF910C94DE00CF93C82F60E00E947A
:1002B0000E0161E08C2FCF910C94DE002FB7F894E3
:1002C00060911401709115018091160190911701B0
:1002D0002FBF0895CF92DF92EF92FF92CF93DF93DB
:1002E000EC010E945E016B017C010E945E01AB018A
:1002F000BC014C195D096E097F09483E53406105F8
:10030000710548F480916B010E94B5008C179D0720
:1003100061F781E001C080E0DF91CF91FF90EF9025
:10032000DF90CF900895CF93DF9380E090E00E941C
:100330006A0180916D010E94B500EC0181E090E0BE
:100340000E946A01CE01DF91CF910895CF92DF9292
:10035000EF92FF920F931F93CF9380916B01909137
:100360006C010E94540180916D0190916E010E9478
:10037000540183EC90E00197F1F780E090E00E9457
:100380006A018FE090E00197F1F781E090E00E9430
:100390006A0100E010E0C0E0C12CD12C7601C394CA
:1003A0000E949301892B61F0D701C601002E04C081
:1003B000880F991FAA1FBB1F0A94D2F7C82B0CC025
:1003C000D701C601002E04C0880F991FAA1FBB1FAA
:1003D0000A94D2F78095C8230F5F1F4F083011058C
:1003E000F9F60E9493010E94930180916B01909114
:1003F0006C010E944A018C2FCF911F910F91FF90A9
:10040000EF90DF90CF90089520916D0130916E01B3
:10041000019721F4C9010E94540103C0C9010E943F
:100420004A0181E090E00E946A0180E090E00C9433
:100430006A01BF92CF92DF92EF92FF920F931F93C8
:10044000CF93DF93C82E80916D0190916E010E9431
:10045000540180916B0190916C010E945401CBEA90
:10046000D4E0CE010197F1F780916B0190916C017E
:100470000E944A012197F1F780916D0190916E01E0
:100480000E944A0183E290E00197F1F780916B01AD
:1004900090916C010E94540180E090E00E946A01FA
:1004A000B82E882309F43FC0EE24E394F12CC0E079
:1004B000D0E00C2C000CDD0886010C2E02C0159536
:1004C00007950A94E2F701701127C8010E940402FF
:1004D000E026F1262196C830D10571F7C7010E94A8
:1004E000040280916D0190916E010E94540183EC91
:1004F00090E00197F1F780E090E00E946A0180911E
:100500006B010E94B500892BD1F380916D010E948F
:10051000B500892BA1F380916B0190916C010E9431
:100520004A010E94A6018B2DDF91CF911F910F915F
:10053000FF90EF90DF90CF90BF900895CF93DF931F
:10054000EC0183EF90E00E941902CE01DF91CF9180
:100550000C941902CF9380916B0190916C010E94D1
:10056000540180916D0190916E010E9454018FEFB2
:1005700090E00E941902C82F8823A1F10E94A601D1
:100580000E94A60188EC90E00E949E0284E690E022
:100590000E949E0280E590E00E949E0282EF90E021
:1005A0000E9419020E94A60191E0833009F090E0B8
:1005B00090936F0188EE90E00E94190283E090E032
:1005C0000E94190286EE90E00E94190288E290E0F3
:1005D0000E949E0280EF90E00E9419028BE891E059
:1005E0000197F1F78C2FCF910895CF92DF92EF9280
:1005F000FF920F931F93CF93809119010E94B50032
:10060000C82F0E945E0100910B0110910C012091F6
:100610000D0130910E016B017C01C01AD10AE20A72
:10062000F30A970186010B3F11052105310510F0F2
:1006300010920A0160930B0170930C0180930D01DD
:1006400090930E0190910A019F5F90930A019A3056
:1006500050F4923068F4913009F040C010920901D2
:10066000109208013DC09A30B1F09B3001F136C0C4
:10067000809108018C0F809308012091090130E0DE
:1006800035952795C11102C080E001C080E8282B74
:100690002093090125C09091080191709C1719F0D1
:1006A000909308011DC08DEF8093080119C08091BF
:1006B00008018D3F98F480912A018F5F803108F006
:1006C00080E090912B01891749F0E82FF0E090919C
:1006D0000901E65EFE4F908380932A0110920A0181
:1006E000CF911F910F91FF90EF90DF90CF900895E1
:1006F000089590912B0180912A01981749F08091DB
:100700002B0190912A01891B87FF03C0805F089508
:1007100080E0089508958EBD00000DB407FEFDCF62
:100720008EB508958CBD9DBD08951F920F920FB692
:100730000F9211242F933F938F939F93AF93BF9367
:100740008091140190911501A0911601B0911701AB
:100750003091130123E0230F2D3720F40196A11DC2
:10076000B11D05C026E8230F0296A11DB11D2093DF
:1007700013018093140190931501A0931601B09377
:10078000170180910F0190911001A0911101B0917A
:1007900012010196A11DB11D80930F0190931001CC
:1007A000A0931101B0931201BF91AF919F918F91CE
:1007B0003F912F910F900FBE0F901F9018951F9291
:1007C0000F920FB60F9211242F933F934F935F9385
:1007D0006F937F938F939F93AF93BF93EF93FF9309
:1007E000E0910201F09103010995FF91EF91BF9112
:1007F000AF919F918F917F916F915F914F913F91B9
:100800002F910F900FBE0F901F9018951F920F926F
:100810000FB60F9211242F933F934F935F936F93D3
:100820007F938F939F93AF93BF93EF93FF93E09149
:100830000001F09101010995FF91EF91BF91AF91F6
:100840009F918F917F916F915F914F913F912F91E8
:100850000F900FBE0F901F901895CF93DF931F92AC
:10086000CDB7DEB7789484B5826084BD84B58160ED
:1008700084BD85B5826085BD85B5816085BD80916B
:100880006E00816080936E001092810080918100E3
:1008900082608093810080918100816080938100DB
:1008A000809180008160809380008091B10084609D
:1008B0008093B1008091B00081608093B0008091FE
:1008C0007A00846080937A0080917A0082608093BD
:1008D0007A0080917A00816080937A0080917A001A
:1008E000806880937A001092C1001FB7F8948091BD
:1008F0001801811127C0E8EBF0E08491E4EAF0E010
:100900009491E82FF0E0EE0FFF1FE057FF4FA59105
:10091000B491EC91E92321F461E08AE00E94DE00C9
:1009200061E08AE00E940E018CB580618CBD8CB5BF
:1009300080648CBD61E08DE00E940E0161E08BE07F
:100940000E940E01809118018F5F809318011FBFD4
:1009500061E087E00E940E0161E087E00E94DE0016
:1009600062E082E00E940E0162E084E00E940E01DB
:1009700062E083E00E940E0162E085E00E940E01C9
:1009800061E08AE00E940E0161E08AE00E94DE00E0
:1009900061E089E00E940E0161E089E00E94DE00D2
:1009A00061E088E00E940E0161E088E00E94DE00C4
:1009B00062E08FE00E940E0161E08EE00E940E0175
:1009C000E3E3F1E0119221E0EC35F207D9F784E09E
:1009D0008093190162E082E00E940E0162E084E0EF
:1009E0000E940E0110922A0110922B0185EF92E0D5
:1009F0009093010180930001809169008C7F826057
:100A000080936900E89A0E94AA0280936A01C12C2F
:100A1000D12C7601C3943324339400E010E00E947B
:100A200079038823F9F00E947903811102C08FEFC6
:100A300012C0E0912B0180912A01E817C1F3EF5F0A
:100A4000E03108F0E0E0E0932B01F0E0E65EFE4FDD
:100A50008081882361F3282F30E0203E310529F47E
:100A60003092320140E0B12CF7C4213E310529F427
:100A70003092320130923101F5CF203F310539F407
:100A800080913001811103C030923001EBCF809111
:100A90003201811107C080913101811103C080E0D2
:100AA00090E002C080E091E0820F931F85349105B1
:100AB00009F477C30CF022C18332910509F409C30C
:100AC0000CF091C08E30910509F4EDC30CF04BC0D1
:100AD0008730910509F461C41CF58430910509F44F
:100AE0002CC47CF48130910509F447C4039709F0C4
:100AF00073C48091300183258093450180935B010D
:100B00006BC48530910509F410C4069709F064C4DC
:100B100080913001832580935A0180935B015CC4EE
:100B20008B30910509F419C47CF48930910509F4DE
:100B30002CC40A9709F050C480913001832580931A
:100B4000590180935B0148C48C30910509F4FDC3C1
:100B50000D9709F041C480913001832580933301C2
:100B60008093480139C48A31910509F414C3D4F43F
:100B70008431910509F40BC244F48131910509F4E3
:100B800019C2429709F4F2C127C48531910509F4CD
:100B9000DEC2469709F020C48091300183258093FE
:100BA00036011AC48D31910509F4E9C26CF48B3118
:100BB000910509F4D2C24C9709F00EC4809130011E
:100BC00083258093340108C48132910509F47BC2E6
:100BD0000CF0DBC24E9709F0FFC3809130018325F2
:100BE00080933E01F9C38333910509F48AC20CF066
:100BF00043C08B32910509F478C2FCF4863291052A
:100C000009F4D5C26CF48432910509F468C2859761
:100C100009F0E2C380913001832580934E01DCC34B
:100C20008932910509F449C28A9709F0D5C38091A8
:100C30003001832580935301CFC38E32910509F48F
:100C4000BCC26CF48C32910509F48DC28D9709F009
:100C5000C3C380913001832580934D01BDC381338F
:100C6000910509F464C2C29709F0B6C380913001BE
:100C7000832580935A01B0C38C33910509F479C25E
:100C8000FCF48633910509F49EC26CF4843391051B
:100C900009F431C2C59709F09FC3809130018325C3
:100CA0008093580199C38A33910509F43AC2CB97CE
:100CB00009F092C3809130018325809351018CC348
:100CC0008134910509F4B7C26CF48D33910509F4B0
:100CD00080C2CE9709F080C3809130018325809334
:100CE00047017AC3209130018334910509F40FC282
:100CF0000CF023C22325209349016EC3853791054B
:100D000009F48DC20CF095C08935910509F42EC106
:100D10000CF048C08D34910509F413C2F4F48A3400
:100D2000910509F4A0C24CF48634910509F457C228
:100D30008934910509F487C24FC38B34910509F4B6
:100D4000EAC18C34910509F047C3809130018325B5
:100D500080934201809340013FC38435910509F49B
:100D60007AC284F48E34910509F495C282359105D6
:100D700009F032C380913001832580934201809332
:100D800038012AC38535910509F47DC2883591055E
:100D900009F022C380913001832580934201809322
:100DA00033011AC38B36910509F425C21CF58D3524
:100DB000910509F460C284F48A35910509F477C17C
:100DC0008B35910509F008C380913001832580930C
:100DD00042018093500100C38636910509F45FC13A
:100DE0008936910509F0F8C28091300183258093FE
:100DF0003601F2C28137910509F425C274F48C36AC
:100E0000910509F406C28037910509F0E5C2809189
:100E10003001832580933701DFC220913001833771
:100E2000910509F4EEC10CF0F0C1232520933E0199
:100E3000D3C2843131E0930709F4A9C00CF042C059
:100E40008C37910509F437C22CF58937910509F4DF
:100E50003AC284F48637910509F40EC188379105AA
:100E600009F0BAC2809130018325809335018093C7
:100E70004201B2C28A37910509F4B7C18B37910597
:100E800009F0AAC2809130018325809342018093AA
:100E90005101A2C28338910509F467C24CF48D3721
:100EA000910509F4C2C18E37910509F47EC294C23E
:100EB000813151E0950709F492C08231914009F4E3
:100EC00082C28AC2803731E0930709F4B4C00CF5BE
:100ED000893651E0950709F420C254F48A3431E090
:100EE000930709F4C0C18A35914009F4E0C074C287
:100EF0008B3651E0950709F4AFC08C36914009F06C
:100F00006BC28091300183258093490180935B01FE
:100F100063C2843731E0930709F4A6C08CF48137AB
:100F200051E0950709F470C08237914009F054C22E
:100F300080913001832580933301809357014CC207
:100F40008A3731E0930709F4D7C18D3741E0940720
:100F500009F4C1C18537914009F03EC2809130014A
:100F600083258093330180934F0136C28091040121
:100F7000811103C080E090E002C08FE090E0FC01AE
:100F8000ED5CFE4F209130012325208325C2809106
:100F90000401811103C02FE030E002C020E030E006
:100FA000809130018325F901ED5CFE4F80838093B1
:100FB0002F0112C2809130018325809342019091CC
:100FC0000401911103C020E030E002C026E030E0CF
:100FD000F901ED5CFE4F808380932E01FDC180916D
:100FE000300183258093420190910401911103C047
:100FF00020E030E002C027E030E0F901ED5CFE4F78
:10100000808380932E01E8C190910401809130018A
:10101000992339F0982F93259093380190935B0191
:1010200006C0982F93259093420190934B018325FE
:1010300080932D01D1C190910401809130018325CD
:10104000992329F08093400180935B01C5C180936F
:10105000420180933401C0C1809130018325809387
:10106000330180935601B8C180913001832580936C
:10107000330180934701B0C1209130012325209393
:10108000330180910401811103C087E090E002C028
:1010900083E090E0FC01ED5CFE4F20839DC18091D8
:1010A00030018325809333018093370195C180916E
:1010B00030018325809339018FC1809130018325D0
:1010C00080933A0189C180913001832580934B013F
:1010D00083C1809130018325809344017DC180913B
:1010E000300183258093450177C1809130018325AC
:1010F00080934C0171C1809130018325809354010C
:101100006BC18091300183258093590165C12325EE
:101110002093480161C18091300183258093410172
:101120005BC180913001832580934A0155C1809134
:1011300030018325809352014FC123252093400124
:101140004BC18091300183258093380145C1809146
:1011500030018325809335013FC180913001832583
:1011600080933C0139C180913001832580935501E2
:1011700033C1809130018325809350012DC180912E
:101180003001832580933D0127C180913001832563
:101190008093430121C180913001832580933B01DD
:1011A0001BC18091300183258093370115C1809147
:1011B00030018325809346010FC180913001832542
:1011C0008093560109C18091300183258093570196
:1011D00003C180913001832580934F01FDC0809130
:1011E0003001832580933F01F7C080913001832532
:1011F00080934601F1C080913001832580934E0198
:10120000EBC0232520935601E7C0232520935701E7
:10121000E3C080913001832580934F01DDC0809130
:101220003001832580934701D7C080913001832509
:1012300080933F01D1C0809130018325809342018A
:1012400080935201C9C0809130018325809342016F
:1012500080934A01C1C0809130018325809342016F
:1012600080935801B9C08091300183258093420159
:1012700080935301B1C08091300183258093420156
:1012800080934401A9C0809130018325809342015D
:1012900080934101A1C08091300183258093420158
:1012A0008093510199C08091300183258093420140
:1012B00080934F0191C0809130018325809342013A
:1012C00080935A0189C08091300183258093420127
:1012D0008093490181C09091040180913001832560
:1012E000992329F080934A0180935B0175C0809314
:1012F00033018093460170C09091040180913001C8
:101300008325992329F08093520180935B0164C067
:101310008093330180934E015FC08091300183251B
:101320008093410180935B0157C0809130018325F8
:101330008093340180935B014FC0809130018325FD
:1013400080934B0180935B0147C0809130018325DE
:101350008093440180935B013FC0809130018325DD
:1013600080934C0180935B0137C0809130018325CD
:101370008093540180935B012FC0809130018325BD
:101380008093480180935B0127C0809130018325C1
:101390008093510180935B011FC0809130018325B0
:1013A00080933D018093420117C0809130018823D2
:1013B00099F060912C01862F832580932C0189E080
:1013C0000E94DE0009C080913001882329F08091BD
:1013D000040183258093040160912F01662341F06D
:1013E00080912E01882329F060912D01632501C091
:1013F00061E08AE00E94DE001092300180913101AC
:10140000882319F0109231012DCB109232012ACB92
:10141000E42FE20FE93220F12F5F3F4F28303105F2
:10142000B9F780915C0190915D0149830E9492031C
:1014300060E087E00E94DE00B3948B2D0E948B0356
:101440008A2D0E948B0361E087E00E94DE004981C3
:10145000485F86E0B81619F120E030E0A12CD8CF23
:10146000F0E0ED5CFE4F8081882361F0D701C6017A
:10147000022E04C0880F991FAA1FBB1F0A94D2F71F
:10148000A82ACACFD701C601022E04C0880F991F0F
:10149000AA1FBB1F0A94D2F78095A822BDCF0E9435
:1014A0005E014B015C0180910501909106011816C7
:1014B000190654F520916A01211126C04091660158
:1014C00050916701609168017091690124013501B3
:1014D000441A550A660A770A29E8421623E1520699
:1014E0006104710488F001979093060180930501CF
:1014F0000E94AA0280936A0180926601909267011D
:10150000A0926801B092690180916A01882309F470
:10151000A3C08091620190916301A0916401B09198
:10152000650124013501481A590A6A0A7B0AD30168
:10153000C20185369105A105B10508F48DC08BEE79
:1015400090E00E9419020E94A601682E0E94A60146
:10155000782E0E94A601582E80916F01882331F0C9
:101560000E94A601282F880F330B02C020E030E034
:101570004091610143254093610170926001509256
:101580005F01562D5270962D947060FE02C020614E
:1015900001C02F7E20935E0180915E01552311F0E2
:1015A000806201C08F7D80935E0180915E019923EE
:1015B00011F0806401C08F7B80935E0190915E0189
:1015C000442311F0906801C09F7790935E01809151
:1015D0005C0190915D010E94920360E087E00E94AF
:1015E000DE008AE00E948B03872D0E948B0361E05E
:1015F00087E00E94DE0080915C0190915D010E9475
:10160000920360E087E00E94DE008BE00E948B0383
:10161000852D0E948B0361E087E00E94DE008091AF
:101620005C0190915D010E94920360E087E00E945E
:10163000DE008CE00E948B0380915E010E948B0390
:1016400061E087E00E94DE00809262019092630177
:10165000A0926401B09265010115110509F4DFC97A
:101660000E940000D8C9EBE6F1E083E090E09183AE
:10167000808385E090E0938382831482ECE5F1E03F
:1016800080E5808381E081830895EE0FFF1F059040
:0A169000F491E02D0994F894FFCFC7
:08169A0078037803010500004C
:107800000C94343C0C94513C0C94513C0C94513CE1
:107810000C94513C0C94513C0C94513C0C94513CB4
:107820000C94513C0C94513C0C94513C0C94513CA4
:107830000C94513C0C94513C0C94513C0C94513C94
:107840000C94513C0C94513C0C94513C0C94513C84
:107850000C94513C0C94513C0C94513C0C94513C74
:107860000C94513C0C94513C11241FBECFEFD8E036
:10787000DEBFCDBF11E0A0E0B1E0ECE9FFE702C060
:1078800005900D92A230B107D9F712E0A2E0B1E065
:1078900001C01D92AD30B107E1F70E942D3D0C945F
:1078A000CC3F0C94003C982F959595959595959582
:1078B000905D8F708A307CF0282F295A8091C0000B
:1078C00085FFFCCF9093C6008091C00085FFFCCF60
:1078D0002093C6000895282F205DF0CF982F809127
:1078E000C00085FFFCCF9093C6000895EF92FF92F1
:1078F0000F931F93EE24FF2487018091C00087FD22
:1079000017C00894E11CF11C011D111D81E4E8164B
:1079100082E4F8068FE0080780E0180770F3E09132
:107920000401F091050109958091C00087FFE9CF1E
:107930008091C6001F910F91FF90EF9008950E94D3
:10794000763C982F8091C00085FFFCCF9093C600B5
:1079500091362CF490330CF09053892F089597555D
:10796000892F08951F930E949F3C182F0E949F3CCF
:107970001295107F810F1F9108951F93182F882350
:1079800021F00E94763C1150E1F71F9108951F935A
:10799000182F0E94763C803249F0809103018F5F5E
:1079A000809303018530C1F01F9108958091C0003C
:1079B00085FFFCCF84E18093C6008091C00085FFE5
:1079C000FCCF1093C6008091C00085FFFCCF80E102
:1079D0008093C6001F910895E0910401F091050184
:1079E00009951F9108950E94763C803241F0809164
:1079F00003018F5F80930301853081F008958091AA
:107A0000C00085FFFCCF84E18093C6008091C00058
:107A100085FFFCCF80E18093C6000895E0910401CA
:107A2000F09105010995089540E951E08823A1F0FE
:107A30002D9A28EE33E0FA013197F1F721503040CA
:107A4000D1F72D9828EE33E0FA013197F1F7215064
:107A50003040D1F7815061F708953F924F925F9285
:107A60006F927F928F929F92AF92BF92CF92DF924E
:107A7000EF92FF920F931F93CF93DF93000080E16B
:107A80008093C4001092C50088E18093C10086E015
:107A90008093C2005098589A259A81E00E94143D24
:107AA00024E1F22E9EE1E92E85E9D82E0FE0C02ECA
:107AB00010E1B12EAA24A394B1E49B2EA6E58A2E50
:107AC000F2E57F2EE0E26E2E79E4572E63E5462E36
:107AD00050E5352E0E94763C8033B1F18133B9F107
:107AE000803409F46FC0813409F476C0823409F41B
:107AF00085C0853409F488C0803531F1823521F1A3
:107B0000813511F1853509F485C0863509F48DC0BC
:107B1000843609F496C0843709F403C1853709F423
:107B200072C1863709F466C0809103018F5F80932C
:107B30000301853079F6E0910401F0910501099582
:107B40000E94763C803351F60E94F33CC3CF0E94E2
:107B5000763C803249F78091C00085FFFCCFF092DF
:107B6000C6008091C00085FFFCCF9092C600809136
:107B7000C00085FFFCCF8092C6008091C00085FFC9
:107B8000FCCF7092C6008091C00085FFFCCF609250
:107B9000C6008091C00085FFFCCF5092C600809146
:107BA000C00085FFFCCF4092C6008091C00085FFD9
:107BB000FCCF3092C6008091C00085FFFCCFB09210
:107BC000C60088CF0E94763C863808F4BDCF0E945C
:107BD000763C0E94F33C7ECF0E94763C803809F4CC
:107BE0009CC0813809F40BC1823809F43CC1883942
:107BF00009F48FC080E00E94C73C6CCF84E10E94F2
:107C0000BD3C0E94F33C66CF85E00E94BD3C0E94D3
:107C1000F33C60CF0E94763C809306010E94763C44
:107C2000809307010E94F33C55CF0E94763C80333D
:107C300009F41DC183E00E94BD3C80E00E94C73C66
:107C400049CF0E94763C809309020E94763C809343
:107C5000080280910C028E7F80930C020E94763C79
:107C6000853409F415C18091080290910902892B8D
:107C700089F000E010E00E94763CF801E85FFE4FDA
:107C800080830F5F1F4F80910802909109020817AF
:107C9000190788F30E94763C803209F045CF809125
:107CA0000C0280FF01C16091060170910701660F0F
:107CB000771F7093070160930601A0910802B091AD
:107CC00009021097C9F0E8E0F1E09B01AD014E0F09
:107CD0005F1FF999FECF32BD21BD819180BDFA9A17
:107CE000F99A2F5F3F4FE417F50799F76A0F7B1F4B
:107CF00070930701609306018091C00085FFFCCF5F
:107D0000F092C6008091C00085FFFCCFB092C60003
:107D1000E1CE83E00E94C73CDDCE82E00E94C73CFA
:107D2000D9CE0E94763C809309020E94763C8093D3
:107D300008028091060190910701880F991F909386
:107D40000701809306010E94763C853409F4A6C0A1
:107D500080910C028E7F80930C020E94763C8032D0
:107D600009F0B8CE8091C00085FFFCCFF092C6002C
:107D7000609108027091090261157105B9F140E046
:107D800050E080910C02A82FA170B82FB27011C0E2
:107D9000BB2309F45CC0E0910601F0910701319624
:107DA000F0930701E09306014F5F5F4F46175707B7
:107DB000E8F4AA2369F3F999FECF209106013091E6
:107DC000070132BD21BDF89A90B58091C00085FFB2
:107DD000FCCF9093C6002F5F3F4F30930701209355
:107DE00006014F5F5F4F4617570718F38091C00099
:107DF00085FDE5CE8091C00085FFF8CFE0CE81E023
:107E00000E94C73C67CE0E94763C803209F08CCE3F
:107E10008091C00085FFFCCFF092C6008091C00029
:107E200085FFFCCFE092C6008091C00085FFFCCFAB
:107E3000D092C6008091C00085FFFCCFC092C600E2
:107E40008091C00085FFFCCFB092C60043CEE09188
:107E50000601F091070194918091C00085FFFCCF4D
:107E60009093C6009CCF80E10E94C73C33CE0E9415
:107E7000763C0E94763C182F0E94763C112309F430
:107E800083C0113009F484C08FE00E94C73C22CE29
:107E900080910C02816080930C02E5CE80910C02EF
:107EA000816080930C0259CF809107018823880F4D
:107EB000880B8A2180930B02809106019091070123
:107EC000880F991F90930701809306018091080203
:107ED00080FF09C080910802909109020196909359
:107EE000090280930802F894F999FECF1127E091D6
:107EF0000601F0910701C8E0D1E08091080290915D
:107F00000902103091F40091570001700130D9F34B
:107F100003E000935700E89500915700017001308D
:107F2000D9F301E100935700E89509901990009169
:107F3000570001700130D9F301E000935700E89534
:107F40001395103498F011270091570001700130FB
:107F5000D9F305E000935700E895009157000170B0
:107F60000130D9F301E100935700E895329602976A
:107F700009F0C7CF103011F00296E5CF112480919F
:107F8000C00085FFB9CEBCCE8EE10E94C73CA2CD19
:0C7F900085E90E94C73C9ECDF894FFCF0D
:027F9C00800063
:040000030000780081
:00000001FF
