:100000000C9462000C94B0030C9489030C948A0045
:100010000C948A000C948A000C948A000C948A0038
:100020000C948A000C948A000C948A000C948A0028
:100030000C948A000C948A000C948A000C948A0018
:100040000C943F030C948A000C948A000C948A0050
:100050000C948A000C948A000C948A000C948A00F8
:100060000C948A000C948A000000000024002700F1
:100070002A0000000000250028002B0000000000DE
:1000800023002600290004040404040404040202DA
:100090000202020203030303030301020408102007
:1000A0004080010204081020010204081020000012
:1000B0000008000201000003040700000000000027
:1000C0000000B30A11241FBECFEFD8E0DEBFCDBFC2
:1000D00011E0A0E0B1E0EEE8F5E102C005900D927C
:1000E000A630B107D9F721E0A6E0B1E001C01D922A
:1000F000AB37B207E1F710E0C2E6D0E004C02197C9
:10010000FE010E94BF0AC136D107C9F70E94D7037A
:100110000C94C50A0C940000833081F028F48130DF
:1001200099F08230A1F008958730A9F08830B9F0B5
:100130008430D1F4809180008F7D03C08091800055
:100140008F7780938000089584B58F7702C084B53F
:100150008F7D84BD08958091B0008F7703C080911A
:10016000B0008F7D8093B0000895CF93DF93282F48
:1001700030E0F901E255FF4F8491F901E656FF4F57
:10018000D491F901EA57FF4FC491CC2391F081112A
:100190000E948C00EC2FF0E0EE0FFF1FE458FF4FA1
:1001A000A591B491EC91ED2381E090E021F480E001
:1001B00002C080E090E0DF91CF9108951F93CF932C
:1001C000DF93282F30E0F901E255FF4F8491F901C8
:1001D000E656FF4FD491F901EA57FF4FC491CC2363
:1001E000C9F0162F81110E948C00EC2FF0E0EE0F69
:1001F000FF1FEE58FF4FA591B4918FB7F8941111DE
:1002000005C09C91ED2FE095E92302C0EC91ED2B08
:10021000EC938FBFDF91CF911F910895CF93DF9320
:1002200090E0FC01E656FF4F2491FC01EA57FF4F96
:100230008491882361F190E0880F991FFC01E859AF
:10024000FF4FC591D491FC01EE58FF4FA591B49199
:10025000611109C09FB7F894888120958223888313
:10026000EC912E230BC0623061F49FB7F894388173
:10027000822F809583238883EC912E2B2C939FBF14
:1002800006C08FB7F894E8812E2B28838FBFDF91AB
:10029000CF910895CF93C82F61E00E940E0160E0D6
:1002A0008C2FCF910C94DE00CF93C82F60E00E947A
:1002B0000E0161E08C2FCF910C94DE002FB7F894E3
:1002C00060911201709113018091140190911501B8
:1002D0002FBF0895CF92DF92EF92FF92CF93DF93DB
:1002E000EC010E945E016B017C010E945E01AB018A
:1002F000BC014C195D096E097F09483E53406105F8
:10030000710548F4809176010E94B5008C179D0715
:1003100061F781E001C080E0DF91CF91FF90EF9025
:10032000DF90CF900895CF93DF9380E090E00E941C
:100330006A01809178010E94B500EC0181E090E0B3
:100340000E946A01CE01DF91CF910895CF92DF9292
:10035000EF92FF920F931F93CF938091760190912C
:1003600077010E94540180917801909179010E9457
:10037000540183EC90E00197F1F780E090E00E9457
:100380006A018FE090E00197F1F781E090E00E9430
:100390006A0100E010E0C0E0C12CD12C7601C394CA
:1003A0000E949301892B61F0D701C601002E04C081
:1003B000880F991FAA1FBB1F0A94D2F7C82B0CC025
:1003C000D701C601002E04C0880F991FAA1FBB1FAA
:1003D0000A94D2F78095C8230F5F1F4F083011058C
:1003E000F9F60E9493010E94930180917601909109
:1003F00077010E944A018C2FCF911F910F91FF909E
:10040000EF90DF90CF90089520917801309179019D
:10041000019721F4C9010E94540103C0C9010E943F
:100420004A0181E090E00E946A0180E090E00C9433
:100430006A01BF92CF92DF92EF92FF920F931F93C8
:10044000CF93DF93C82E80917801909179010E941B
:10045000540180917601909177010E945401CBEA7A
:10046000D4E0CE010197F1F7809176019091770168
:100470000E944A012197F1F78091780190917901CA
:100480000E944A0183E290E00197F1F780917601A2
:10049000909177010E94540180E090E00E946A01EF
:1004A000B82E882309F43FC0EE24E394F12CC0E079
:1004B000D0E00C2C000CDD0886010C2E02C0159536
:1004C00007950A94E2F701701127C8010E940402FF
:1004D000E026F1262196C830D10571F7C7010E94A8
:1004E000040280917801909179010E94540183EC7B
:1004F00090E00197F1F780E090E00E946A0180911E
:1005000076010E94B500892BD1F3809178010E9479
:10051000B500892BA1F380917601909177010E941B
:100520004A010E94A6018B2DDF91CF911F910F915F
:10053000FF90EF90DF90CF90BF900895CF93DF931F
:10054000EC0183EF90E00E941902CE01DF91CF9180
:100550000C941902CF92DF92EF92FF920F931F93A8
:10056000CF93809116010E94B500C82F0E945E01B2
:100570000091090110910A0120910B0130910C01A9
:100580006B017C01C01AD10AE20AF30A97018601C5
:100590000B3F11052105310510F010920801609301
:1005A000090170930A0180930B0190930C019091C3
:1005B00008019F5F909308019A3050F4923068F4DC
:1005C000913009F040C010920701109206013DC021
:1005D0009A30B1F09B3001F136C0809106018C0F4A
:1005E000809306012091070130E035952795C111D0
:1005F00002C080E001C080E8282B2093070125C0BD
:100600009091060191709C1719F0909306011DC0FE
:100610008DEF8093060119C0809106018D3F98F4FB
:10062000809127018F5F803108F080E09091280150
:10063000891749F0E82FF0E090910701E95EFE4F3D
:1006400090838093270110920801CF911F910F9101
:10065000FF90EF90DF90CF9008950895909128013A
:1006600080912701981749F08091280190912701E6
:10067000891B87FF03C0805F089580E008951F9263
:100680000F920FB60F9211242F933F938F939F9346
:10069000AF93BF938091120190911301A091140127
:1006A000B09115013091110123E0230F2D3720F473
:1006B0000196A11DB11D05C026E8230F0296A11DBC
:1006C000B11D209311018093120190931301A09307
:1006D0001401B093150180910D0190910E01A0912C
:1006E0000F01B09110010196A11DB11D80930D0164
:1006F00090930E01A0930F01B0931001BF91AF91A1
:100700009F918F913F912F910F900FBE0F901F904F
:1007100018951F920F920FB60F9211242F933F93AB
:100720004F935F936F937F938F939F93AF93BF93F9
:10073000EF93FF93E0910201F09103010995FF917E
:10074000EF91BF91AF919F918F917F916F915F9149
:100750004F913F912F910F900FBE0F901F901895C2
:100760001F920F920FB60F9211242F933F934F9326
:100770005F936F937F938F939F93AF93BF93EF9309
:10078000FF93E0910001F09101010995FF91EF9134
:10079000BF91AF919F918F917F916F915F914F9199
:1007A0003F912F910F900FBE0F901F901895789446
:1007B00084B5826084BD84B5816084BD85B5826066
:1007C00085BD85B5816085BD80916E008160809317
:1007D0006E00109281008091810082608093810080
:1007E0008091810081608093810080918000816090
:1007F000809380008091B10084608093B1008091EB
:10080000B00081608093B00080917A008460809312
:100810007A0080917A00826080937A0080917A00D9
:10082000816080937A0080917A00806880937A005A
:100830001092C10062E082E00E940E0162E084E05A
:100840000E940E0162E083E00E940E0162E085E0FA
:100850000E940E0161E08BE00E940E0161E08CE0DD
:100860000E940E0161E08DE00E940E0161E08BE0CC
:100870000E94DE0061E08CE00E94DE0061E08DE01D
:100880000E94DE0061E08AE00E940E0161E08AE0E1
:100890000E94DE0061E089E00E940E0161E089E0D3
:1008A0000E94DE0061E088E00E940E0161E088E0C5
:1008B0000E94DE00E0E3F1E0119221E0E137F2076F
:1008C000D9F784E08093160162E082E00E940E0175
:1008D00062E084E00E940E0110922701109228012C
:1008E0008AEA92E09093010180930001809169006F
:1008F0008C7F826080936900E89A80917601909164
:1009000077010E94540180917801909179010E94B1
:1009100054018FEF90E00E941902C82F8823A1F1A3
:100920000E94A6010E94A60188EC90E00E949E020F
:1009300084E690E00E949E0280E590E00E949E0284
:1009400082EF90E00E9419020E94A60191E083309C
:1009500009F090E090937A0188EE90E00E941902ED
:1009600083E090E00E94190286EE90E00E94190256
:1009700088E290E00E949E0280EF90E00E941902BF
:100980008BE891E00197F1F7C093750100E010E06A
:10099000C1E00E942E03882309F4F2C40E942E03B2
:1009A000811102C08FEF12C0E091280180912701D0
:1009B000E817C1F3EF5FE03108F0E0E0E0932801D1
:1009C000F0E0E95EFE4F8081882361F3282F30E05C
:1009D000203E310519F4C0932F01D2C4213E3105C8
:1009E00029F4C0932F01C0932E01CAC4203F3105C2
:1009F00039F480912D01811103C0C0932D01C0C431
:100A000080912F01811107C080912E01811103C0B7
:100A100080E090E002C080E091E0820F931F853477
:100A2000910509F477C30CF022C18332910509F4D2
:100A300009C30CF091C08E30910509F4EDC30CF0A0
:100A40004BC08730910509F461C41CF584309105D1
:100A500009F42CC47CF48130910509F447C4039750
:100A600009F073C480912D018C27809342018093FB
:100A700058016BC48530910509F410C4069709F03C
:100A800064C480912D018C27809357018093580175
:100A90005CC48B30910509F419C47CF4893091054C
:100AA00009F42CC40A9709F050C480912D018C27B9
:100AB000809356018093580148C48C30910509F405
:100AC000FDC30D9709F041C480912D018C278093BF
:100AD00030018093450139C48A31910509F414C36A
:100AE000D4F48431910509F40BC244F481319105A9
:100AF00009F419C2429709F4F2C127C4853191055E
:100B000009F4DEC2469709F020C480912D018C279C
:100B1000809333011AC48D31910509F4E9C26CF454
:100B20008B31910509F4D2C24C9709F00EC4809123
:100B30002D018C278093310108C48132910509F47D
:100B40007BC20CF0DBC24E9709F0FFC380912D01F0
:100B50008C2780933B01F9C38333910509F48AC242
:100B60000CF043C08B32910509F478C2FCF4863254
:100B7000910509F4D5C26CF48432910509F468C278
:100B8000859709F0E2C380912D018C2780934B015A
:100B9000DCC38932910509F449C28A9709F0D5C3AB
:100BA00080912D018C2780935001CFC38E32910507
:100BB00009F4BCC26CF48C32910509F48DC28D9796
:100BC00009F0C3C380912D018C2780934A01BDC3D6
:100BD0008133910509F464C2C29709F0B6C38091CC
:100BE0002D018C2780935701B0C38C33910509F4F4
:100BF00079C2FCF48633910509F49EC26CF4843307
:100C0000910509F431C2C59709F09FC380912D0168
:100C10008C278093550199C38A33910509F43AC210
:100C2000CB9709F092C380912D018C2780934E01C0
:100C30008CC38134910509F4B7C26CF48D339105EE
:100C400009F480C2CE9709F080C380912D018C27D2
:100C5000809344017AC320912D018334910509F4D6
:100C60000FC20CF023C22C27209346016EC3853798
:100C7000910509F48DC20CF095C08935910509F4F0
:100C80002EC10CF048C08D34910509F413C2F4F460
:100C90008A34910509F4A0C24CF48634910509F414
:100CA00057C28934910509F487C24FC38B3491052B
:100CB00009F4EAC18C34910509F047C380912D01F4
:100CC0008C2780933F0180933D013FC3843591057C
:100CD00009F47AC284F48E34910509F495C2823500
:100CE000910509F032C380912D018C2780933F013B
:100CF000809335012AC38535910509F47DC2883575
:100D0000910509F022C380912D018C2780933F012A
:100D1000809330011AC38B36910509F425C21CF566
:100D20008D35910509F460C284F48A35910509F482
:100D300077C18B35910509F008C380912D018C276F
:100D400080933F0180934D0100C38636910509F4DD
:100D50005FC18936910509F0F8C280912D018C2779
:100D600080933301F2C28137910509F425C274F4EE
:100D70008C36910509F406C28037910509F0E5C269
:100D800080912D018C2780933401DFC220912D01A9
:100D90008337910509F4EEC10CF0F0C12C272093A4
:100DA0003B01D3C2843131E0930709F4A9C00CF0B0
:100DB00042C08C37910509F437C22CF5893791056B
:100DC00009F43AC284F48637910509F40EC18837D4
:100DD000910509F0BAC280912D018C2780933201D0
:100DE00080933F01B2C28A37910509F4B7C18B37AE
:100DF000910509F0AAC280912D018C2780933F01B3
:100E000080934E01A2C28338910509F467C24CF465
:100E10008D37910509F4C2C18E37910509F47EC260
:100E200094C2813151E0950709F492C0823191401A
:100E300009F482C28AC28037F1E09F0709F4B4C086
:100E40000CF5893631E0930709F420C254F48A3452
:100E500051E0950709F4C0C18A35914009F4E0C01A
:100E600074C28B36F1E09F0709F4AFC08C36914015
:100E700009F06BC280912D018C27809346018093ED
:100E8000580163C2843731E0930709F4A6C08CF49B
:100E9000813751E0950709F470C08237914009F01D
:100EA00054C280912D018C2780933001809354018E
:100EB0004CC28A37F1E09F0709F4D7C18D3721E092
:100EC000920709F4C1C18537914009F03EC2809173
:100ED0002D018C278093300180934C0136C2809184
:100EE0000401811103C080E090E002C08FE090E037
:100EF000FC01E05DFE4F20912D012C27208325C2AF
:100F000080910401811103C02FE030E002C020E095
:100F100030E080912D018C27F901E05DFE4F808348
:100F200080932C0112C280912D018C2780933F0168
:100F300090910401911103C020E030E002C026E04E
:100F400030E0F901E05DFE4F808380932B01FDC10D
:100F500080912D018C2780933F0190910401911184
:100F600003C020E030E002C027E030E0F901E05D9E
:100F7000FE4F808380932B01E8C190910401809102
:100F80002D01992339F0982F9C2790933501909348
:100F9000580106C0982F9C2790933F0190934801D9
:100FA0008C2780932A01D1C19091040180912D0159
:100FB0008C27992329F080933D0180935801C5C166
:100FC00080933F0180933101C0C180912D018C2716
:100FD0008093300180935301B8C180912D018C27FB
:100FE0008093300180934401B0C120912D012C27C2
:100FF0002093300180910401811103C087E090E0CB
:1010000002C083E090E0FC01E05DFE4F20839DC1C3
:1010100080912D018C27809330018093340195C1FC
:1010200080912D018C27809336018FC180912D01F5
:101030008C278093370189C180912D018C27809363
:10104000480183C180912D018C27809341017DC18E
:1010500080912D018C278093420177C180912D01D1
:101060008C278093490171C180912D018C27809339
:1010700051016BC180912D018C278093560165C170
:101080002C272093450161C180912D018C278093ED
:101090003E015BC180912D018C278093470155C192
:1010A00080912D018C2780934F014FC12C272093D5
:1010B0003D014BC180912D018C278093350145C1A5
:1010C00080912D018C27809332013FC180912D01A9
:1010D0008C278093390139C180912D018C27809311
:1010E000520133C180912D018C2780934D012DC178
:1010F00080912D018C2780933A0127C180912D0189
:101100008C278093400121C180912D018C278093F1
:1011100038011BC180912D018C278093340115C1AA
:1011200080912D018C27809343010FC180912D0167
:101130008C278093530109C180912D018C278093C6
:10114000540103C180912D018C2780934C01FDC077
:1011500080912D018C2780933C01F7C080912D0157
:101160008C2780934301F1C080912D018C278093BF
:101170004B01EBC02C2720935301E7C02C27209371
:101180005401E3C080912D018C2780934C01DDC078
:1011900080912D018C2780934401D7C080912D012F
:1011A0008C2780933C01D1C080912D018C278093A6
:1011B0003F0180934F01C9C080912D018C278093FE
:1011C0003F0180934701C1C080912D018C278093FE
:1011D0003F0180935501B9C080912D018C278093E8
:1011E0003F0180935001B1C080912D018C278093E5
:1011F0003F0180934101A9C080912D018C278093EC
:101200003F0180933E01A1C080912D018C278093E6
:101210003F0180934E0199C080912D018C278093CE
:101220003F0180934C0191C080912D018C278093C8
:101230003F018093570189C080912D018C278093B5
:101240003F018093460181C09091040180912D015E
:101250008C27992329F0809347018093580175C00A
:10126000809330018093430170C09091040180917C
:101270002D018C27992329F080934F0180935801E9
:1012800064C08093300180934B015FC080912D0139
:101290008C2780933E018093580157C080912D0187
:1012A0008C2780933101809358014FC080912D018C
:1012B0008C27809348018093580147C080912D016D
:1012C0008C2780934101809358013FC080912D016C
:1012D0008C27809349018093580137C080912D015C
:1012E0008C2780935101809358012FC080912D014C
:1012F0008C27809345018093580127C080912D0150
:101300008C2780934E01809358011FC080912D013E
:101310008C2780933A0180933F0117C080912D0163
:10132000882399F060912901862F8C2780932901C9
:1013300089E00E94DE0009C080912D01882329F0F8
:10134000809104018C278093040160912C01662315
:1013500041F080912B01882329F060912A016C27AC
:1013600001C061E08AE00E94DE0010922D018091B0
:101370002E01882319F010922E0102C010922F0125
:101380000E945E012B013C0180917501882309F4C4
:10139000B7C08091710190917201A0917301B091D9
:1013A0007401A3019201281B390B4A0B5B0B2536F4
:1013B0003105410551050CF4A3C08BEE90E00E946D
:1013C00019020E94A601E82E0E94A601F82EA82E5E
:1013D000880FBB080E94A601D82FC82E880FDD08F1
:1013E00080917A01882331F00E94A601282F880F6E
:1013F000330B02C020E030E08F2D817080935901C3
:10140000F1FA882780F980935A01F2FA882780F947
:1014100080935B01F3FA882780F980935C01F4FAEA
:10142000882780F980935D01F5FA882780F98093F9
:101430005E01F6FAFF24F0F8F0925F01C501880F13
:10144000892F881F990B91958170809360018D2F52
:10145000817080936101D1FB882780F980936201BC
:10146000D2FB882780F980936301D3FB882780F91A
:1014700080936401D4FB882780F980936501D5FBB4
:10148000882780F980936601D6FBDD27D0F9D093B9
:101490006701C601880F892F881F990B919581706C
:1014A000809368018E2D817080936901E1FA88270D
:1014B00080F980936A01E2FAEE24E0F8E0926B0191
:1014C000822F817080936C0121FB882780F98093A3
:1014D0006D0122FB882780F980936E0123FB222770
:1014E00020F920936F01809170018C278093700107
:1014F0004092710150927201609273017092740176
:1015000060E08CE00E94DE0061E08CE00E94DE0082
:1015100080E3E82E81E0F82EF70161917F016C27CE
:101520008DE00E94DE0060E08BE00E94DE0061E062
:101530008BE00E94DE00F1E7EF16F1E0FF0661F7B5
:1015400061E08DE00E94DE0061E08BE00E94DE0041
:1015500061E08CE00E94DE000115110509F419CA52
:101560000E94000015CAE6E7F1E083E090E0918375
:10157000808385E090E09383828314820895EE0F48
:0E158000FF1F0590F491E02D0994F894FFCF21
:06158E002D032D030100F6
:107800000C94343C0C94513C0C94513C0C94513CE1
:107810000C94513C0C94513C0C94513C0C94513CB4
:107820000C94513C0C94513C0C94513C0C94513CA4
:107830000C94513C0C94513C0C94513C0C94513C94
:107840000C94513C0C94513C0C94513C0C94513C84
:107850000C94513C0C94513C0C94513C0C94513C74
:107860000C94513C0C94513C11241FBECFEFD8E036
:10787000DEBFCDBF11E0A0E0B1E0ECE9FFE702C060
:1078800005900D92A230B107D9F712E0A2E0B1E065
:1078900001C01D92AD30B107E1F70E942D3D0C945F
:1078A000CC3F0C94003C982F959595959595959582
:1078B000905D8F708A307CF0282F295A8091C0000B
:1078C00085FFFCCF9093C6008091C00085FFFCCF60
:1078D0002093C6000895282F205DF0CF982F809127
:1078E000C00085FFFCCF9093C6000895EF92FF92F1
:1078F0000F931F93EE24FF2487018091C00087FD22
:1079000017C00894E11CF11C011D111D81E4E8164B
:1079100082E4F8068FE0080780E0180770F3E09132
:107920000401F091050109958091C00087FFE9CF1E
:107930008091C6001F910F91FF90EF9008950E94D3
:10794000763C982F8091C00085FFFCCF9093C600B5
:1079500091362CF490330CF09053892F089597555D
:10796000892F08951F930E949F3C182F0E949F3CCF
:107970001295107F810F1F9108951F93182F882350
:1079800021F00E94763C1150E1F71F9108951F935A
:10799000182F0E94763C803249F0809103018F5F5E
:1079A000809303018530C1F01F9108958091C0003C
:1079B00085FFFCCF84E18093C6008091C00085FFE5
:1079C000FCCF1093C6008091C00085FFFCCF80E102
:1079D0008093C6001F910895E0910401F091050184
:1079E00009951F9108950E94763C803241F0809164
:1079F00003018F5F80930301853081F008958091AA
:107A0000C00085FFFCCF84E18093C6008091C00058
:107A100085FFFCCF80E18093C6000895E0910401CA
:107A2000F09105010995089540E951E08823A1F0FE
:107A30002D9A28EE33E0FA013197F1F721503040CA
:107A4000D1F72D9828EE33E0FA013197F1F7215064
:107A50003040D1F7815061F708953F924F925F9285
:107A60006F927F928F929F92AF92BF92CF92DF924E
:107A7000EF92FF920F931F93CF93DF93000080E16B
:107A80008093C4001092C50088E18093C10086E015
:107A90008093C2005098589A259A81E00E94143D24
:107AA00024E1F22E9EE1E92E85E9D82E0FE0C02ECA
:107AB00010E1B12EAA24A394B1E49B2EA6E58A2E50
:107AC000F2E57F2EE0E26E2E79E4572E63E5462E36
:107AD00050E5352E0E94763C8033B1F18133B9F107
:107AE000803409F46FC0813409F476C0823409F41B
:107AF00085C0853409F488C0803531F1823521F1A3
:107B0000813511F1853509F485C0863509F48DC0BC
:107B1000843609F496C0843709F403C1853709F423
:107B200072C1863709F466C0809103018F5F80932C
:107B30000301853079F6E0910401F0910501099582
:107B40000E94763C803351F60E94F33CC3CF0E94E2
:107B5000763C803249F78091C00085FFFCCFF092DF
:107B6000C6008091C00085FFFCCF9092C600809136
:107B7000C00085FFFCCF8092C6008091C00085FFC9
:107B8000FCCF7092C6008091C00085FFFCCF609250
:107B9000C6008091C00085FFFCCF5092C600809146
:107BA000C00085FFFCCF4092C6008091C00085FFD9
:107BB000FCCF3092C6008091C00085FFFCCFB09210
:107BC000C60088CF0E94763C863808F4BDCF0E945C
:107BD000763C0E94F33C7ECF0E94763C803809F4CC
:107BE0009CC0813809F40BC1823809F43CC1883942
:107BF00009F48FC080E00E94C73C6CCF84E10E94F2
:107C0000BD3C0E94F33C66CF85E00E94BD3C0E94D3
:107C1000F33C60CF0E94763C809306010E94763C44
:107C2000809307010E94F33C55CF0E94763C80333D
:107C300009F41DC183E00E94BD3C80E00E94C73C66
:107C400049CF0E94763C809309020E94763C809343
:107C5000080280910C028E7F80930C020E94763C79
:107C6000853409F415C18091080290910902892B8D
:107C700089F000E010E00E94763CF801E85FFE4FDA
:107C800080830F5F1F4F80910802909109020817AF
:107C9000190788F30E94763C803209F045CF809125
:107CA0000C0280FF01C16091060170910701660F0F
:107CB000771F7093070160930601A0910802B091AD
:107CC00009021097C9F0E8E0F1E09B01AD014E0F09
:107CD0005F1FF999FECF32BD21BD819180BDFA9A17
:107CE000F99A2F5F3F4FE417F50799F76A0F7B1F4B
:107CF00070930701609306018091C00085FFFCCF5F
:107D0000F092C6008091C00085FFFCCFB092C60003
:107D1000E1CE83E00E94C73CDDCE82E00E94C73CFA
:107D2000D9CE0E94763C809309020E94763C8093D3
:107D300008028091060190910701880F991F909386
:107D40000701809306010E94763C853409F4A6C0A1
:107D500080910C028E7F80930C020E94763C8032D0
:107D600009F0B8CE8091C00085FFFCCFF092C6002C
:107D7000609108027091090261157105B9F140E046
:107D800050E080910C02A82FA170B82FB27011C0E2
:107D9000BB2309F45CC0E0910601F0910701319624
:107DA000F0930701E09306014F5F5F4F46175707B7
:107DB000E8F4AA2369F3F999FECF209106013091E6
:107DC000070132BD21BDF89A90B58091C00085FFB2
:107DD000FCCF9093C6002F5F3F4F30930701209355
:107DE00006014F5F5F4F4617570718F38091C00099
:107DF00085FDE5CE8091C00085FFF8CFE0CE81E023
:107E00000E94C73C67CE0E94763C803209F08CCE3F
:107E10008091C00085FFFCCFF092C6008091C00029
:107E200085FFFCCFE092C6008091C00085FFFCCFAB
:107E3000D092C6008091C00085FFFCCFC092C600E2
:107E40008091C00085FFFCCFB092C60043CEE09188
:107E50000601F091070194918091C00085FFFCCF4D
:107E60009093C6009CCF80E10E94C73C33CE0E9415
:107E7000763C0E94763C182F0E94763C112309F430
:107E800083C0113009F484C08FE00E94C73C22CE29
:107E900080910C02816080930C02E5CE80910C02EF
:107EA000816080930C0259CF809107018823880F4D
:107EB000880B8A2180930B02809106019091070123
:107EC000880F991F90930701809306018091080203
:107ED00080FF09C080910802909109020196909359
:107EE000090280930802F894F999FECF1127E091D6
:107EF0000601F0910701C8E0D1E08091080290915D
:107F00000902103091F40091570001700130D9F34B
:107F100003E000935700E89500915700017001308D
:107F2000D9F301E100935700E89509901990009169
:107F3000570001700130D9F301E000935700E89534
:107F40001395103498F011270091570001700130FB
:107F5000D9F305E000935700E895009157000170B0
:107F60000130D9F301E100935700E895329602976A
:107F700009F0C7CF103011F00296E5CF112480919F
:107F8000C00085FFB9CEBCCE8EE10E94C73CA2CD19
:0C7F900085E90E94C73C9ECDF894FFCF0D
:027F9C00800063
:040000030000780081
:00000001FF
