:100000000C9462000C94FB030C94D4030C948A00AF
:100010000C948A000C948A000C948A000C948A0038
:100020000C948A000C948A000C948A000C948A0028
:100030000C948A000C948A000C948A000C948A0018
:100040000C948A030C948A000C948A000C948A0005
:100050000C948A000C948A000C948A000C948A00F8
:100060000C948A000C948A000000000025002800EF
:100070002B000000000023002600290000000008DB
:10008000000201000003040700000000000000005F
:1000900000000000240027002A00010204081020AC
:1000A000408001020408102001020408102004040A
:1000B0000404040404040202020202020303030310
:1000C0000303970B11241FBECFEFD8E0DEBFCDBFD7
:1000D00011E0A0E0B1E0E6E5F7E102C005900D9285
:1000E000A830B107D9F721E0A8E0B1E001C01D9226
:1000F000A238B207E1F710E0C2E6D0E004C02197D1
:10010000FE010E94A30BC136D107C9F70E94220449
:100110000C94A90B0C940000833081F028F48130FA
:1001200099F08230A1F008958730A9F08830B9F0B5
:100130008430D1F4809180008F7D03C08091800055
:100140008F7780938000089584B58F7702C084B53F
:100150008F7D84BD08958091B0008F7703C080911A
:10016000B0008F7D8093B0000895CF93DF93282F48
:1001700030E0F901E458FF4F8491F901E656FF4F52
:10018000D491F901E255FF4FC491CC2391F0811134
:100190000E948C00EC2FF0E0EE0FFF1FEE58FF4F97
:1001A000A591B491EC91ED2381E090E021F480E001
:1001B00002C080E090E0DF91CF9108951F93CF932C
:1001C000DF93282F30E0F901E458FF4F8491F901C3
:1001D000E656FF4FD491F901E255FF4FC491CC236D
:1001E000C9F0162F81110E948C00EC2FF0E0EE0F69
:1001F000FF1FE859FF4FA591B4918FB7F8941111E3
:1002000005C09C91ED2FE095E92302C0EC91ED2B08
:10021000EC938FBFDF91CF911F910895CF93DF9320
:1002200090E0FC01E656FF4F2491FC01E255FF4FA0
:100230008491882361F190E0880F991FFC01E057B9
:10024000FF4FC591D491FC01E859FF4FA591B4919E
:10025000611109C09FB7F894888120958223888313
:10026000EC912E230BC0623061F49FB7F894388173
:10027000822F809583238883EC912E2B2C939FBF14
:1002800006C08FB7F894E8812E2B28838FBFDF91AB
:10029000CF910895CF93C82F61E00E940E0160E0D6
:1002A0008C2FCF910C94DE00CF93C82F60E00E947A
:1002B0000E0161E08C2FCF910C94DE002FB7F894E3
:1002C00060911401709115018091160190911701B0
:1002D0002FBF0895CF92DF92EF92FF92CF93DF93DB
:1002E000EC010E945E016B017C010E945E01AB018A
:1002F000BC014C195D096E097F09483E53406105F8
:10030000710548F480917D010E94B5008C179D070E
:1003100061F781E001C080E0DF91CF91FF90EF9025
:10032000DF90CF900895CF93DF9380E090E00E941C
:100330006A0180917F010E94B500EC0181E090E0AC
:100340000E946A01CE01DF91CF910895CF92DF9292
:10035000EF92FF920F931F93CF9380917D01909125
:100360007E010E94540180917F01909180010E9442
:10037000540183EC90E00197F1F780E090E00E9457
:100380006A018FE090E00197F1F781E090E00E9430
:100390006A0100E010E0C0E0C12CD12C7601C394CA
:1003A0000E949301892B61F0D701C601002E04C081
:1003B000880F991FAA1FBB1F0A94D2F7C82B0CC025
:1003C000D701C601002E04C0880F991FAA1FBB1FAA
:1003D0000A94D2F78095C8230F5F1F4F083011058C
:1003E000F9F60E9493010E94930180917D01909102
:1003F0007E010E944A018C2FCF911F910F91FF9097
:10040000EF90DF90CF90089520917F01309180018F
:10041000019721F4C9010E94540103C0C9010E943F
:100420004A0181E090E00E946A0180E090E00C9433
:100430006A01BF92CF92DF92EF92FF920F931F93C8
:10044000CF93DF93C82E80917F01909180010E940D
:10045000540180917D0190917E010E945401CBEA6C
:10046000D4E0CE010197F1F780917D0190917E015A
:100470000E944A012197F1F780917F0190918001BC
:100480000E944A0183E290E00197F1F780917D019B
:1004900090917E010E94540180E090E00E946A01E8
:1004A000B82E882309F43FC0EE24E394F12CC0E079
:1004B000D0E00C2C000CDD0886010C2E02C0159536
:1004C00007950A94E2F701701127C8010E940402FF
:1004D000E026F1262196C830D10571F7C7010E94A8
:1004E000040280917F01909180010E94540183EC6D
:1004F00090E00197F1F780E090E00E946A0180911E
:100500007D010E94B500892BD1F380917F010E946B
:10051000B500892BA1F380917D0190917E010E940D
:100520004A010E94A6018B2DDF91CF911F910F915F
:10053000FF90EF90DF90CF90BF900895CF93DF931F
:10054000EC0183EF90E00E941902CE01DF91CF9180
:100550000C941902CF9380917D0190917E010E94AD
:10056000540180917F01909180010E9454018FEF8E
:1005700090E00E941902C82F8823A1F10E94A601D1
:100580000E94A60188EC90E00E949E0284E690E022
:100590000E949E0280E590E00E949E0282EF90E021
:1005A0000E9419020E94A60191E0833009F090E0B8
:1005B0009093810188EE90E00E94190283E090E020
:1005C0000E94190286EE90E00E94190288E290E0F3
:1005D0000E949E0280EF90E00E9419028BE891E059
:1005E0000197F1F78C2FCF910895CF92DF92EF9280
:1005F000FF920F931F93CF93809119010E94B50032
:10060000C82F0E945E0100910B0110910C012091F6
:100610000D0130910E016B017C01C01AD10AE20A72
:10062000F30A970186010B3F11052105310510F0F2
:1006300010920A0160930B0170930C0180930D01DD
:1006400090930E0190910A019F5F90930A019A3056
:1006500050F4923068F4913009F040C010920901D2
:10066000109208013DC09A30B1F09B3001F136C0C4
:10067000809108018C0F809308012091090130E0DE
:1006800035952795C11102C080E001C080E8282B74
:100690002093090125C09091080191709C1719F0D1
:1006A000909308011DC08DEF8093080119C08091BF
:1006B00008018D3F98F480912A018F5F803108F006
:1006C00080E090912B01891749F0E82FF0E090919C
:1006D0000901E65EFE4F908380932A0110920A0181
:1006E000CF911F910F91FF90EF90DF90CF900895E1
:1006F000089590912B0180912A01981749F08091DB
:100700002B0190912A01891B87FF03C0805F089508
:1007100080E008951F920F920FB60F9211242F932D
:100720003F938F939F93AF93BF93809114019091C8
:100730001501A0911601B09117013091130123E02A
:10074000230F2D3720F40196A11DB11D05C026E809
:10075000230F0296A11DB11D209313018093140154
:1007600090931501A0931601B093170180910F018A
:1007700090911001A0911101B09112010196A11D5B
:10078000B11D80930F0190931001A0931101B093BC
:100790001201BF91AF919F918F913F912F910F9037
:1007A0000FBE0F901F9018951F920F920FB60F92C9
:1007B00011242F933F934F935F936F937F938F9366
:1007C0009F93AF93BF93EF93FF93E0910201F0915A
:1007D00003010995FF91EF91BF91AF919F918F9187
:1007E0007F916F915F914F913F912F910F900FBE2D
:1007F0000F901F9018951F920F920FB60F92112411
:100800002F933F934F935F936F937F938F939F9318
:10081000AF93BF93EF93FF93E0910001F09101013B
:100820000995FF91EF91BF91AF919F918F917F912A
:100830006F915F914F913F912F910F900FBE0F904D
:100840001F901895789484B5826084BD84B58160CA
:1008500084BD85B5826085BD85B5816085BD80918B
:100860006E00816080936E00109281008091810003
:1008700082608093810080918100816080938100FB
:10088000809180008160809380008091B1008460BD
:100890008093B1008091B00081608093B00080911E
:1008A0007A00846080937A0080917A0082608093DD
:1008B0007A0080917A00816080937A0080917A003A
:1008C000806880937A001092C100CFB7F89480912D
:1008D0001801811127C0E8EBF0E08491E4EAF0E030
:1008E0009491E82FF0E0EE0FFF1FE057FF4FA59126
:1008F000B491EC91E92321F461E08AE00E94DE00EA
:1009000061E08AE00E940E018CB580618CBD8CB5DF
:1009100080648CBD61E08DE00E940E0161E08BE09F
:100920000E940E01809118018F5F80931801CFBF44
:1009300061E087E00E940E0161E087E00E94DE0036
:1009400062E082E00E940E0162E084E00E940E01FB
:1009500062E083E00E940E0162E085E00E940E01E9
:1009600061E08AE00E940E0161E08AE00E94DE0000
:1009700061E089E00E940E0161E089E00E94DE00F2
:1009800061E088E00E940E0161E088E00E94DE00E4
:1009900062E08FE00E940E0161E08EE00E940E0195
:1009A000E3E3F1E0119221E0E437F207D9F784E0C4
:1009B0008093190162E082E00E940E0162E084E00F
:1009C0000E940E0110922A0110922B0185EF92E0F5
:1009D0009093010180930001809169008C7F826077
:1009E00080936900E89A0E94AA0280937C01C12C3E
:1009F000D12C7601C39400E5C0E0D0E00E947903D9
:100A0000882309F45BC50E947903811102C08FEF2E
:100A100012C0E0912B0180912A01E817C1F3EF5F2A
:100A2000E03108F0E0E0E0932B01F0E0E65EFE4FFD
:100A30008081882361F3282F30E0203E310521F4A6
:100A400081E0809332013AC5213E310531F481E0E5
:100A5000809332018093310131C5203F310541F44B
:100A600080913001811104C081E08093300126C55E
:100A700080913201811107C080913101811103C041
:100A800080E090E002C080E091E0820F931F853407
:100A9000910509F4B4C30CF031C18332910509F416
:100AA00033C30CF098C08E30910509F43FC40CF0AC
:100AB0004FC08730910509F4C4C42CF584309105EA
:100AC00009F489C484F48130910509F4A8C403971A
:100AD00009F0D8C49091300181E0892780934501C5
:100AE00080935B01CFC48530910509F46BC40697F0
:100AF00009F0C8C49091300181E0892780935A01A0
:100B000080935B01BFC48B30910509F476C484F4F3
:100B10008930910509F48CC40A9709F0B3C4909107
:100B2000300181E089278093590180935B01AAC439
:100B30008C30910509F458C40D9709F0A3C4909125
:100B4000300181E0892780933301809348019AC462
:100B50008A31910509F44CC3DCF48431910509F420
:100B600023C244F48131910509F432C2429709F459
:100B700009C288C48531910509F410C3469709F06C
:100B800081C49091300181E08927809336017AC435
:100B90008D31910509F41EC374F48B31910509F46C
:100BA00004C34C9709F06EC49091300181E089270D
:100BB0008093340167C48132910509F49EC20CF020
:100BC00010C34E9709F05EC49091300181E08927EF
:100BD00080933E0157C48333910509F4B1C20CF0F0
:100BE00047C08B32910509F49DC20CF58632910500
:100BF00009F40CC374F48432910509F48CC285970E
:100C000009F040C49091300181E0892780934E0122
:100C100039C48932910509F469C28A9709F032C44E
:100C20009091300181E08927809353012BC48E324B
:100C3000910509F4F2C274F48C32910509F4BCC236
:100C40008D9709F01FC49091300181E0892780932E
:100C50004D0118C48133910509F48CC2C29709F083
:100C600011C49091300181E0892780935A010AC410
:100C70008C33910509F4A7C20CF58633910509F46C
:100C8000D3C274F48433910509F453C2C59709F0B3
:100C9000F9C39091300181E0892780935801F2C314
:100CA0008A33910509F45FC2CB9709F0EBC39091A9
:100CB000300181E0892780935101E4C3813491059B
:100CC00009F4F5C274F48D33910509F4B4C2CE97DA
:100CD00009F0D8C39091300181E0892780934701C2
:100CE000D1C3209130018334910509F430C20CF056
:100CF00048C281E0822780934901C4C385379105AA
:100D000009F4C7C20CF09CC08935910509F43AC1B9
:100D10000CF04BC08D34910509F439C2FCF48A34CF
:100D2000910509F4DFC24CF48634910509F48AC2B6
:100D30008934910509F4C4C2A5C38B34910509F423
:100D40000BC28C34910509F09DC39091300181E074
:100D50008927809342018093400194C38435910593
:100D600009F4B7C28CF48E34910509F4D6C28235E9
:100D7000910509F087C39091300181E08927809324
:100D80004201809338017EC38535910509F4BCC2C8
:100D90008835910509F076C39091300181E089276B
:100DA00080934201809333016DC38B36910509F422
:100DB00057C22CF58D35910509F49DC28CF48A3506
:100DC000910509F48CC18B35910509F05BC39091B5
:100DD000300181E08927809342018093500152C302
:100DE0008636910509F472C18936910509F04AC326
:100DF0009091300181E089278093360143C3813788
:100E0000910509F45DC27CF48C36910509F43AC26F
:100E10008037910509F036C39091300181E0892730
:100E2000809337012FC3209130018337910509F456
:100E30001EC20CF021C281E0822780933E0122C3B2
:100E4000843131E0930709F4AFC00CF044C08C3713
:100E5000910509F474C23CF58937910509F478C20B
:100E60008CF48637910509F41DC18837910509F086
:100E700009C39091300181E08927809335018093E7
:100E8000420100C38A37910509F4E3C18B3791050C
:100E900009F0F8C29091300181E0892780934201E6
:100EA00080935101EFC28338910509F4AFC24CF42D
:100EB0008D37910509F4F4C18E37910509F4CAC242
:100EC000E1C2813151E0950709F498C08231914027
:100ED00009F4CEC2D7C2803731E0930709F4BCC011
:100EE00014F5893651E0950709F463C254F48A3445
:100EF00031E0930709F4F6C18A35914009F4EFC057
:100F0000C1C28B3651E0950709F4BAC08C369140C6
:100F100009F0B8C29091300181E08927809349019E
:100F200080935B01AFC2843731E0930709F4B1C00D
:100F300094F4813751E0950709F476C082379140E7
:100F400009F0A0C29091300181E08927809333019C
:100F50008093570197C28A3731E0930709F415C28D
:100F60008D3741E0940709F4FCC18537914009F0C1
:100F700089C29091300181E0892780933301809369
:100F80004F0180C280910401811103C080E090E094
:100F900002C08FE090E0FC01ED5CFE4F309130012B
:100FA00021E0232720836EC280910401811103C0B8
:100FB0002FE030E002C020E030E09091300181E08D
:100FC0008927F901ED5CFE4F808380932F015AC27F
:100FD0009091300181E08927809342019091040132
:100FE000911103C020E030E002C026E030E0F901BA
:100FF000ED5CFE4F808380932E0144C290913001BE
:1010000081E089278093420190910401911103C0EE
:1010100020E030E002C027E030E0F901ED5CFE4F57
:10102000808380932E012EC2809104019091300123
:10103000882339F081E089278093380180935B0110
:1010400006C081E089278093420180934B0181E0B3
:10105000892780932D0116C290910401809130015F
:10106000992339F091E089278093400180935B01B7
:1010700009C291E08927809342018093340102C222
:101080009091300181E0892780933301809356014C
:10109000F9C19091300181E08927809333018093D9
:1010A0004701F0C12091300181E0282720933301CE
:1010B00080910401811103C087E090E002C083E0C9
:1010C00090E0FC01ED5CFE4F2083DCC1909130018B
:1010D00081E089278093330180933701D3C19091B8
:1010E000300181E0892780933901CCC19091300192
:1010F00081E0892780933A01C5C19091300181E058
:10110000892780934B01BEC19091300181E08927EE
:1011100080934401B7C19091300181E08927809389
:101120004501B0C19091300181E0892780934C0145
:10113000A9C19091300181E0892780935401A2C117
:101140009091300181E08927809359019BC181E012
:1011500082278093480196C19091300181E08927D0
:10116000809341018FC19091300181E08927809364
:101170004A0188C19091300181E089278093520112
:1011800081C191E0822F8927809340017BC190919A
:10119000300181E089278093380174C1909130013A
:1011A00081E08927809335016DC19091300181E004
:1011B000892780933C0166C19091300181E08927A5
:1011C000809355015FC19091300181E08927809320
:1011D000500158C19091300181E0892780933D01F1
:1011E00051C19091300181E08927809343014AC128
:1011F0009091300181E0892780933B0143C1909118
:10120000300181E08927809337013CC19091300102
:1012100081E089278093460135C19091300181E0BA
:101220008927809356012EC19091300181E0892752
:101230008093570127C19091300181E089278093E5
:101240004F0120C19091300181E0892780933F01B7
:1012500019C19091300181E089278093460112C124
:101260009091300181E0892780934E010BC181E08C
:1012700082278093560106C191E0822F89278093AF
:10128000570100C19091300181E0892780934F017F
:10129000F9C09091300181E0892780934701F2C025
:1012A0009091300181E0892780933F01EBC09091BC
:1012B000300181E089278093420180935201E2C08E
:1012C0009091300181E089278093420180934A0107
:1012D000D9C09091300181E08927809342018093A9
:1012E0005801D0C09091300181E08927809342015C
:1012F00080935301C7C09091300181E0892780938A
:10130000420180934401BEC09091300181E0892761
:101310008093420180934101B5C09091300181E0FA
:1013200089278093420180935101ACC09091300194
:1013300081E089278093420180934F01A3C090915F
:10134000300181E089278093420180935A019AC03D
:101350009091300181E08927809342018093490177
:1013600091C09091040180913001992339F091E06E
:10137000892780934A0180935B0184C091E089278B
:1013800080933301809346017DC090910401809148
:101390003001992339F091E089278093520180939D
:1013A0005B0170C091E089278093330180934E01E7
:1013B00069C09091300181E0892780934101809339
:1013C0005B0160C09091300181E0892780933401F6
:1013D00080935B0157C09091300181E08927809311
:1013E0004B0180935B014EC09091300181E08927D1
:1013F0008093440180935B0145C09091300181E06E
:10140000892780934C0180935B013CC0909130010F
:1014100081E089278093540180935B0133C09091D0
:10142000300181E089278093480180935B012AC0C5
:101430009091300181E089278093510180935B0175
:1014400021C09091300181E0892780933D018093F4
:10145000420118C0809130018823A1F060912C01D5
:1014600081E0862780932C0189E00E94DE000AC07B
:1014700080913001882331F09091040181E0892727
:101480008093040160912F01662349F080912E0121
:10149000882331F060912D0181E0682701C061E06F
:1014A0008AE00E94DE001092300180913101882391
:1014B00019F01092310102C0109232010E945E01B7
:1014C0002B013C0180910501909106011816190627
:1014D00054F520917C01211126C040917801509152
:1014E000790160917A0170917B0153014201841A64
:1014F000950AA60AB70A29E8821623E19206A104F2
:10150000B10488F0019790930601809305010E9431
:10151000AA0280937C0140927801509279016092F6
:101520007A0170927B0180917C01882309F4BAC012
:101530008091740190917501A0917601B09177012D
:1015400053014201881A990AAA0ABB0AD501C401AB
:1015500085369105A105B10508F4A4C08BEE90E095
:101560000E9419020E94A601282E0E94A601382E70
:10157000A82E880FBB080E94A601182F882E880F5E
:10158000990880918101882331F00E94A601282FBB
:10159000880F330B02C020E030E0832D81708093F0
:1015A0005C0131FA882780F980935D0132FA88273F
:1015B00080F980935E0133FA882780F980935F0178
:1015C00034FA882780F98093600135FA882780F9FA
:1015D0008093610136FA332430F830926201C501FC
:1015E000880F892F881F990B9195817080936301D3
:1015F000812F81708093640111FB882780F980938B
:10160000650112FB882780F98093660113FB882708
:1016100080F98093670114FB882780F98093680123
:1016200015FB882780F98093690116FB112710F9B3
:1016300010936A01C401880F892F881F990B919517
:10164000817080936B01822D817080936C0121FAEF
:10165000882780F980936D0122FA222420F82092B5
:101660006E01822F817080936F0121FB882780F9A2
:101670008093700122FB882780F98093710123FBFE
:10168000222720F9209372019091730181E089272C
:1016900080937301409274015092750160927601BB
:1016A00070927701A12CB12C9924939480E090E062
:1016B00010E0EA2DE80FE134A0F4F0E0ED5CFE4F1D
:1016C0002081B701A601082E04C0440F551F661FD4
:1016D000771F0A94D2F7222311F0142B02C04095F1
:1016E000142301968830910521F70CBD9DBC60E064
:1016F00087E00E94DE00B394BEBC00000DB407FE7C
:10170000FDCF8EB51EBD00000DB407FEFDCF8EB51A
:1017100061E087E00E94DE0028E0A20E39E0B3120B
:10172000C5CF209709F46AC90E94000064C9EDE79B
:10173000F1E083E090E09183808385E090E0938303
:10174000828314820895EE0FFF1F0590F491E02D1F
:061750000994F894FFCF9C
:0817560078037803010500008F
:00000001FF
