:1000000058C017CA3DCA7AC079C078C077C05FCAE5
:1000100075C074C073C072C071C070C06FC06EC054
:100020006DC001000000000000000000000000049E
:1000300000000000000000000000000000000000C0
:1000400000000000050102040810204080010204A5
:1000500008102040800102040810204080010204A2
:100060000810204080010204020202020202020281
:100070000404040404040404030303030303030348
:1000800001010101010101010505050000390036EA
:100090000033003000250000003B003800350032FE
:1000A00000270000003A003700340031002600002D
:1000B000FA0611241FBECFE5D2E0DEBFCDBF10E0AF
:1000C000A0E6B0E0E6E3F7E102C005900D92A636A7
:1000D000B107D9F720E0A6E6B0E001C01D92AC3D23
:1000E000B207E1F710E0C9E5D0E003C02197FE01B7
:1000F0001ADBC835D107D1F70CDB1BCB81CF803E93
:10010000910521F481E080936B000895813E910573
:1001100031F481E080936B0080936A000895803F02
:10012000910541F420916900211104C081E0809380
:100130006900089520916B00211107C020916A0089
:10014000211103C020E030E002C020E031E0820F46
:10015000931F8534910509F4B4C30CF031C1833287
:10016000910509F433C30CF098C08E30910509F461
:100170003FC40CF04FC08730910509F4C4C42CF57E
:100180008430910509F489C484F48130910509F41F
:10019000A8C4039709F0D7C49091690081E089272A
:1001A0008093840080939A00CEC48530910509F431
:1001B0006BC4069709F0C7C49091690081E0892754
:1001C0008093990080939A00BEC48B30910509F406
:1001D00076C484F48930910509F48CC40A9709F037
:1001E000B2C49091690081E0892780939800809340
:1001F0009A00A9C48C30910509F458C40D9709F0F0
:10020000A2C49091690081E0892780937200809355
:10021000870099C48A31910509F44CC3DCF4843118
:10022000910509F423C244F48131910509F432C2E5
:10023000429709F409C287C48531910509F410C3B6
:10024000469709F080C49091690081E089278093E6
:10025000750079C48D31910509F41EC374F48B3196
:10026000910509F404C34C9709F06DC4909169009D
:1002700081E089278093730066C48132910509F477
:100280009EC20CF010C34E9709F05DC490916900B6
:1002900081E0892780937D0056C48333910509F45A
:1002A000B1C20CF047C08B32910509F49DC20CF528
:1002B0008632910509F40CC374F48432910509F473
:1002C0008CC2859709F03FC49091690081E089272D
:1002D00080938D0038C48932910509F469C28A97E8
:1002E00009F031C49091690081E0892780939200E0
:1002F0002AC48E32910509F4F2C274F48C3291054D
:1003000009F4BCC28D9709F01EC49091690081E088
:10031000892780938C0017C48133910509F48CC21E
:10032000C29709F010C49091690081E089278093F9
:10033000990009C48C33910509F4A7C20CF58633E2
:10034000910509F4D3C274F48433910509F453C2BE
:10035000C59709F0F8C39091690081E089278093DF
:100360009700F1C38A33910509F45FC2CB9709F076
:10037000EAC39091690081E0892780939000E3C3EC
:100380008134910509F4F5C274F48D33910509F4B3
:10039000B4C2CE9709F0D7C39091690081E0892754
:1003A00080938600D0C3209169008334910509F4BD
:1003B00030C20CF048C281E0822780938800C3C31A
:1003C0008537910509F4C7C20CF09CC089359105A9
:1003D00009F43AC10CF04BC08D34910509F439C2CF
:1003E000FCF48A34910509F4DFC24CF4863491059B
:1003F00009F48AC28934910509F4C4C2A4C38B34B8
:10040000910509F40BC28C34910509F09CC39091BD
:10041000690081E089278093810080937F0093C3E6
:100420008435910509F4B7C28CF48E34910509F432
:10043000D6C28235910509F086C39091690081E0AA
:10044000892780938100809377007DC3853591054E
:1004500009F4BCC28835910509F075C39091690013
:1004600081E0892780938100809372006CC38B3672
:10047000910509F457C22CF58D35910509F49DC2FB
:100480008CF48A35910509F48CC18B35910509F0FE
:100490005AC39091690081E08927809381008093FD
:1004A0008F0051C38636910509F472C189369105D2
:1004B00009F049C39091690081E089278093750014
:1004C00042C38137910509F45DC27CF48C369105F5
:1004D00009F43AC28037910509F035C3909169005B
:1004E00081E08927809376002EC3209169008337AD
:1004F000910509F41EC20CF021C281E0822780938D
:100500007D0021C3843121E0920709F4AFC00CF0D3
:1005100044C08C37910509F474C23CF589379105C4
:1005200009F478C28CF48637910509F41DC1883727
:10053000910509F008C39091690081E089278093B3
:10054000740080938100FFC28A37910509F4E3C1EA
:100550008B37910509F0F7C29091690081E08927F6
:100560008093810080939000EEC28338910509F456
:10057000AFC24CF48D37910509F4F4C18E37910563
:1005800009F4CAC2E0C2813121E0920709F498C09F
:100590008231914009F4CDC2D6C2803721E0920762
:1005A00009F4BCC014F5893621E0920709F463C24E
:1005B00054F48A3421E0920709F4F6C18A35914057
:1005C00009F4EFC0C0C28B3621E0920709F4BAC02B
:1005D0008C36914009F0B7C29091690081E089277B
:1005E0008093880080939A00AEC2843721E09207FE
:1005F00009F4B1C094F4813721E0920709F476C080
:100600008237914009F09FC29091690081E089276B
:10061000809372008093960096C28A3721E09207F9
:1006200009F415C28D3721E0920709F4FCC1853722
:10063000914009F088C29091690081E089278093F8
:10064000720080938E007FC280916000811103C090
:1006500080E090E002C08FE090E0FC01EE58FF4F98
:100660003091690021E0232720836DC280916000D2
:10067000811103C02FE030E002C020E030E0909113
:10068000690081E08927F901EE58FF4F808380934C
:10069000680059C29091690081E0892780938100A8
:1006A00090916000911103C020E030E002C026E08C
:1006B00030E0F901EE58FF4F80838093670043C21A
:1006C0009091690081E0892780938100909160007A
:1006D000911103C020E030E002C027E030E0F901D2
:1006E000EE58FF4F8083809367002DC28091600099
:1006F00090916900882339F081E089278093770001
:1007000080939A0006C081E08927809381008093BE
:100710008A0081E089278093660015C2909160006D
:1007200080916900992339F091E0892780937F00B7
:1007300080939A0008C291E089278093810080937A
:10074000730001C29091690081E089278093720053
:1007500080939500F8C19091690081E0892780938A
:10076000720080938600EFC12091690081E0282704
:100770002093720080916000811103C087E090E0B7
:1007800002C083E090E0FC01EE58FF4F2083DBC104
:100790009091690081E089278093720080937600B0
:1007A000D2C19091690081E0892780937800CBC104
:1007B0009091690081E0892780937900C4C190916C
:1007C000690081E0892780938A00BDC1909169000A
:1007D00081E0892780938300B6C19091690081E010
:1007E000892780938400AFC19091690081E08927B7
:1007F00080938B00A8C19091690081E08927809344
:100800009300A1C19091690081E0892780939800AD
:100810009AC181E082278093870095C190916900F9
:1008200081E08927809380008EC19091690081E0EA
:1008300089278093890087C19091690081E0892789
:100840008093910080C191E0822F892780937F005F
:100850007AC19091690081E089278093770073C104
:100860009091690081E08927809374006CC1909118
:10087000690081E0892780937B0065C190916900C0
:1008800081E08927809394005EC19091690081E0A6
:10089000892780938F0057C19091690081E0892753
:1008A00080937C0050C19091690081E089278093FA
:1008B000820049C19091690081E0892780937A0084
:1008C00042C19091690081E08927809376003BC105
:1008D0009091690081E089278093850034C19091CF
:1008E000690081E08927809395002DC1909169006E
:1008F00081E089278093960026C19091690081E06C
:10090000892780938E001FC19091690081E089271B
:1009100080937E0018C19091690081E089278093BF
:10092000850011C19091690081E0892780938D0035
:100930000AC181E082278093950005C191E0822F52
:10094000892780939600FFC09091690081E08927F4
:1009500080938E00F8C09091690081E08927809390
:100960008600F1C09091690081E0892780937E0024
:10097000EAC09091690081E089278093810080938B
:100980009100E1C09091690081E089278093810006
:1009900080938900D8C09091690081E08927809375
:1009A000810080939700CFC09091690081E08927F2
:1009B0008093810080939200C6C09091690081E08D
:1009C00089278093810080938300BDC09091690046
:1009D00081E089278093810080938000B4C090914A
:1009E000690081E089278093810080939000ABC0EB
:1009F0009091690081E089278093810080938E0027
:100A0000A2C09091690081E0892780938100809342
:100A1000990099C09091690081E0892780938100B5
:100A20008093880090C09091600080916900992324
:100A300039F091E089278093890080939A0083C0E0
:100A400091E0892780937200809385007CC090910B
:100A5000600080916900992339F091E089278093A3
:100A6000910080939A006FC091E089278093720073
:100A700080938D0068C09091690081E08927809300
:100A8000800080939A005FC09091690081E089277F
:100A90008093730080939A0056C09091690081E022
:100AA000892780938A0080939A004DC090916900B5
:100AB00081E089278093830080939A0044C09091BD
:100AC000690081E0892780938B0080939A003BC066
:100AD0009091690081E089278093930080939A0028
:100AE00032C09091690081E08927809387008093CC
:100AF0009A0029C09091690081E089278093900035
:100B000080939A0020C09091690081E089278093AA
:100B10007C008093810017C080916900882399F040
:100B20006091710081E086278093710082E099D501
:100B30000AC080916900882331F09091600081E0C3
:100B400089278093600060916800662349F0809156
:100B50006700882331F06091660081E0682701C05A
:100B600061E080E07ED51092690080916A00882360
:100B700019F010926A00089510926B0008956115A3
:100B8000710529F06130710521F460E001C061E078
:100B90002CC508951F93CF93DF9361E084E025D5A2
:100BA00081E090E0EAD460E084E01FD581E090E04D
:100BB000E4D4C2E7D0E011E06991612770E08DE0F4
:100BC00090E0DDDF61E08CE010D581E090E0D5D4ED
:100BD00060E08CE00AD581E090E0CFD480E0C33BB8
:100BE000D80751F760E08DE000D560E08CE0FDD4DF
:100BF00060E084E0FAD481E090E0DF91CF911F9132
:100C0000BCC460E087E1F1D462E08BE0EED462E046
:100C100086E1EBD462E085E1E8D462E084E1E5D4EA
:100C200060E08CE0E2D460E084E0DFD460E08DE05E
:100C3000DCD461E080E0D9D461E080E012D561E0ED
:100C400082E0D3D461E082E00CD561E081E0CDD4D4
:100C500061E081E006D5E2E7F0E0119280E0E33B5D
:100C6000F807D9F76BE086E17FD183EB90E045D3BD
:100C7000809370000895CF92DF92EF92FF92CF930E
:100C8000DF93CDB7DEB728970FB6F894DEBF0FBE5F
:100C9000CDBF4ED1882311F05CD131DA62D46B0123
:100CA0007C0180917000882309F497C080916C00CA
:100CB00090916D00A0916E00B0916F00A701960118
:100CC000281B390B4A0B5B0B2536310541055105B5
:100CD0000CF483C083EB90E03BD38F83322F942FAF
:100CE0002F81417040939B0091FB442740F9409332
:100CF0009C0092FB442740F940939D0093FB4427BE
:100D000040F940939E0094FB442740F940939F0094
:100D100095FB442740F94093A00096FB442740F9F7
:100D20004093A10097FB992790F99093A200962FEA
:100D300091709093A30061FB992790F99093A40080
:100D400062FB992790F99093A50063FB992790F98E
:100D50009093A60064FB992790F99093A70065FBF8
:100D6000992790F99093A80066FB992790F99093A2
:100D7000A90067FB882780F98093AA00832F8170E0
:100D80008093AB0031FB882780F98093AC0032FB65
:100D9000332730F93093AD00822F81708093AE00FD
:100DA00021FB882780F98093AF0022FB882780F9F8
:100DB0008093B00023FB222720F92093B10090916B
:100DC000B20081E089278093B200C0926C00D0927B
:100DD0006D00E0926E00F0926F0028960FB6F894C6
:100DE000DEBF0FBECDBFDF91CF91FF90EF90DF90C0
:100DF000CF90D0CE88EB90E0B6D044E150E065E1F2
:100E000070E083EB90E0D4C0CF92DF92EF92FF923C
:100E10000F931F93CF938091C00052D4C82FA1D3BA
:100E20000091BC001091BD002091BE003091BF0028
:100E30006B017C01C01AD10AE20AF30A970186010C
:100E40000B3F11052105310510F01092BB00609396
:100E5000BC007093BD008093BE009093BF00909142
:100E6000BB009F5F9093BB009A3050F4923068F4BF
:100E7000913009F040C01092BA001092B9003DC004
:100E80009A30B1F09B3001F136C08091B9008C0FDF
:100E90008093B9002091BA0030E035952795C111B3
:100EA00002C080E001C080E8282B2093BA0025C052
:100EB0009091B90091709C1719F09093B9001DC0E2
:100EC0008DEF8093B90019C08091B9008D3F98F4DF
:100ED0008091C2008F5F803108F080E09091C10066
:100EE000891749F0E82FF0E09091BA00ED53FF4FD9
:100EF00090838093C2001092BB00CF911F910F91FD
:100F0000FF90EF90DF90CF900895E091C100809125
:100F1000C200E81759F0EF5FE03108F0E0E0E0933D
:100F2000C100F0E0ED53FF4F8081089580E0089507
:100F30009091C1008091C200981749F08091C10042
:100F40009091C200891B87FF03C0805F089580E0F5
:100F50000895EEDF811102C08FEF03C0D6DF882332
:100F6000D9F390E008950895CF93DF93D82FC62F3B
:100F70008093C00062E08C2F38D362E08D2F35D390
:100F80001092C2001092C100CA3031F0CB3031F063
:100F9000C03231F08FEF05C080E003C081E001C0B6
:100FA00082E042E050E064E077E0DF91CF9122C23E
:100FB000FC01718360835383428314820895CF932D
:100FC000C62F60E08C2F11D361E08C2FCF9149C3E5
:100FD000CF93C62F61E08C2F08D360E08C2FCF9188
:100FE00040C3CF92DF92EF92FF920F931F93CF9364
:100FF000DF93EC018B01B5D26B017C01B2D2AB0166
:10100000BC014C195D096E097F09483E53406105DA
:10101000710538F4888154D38017910779F781E0FE
:1010200001C080E0DF91CF911F910F91FF90EF9071
:10103000DF90CF900895CF93DF93EC01CB016A81CD
:101040007B81019719F4CE01BADF02C0CE01C0DF67
:1010500061E070E0CE01C5DF60E070E0CE01DF91BD
:10106000CF91BFCF9F92AF92BF92CF92DF92EF927C
:10107000FF920F931F93CF93DF93EC01A62E6A810B
:101080007B819DDF68817981CE0199DF8CE291E0DF
:1010900074D268817981CE019BDF8CE291E06DD2C0
:1010A0006A817B81CE0194DF8AE090E066D268811C
:1010B0007981CE0184DF60E070E0CE0192DF982E6E
:1010C0008823B1F1CC24C394D12C00E010E00A2C89
:1010D000000CBB087501002E02C0F594E7940A9439
:1010E000E2F781E0E822FF24B701CE01A4DFCE249D
:1010F000DF240F5F1F4F0830110561F7B601CE01E5
:101100009ADF6A817B81CE015ADF82E390E035D29B
:1011100060E070E0CE0165DF8881D2D2892BE1F3F7
:101120008A81CED2892BC1F368817981CE0150DFCB
:10113000892DDF91CF911F910F91FF90EF90DF905C
:10114000CF90BF90AF909F9008950F931F93CF9330
:10115000DF93EC0160E070E044DF8A81B1D28C0162
:1011600061E070E0CE013DDFC801DF91CF911F91BA
:101170000F9108958F929F92AF92BF92EF92FF923C
:101180001F93CF93DF93EC016881798118DF6A8127
:101190007B81CE0114DF82E390E0EFD160E070E06C
:1011A000CE011FDF85E090E0E8D161E070E0CE0184
:1011B00018DFE12CF12C10E0812C912C5401839448
:1011C000CE01C3DF892B61F0D501C4010E2C04C010
:1011D000880F991FAA1FBB1F0A94D2F7182B0CC0A7
:1011E000D501C4010E2C04C0880F991FAA1FBB1F74
:1011F0000A94D2F7809518238FEFE81AF80A88E04E
:10120000E816F104E9F6CE01A0DFCE019EDF688189
:101210007981CE01DDDE812FDF91CF911F91FF908B
:10122000EF90BF90AF909F908F9008950F931F9372
:10123000CF938C0117DFC82F882311F0C8019ADFE4
:101240008C2FCF911F910F9108950F931F93CF93E0
:10125000DF93EC018B0163EF70E0E8DFB801CE01B2
:10126000DF91CF911F910F91E1CF60EF70E0DECF62
:101270000F931F93CF93DF93EC018B0168EE70E027
:10128000D5DFB801CE01DF91CF911F910F91CECF65
:101290001F93CF93DF93EC016FEF70E0C7DF182F40
:1012A000882321F0CE0166DFCE0164DF812FDF913C
:1012B000CF911F910895CF93DF93EC0162EF70E01F
:1012C000B5DFCE01DF91CF9155CFCF93DF93EC0106
:1012D00068EC70E0BADF64E670E0CE01B6DF60E58E
:1012E00070E0CE01B2DFCE01E6DF91E0833009F09D
:1012F00090E09C83DF91CF9108951F93CF93DF936C
:10130000EC01688179815BDE6A817B81CE0157DEE9
:10131000CE01BEDF182F882399F0CE01D6DF63E01F
:1013200070E0CE01A5DF66EE70E0CE017FDF68E2FF
:1013300070E0CE018ADFCE0198DF84E690E01DD117
:10134000812FDF91CF911F9108956BEE70E06ECFEA
:101350008F929F92AF92BF92CF92DF92EF92FF92C5
:101360000F931F93CF93DF93CDB7DEB728970FB6B8
:10137000F894DEBF0FBECDBF6C01E7DFC601FADE19
:10138000E82E880FFF08C601F5DEA82E880FBB08DF
:10139000C601F0DE082F880F110BF6018481882327
:1013A00029F0C601E7DE882E880F9908FA82E982C3
:1013B000BC82AB821E830D8398868F822E2D3A814C
:1013C0004A2D5C81602F7E81882D988528960FB6E6
:1013D000F894DEBF0FBECDBFDF91CF911F910F916B
:1013E000FF90EF90DF90CF90BF90AF909F908F9045
:1013F000089508958230E0F4E82FF0E0EE0FFF1F2B
:10140000EF59FF4F71836083813039F085B78C7F4E
:10141000482B45BF8BB780640AC085B7440F551F62
:10142000440F551F837F482B45BF8BB780688BBF08
:1014300008951F920F920FB60F9211242F933F938E
:101440004F935F936F937F938F939F93AF93BF93CC
:10145000EF93FF93E0916100F09162000995FF9195
:10146000EF91BF91AF919F918F917F916F915F911C
:101470004F913F912F910F900FBE0F901F90189595
:101480001F920F920FB60F9211242F933F934F93F9
:101490005F936F937F938F939F93AF93BF93EF93DC
:1014A000FF93E0916300F09164000995FF91EF9143
:1014B000BF91AF919F918F917F916F915F914F916C
:1014C0003F912F910F900FBE0F901F9018951F9274
:1014D0000F920FB60F9211242F933F938F939F93E8
:1014E000AF93BF938091D4009091D500A091D60086
:1014F000B091D7003091D30023E0230F2D3720F493
:101500000196A11DB11D05C026E8230F0296A11D5D
:10151000B11D2093D3008093D4009093D500A09365
:10152000D600B093D7008091D8009091D900A091B7
:10153000DA00B091DB000196A11DB11D8093D800A7
:101540009093D900A093DA00B093DB00BF91AF91E4
:101550009F918F913F912F910F900FBE0F901F90F1
:1015600018952FB7F8946091D4007091D5008091B0
:10157000D6009091D7002FBF0895019739F0880FBA
:10158000991F880F991F02970197F1F70895789492
:1015900083B7826083BF83B7816083BF83B7806472
:1015A00083BF83B7886083BF89B7826089BF1EBC51
:1015B0008EB582608EBD8EB581608EBD8FB5816027
:1015C0008FBD1AB80895843041F0853049F08130DC
:1015D00059F483B78F7D83BF07C08FB58F7702C063
:1015E0008FB58F7D8FBD08950895CF93DF9390E0E1
:1015F000FC01EB5BFF4F2491FC01E859FF4F849104
:10160000882361F190E0880F991FFC01ED55FF4F91
:10161000C591D491FC01E956FF4FA591B491611198
:1016200009C09FB7F8948881209582238883EC9124
:101630002E230BC0623061F49FB7F8943881822F5B
:10164000809583238883EC912E2B2C939FBF06C01B
:101650008FB7F894E8812E2B28838FBFDF91CF912D
:1016600008951F93CF93DF93282F30E0F901EE5DAB
:10167000FF4F8491F901EB5BFF4FD491F901E859D9
:10168000FF4FC491CC23C1F0162F81119CDFEC2FAA
:10169000F0E0EE0FFF1FE956FF4FA591B4918FB711
:1016A000F894111105C09C91ED2FE095E92302C03B
:1016B000EC91ED2BEC938FBFDF91CF911F910895AB
:1016C000CF93DF93282F30E0F901EE5DFF4F849137
:1016D000F901EB5BFF4FD491F901E859FF4FC49139
:1016E000CC2389F081116FDFEC2FF0E0EE0FFF1FAC
:1016F000E557FF4FA591B491EC91ED2381E090E087
:1017000021F480E002C080E090E0DF91CF91089565
:1017100008953DDFFDDF75DAC0E0D0E0ACDA209758
:10172000E9F36ED4FBCFEE0FFF1F0590F491E02D8F
:061730000994F894FFCFBC
:0617360001F909F90900A8
:101E000001C0A9C011248FE592E09EBF8DBF84B7A9
:101E100014BE982F9D7009F0CCD085E08EBD82E075
:101E20008BB988E18AB986E880BD80E189B98EE006
:101E3000ADD0B89A84E040E35CEF30E821E05DBDCE
:101E40004CBD38BF08B607FEFDCF98B3922798BBAC
:101E5000A8958150A1F7C0E0D0E091D0813469F419
:101E60008ED0182F97D0123811F482E004C01138A8
:101E700009F467C083E07FD06BC0823411F484E141
:101E800003C0853419F485E08DD062C0853541F4F6
:101E900076D0C82F74D0D0E0D82BCC0FDD1F57C020
:101EA000863521F484E07ED080E0E5CF843699F554
:101EB00066D065D0182F63D0082F80E6C82ED12CAD
:101EC00090E6F92EF10E5BD0F60181936F01FE12C0
:101ED000FACF60D0053409F4FFCF40E050E063E072
:101EE000CE0139D06E0100E610E0F80140810E5FAE
:101EF0001F4F3196808150E0582B61E0C6012BD0F6
:101F0000F2E0CF0ED11CF012F0CF40E050E065E0DF
:101F1000CE0121D01DC0843769F431D030D0182FC4
:101F20002ED038D07E01F70185917F0124D0115049
:101F3000D1F70EC0853739F42DD08EE11CD083E95E
:101F40001AD086E098CF813511F488E01FD022D0D6
:101F500080E111D082CFFC010A0167BFE89511240E
:101F600007B600FCFDCF667029F0452B19F481E11E
:101F700087BFE89508955D9BFECF8CB908955F9B60
:101F8000FECF5C9901C0A8958CB1089598E191BDF0
:101F900081BD0895F4DF803219F088E0F7DFFFCFCC
:101FA00084E1E9CFCF93C82FEADFC150E9F7CF91A1
:0E1FB000F1CF282E80E0EADFE0E0FF27099461
:021FFE000206D9
:0400000300001E00DB
:00000001FF
