:100000000C94FF000C9418040C94F1030C94270139
:100010000C9427010C9427010C9427010C942701C0
:100020000C9427010C9427010C9427010C942701B0
:100030000C9427010C9427010C9427010C942701A0
:100040000C946C0D0C9427010C9465040C943F04E3
:100050000C9427010C9427010C9427010C94270180
:100060000C9497040C9427014275696C74696E2096
:10007000636F6D6D616E64733A2048454C502C205F
:100080005345542C20474554005A58204B657962FB
:100090006F617264202F206D6F75736520636F6EC2
:1000A00074726F6C6C65722076312E3100496E76F9
:1000B000616C696420666F726D6174206769766532
:1000C0006E2E20506C6561736520757365207468B1
:1000D0006520636F6D6D616E6420746F207365744D
:1000E00020646174652074696D653A20534554201D
:1000F00059595959204D4D204444204848204949D8
:100100002053532057005365742074696D65204F48
:100110004B0043757272656E742074696D65206959
:10012000733A004745543A00534554205959595998
:10013000204D4D2044442048482049492053532015
:1001400057202D2077696C6C2073657420525443BE
:1001500020746F2074686520676976656E2061720F
:1001600067756D656E747300474554202D2077695F
:100170006C6C207072696E74206120637572726598
:100180006E7420646174652F74696D650048454C18
:10019000503A0029002028003A003A0020002D00A3
:1001A0002D0000000000250028002B0000000000AA
:1001B00023002600290004040404040404040202A9
:1001C00002020202030303030303010204081020D6
:1001D00040800102040810200102040810200000E1
:1001E00000080002010000030407000000000000F6
:1001F000000000000000240027002A00CB18112472
:100200001FBECFEFD8E0DEBFCDBF23E0A2E4B1E058
:1002100001C01D92A03AB207E1F711E0A0E0B1E001
:10022000E4E9F8E302C005900D92A234B107D9F7D2
:1002300010E0CFEFD0E004C02197FE010E94141A15
:10024000CE3FD107C9F70E94B60D0C94481C0C9400
:1002500000000895CF92DF92EF92FF920F931F93C9
:10026000CF93DF936C017A018B01C0E0D0E0CE1513
:10027000DF0581F0D8016D918D01D601ED91FC91E2
:100280000190F081E02DC6010995892B11F021968E
:10029000EECF7E01C701DF91CF911F910F91FF90AB
:1002A000EF90DF90CF900895FC01538D448D252F62
:1002B00030E0842F90E0821B930B541710F0CF9600
:1002C000089501970895FC01918D828D981761F032
:1002D000828DDF01A80FB11D5D968C91928D9F5F7D
:1002E0009F73928F90E008958FEF9FEF0895FC0128
:1002F000918D828D981731F0828DE80FF11D858DDB
:1003000090E008958FEF9FEF0895FC01918D228D6D
:10031000892F90E0805C9F4F821B91098F739927F2
:1003200008958BED92E00E94850121E0892B09F46C
:1003300020E0822F0895FC01848DDF01A80FB11DFC
:10034000A35ABF4F2C91848D90E001968F7399270B
:10035000848FA689B7892C93A089B1898C918370E9
:1003600080648C93938D848D981306C00288F389E2
:10037000E02D80818F7D80830895EF92FF920F930F
:100380001F93CF93DF93EC0181E0888F9B8D8C8D41
:10039000981305C0E889F989808185FD26C0F62E6D
:1003A0000B8D10E00F5F1F4F0F731127E02E8C8D08
:1003B000E8120CC00FB607FCFACFE889F9898081F2
:1003C00085FFF5CFCE010E949B01F1CF8B8DFE0101
:1003D000E80FF11DE35AFF4FF0829FB7F8940B8F9F
:1003E000EA89FB89808180620AC09FB7F894EE8910
:1003F000FF896083E889F9898081837080648083C4
:100400009FBF81E090E0DF91CF911F910F91FF900E
:10041000EF900895CF93DF93EC01888D8823C9F086
:10042000EA89FB89808185FD05C0A889B9898C91FD
:1004300086FD0FC00FB607FCF5CF808185FFF2CF98
:10044000A889B9898C9185FFEDCFCE010E949B01CF
:10045000E7CFDF91CF91089580E090E0892B29F0DC
:100460000E94910181110C940000089585ED809304
:10047000BC008091BC0084FDFCCF10927E030895E7
:1004800040912502262F30E0240F311D2132310505
:10049000DCF420917E032430C9F4FC0180E090E07C
:1004A000861758F4309125022191DC01AB5FBD4FD6
:1004B000A30FB11D2C930196F3CF80912502680FF5
:1004C0006093250280E0089581E0089582E0089518
:1004D000089508950895E091820380918103E817BB
:1004E00030F4F0E0EB58FD4F808190E008958FEFFD
:1004F0009FEF08959091820380918103981750F4A3
:10050000E92FF0E0EB58FD4F208130E09F5F9093A2
:10051000820302C02FEF3FEFC9010895809181034C
:1005200090E020918203821B91090895CF92DF927F
:10053000EF92FF920F931F93CF93DF937C01CB0138
:100540008A012091B902222389F0EB016B01C40ECC
:10055000D51ECC15DD0569F06991D701ED91FC91AF
:100560000190F081E02DC7010995F3CF642F0E941F
:100570004002C801DF91CF911F910F91FF90EF9042
:10058000DF90CF900895CF93DF931F92CDB7DEB762
:1005900069832091B9022223D1F020917F03203278
:1005A00040F021E030E0FC013383228380E090E0E2
:1005B00015C080918003E82FF0E0E654FD4F99814B
:1005C00090838F5F8093800380937F0305C061E0F9
:1005D000CE0101960E94400281E090E00F90DF91F1
:1005E000CF910895089580E090E008950E94011C45
:1005F000CF92DF92EF92FF920F931F93809142016F
:100600000E943C0A9FB7F894409171025091720287
:1006100060917302709174029FBF0091010210916A
:10062000020220910302309104026A017B01C01A88
:10063000D10AE20AF30A970186010B3F1105210551
:10064000310510F010920002409301025093020213
:100650006093030270930402909100029F5F909355
:1006600000029A3048F4923060F49130E9F510922B
:10067000FF011092FE013AC09A3099F09B30E9F0E8
:1006800033C09091FE01980F9093FE012091FF01DD
:1006900030E035952795811180E8282B2093FF01C4
:1006A00025C09091FE019170891719F09093FE0179
:1006B0001DC08DEF8093FE0119C08091FE018D3F1A
:1006C00098F4809153018F5F803108F080E0909121
:1006D0005401891749F0E82FF0E09091FF01ED5B9C
:1006E000FE4F908380935301109200021F910F914F
:1006F000FF90EF90DF90CF900895EF92FF920F93CD
:100700001F93CF93DF93EC017B018A01888199814C
:10071000009729F02A813B8124173507F8F4B801A6
:100720006F5F7F4F0E943B1B009759F0998388832E
:100730001B830A832C813D81232B81F4FC011082D1
:100740000DC088819981009711F00E94B21A198218
:1007500018821D821C821B821A8207C01D830C8393
:10076000B701888199810E94181CCE01DF91CF9139
:100770001F910F91FF90EF900895FC01808191816E
:100780000C94B21AFB01DC0111961C921E92139676
:100790001C921E92129715961C921E921497861701
:1007A000970749F0608171816115710521F04481DD
:1007B00055810C947D030895FC01118210821382EF
:1007C0001282158214826115710551F0FB010190AE
:1007D0000020E9F73197AF01461B570B0C947D03BE
:1007E00008951F920F920FB60F9211242F933F93EB
:1007F0004F935F936F937F938F939F93AF93BF9329
:10080000EF93FF93E0910201F09103010995FF91AD
:10081000EF91BF91AF919F918F917F916F915F9178
:100820004F913F912F910F900FBE0F901F901895F1
:100830001F920F920FB60F9211242F933F934F9355
:100840005F936F937F938F939F93AF93BF93EF9338
:10085000FF93E0910001F09101010995FF91EF9163
:10086000BF91AF919F918F917F916F915F914F91C8
:100870003F912F910F900FBE0F901F9018951F92D0
:100880000F920FB60F9211242F933F934F935F93C4
:100890006F937F938F939F93AF93BF93EF93FF9348
:1008A0008BED92E00E949B01FF91EF91BF91AF9180
:1008B0009F918F917F916F915F914F913F912F9178
:1008C0000F900FBE0F901F9018951F920F920FB6AA
:1008D0000F9211242F938F939F93EF93FF93E091A7
:1008E000EB02F091EC028081E091F102F091F202D2
:1008F00082FD12C090818091F4028F5F8F732091EE
:10090000F502821751F0E091F402F0E0E552FD4F5C
:10091000958F8093F40201C08081FF91EF919F91A8
:100920008F912F910F900FBE0F901F9018951F92CF
:100930000F920FB60F9211242F933F934F935F9313
:100940006F937F938F939F93AF93BF93EF93FF9397
:100950008091B900887F803609F49CC068F58832A0
:1009600009F45BC090F4803109F454C038F4882352
:1009700009F4F6C0883009F44DC0F6C0883109F496
:100980004CC0803209F45DC0EFC0803409F468C007
:1009900048F4803309F455C0883309F0E5C08093EA
:1009A000B802D8C0803509F44FC0883509F45DC05D
:1009B000883409F0D9C0D6C0883909F4C7C0A8F472
:1009C000883709F467C038F4883609F463C0803783
:1009D00009F460C0C9C0883809F4B8C0803909F486
:1009E0005FC0803809F0C0C05BC0803B09F486C09E
:1009F00038F4803A09F466C0883A09F47FC0B4C07C
:100A0000803C09F4A7C0883C09F4A4C0883B09F4E1
:100A10008AC0AAC08091950210C09091B7028091BF
:100A2000B602981770F5E091B70281E08E0F8093BF
:100A3000B702F0E0EA56FD4F80818093BB0085EC61
:100A400086C08093B8028EC0E091B70281E08E0F1D
:100A50008093B7028091BB00F0E0EA56FD4F80839F
:100A60009091B7028091B6026EC0E091B70281E02A
:100A70008E0F8093B7028091BB00F0E0EA56FD4FE5
:100A8000808380917D0381116DC081E080937C0320
:100A900084EA61C083E080937E0310924702CFCF47
:100AA00080914702803208F051C0E091470281E016
:100AB0008E0F809347028091BB00F0E0E95DFD4F0F
:100AC0008083BDCF85EC8093BC0010927E03809123
:100AD0004702803230F4E0914702F0E0E95DFD4FDB
:100AE00010826091470270E0E0917803F091790301
:100AF00087E292E009951092470236C084E0809325
:100B00007E031092260210922502E0917A03F09162
:100B10007B03099580912502811105C081E08093B6
:100B2000250210920502E091260281E08E0F80934B
:100B30002602F0E0EB5FFD4F80818093BB00909137
:100B4000260280912502981708F479CF85E88093D2
:100B5000BC000AC085EC8093BC0010927E0304C0E8
:100B60001092B8020E943602FF91EF91BF91AF91AF
:100B70009F918F917F916F915F914F913F912F91B5
:100B80000F900FBE0F901F90189590915401809177
:100B90005301981749F08091540190915301891B9A
:100BA00087FF03C0805F089580E00895CF92DF92B1
:100BB000EF92FF92C0905B01D0905C010D2C000C75
:100BC000EE08FF08F7FE0EC06DE28BED92E00E948A
:100BD000BD0166277727CB016C197D098E099F0916
:100BE0004AE003C04AE0C701B6010E94550980EA05
:100BF00091E00E943A0980915A010E94A6098EE96B
:100C000091E00E943A09809159010E94A6098CE95D
:100C100091E00E943A09809157010E94A6098AE951
:100C200091E00E943A09809156010E94A60988E944
:100C300091E00E943A09809155010E94A60985E938
:100C400091E00E943A09809158010E94A60983E927
:100C500091E00E943A09FF90EF90DF90CF900C94C2
:100C600032090F931F93CF938C01611102C0C4E12D
:100C700001C0CAE0C8010E947119C81739F06C2F71
:100C8000C801CF911F910F910C947919CF911F91A9
:100C90000F9108950F931F93CF93DF938C01C62F6D
:100CA0000E9471198A3011F0843129F461E08A3090
:100CB00089F060E00FC0C11102C0D4E101C0DAE0E8
:100CC000C8010E947119D81721F06D2FC8010E9428
:100CD00079196C2F862FDF91CF911F910F91089575
:100CE000CF92DF92EF92FF920F931F93CF93DF93F8
:100CF00010915801C0915B01D0915C0100915A01A3
:100D0000F0905901E0905701D0905601C0905501E4
:100D10000E941A098091910391E09093B902809307
:100D2000DA021092800310927F0382E090E00E942A
:100D300010088C2D8C3308F08BE36AE00E94BE19FA
:100D4000692F20E1829F600D112483E893E00E94C7
:100D5000C3028D2D8C3308F08BE36AE00E94BE192C
:100D6000692F20E1829F600D112483E893E00E94A7
:100D7000C3028E2D883108F087E16AE00E94BE1917
:100D8000692F20E1829F600D112483E893E00E9487
:100D9000C3020E9415080E9422090E941A09CC5D14
:100DA000D7408C2F8C7FE82EC81BD10980919103EE
:100DB00091E09093B9028093DA021092800310922E
:100DC0007F0385E090E00E941008FF2029F08F2D1E
:100DD000803218F08FE101C081E06AE00E94BE1904
:100DE000692F20E1829F600D1124CE0126E0880F3B
:100DF000991F2A95E1F7682B83E893E00E94C302CC
:100E0000002329F0802F0D3018F08CE001C081E024
:100E10006AE00E94BE1920E1829F900D11241730D4
:100E200020F41295110F107E01C010EC692F612B78
:100E300083E893E00E94C3020E9415088091910309
:100E400091E09093B9028093DA021092800310929D
:100E50007F0380E190E00E9410086E2D83E893E00C
:100E60000E94C302CE010E9410080E941508DF9163
:100E7000CF911F910F91FF90EF90DF90CF900C9446
:100E80002209CF93DF93D82FC62F90918F038091A3
:100E900090039CBD8DBD60E087E00E94AF0ADEBD7F
:100EA00000000DB407FEFDCFDEB5CEBD00000DB4D1
:100EB00007FEFDCFCEB561E087E00E94AF0ADD23DB
:100EC00069F180E88D0F8F3348F58630C9F038F42A
:100ED000823099F0843011F5C09357011BC08830DF
:100EE000B9F098F08930D1F48C2F90E08053984F6E
:100EF00090935C0180935B010DC0C09356010AC0C2
:100F00008FEF8C0F8093580105C0C093590102C028
:100F1000C0935A01DF91CF910C947006DF91CF916D
:100F200008956091550180E40E9441076091560147
:100F300082E40E9441076091570184E40E944107C6
:100F4000609158016F5F86E40E94410760915901EA
:100F500087E40E94410760915A0188E40E9441079A
:100F600080915B0190915C0164E670E00E94CA1977
:100F7000682F89E40C9441078F929F92AF92BF92A1
:100F8000CF92DF92EF92FF92CF93DF93D0E0C0E059
:100F9000812C912C540183942D2F80E090E060E00F
:100FA0002932A8F4E22FF0E0E85BFD4F30817501B3
:100FB0006401082E04C0CC0CDD1CEE1CFF1C0A943E
:100FC000D2F7332311F06C2902C0C0946C21019632
:100FD0002F5F8830910521F7CF5F8C2F0E9441074A
:100FE000D85FC630C9F6DF91CF91FF90EF90DF90C8
:100FF000CF90BF90AF909F908F90089560E08AE06F
:101000000E94AF0A0E942A090E94BC076AE070E0B1
:1010100080E090E00E94320D61E08AE00C94AF0A1B
:10102000682F83E893E00C94C30230917F03313240
:1010300008F04BC080917E038111FCCF9091DA02C1
:1010400022E020937E0321E020937D032FEF209365
:10105000B8021092B7023093B602EAEBF2E0A6E9CA
:10106000B2E020E0321721F041914D932F5FFACF8B
:101070001092950220919502990F922B90939502D0
:1010800090917C03913061F410927C0390919502D1
:101090009093BB009091BC0093FDF8CF95EC01C0FC
:1010A00095EE9093BC0090917E039230E1F3909185
:1010B000B8029F3F79F08091B802803241F0809170
:1010C000B802803331F084E005C081E003C082E0E3
:1010D00001C083E01092800310927F031092B90246
:1010E0000895CF93C62F9091910321E02093B902E8
:1010F0009093DA021092800310927F03682F83E8A6
:1011000093E00E94C3026C2F83E893E00E94C30225
:10111000CF910C9415089091910321E02093B9028E
:101120009093DA021092800310927F03682F83E875
:1011300093E00E94C3020E94150880919103909150
:101140007E039111FCCF91E090937E0390937D03F9
:101150002FEF2093B8021092B7021092B60290932C
:10116000950290919502880F892B8093950280912A
:101170007C03813061F410927C038091950280930E
:10118000BB008091BC0083FDF8CF85EC01C085EEEB
:101190008093BC0080917E038130E1F38091B7029F
:1011A000811103C09091B70201C091E0E6E9F2E03D
:1011B000A5E7B2E080E0891721F021912D938F5FA0
:1011C000FACF109282038093810383E893E00E9418
:1011D0007A020895FF920F931F93CF93DF9385E0D8
:1011E0000E948B08082F10E086E0159507958A95D8
:1011F000E1F781E10E948B08D82F80E10E948B08E3
:10120000C82F0D1759F00D1728F4CC5F6C2F80E113
:101210000E947108602F81E10E9471088C2F90E07C
:101220008452984F800F911FDF91CF911F910F91A2
:10123000FF90089580E00E948B08682F606880E02E
:101240000C94710880E00E948B08682F6F7780E013
:101250000C947108E8E4F2E0119282E0E137F807BB
:10126000D9F7089542E050E06FE371E08BED92E032
:101270000C942A010F931F93CF93DF938C01C0E04E
:10128000D0E0F801EC0FFD1F6491662341F08BED77
:1012900092E00E94BD01892B11F02196F2CFCE0180
:1012A000DF91CF911F910F9108958F929F92AF92EE
:1012B000BF920F931F93CF93DF93CDB7DEB7A19764
:1012C0000FB6F894DEBF0FBECDBF19A2423008F4AE
:1012D0004AE08E010F5D1F4F842E912CA12CB12C62
:1012E000A50194010E94DE19E62FB901CA0101503F
:1012F0001109EA3014F4E05D01C0E95CD801EC9317
:10130000232B242B252B61F70115110571F0F80112
:1013100001900020E9F73197AF01401B510BB80154
:101320008BED92E00E942A0102C080E090E0A1963D
:101330000FB6F894DEBF0FBECDBFDF91CF911F91E6
:101340000F91BF90AF909F908F900895682F70E09D
:1013500080E090E04AE00C9455090F931F93CF93DF
:10136000DF93FC01C481D581209719F4FB01108221
:1013700011C0415051094C175D0708F4EA018B0177
:10138000FC0160817181AE01C8010E941F1CC00F69
:10139000D11F1882DF91CF911F910F910895EF9285
:1013A000FF920F931F93CF93DF93CDB7DEB7EDB6C8
:1013B000FEB6FC01448155814F5F5F4F2DB73EB7AC
:1013C000241B350B0FB6F8943EBF0FBE2DBF0DB7D3
:1013D0001EB70F5F1F4F4115510519F0B8010E944C
:1013E000AD09C8010E944B190FB6F894FEBE0FBE9E
:1013F000EDBEDF91CF911F910F91FF90EF90089577
:10140000CF93DF930E943A09EC010E9432098C0FBE
:101410009D1FDF91CF910895CF93DF93DC01ED9174
:10142000FC91EB01A881B981309711F01097C9F4B4
:10143000109759F0EB012C813D81232B31F08C91D9
:1014400090E091958195910914C0309781F0DC016D
:1014500014968D919C911597892B49F0808190E08D
:1014600008C0BD01CF01DF91CF910C940F1C80E02B
:1014700090E0DF91CF910895CF93DF93282F30E054
:10148000F901E252FE4F8491F901E653FE4FD491E7
:10149000F901EA54FE4FC491CC2391F081110E94CE
:1014A000CD0CEC2FF0E0EE0FFF1FE455FE4FA591A1
:1014B000B491EC91ED2381E090E021F480E002C052
:1014C00080E090E0DF91CF910895CF92DF92EF928C
:1014D000FF92CF93DF93EC018FB7F894C090710225
:1014E000D0907202E0907302F09074028FBF2FB719
:1014F000F8948091710290917202A0917302B09160
:1015000074022FBF8C199D09AE09BF09883E934014
:10151000A105B10548F4809192030E943C0A8C1702
:101520009D0729F781E001C080E0DF91CF91FF9016
:10153000EF90DF90CF900895CF93DF9380E090E01D
:101540000E94650A809194030E943C0AEC0181E0AC
:1015500090E00E94650ACE01DF91CF9108951F931C
:10156000CF93DF93282F30E0F901E252FE4F8491B0
:10157000F901E653FE4FD491F901EA54FE4FC491AC
:10158000CC23C1F0162F81110E94CD0CEC2FF0E07E
:10159000EE0FFF1FEE55FE4FA591B4919FB7F89443
:1015A000111104C08C91D095D82302C0EC91DE2B90
:1015B000DC939FBFDF91CF911F910895CF93C82FE8
:1015C00061E00E94F60C60E08C2FCF910C94AF0A82
:1015D000CF93C82F60E00E94F60C61E08C2FCF9172
:1015E0000C94AF0ACF92DF92EF92FF920F931F936A
:1015F000CF9380919203909193030E94E80A809187
:101600009403909195030E94E80A83EC90E001977F
:10161000F1F780E090E00E94650A8FE090E001978A
:10162000F1F781E090E00E94650AC0E000E010E080
:10163000C12CD12C7601C3940E949C0A892B61F0A5
:10164000D701C601002E04C0880F991FAA1FBB1F17
:101650000A94D2F7C82B0CC0D701C601002E04C0D3
:10166000880F991FAA1FBB1F0A94D2F78095C82321
:101670000F5F1F4F08301105F9F60E949C0A0E9467
:101680009C0A80919203909193030E94DE0A8C2F12
:10169000CF911F910F91FF90EF90DF90CF90089521
:1016A0002091940330919503019721F4C9010E9480
:1016B000E80A03C0C9010E94DE0A81E090E00E94AE
:1016C000650A80E090E00C94650ABF92CF92DF92A9
:1016D000EF92FF920F931F93CF93DF93C82E8091C9
:1016E0009403909195030E94E80A8091920390914F
:1016F00093030E94E80ACBEAD4E0CE010197F1F708
:1017000080919203909193030E94DE0A2197F1F752
:1017100080919403909195030E94DE0A83E290E009
:101720000197F1F780919203909193030E94E80A48
:1017300080E090E00E94650AB82E882309F43FC03B
:10174000EE24E394F12CC0E0D0E00C2C000CDD087A
:1017500086010C2E02C0159507950A94E2F70170D8
:101760001127C8010E94500BE026F1262196C830AF
:10177000D10571F7C7010E94500B8091940390919D
:1017800095030E94E80A83EC90E00197F1F780E06E
:1017900090E00E94650A809192030E943C0A892B86
:1017A000D1F3809194030E943C0A892BA1F380918C
:1017B0009203909193030E94DE0A0E94F20A8B2DFD
:1017C000DF91CF911F910F91FF90EF90DF90CF901D
:1017D000BF900895CF93DF93EC0183EF90E00E94D8
:1017E000650BCE01DF91CF910C94650BCF93809167
:1017F0009203909193030E94E80A80919403909140
:1018000095030E94E80A8FEF90E00E94650BC82FB5
:101810008823A1F10E94F20A0E94F20A88EC90E06B
:101820000E94EA0B84E690E00E94EA0B80E590E0DB
:101830000E94EA0B82EF90E00E94650B0E94F20A80
:1018400091E0833009F090E09093960388EE90E069
:101850000E94650B83E090E00E94650B86EE90E0AD
:101860000E94650B88E290E00E94EA0B80EF90E016
:101870000E94650B8BE891E00197F1F78C2FCF91D7
:101880000895AF92BF92CF92DF92EF92FF920F93A3
:101890001F93CF93DF937C015B01EA016901241759
:1018A000350720F48D2FE901C42ED82E61E471E0B4
:1018B000C7010E94DC03D50114960D911C91159768
:1018C000C017D107C8F5C016D10608F48601D501A6
:1018D000ED91FC911197E00FF11FD08010826D9176
:1018E0007C916C0F7D1F6115710561F0FB0101900A
:1018F0000020E9F73197AF01461B570BC7010E9443
:101900007D0313C0F70180819181009711F00E943F
:10191000B21AD70111961C921E9215961C921E9215
:10192000149713961C921E921297F5018081918153
:10193000FC01E00FF11FD082C701DF91CF911F9111
:101940000F91FF90EF90DF90CF90BF90AF900895F0
:101950003FB7F8948091980390919903A0919A03CE
:10196000B0919B0326B5A89B05C02F3F19F00196A7
:10197000A11DB11D3FBFBA2FA92F982F8827820F15
:10198000911DA11DB11DBC01CD0142E0660F771F65
:10199000881F991F4A95D1F70895833081F028F464
:1019A000813099F08230A1F008958730A9F0883015
:1019B000B9F08430D1F4809180008F7D03C0809194
:1019C00080008F7780938000089584B58F7702C060
:1019D00084B58F7D84BD08958091B0008F7703C05A
:1019E0008091B0008F7D8093B0000895CF93DF93F6
:1019F00090E0FC01E653FE4F2491FC01EA54FE4FB7
:101A00008491882361F190E0880F991FFC01EE50CA
:101A1000FE4FC591D491FC01EE55FE4FA591B491B6
:101A2000611109C09FB7F89488812095822388832B
:101A3000EC912E230BC0623061F49FB7F89488813B
:101A4000322F309583238883EC912E2B2C939FBFCC
:101A500006C08FB7F894E8812E2B28838FBFDF91C3
:101A6000CF9108958F929F92AF92BF92CF92DF92C3
:101A7000EF92FF926B017C010E94A80C4B015C016C
:101A8000C114D104E104F104F1F00E94A80CDC01BE
:101A9000CB0188199909AA09BB09883E9340A10581
:101AA000B10570F321E0C21AD108E108F10888EE0F
:101AB000880E83E0981EA11CB11CC114D104E1045E
:101AC000F10419F7DDCFFF90EF90DF90CF90BF903A
:101AD000AF909F908F9008951F920F920FB60F9224
:101AE00011242F933F938F939F93AF93BF93809134
:101AF000710290917202A0917302B09174023091C0
:101B0000970323E0230F2D3720F40196A11DB11D6B
:101B100005C026E8230F0296A11DB11D209397034F
:101B20008093710290937202A0937302B093740237
:101B30008091980390919903A0919A03B0919B038F
:101B40000196A11DB11D8093980390939903A093D2
:101B50009A03B0939B03BF91AF919F918F913F9157
:101B60002F910F900FBE0F901F901895CF93DF937A
:101B7000CDB7DEB7E6970FB6F894DEBF0FBECDBF88
:101B8000789484B5826084BD84B5816084BD85B558
:101B9000826085BD85B5816085BD80916E00816064
:101BA00080936E001092810080918100826080930A
:101BB000810080918100816080938100809180000C
:101BC0008160809380008091B10084608093B10037
:101BD0008091B00081608093B00080917A00846031
:101BE00080937A0080917A00826080937A0080915D
:101BF0007A00816080937A0080917A008068809377
:101C00007A001092C100E091EB02F091EC0282E0C8
:101C10008083E091E702F091E8021082E091E9020E
:101C2000F091EA0280E180831092F302E091EF02EA
:101C3000F091F00286E08083E091ED02F091EE02F7
:101C4000808180618083E091ED02F091EE028081DD
:101C500088608083E091ED02F091EE0280818068DF
:101C60008083E091ED02F091EE0280818F7D808390
:101C70008BED92E00E940A02FFB6F89480915D011C
:101C8000811127C0E0ECF1E08491E4EDF1E0949162
:101C9000E82FF0E0EE0FFF1FEE50FE4FA591B4913C
:101CA000EC91E92321F461E08AE00E94AF0A61E04F
:101CB0008AE00E94F60C8CB580618CBD8CB5806486
:101CC0008CBD61E08DE00E94F60C61E08BE00E942B
:101CD000F60C80915D018F5F80935D01FFBE61E036
:101CE00087E00E94F60C61E087E00E94AF0A61E0A5
:101CF00086E00E94F60C61E086E00E94AF0A62E096
:101D000082E00E94F60C62E084E00E94F60C62E041
:101D100083E00E94F60C62E085E00E94F60C61E030
:101D20008AE00E94F60C61E08AE00E94AF0A61E05E
:101D300089E00E94F60C61E089E00E94AF0A61E050
:101D400088E00E94F60C61E088E00E94AF0A62E041
:101D50008FE00E94F60C61E08EE00E94F60C0E947B
:101D60002A0960915E0180E090E00E944A0680931B
:101D70005E016091040181E090E00E944A06809338
:101D8000040160915E0181E0682789E00E94AF0A4A
:101D900089E890E00E94000A0E94FE0784E0809398
:101DA000420162E082E00E94F60C62E084E00E9460
:101DB000F60C109253011092540188EF92E0909328
:101DC000010180930001809169008C7F8260809383
:101DD0006900E89A0E94F60B8093F5010E94EA08D8
:101DE00090935C0180935B0186E00E948B08982FA2
:101DF0009695969596959270292F220F220F920F05
:101E00008F70890F80935A0185E00E948B08982F6C
:101E10009695969596959670292F220F220F920FE0
:101E20008F70890F8093590186E00E948B0890E0A3
:101E300035E0959587953A95E1F78093580184E0D0
:101E40000E948B08982F9695969596959670292FB7
:101E5000220F220F920F8F70890F8093570183E01A
:101E60000E948B08982F9695969596959E70292F8F
:101E7000220F220F920F8F70890F8093560182E0FC
:101E80000E948B08982F9695969596959E70292F6F
:101E9000220F220F920F8F70890F809355010E949D
:101EA000910788E690E00E94000A60E086E00E94C8
:101EB000AF0A8FB7F894C0907102D0907202E09090
:101EC0007302F09074028FBF0E94C505882309F445
:101ED00062C60E94C505811102C02FEF12C0E091B9
:101EE000540180915301E817C1F3EF5FE03108F02E
:101EF000E0E0E0935401F0E0ED5BFE4F208122230F
:101F000061F3A22EB12CC092FA01D092FB01E092B3
:101F1000FC01F092FD0161E086E00E94AF0A20EE34
:101F2000A216B10421F481E08093670134C631EE3A
:101F3000A316B10431F481E08093670180936601B8
:101F40002AC640EFA416B10441F4809165018111C5
:101F500004C081E0809365011EC6809167018111F4
:101F600007C080916601811103C020E030E002C00B
:101F700020E031E02A0D3B1D2534310509F4AFC3C3
:101F80000CF040C12332310509F42FC30CF0A0C07E
:101F90002E30310509F4C2C40CF053C0273031058E
:101FA00009F452C53CF52430310509F417C58CF409
:101FB0002130310509F436C52330310509F06FC5EC
:101FC0009091650181E0892780935A028093700285
:101FD00066C52530310509F4F8C42630310509F00D
:101FE0005EC59091650181E0892780936F0280939F
:101FF000700255C52B30310509F402C58CF4293027
:10200000310509F418C52A30310509F048C5909109
:10201000650181E0892780936E02809370023FC53D
:102020002C30310509F4E3C42D30310509F037C5F2
:102030009091650181E089278093480280935D0239
:102040002EC52A31310509F443C3ECF4243131059E
:1020500009F417C24CF42131310509F426C22231AA
:10206000310509F4FAC11BC52531310509F406C350
:102070002631310509F013C59091650181E089276A
:1020800080934B020CC52D31310509F413C37CF448
:102090002B31310509F4F9C22C31310509F0FFC4A7
:1020A0009091650181E0892780934902F8C421322B
:1020B000310509F493C20CF004C32E31310509F047
:1020C000EEC49091650181E0892780935302E7C4B3
:1020D0002333310509F4A5C20CF04BC02B32310576
:1020E00009F491C21CF52632310509F4FFC27CF4D3
:1020F0002432310509F480C22532310509F0CFC4FC
:102100009091650181E0892780936302C8C42932D8
:10211000310509F45CC22A32310509F0C0C490913E
:10212000650181E0892780936802B9C42E323105A8
:1021300009F4E3C27CF42C32310509F4ADC22D322E
:10214000310509F0ACC49091650181E08927809345
:102150006202A5C42133310509F47DC22233310561
:1021600009F09DC49091650181E0892780936F02F9
:1021700096C42C33310509F496C21CF5263331057B
:1021800009F4C2C27CF42433310509F443C2253377
:10219000310509F084C49091650181E0892780931D
:1021A0006D027DC42A33310509F44EC22B3331054B
:1021B00009F075C49091650181E0892780936602DA
:1021C0006EC42134310509F4F5C27CF42D33310598
:1021D00009F4A1C22E33310509F061C49091650163
:1021E00081E0892780935C025AC480916501233481
:1021F000310509F41DC20CF035C291E089278093A6
:102200005E024DC42537310509F4B2C20CF083C01B
:102210002935310509F421C1DCF52D34310509F4E6
:1022200026C2BCF42A34310509F428C34CF4263400
:10223000310509F477C22934310509F4CFC22FC41E
:102240002B34310509F4F9C12C34310509F4DAC213
:1022500026C42435310509F4E9C24CF42E34310585
:1022600009F448C32235310509F490C218C4253554
:10227000310509F42BC32835310509F010C49091BC
:10228000650181E08927809357028093480207C443
:102290002B36310509F454C2ECF42D35310509F41F
:1022A00001C34CF42A35310509F48AC12B353105B7
:1022B00009F4D0C2F4C32636310509F476C12936B3
:1022C000310509F0ECC39091650181E08927809385
:1022D0004B02E5C32137310509F480C27CF42C366A
:1022E000310509F43EC22037310509F0D8C3909179
:1022F000650181E0892780934C02D1C380916501FB
:102300002337310509F423C20CF026C291E0892756
:1023100080935302C4C3243151E0350709F4B1C09E
:102320000CF044C02C37310509F40CC33CF52937B7
:10233000310509F410C38CF42637310509F41FC1A7
:102340002837310509F0ABC39091650181E08927F9
:1023500080934A0280935702A2C32A37310509F4B9
:10236000E8C12B37310509F09AC39091650181E0EE
:102370008927809357028093660291C323383105E1
:1023800009F447C34CF42D37310509F4F8C12E3751
:10239000310509F462C383C3213191E0390709F49F
:1023A0009AC02231314009F46CC379C3203751E01F
:1023B000350709F4BEC014F5293691E0390709F450
:1023C000FBC254F42A3451E0350709F457C22A35C8
:1023D000314009F4F5C063C32B3691E0390709F4A5
:1023E000BCC02C36314009F05AC39091650181E0A0
:1023F000892780935E028093700251C3243751E095
:10240000350709F4B3C094F4213791E0390709F492
:1024100078C02237314009F042C39091650181E0D4
:1024200089278093480280936C0239C32A3751E090
:10243000350709F4ADC22D3781E0380709F494C29D
:102440002537314009F02BC39091650181E0892740
:10245000809348028093640222C380910401811119
:1024600003C020E030E002C02FE030E09091650131
:1024700081E08927F901E85BFD4F80838093640147
:102480000EC380910401811103C02FE030E002C02F
:1024900020E030E09091650181E08927F901E85B57
:1024A000FD4F808380936301FAC29091650181E0C2
:1024B00089278093570290910401911103C020E075
:1024C00030E002C026E030E0F901E85BFD4F808398
:1024D00080936201E4C29091650181E08927809335
:1024E000570290910401911103C020E030E002C036
:1024F00027E030E0F901E85BFD4F808380936201C3
:10250000CEC28091040190916501882339F081E069
:10251000892780934D028093700206C081E089274D
:10252000809357028093600281E089278093610144
:10253000B6C29091040180916501992339F091E030
:1025400089278093550280937002A9C291E0892760
:102550008093570280934902A2C29091650181E065
:1025600089278093480280936B0299C290916501FC
:1025700081E089278093480280935C0290C2909109
:10258000650181E0892780934802909104019111AF
:1025900003C027E030E002C023E030E0F901E85B4F
:1025A000FD4F8083809360017AC29091650181E044
:1025B00089278093480280934C0280935F016FC209
:1025C0009091650181E0892780934E0268C29091C5
:1025D000650181E0892780934F0261C29091650176
:1025E00081E08927809360025AC29091650181E061
:1025F00089278093590253C29091650181E0892710
:1026000080935A024CC29091650181E089278093A2
:10261000610245C29091650181E08927809369023A
:102620003EC29091650181E0892780936E0237C296
:1026300091E0892780935D0232C29091650181E02B
:102640008927809356022BC29091650181E08927EA
:1026500080935F0224C29091650181E08927809375
:1026600067021DC291E089278093550218C290919C
:10267000650181E0892780934D0211C29091650127
:1026800081E0892780934A020AC29091650181E026
:1026900089278093510203C29091650181E08927C7
:1026A00080936A02FCC19091650181E08927809343
:1026B0006502F5C19091650181E0892780935202FE
:1026C000EEC19091650181E0892780935802E7C1AE
:1026D0009091650181E0892780935002E0C190913B
:1026E000650181E0892780934C02D9C190916501F1
:1026F00081E0892780935B02D2C19091650181E0DE
:10270000892780936B02CBC19091650181E0892775
:1027100080936C02C4C19091650181E08927809308
:102720006402BDC19091650181E0892780935402C4
:10273000B6C19091650181E0892780935B02AFC1AA
:102740009091650181E0892780936302A8C191E09F
:10275000892780936B02A3C191E0892780936C0243
:102760009EC19091650181E089278093640297C1A1
:102770009091650181E0892780935C0290C19091DE
:10278000650181E089278093540289C12091650108
:1027900081E028272093570280916401811103C0B2
:1027A0008CE190E002C085E090E0FC01E85BFD4F29
:1027B000208375C12091650181E02827209357026D
:1027C00080916401811103C08FE190E002C08AE131
:1027D00090E0FC01E85BFD4F208361C12091650121
:1027E00081E028272093570280916401811103C062
:1027F00087E190E002C082E290E0FC01E85BFD4FDF
:1028000020834DC12091650181E028272093570244
:1028100080916401811103C08DE090E002C088E0E6
:1028200090E0FC01E85BFD4F208339C120916501F8
:1028300081E028272093570280916401811103C011
:1028400085E290E002C089E190E0FC01E85BFD4F89
:10285000208325C12091650181E02827209357021C
:1028600080916401811103C08DE190E002C081E29A
:1028700090E0FC01E85BFD4F208311C120916501D0
:1028800081E028272093570280916401811103C0C1
:1028900080E290E002C088E190E0FC01E85BFD4F3F
:1028A0002083FDC02091650181E0282720935702F5
:1028B00080916401811103C081E190E002C089E050
:1028C00090E0FC01E85BFD4F2083E9C020916501A9
:1028D00081E028272093570280916401811103C071
:1028E0008EE090E002C086E190E0FC01E85BFD4FE5
:1028F0002083D5C02091650181E0282720935702CD
:1029000080916401811103C08EE190E002C084E0F7
:1029100090E0FC01E85BFD4F2083C1C02091650180
:1029200081E028272093570280916401811103C020
:1029300080E190E002C081E090E0FC01E85BFD4FA7
:102940002083ADC09091650181E089278093570273
:1029500080936F02A4C09091650181E089278093E4
:10296000570280935E029BC09091040180916501A3
:10297000992339F091E0892780935F028093700258
:102980008EC091E089278093480280935B0287C0C4
:102990009091040180916501992339F091E0892794
:1029A00080936702809370027AC091E089278093B8
:1029B00048028093630273C09091650181E089278A
:1029C00080935602809370026AC09091650181E005
:1029D0008927809349028093700261C090916501BC
:1029E00081E08927809360028093700258C09091A3
:1029F000650181E0892780935902809370024FC05E
:102A00009091650181E08927809361028093700233
:102A100046C09091650181E0892780936902809387
:102A200070023DC09091650181E0892780935D022D
:102A30008093700234C09091650181E08927809372
:102A40006602809370022BC09091650181E0892716
:102A5000809352028093570222C08091650188239F
:102A6000F1F060915E0181E0B62EB826B0925E0171
:102A700089E00E94AF0A6B2D80E090E00E94310651
:102A80000EC080916501882351F06091040181E0BE
:102A900068276093040181E090E00E9431068091F4
:102AA0006301882391F080916201882371F0809105
:102AB0006101882351F0109263011092620110921B
:102AC0006101109264010E94FE07809163018823D6
:102AD00011F1809162018823F1F0809160018823D7
:102AE000D1F0109263011092620110926001109275
:102AF000640160E088E00E94AF0A0E942A090E94F7
:102B0000BC076AE070E080E090E00E94320D61E076
:102B100088E00E94AF0A80916301882389F1809147
:102B20006201882369F180915F01882349F1109245
:102B300063011092620110925F01109264010E9481
:102B40002A090E94BC0760E08AE00E94AF0A81E087
:102B5000809351020E94BC0764EF71E080E090E036
:102B60000E94320D61E08AE00E94AF0A0E94BC0719
:102B700064EF71E080E090E00E94320D109251020B
:102B80001092650180916601882319F01092660108
:102B900002C0109267010E94BC078091FA019091D7
:102BA000FB01A091FC01B091FD0146015701881A7B
:102BB000990AAA0ABB0AD501C401883C9105A1055E
:102BC000B10520F060E086E00E94AF0A8091F60136
:102BD0009091F701A091F801B091F901A701960138
:102BE000281B390B4A0B5B0BDA01C901883E934065
:102BF000A105B10508F46BC00E94EA0890935C013E
:102C000080935B0186E00E948B08982F969596959D
:102C100096959270292F220F220F920F8F70890F95
:102C200080935A0185E00E948B08982F969596957F
:102C300096959670292F220F220F920F8F70890F71
:102C40008093590186E00E948B0890E025E09595DD
:102C500087952A95E1F78093580184E00E948B08BC
:102C6000982F9695969596959670292F220F220F5C
:102C7000920F8F70890F8093570183E00E948B0819
:102C8000982F9695969596959E70292F220F220F34
:102C9000920F8F70890F8093560182E00E948B08FB
:102CA000982F9695969596959E70292F220F220F14
:102CB000920F8F70890F809355010E949107C092E7
:102CC000F601D092F701E092F801F092F9018091BB
:102CD0000601909107011816190654F52091F50187
:102CE000211126C04091F1015091F2016091F30150
:102CF0007091F40146015701841A950AA60AB70A91
:102D000029EE821623E09206A104B10488F001970F
:102D100090930701809306010E94F60B8093F501C2
:102D2000C092F101D092F201E092F301F092F4012D
:102D30008091F501882309F472C08091ED01909192
:102D4000EE01A091EF01B091F00146015701881A00
:102D5000990AAA0ABB0AD501C40185369105A105C5
:102D6000B10508F45CC08BEE90E00E94650B0E94F8
:102D7000F20A982E0E94F20AA82E0E94F20AB82E99
:102D800080919603882329F00E94F20A082F880F69
:102D9000110B9091EC0181E098279093EC01A092A7
:102DA000EB01B092EA01392D3270292D2470802F69
:102DB00090FE02C0806101C08F7E8093E901809106
:102DC000E901332311F0806201C08F7D8093E90116
:102DD0008091E901222311F0806401C08F7B8093F0
:102DE000E9018091E901992311F0806801C08F7792
:102DF0008093E9016A2D8AE00E9441076B2D8BE0E8
:102E00000E9441076091E9018CE00E944107C09255
:102E1000ED01D092EE01E092EF01F092F0018BED26
:102E200092E00E948501892B31F1FF24F3948BED10
:102E300092E00E948501892BF1F08BED92E00E94D7
:102E400063018A3031F08D3021F0E091E801E7FF35
:102E500003C010920501EBCFF0920501AE2FB0E058
:102E6000A859BE4F8C93EF5FE093E801F0E0E8597A
:102E7000FE4F1082DCCF80910501811188C168E688
:102E800071E0CE01C1960E94DC0362E371E0CE01E5
:102E900001960E94DC03BE016F5F7F4FCE01C19699
:102EA0000E940C0A7C01CE0101960E94BD03EF280E
:102EB00059F48DE891E00E94000A88E691E00E94B2
:102EC000000A88E291E054C167E371E0CE01019607
:102ED0000E94DC03BE016F5F7F4FCE01C1960E944E
:102EE0000C0A7C01CE0101960E94BD03EF2859F423
:102EF00083E291E00E94000A82E191E00E94000AD0
:102F00000E94D60537C16BE371E0CE0101960E94A5
:102F1000DC038DA99EA9892B71F0E9A8FAA8698123
:102F20007A81C7010E942E1C009729F05C01AE181F
:102F3000BF08750103C0EE24EA94FE2CCE01019671
:102F40000E94BD03EF2809F017C18DA99EA94997DA
:102F500009F00CC128E030E044E050E0BE016F5CB5
:102F60007F4FCE018B960E94410C2BE030E049E070
:102F700050E0BE016F5C7F4FCE0185960E94410CF0
:102F80002EE030E04CE050E0BE016F5C7F4FCE01A0
:102F90004F960E94410C21E130E04FE050E0BE012D
:102FA0006F5C7F4FCE0149960E94410C24E130E0D6
:102FB00042E150E0BE016F5C7F4FCE0143960E941C
:102FC000410C27E130E045E150E0BE016F5C7F4FEE
:102FD000CE010D960E94410C29E130E048E150E01D
:102FE000BE016F5C7F4FCE0107960E94410CBE016F
:102FF000655D7F4FCE0101960E94C203CDB6DEB65D
:103000004D815E814F5F5F4F2DB73EB7241B350B5F
:103010000FB6F8943EBF0FBE2DBF8DB79EB7019679
:103020007C014115510529F0BC01CE0101960E9499
:10303000AD09C7010E944B190FB6F894DEBE0FBE52
:10304000CDBE90935C0180935B01CE0101960E94FE
:10305000BD03BE016B5D7F4FCE0101960E94C2038E
:10306000CE0101960E94CF0980935A01CE010196AC
:103070000E94BD03BE01615E7F4FCE0101960E949A
:10308000C203CE0101960E94CF0980935901CE015F
:1030900001960E94BD03BE01675E7F4FCE0101967F
:1030A0000E94C203CE0101960E94CF09809357016E
:1030B000CE0101960E94BD03BE016D5E7F4FCE0121
:1030C00001960E94C203CE0101960E94CF0980930F
:1030D0005601CE0101960E94BD03BE01635F7F4F82
:1030E000CE0101960E94C203CE0101960E94CF0933
:1030F00080935501CE0101960E94BD03BE01695F18
:103100007F4FCE0101960E94C203CE0101960E941C
:10311000CF0980935801CE0101960E94BD030E9401
:1031200070060E94D60586E091E00E94000A0E9487
:103130003209CE0107960E94BD03CE010D960E9472
:10314000BD03CE0143960E94BD03CE0149960E9465
:10315000BD03CE014F960E94BD03CE0185960E940D
:10316000BD03CE018B960E94BD0306C08DEA90E0A0
:103170000E94000A0E943209CE01C1960E94BD033E
:103180001092E8011092680181E0809305010E948D
:103190002C020C94590FCF93DF93EBEDF2E01382E6
:1031A000128288EE93E0A0E0B0E084839583A6834A
:1031B000B78322E131E03183208325EC30E035878D
:1031C000248724EC30E03787268720EC30E0318BF1
:1031D000208B21EC30E0338B228B22EC30E0358BDE
:1031E000248B26EC30E0378B268B118E128E138EBB
:1031F000148EE3E8F3E01382128284839583A6831E
:10320000B78384E291E091838083E2E9F3E083E095
:1032100090E09183808385E090E0938382831482A1
:10322000D0E5D09391031092820310928103109203
:10323000800310927F0310927E03C1E0C0937D0350
:1032400010927C0361E082E10E94AF0A61E083E1B9
:103250000E94AF0AE9EBF0E080818E7F808380815D
:103260008D7F808388E48093B80085E48093BC00E0
:1032700088E692E090937B0380937A0389E692E05C
:103280009093790380937803EFE8F3E0D083C183D0
:10329000DF91CF910895FC0188279927E894219127
:1032A0002032E9F3293010F02E30C8F32B3241F0F0
:1032B0002D3239F4689404C00E946919820F911D5F
:1032C000219120532A30C0F31EF4909581959F4F91
:1032D00008957AE0979F902D879F802D910D11245E
:1032E0000895F999FECF92BD81BDF89A992780B5CE
:1032F0000895262FF999FECF1FBA92BD81BD20BD3A
:103300000FB6F894FA9AF99A0FBE019608952F9283
:103310003F924F925F926F927F928F929F92AF9265
:10332000BF92CF92DF92EF92FF920F931F93CF93B2
:10333000DF93CDB7DEB7CA1BDB0B0FB6F894DEBF49
:103340000FBECDBF09942A88398848885F846E846F
:103350007D848C849B84AA84B984C884DF80EE80B9
:10336000FD800C811B81AA81B981CE0FD11D0FB6C2
:10337000F894DEBF0FBECDBFED010895991B79E033
:1033800004C0991F961708F0961B881F7A95C9F7F5
:103390008095089597FB072E16F4009407D077FDCB
:1033A00009D00E94001A07FC05D03EF49095819543
:1033B0009F4F0895709561957F4F0895A1E21A2E51
:1033C000AA1BBB1BFD010DC0AA1FBB1FEE1FFF1FC9
:1033D000A217B307E407F50720F0A21BB30BE40B19
:1033E000F50B661F771F881F991F1A9469F7609560
:1033F0007095809590959B01AC01BD01CF0108951A
:10340000AA1BBB1B51E107C0AA1FBB1FA617B7070A
:1034100010F0A61BB70B881F991F5A95A9F7809526
:103420009095BC01CD010895EE0FFF1F0590F4911A
:10343000E02D09940F931F93CF93DF938230910572
:1034400010F482E090E0E0919E03F0919F0320E071
:1034500030E0A0E0B0E0309719F140815181028165
:10346000138148175907C8F08417950769F4109716
:1034700031F012960C93129713961C9327C0009369
:103480009E0310939F0322C02115310519F04217A6
:10349000530718F49A01BD01EF01DF01F801DBCFFA
:1034A00021153105F9F0281B390B2430310580F442
:1034B0008A819B816115710521F0FB0193838283D1
:1034C00004C090939F0380939E03FE01329644C0F4
:1034D000FE01E20FF31F819391932250310939834A
:1034E00028833AC020919C0330919D03232B41F403
:1034F00020910A0130910B0130939D0320939C038E
:1035000020910801309109012115310541F42DB7B1
:103510003EB740910C0150910D01241B350BE091F9
:103520009C03F0919D03E217F307A0F42E1B3F0BC1
:103530002817390778F0AC014E5F5F4F2417350725
:1035400048F04E0F5F1F50939D0340939C0381935F
:10355000919302C0E0E0F0E0CF01DF91CF911F91A5
:103560000F910895CF93DF93009709F481C0FC0178
:10357000329713821282A0919E03B0919F031097FD
:1035800081F420813181820F931F20919C0330911F
:103590009D032817390751F5F0939D03E0939C0391
:1035A00067C0ED0120E030E0CE17DF0740F44A812C
:1035B0005B819E0141155105F1F0EA01F5CFD383FE
:1035C000C28340815181840F951FC817D90759F4D0
:1035D00088819981840F951F0296918380838A81C7
:1035E0009B81938382832115310529F4F0939F03F6
:1035F000E0939E033DC0E901FB83EA834991599121
:10360000C40FD51FEC17FD0761F480819181840FF1
:10361000951F0296E90199838883828193819B8318
:103620008A83E0E0F0E012968D919C9113970097C9
:1036300019F0FD01DC01F7CF8D919C9111979D014F
:103640002E5F3F4F820F931F20919C0330919D036B
:103650002817390769F4309729F410929F031092C4
:103660009E0302C013821282B0939D03A0939C0319
:10367000DF91CF910895A0E0B0E0E1E4FBE10C948C
:103680008B19EC01009721F4CB010E941A1AB4C0E7
:10369000FC01E60FF71F9C0122503109E217F307E6
:1036A00008F4A8C0D9010D911C91119706171707AE
:1036B000B0F00530110508F49BC0C80104978617C7
:1036C000970708F495C002501109061B170B0193C8
:1036D00011936D937C93CF010E94B21A89C05B0154
:1036E000A01AB10A4C01800E911EA0919E03B091C8
:1036F0009F03612C712CE12CF12C109709F446C02A
:103700008D919C911197A815B905B1F56C0142E016
:10371000C40ED11CCA14DB0478F14C018A189B0832
:10372000640142E0C40ED11C1296BC90129713960D
:10373000AC91B5E0CB16D10440F0B282A383918264
:103740008082D9016D937C9309C00E5F1F4F800F5B
:10375000911FF90191838083EB2DFA2FE114F1047D
:1037600031F0D7011396FC93EE93129741C0F0937A
:103770009F03E0939E033CC06816790608F43C0161
:103780007D0112960D90BC91A02DB7CF80919C0326
:1037900090919D0388169906E1F466167706C8F4A1
:1037A0008091080190910901009741F48DB79EB76F
:1037B00040910C0150910D01841B950BE817F907FE
:1037C000C8F4F0939D03E0939C03F9017183608337
:1037D0000FC0CB010E941A1A7C01009759F0A80172
:1037E000BE010E94061CCE010E94B21AC70104C08D
:1037F000CE0102C080E090E0CDB7DEB7EEE00C94E1
:10380000A71981E090E0F8940C94481CFB01DC01BE
:1038100002C001900D9241505040D8F70895FB012D
:10382000DC018D91019080190110D9F3990B089555
:10383000FB01DC0101900D920020E1F70895FB01EE
:10384000DC014150504048F001900D920020C9F732
:1038500001C01D9241505040E0F70895FB01519185
:103860005523A9F0BF01DC014D9145174111E1F746
:1038700059F4CD010190002049F04D9140154111BE
:10388000C9F3FB014111EFCF81E090E0019708956A
:04389000F894FFCFDA
:1038940029012901010102000000A00380000000A9
:1038A4000000BD012A0154010A0285016301770168
:1038B40000000000C3029602F3026A028E027A023A
:1038C4006B0248454C500047455400534554000D85
:0238D4000A00E8
:00000001FF
