:100000000C9480000C94AE050C9487050C94A80009
:100010000C94A8000C94A8000C94A8000C94A800C0
:100020000C94A8000C94A8000C94A8000C94A800B0
:100030000C94A8000C94A8000C94A8000C94A800A0
:100040000C943D050C94A8000C94AD030C9487030C
:100050000C94A8000C94A8000C94A8000C94A80080
:100060000C94D5050C94A800B60CBA0CBE0CC20CAE
:10007000C60CCA0CCE0CD20CD60CDA0C9307970720
:100080009F07A307A707AB07AF07B307B707BB07D0
:10009000D407D707DA07DD07E007E307E607E90734
:1000A000EC07EF0700000000240027002A000102EF
:1000B00004081020408001020408102001020408F6
:1000C00010200404040404040404020202020202D4
:1000D00003030303030300000000250028002B0096
:1000E0000000000023002600290000000008000294
:1000F000010000030407000000000000000093134B
:1001000011241FBECFEFD8E0DEBFCDBF11E0A0E0CD
:10011000B1E0ECE6F8E202C005900D92AC32B10716
:10012000D9F723E0ACE2B1E001C01D92A730B207DD
:10013000E1F710E0C0E8D0E004C02197FE010E9482
:100140002914CF37D107C9F70E94290B0C94341416
:100150000C940000CF92DF92EF92FF920F931F93C7
:10016000CF93DF936C017A018B01C0E0D0E0CE1514
:10017000DF0589F0D8016D918D01D601ED91FC91DB
:100180000190F081E02DC6010995892B11F47E01C3
:1001900002C02196ECCFC701DF91CF911F910F9143
:1001A000FF90EF90DF90CF900895FC01538D448D28
:1001B000252F30E0842F90E0821B930B541710F012
:1001C000CF96089501970895FC01918D828D98171F
:1001D00061F0828DDF01A80FB11D5D968C91928D2B
:1001E0009F5F9F73928F90E008958FEF9FEF089528
:1001F000FC01918D828D981731F0828DE80FF11DF1
:10020000858D90E008958FEF9FEF0895FC01918D0B
:10021000228D892F90E0805C9F4F821B91098F7304
:10022000992708958FE492E00E94060121E0892B2E
:1002300009F420E0822F0895FC01848DDF01A80FCE
:10024000B11DA35ABF4F2C91848D90E001968F73FE
:100250009927848FA689B7892C93A089B1898C911D
:1002600080648C93938D848D981306C00288F389E3
:10027000E02D80818F7D80830895EF92FF920F9310
:100280001F93CF93DF93EC0181E0888F9B8D8C8D42
:10029000981305C0E889F989808185FD24C0F62E70
:1002A0000B8D10E00F5F1F4F0F731127E02E8C8D09
:1002B000E8120CC00FB607FCFACFE889F9898081F3
:1002C00085FFF5CFCE010E941C01F1CF8B8DFE0181
:1002D000E80FF11DE35AFF4FF0820B8FEA89FB898B
:1002E0008081806207C0EE89FF896083E889F9898F
:1002F00080818064808381E090E0DF91CF911F91C5
:100300000F91FF90EF900895CF93DF93EC01888DCC
:100310008823C9F0EA89FB89808185FD05C0A88909
:10032000B9898C9186FD0FC00FB607FCF5CF80818F
:1003300085FFF2CFA889B9898C9185FFEDCFCE01D9
:100340000E941C01E7CFDF91CF91089580E090E0FB
:10035000892B29F00E94120181110C94000008954C
:10036000833081F028F4813099F08230A1F0089533
:100370008730A9F08830B9F08430D1F480918000C2
:100380008F7D03C0809180008F77809380000895D7
:1003900084B58F7702C084B58F7D84BD0895809128
:1003A000B0008F7703C08091B0008F7D8093B00044
:1003B00008953FB7F8948091E5019091E601A091EE
:1003C000E701B091E80126B5A89B05C02F3F19F0C1
:1003D0000196A11DB11D3FBFBA2FA92F982F8827C5
:1003E000820F911DA11DB11DBC01CD0142E0660F20
:1003F000771F881F991F4A95D1F70895089585EDB5
:100400008093BC008091BC0084FDFCCF1092EE0272
:1004100008954091BB01262F30E0240F311D213279
:100420003105DCF42091EE022430C9F4FC0180E0B7
:1004300090E0861758F43091BB012191DC01A7565A
:10044000BE4FA30FB11D2C930196F3CF8091BB013A
:10045000680F6093BB0180E0089581E0089582E019
:1004600008950895E091F2028091F102E81730F4C6
:10047000F0E0E751FE4F808190E008958FEF9FEF0D
:1004800008959091F2028091F102981750F4E92FAB
:10049000F0E0E751FE4F208130E09F5F9093F20241
:1004A00002C02FEF3FEFC90108958091F10290E063
:1004B0002091F202821B91090895CF92DF92EF9270
:1004C000FF920F931F93CF93DF937C01262F972FDB
:1004D0008A0180912D02882391F0C62FD72F6E01BB
:1004E000C40ED51ECC15DD0571F06991D701ED91D3
:1004F000FC910190F081E02DC7010995F3CF642FA5
:10050000822F0E940902C801DF91CF911F910F91A4
:10051000FF90EF90DF90CF900895CF93DF931F92DD
:10052000CDB7DEB7698320912D022223D1F020912F
:10053000EF02203240F021E030E0FC0133832283DF
:1005400080E090E015C08091F002E82FF0E0E25DDD
:10055000FD4F998190838F5F8093F0028093EF022B
:1005600005C061E0CE0101960E94090281E090E0A1
:100570000F90DF91CF910895089580E090E0089565
:100580000E942F14DF92EF92FF920F931F93CF934D
:10059000DF93C0916C01D0E010916D0100916E016C
:1005A000F0906F01E0907001D09071010E94C0093D
:1005B0008091010391E090932D0280934E0210925E
:1005C000F0021092EF0282E090E00E94B3088D2DBD
:1005D0008C3308F08BE36AE00E941D14692F20E140
:1005E000829F600D112483EF92E00E948D028E2D78
:1005F0008C3308F08BE36AE00E941D14692F30E110
:10060000839F600D112483EF92E00E948D028F2D55
:10061000883108F087E16AE00E941D14692F20E10B
:10062000829F600D112483EF92E00E948D020E9450
:10063000B8080E94C8090E94C009CC5DD7403C2F71
:100640003C7FF32EC31BD1098091010391E090936D
:100650002D0280934E021092F0021092EF0285E07C
:1006600090E00E94B308002329F0802F003218F098
:100670008FE101C081E06AE00E941D14292F30E162
:10068000839F200D1124CE0136E0880F991F3A95E3
:10069000E1F7622F682B83EF92E00E948D02112315
:1006A00029F0812F1D3018F08CE001C081E06AE054
:1006B0000E941D14692F20E1829F600D112483EF99
:1006C00092E00E948D020E94B8088091010391E09F
:1006D00090932D0280934E021092F0021092EF023E
:1006E00080E190E00E94B3086F2D83EF92E00E94BA
:1006F0008D02CE010E94B3080E94B808DF91CF910D
:100700001F910F91FF90EF90DF900C94C8091F92FA
:100710000F920FB60F9211242F933F934F935F9335
:100720006F937F938F939F93AF93BF93EF93FF93B9
:100730008FE492E00E941C01FF91EF91BF91AF9175
:100740009F918F917F916F915F914F913F912F91E9
:100750000F900FBE0F901F9018951F920F920FB61B
:100760000F9211242F938F939F93EF93FF93E09118
:100770005F02F09160028081E0916502F091660273
:1007800082FD12C09081809168028F5F8F732091EB
:100790006902821751F0E0916802F0E0E15BFD4FE1
:1007A000958F8093680201C08081FF91EF919F91A6
:1007B0008F912F910F900FBE0F901F901895CF9390
:1007C000DF93282F30E0F901E651FF4F8491F901C2
:1007D000E255FF4FD491F901EE53FF4FC491CC2362
:1007E00091F081110E94B001EC2FF0E0EE0FFF1F9D
:1007F000E052FF4FA591B491EC91ED2381E090E0A0
:1008000021F480E002C080E090E0DF91CF91089574
:100810001F93CF93DF93282F30E0F901E651FF4F6C
:100820008491F901E255FF4FD491F901EE53FF4F46
:10083000C491CC23C9F0162F81110E94B001EC2F76
:10084000F0E0EE0FFF1FEA52FF4FA591B4918FB772
:10085000F894111105C09C91ED2FE095E92302C099
:10086000EC91ED2BEC938FBFDF91CF911F91089509
:10087000CF93DF9390E0FC01E255FF4F2491FC0100
:10088000EE53FF4F8491882361F190E0880F991F08
:10089000FC01EC55FF4FC591D491FC01EA52FF4F8A
:1008A000A591B491611109C09FB7F89488812095F2
:1008B00082238883EC912E230BC0623061F49FB7B2
:1008C000F8943881822F809583238883EC912E2B96
:1008D0002C939FBF06C08FB7F894E8812E2B2883F6
:1008E0008FBFDF91CF9108958F929F92AF92BF9269
:1008F000CF92DF92EF92FF926B017C010E94D901AF
:100900004B015C01C114D104E104F104F1F00E9437
:10091000D901DC01CB0188199909AA09BB09883ED4
:100920009340A105B10570F321E0C21AD108E10896
:10093000F10888EE880E83E0981EA11CB11CC1143A
:10094000D104E104F10419F7DDCFFF90EF90DF90BF
:10095000CF90BF90AF909F908F9008952FB7F8944D
:100960006091E1017091E2018091E3019091E401D5
:100970002FBF0895CF92DF92EF92FF920F931F93B4
:10098000CF9380912C010E94DF03C82F0E94AE04F8
:100990000091950110919601209197013091980155
:1009A0006B017C01C01AD10AE20AF30A97018601A1
:1009B0000B3F11052105310510F010929401609351
:1009C000950170939601809397019093980190916F
:1009D00094019F5F909394019A3050F4923068F4A0
:1009E000913009F040C010929301109292013DC0E5
:1009F0009A30B1F09B3001F136C0809192018C0F9A
:100A0000809392012091930130E035952795C11193
:100A100002C080E001C080E8282B2093930125C00C
:100A20009091920191709C1719F0909392011DC0C2
:100A30008DEF8093920119C0809192018D3F98F4BF
:100A4000809141018F5F803108F080E090914201F8
:100A5000891749F0E82FF0E090919301EF5CFE4F89
:100A600090838093410110929401CF911F910F9137
:100A7000FF90EF90DF90CF9008951F920F920FB6E6
:100A80000F9211242F933F938F939F93AF93BF9314
:100A90008091E1019091E201A091E301B091E40124
:100AA0003091E00123E0230F2D3720F40196A11DA2
:100AB000B11D05C026E8230F0296A11DB11D20938C
:100AC000E0018093E1019093E201A093E301B093F0
:100AD000E4018091E5019091E601A091E701B091D8
:100AE000E8010196A11DB11D8093E5019093E601F7
:100AF000A093E701B093E801BF91AF919F918F91CF
:100B00003F912F910F900FBE0F901F9018951F923D
:100B10000F920FB60F9211242F933F934F935F9331
:100B20006F937F938F939F93AF93BF93EF93FF93B5
:100B3000E0910201F09103010995FF91EF91BF91BE
:100B4000AF919F918F917F916F915F914F913F9165
:100B50002F910F900FBE0F901F9018951F920F921C
:100B60000FB60F9211242F933F934F935F936F9380
:100B70007F938F939F93AF93BF93EF93FF93E091F6
:100B80000001F09101010995FF91EF91BF91AF91A3
:100B90009F918F917F916F915F914F913F912F9195
:100BA0000F900FBE0F901F9018951F920F920FB6C7
:100BB0000F9211242F933F934F935F936F937F93E3
:100BC0008F939F93AF93BF93EF93FF938091B9005F
:100BD000887F803609F49CC068F5883209F45BC0D0
:100BE00090F4803109F454C038F4882309F4F6C035
:100BF000883009F44DC0F6C0883109F44CC0803209
:100C000009F45DC0EFC0803409F468C048F4803353
:100C100009F455C0883309F0E5C080932C02D8C090
:100C2000803509F44FC0883509F45DC0883409F077
:100C3000D9C0D6C0883909F4C7C0A8F4883709F4E8
:100C400067C038F4883609F463C0803709F460C09F
:100C5000C9C0883809F4B8C0803909F45FC0803849
:100C600009F0C0C05BC0803B09F486C038F4803A0C
:100C700009F466C0883A09F47FC0B4C0803C09F426
:100C8000A7C0883C09F4A4C0883B09F48AC0AAC064
:100C90008091090210C090912B0280912A0298172E
:100CA00070F5E0912B0281E08E0F80932B02F0E033
:100CB000E65FFD4F80818093BB0085EC86C080930A
:100CC0002C028EC0E0912B0281E08E0F80932B02CC
:100CD0008091BB00F0E0E65FFD4F808390912B0296
:100CE00080912A026EC0E0912B0281E08E0F8093EA
:100CF0002B028091BB00F0E0E65FFD4F8083809186
:100D0000ED0281116DC081E08093EC0284EA61C044
:100D100083E08093EE021092DF01CFCF8091DF015C
:100D2000803208F051C0E091DF0181E08E0F8093A6
:100D3000DF018091BB00F0E0E154FE4F8083BDCF26
:100D400085EC8093BC001092EE028091DF0180322E
:100D500030F4E091DF01F0E0E154FE4F1082609149
:100D6000DF0170E0E091BD01F091BE018FEB91E0F9
:100D700009951092DF0136C084E08093EE02109254
:100D8000BC011092BB01E091B901F091BA01099543
:100D90008091BB01811105C081E08093BB0110925D
:100DA0009901E091BC0181E08E0F8093BC01F0E0DD
:100DB000E756FE4F80818093BB009091BC018091EB
:100DC000BB01981708F479CF85E88093BC000AC06E
:100DD00085EC8093BC001092EE0204C010922C02AD
:100DE0000E94FF01FF91EF91BF91AF919F918F9171
:100DF0007F916F915F914F913F912F910F900FBE17
:100E00000F901F9018959091420180914101981781
:100E100049F08091420190914101891B87FF03C0F5
:100E2000805F089580E008950F931F93CF93DF9321
:100E30001F92CDB7DEB78C01611102C064E101C021
:100E40006AE0C80169830E9407146981681741F04C
:100E5000C8010F90DF91CF911F910F910C940F1447
:100E60000F90DF91CF911F910F910895FF920F93F3
:100E70001F93CF93DF931F92CDB7DEB78C01F62E71
:100E80000E9407148A3011F0843129F461E08A301D
:100E900091F060E010C0F11002C064E101C06AE0AE
:100EA000C80169830E9407146981681719F0C80195
:100EB0000E940F146F2D862F0F90DF91CF911F91FD
:100EC0000F91FF9008950F931F93CF93182FC62F64
:100ED0009091FF02809100039CBD8DBD60E087E092
:100EE0000E9408041EBD00000DB407FEFDCF0EB524
:100EF000CEBD00000DB407FEFDCFCEB561E087E0AA
:100F00000E940804002309F486C010EC100F10346E
:100F1000F0F5412F50E04A30510588F5FA01E25CC6
:100F2000FF4F0C94291460916C0180E003C0609124
:100F3000300181E0CF911F910F910C940F086091C7
:100F40006D0182E0F7CF60912F0183E0F3CF6091D4
:100F50006E0184E0EFCF60912E0185E0EBCF6091D0
:100F60002D0186E0E7CF60916F0187E0E3CF6091CC
:100F7000700188E0DFCF6091710189E0DBCF812FC4
:100F800090E040960E940714682F812FD3CF07FF6F
:100F900042C00058802F90E08A30910568F5FC012E
:100FA000E85BFF4F0C942914C0936C0120C0C093E0
:100FB000300131C0C0936D011AC0C0932F012BC006
:100FC000C0936E0114C0C0932E0125C0C0932D01A3
:100FD00022C0C0936F010BC0C093700108C06C2F7A
:100FE00070E06053784F7093720160937101CF91FC
:100FF0001F910F910C94C20210E0005F1F4FC801B7
:101000000E940714C81739F06C2FC801CF911F91A7
:101010000F910C940F14CF911F910F910895805C44
:101020000C946307CF92DF92EF92FF92CF93DF93FE
:10103000D0E0C0E0C12CD12C7601C39420E030E098
:1010400060E0ED2FE20FE932F0F4F0E0ED5BFE4FEF
:101050008081882361F0D701C601022E04C0880F69
:10106000991FAA1FBB1F0A94D2F7682B0CC0D70187
:10107000C601022E04C0880F991FAA1FBB1F0A9425
:10108000D2F7809568232F5F3F4F28303105C9F68E
:10109000CF5F8C2F0E946307D85FC63079F6DF914F
:1010A000CF91FF90EF90DF90CF90089560E08AE0BD
:1010B0000E940804E3E4F1E0119281E0EC36F807C5
:1010C000D9F70E9412086AE070E080E090E00E9488
:1010D000740461E08AE00C940804CF93C82F61E0A7
:1010E0000E94380460E08C2FCF910C940804CF92BA
:1010F000DF92EF92FF92CF93DF93EC010E94AE0458
:101100006B017C010E94AE04AB01BC014C195D096E
:101110006E097F09483E53406105710548F480918E
:1011200002030E94DF038C179D0761F781E001C075
:1011300080E0DF91CF91FF90EF90DF90CF90089506
:10114000CF93DF9380E090E00E94770880910403C2
:101150000E94DF03EC0181E090E00E947708CE015D
:10116000DF91CF910895682F83EF92E00C948D0268
:101170002091EF0290914E02213208F04AC08091F6
:10118000EE028111FCCF32E03093EE0231E0309379
:10119000ED023FEF30932C0210922B0220932A0293
:1011A000AEE2B2E04AE052E0FA013E2F341B3217C1
:1011B00018F43D913193F9CF109209022091090260
:1011C000990F922B909309029091EC02913061F467
:1011D0001092EC02909109029093BB009091BC0098
:1011E00093FDF8CF95EC01C095EE9093BC009091E3
:1011F000EE029230E1F390912C029F3F79F08091C2
:101200002C02803241F080912C02803331F084E056
:1012100005C081E003C082E001C083E01092F002CB
:101220001092EF0210922D020895CF93C62F909145
:10123000010321E020932D0290934E021092F002C0
:101240001092EF02682F83EF92E00E948D026C2FC4
:1012500083EF92E00E948D02CF910C94B808909198
:10126000010321E020932D0290934E021092F00290
:101270001092EF02682F83EF92E00E948D020E948D
:10128000B808809101039091EE029111FCCF91E09A
:101290009093EE029093ED022FEF20932C02109288
:1012A0002B0210922A029093090290910902880F52
:1012B000892B809309028091EC02813061F41092B5
:1012C000EC02809109028093BB008091BC0083FDF9
:1012D000F8CF85EC01C085EE8093BC008091EE02D2
:1012E0008130E1F380912B02811103C080912B02A8
:1012F00001C081E0AAE0B2E029EE31E0F9019E2FC1
:10130000921B981718F49D919193F9CF1092F202C5
:101310008093F10283EF92E00E9441020895FF92D0
:101320000F931F93CF93DF9385E00E942F09082F1F
:1013300010E086E0159507958A95E1F781E10E9416
:101340002F09F82E80E10E942F09C82FF01659F0BE
:101350000F1528F4CC5F6C2F80E10E941509602FD7
:1013600081E10E9415092C2F30E0C9018452984F69
:10137000800F911FDF91CF911F910F91FF900895E2
:1013800080E00E942F09682F606880E00C941509A6
:1013900080E00E942F09682F6F7780E00C94150978
:1013A000CF93C82F60E00E94380461E08C2FCF916A
:1013B0000C9408042091040330910503019721F453
:1013C000C9010E94D00903C0C9010E946D0881E0D3
:1013D00090E00E94770880E090E00C947708CF922C
:1013E000DF92EF92FF920F931F93CF9380910203AE
:1013F000909103030E94D00980910403909105030A
:101400000E94D00983EC90E00197F1F780E090E032
:101410000E9477088FE090E00197F1F781E090E07B
:101420000E94770800E010E0C0E0C12CD12C7601CA
:10143000C3940E94A008892B61F0D701C601002E39
:1014400004C0880F991FAA1FBB1F0A94D2F7C82B8C
:101450000CC0D701C601002E04C0880F991FAA1F17
:10146000BB1F0A94D2F78095C8230F5F1F4F083027
:101470001105F9F60E94A0080E94A00880910203BD
:10148000909103030E946D088C2FCF911F910F91B3
:10149000FF90EF90DF90CF900895BF92CF92DF92B0
:1014A000EF92FF920F931F93CF93DF93C82E8091FB
:1014B0000403909105030E94D0098091020390914A
:1014C00003030E94D009CBEAD4E0CE010197F1F7E3
:1014D00080910203909103030E946D082197F1F718
:1014E00080910403909105030E946D0883E290E0CF
:1014F0000197F1F780910203909103030E94D009B4
:1015000080E090E00E947708B82E882309F43FC05D
:10151000EE24E394F12CC0E0D0E00C2C000CDD08AC
:1015200086010C2E02C0159507950A94E2F701700A
:101530001127C8010E94DA09E026F1262196C83059
:10154000D10571F7C7010E94DA09809104039091D7
:1015500005030E94D00983EC90E00197F1F780E049
:1015600090E00E947708809102030E94DF03892B9C
:10157000D1F3809104030E94DF03892BA1F38091B2
:101580000203909103030E946D080E94EF098B2DC6
:10159000DF91CF911F910F91FF90EF90DF90CF904F
:1015A000BF900895CF93DF93EC0183EF90E00E940A
:1015B0004D0ACE01DF91CF910C944D0ACF938091CB
:1015C0000203909103030E94D0098091040390913B
:1015D00005030E94D0098FEF90E00E944D0AC82FAA
:1015E0008823A1F10E94EF090E94EF0988EC90E0A6
:1015F0000E94D20A84E690E00E94D20A80E590E040
:101600000E94D20A82EF90E00E944D0A0E94EF09E8
:1016100091E0833009F090E09093060388EE90E02B
:101620000E944D0A83E090E00E944D0A86EE90E011
:101630000E944D0A88E290E00E94D20A80EF90E07A
:101640000E944D0A8BE891E00197F1F78C2FCF9122
:101650000895789484B5826084BD84B5816084BD2A
:1016600085B5826085BD85B5816085BD80916E0040
:10167000816080936E001092810080918100826071
:1016800080938100809181008160809381008091AE
:1016900080008160809380008091B100846080939D
:1016A000B1008091B00081608093B00080917A0099
:1016B000846080937A0080917A00826080937A00BF
:1016C00080917A00816080937A0080917A008068AE
:1016D00080937A001092C100E0915F02F091600265
:1016E00082E08083E0915B02F0915C021082E091E5
:1016F0005D02F0915E0280E1808310926702E091CA
:101700006302F091640286E08083E0916102F091CF
:101710006202808180618083E0916102F0916202C7
:10172000808188608083E0916102F0916202808113
:1017300080688083E0916102F091620280818F7DF8
:1017400080831FB7F89480917301811127C0ECEC5E
:10175000F0E09491E8EBF0E08491E92FF0E0EE0FF7
:10176000FF1FEC55FF4FA591B491EC91E82321F4B4
:1017700061E08AE00E94080461E08AE00E94380487
:101780008CB580618CBD8CB580648CBD61E08DE0D2
:101790000E94380461E08BE00E943804809173015C
:1017A0008F5F809373011FBF61E087E00E94380460
:1017B00061E087E00E94080461E086E00E9438044E
:1017C00061E086E00E94080462E082E00E94380442
:1017D00062E084E00E94380462E083E00E94380402
:1017E00062E085E00E94380461E08AE00E943804EB
:1017F00061E08AE00E94080461E089E00E94380408
:1018000061E089E00E94080461E088E00E943804F9
:1018100061E088E00E94080462E08FE00E943804E2
:1018200061E08EE00E943804E3E4F1E0119201E00F
:10183000EC36F007D9F76091740180E090E00E94E7
:101840003607809374016091040181E090E00E946A
:101850003607809304016091740181E0682789E074
:101860000E9408040E94560884E080932C0162E0E4
:1018700082E00E94380462E084E00E943804109202
:101880004101109242018AEB94E090930101809310
:101890000001809169008C7F826080936900E89AE2
:1018A0000E94DE0A809388010E948F099093720142
:1018B0008093710186E00E942F09982F9695969546
:1018C00096959270292F220F220F920F8F70890FF9
:1018D0008093700185E00E942F09982F9695969528
:1018E00096959670292F220F220F920F8F70890FD5
:1018F00080936F0184E00E942F09982F969596950A
:1019000096959670292F220F220F920F8F70890FB4
:1019100080936E0183E00E942F09982F96959695EB
:1019200096959E70292F220F220F920F8F70980F7D
:1019300090936D0182E00E942F09982F96959695BD
:1019400096959E70292F220F220F920F8F70980F5D
:1019500090936C01C034E8F58C2F90E08A309105AB
:1019600068F5FC01EC5CFF4F0C94291460916C014C
:1019700080E02BC06091300181E027C060916D0153
:1019800082E023C060912F0183E01FC060916E014F
:1019900084E01BC060912E0185E017C060912D018D
:1019A00086E013C060916F0187E00FC06091700105
:1019B00088E00BC06091710189E007C08C2F90E036
:1019C00040960E940714682F8C2F0E940F08CF5F4B
:1019D000C1CF60E086E00E940804C1E00E94AE042E
:1019E0006B017C010E940307882309F446C50E940D
:1019F0000307811102C08FEF12C0E0914201809174
:101A00004101E817C1F3EF5FE03108F0E0E0E09357
:101A10004201F0E0EF5CFE4F8081882361F3082FE4
:101A200010E0C0939101C0928D01D0928E01E0929E
:101A30008F01F092900161E086E00E940804003E70
:101A4000110519F4C0937B0118C5013E110529F455
:101A5000C0937B01C0937A0110C5003F110539F492
:101A600080917901811103C0C093790106C58091ED
:101A70007B01811107C080917A01811103C080E050
:101A800090E002C080E091E0800F911F85349105C5
:101A900009F479C30CF022C18332910509F40BC318
:101AA0000CF091C08E30910509F4EFC30CF04BC0DF
:101AB0008730910509F463C41CF58430910509F45D
:101AC0002EC47CF48130910509F449C4039709F0D0
:101AD0007EC4809179018C278093550180936B019E
:101AE00076C48530910509F412C4069709F06FC4D5
:101AF000809179018C2780936A0180936B0167C480
:101B00008B30910509F41BC47CF48930910509F4EC
:101B10002EC40A9709F05BC4809179018C278093C9
:101B2000690180936B0153C48C30910509F4FFC3A4
:101B30000D9709F04CC4809179018C278093430163
:101B40008093580144C48A31910509F416C3D4F432
:101B50008431910509F40BC244F48131910509F4F3
:101B600019C2429709F4F2C132C48531910509F4D2
:101B7000E0C2469709F02BC4809179018C278093AD
:101B8000460125C48D31910509F4EBC26CF48B310B
:101B9000910509F4D4C24C9709F019C480917901D8
:101BA0008C278093440113C48132910509F47DC2CE
:101BB0000CF0DDC24E9709F00AC4809179018C27A0
:101BC00080934E0104C48333910509F48CC20CF058
:101BD00043C08B32910509F47AC2FCF48632910538
:101BE00009F4D7C26CF48432910509F46AC285976E
:101BF00009F0EDC3809179018C2780935E01E7C3E2
:101C00008932910509F44BC28A9709F0E0C38091AB
:101C100079018C2780936301DAC38E32910509F430
:101C2000BEC26CF48C32910509F48FC28D9709F015
:101C3000CEC3809179018C2780935D01C8C3813325
:101C4000910509F466C2C29709F0C1C38091790178
:101C50008C2780936A01BBC38C33910509F47BC246
:101C6000FCF48633910509F4A0C26CF48433910529
:101C700009F433C2C59709F0AAC3809179018C2772
:101C800080936801A4C38A33910509F43CC2CB97C1
:101C900009F09DC3809179018C278093610197C3DE
:101CA0008134910509F4B9C26CF48D33910509F4BE
:101CB00082C2CE9709F08BC3809179018C278093E3
:101CC000570185C3209179018334910509F411C22C
:101CD0000CF025C22C272093590179C38537910533
:101CE00009F48FC20CF095C08935910509F42EC115
:101CF0000CF048C08D34910509F415C2F4F48A340F
:101D0000910509F4A2C24CF48634910509F459C234
:101D10008934910509F489C25AC38B34910509F4B9
:101D2000ECC18C34910509F052C3809179018C2764
:101D300080935201809350014AC38435910509F480
:101D40007CC284F48E34910509F497C282359105E2
:101D500009F03DC3809179018C27809352018093D3
:101D6000480135C38535910509F47FC28835910551
:101D700009F02DC3809179018C27809352018093C3
:101D8000430125C38B36910509F427C21CF58D3517
:101D9000910509F462C284F48A35910509F479C188
:101DA0008B35910509F013C3809179018C278093BD
:101DB0005201809360010BC38636910509F45FC11F
:101DC0008936910509F003C3809179018C278093AE
:101DD0004601FDC28137910509F427C274F48C369F
:101DE000910509F408C28037910509F0F0C280918D
:101DF00079018C2780934701EAC2209179018337CA
:101E0000910509F4F0C10CF0F2C12C2720934E018A
:101E1000DEC2843111E0910709F4A9C00CF042C080
:101E20008C37910509F439C22CF58937910509F4ED
:101E30003CC284F48637910509F40EC188379105B8
:101E400009F0C5C2809179018C2780934501809368
:101E50005201BDC28A37910509F4B9C18B3791058A
:101E600009F0B5C2809179018C278093520180934B
:101E70006101ADC28338910509F469C24CF48D3714
:101E8000910509F4C4C18E37910509F480C29FC23F
:101E9000813131E0930709F492C08231914009F415
:101EA00089C295C2803751E0950709F4B4C00CF59A
:101EB000893611E0910709F422C254F48A3431E0E2
:101EC000930709F4C2C18A35914009F4E2C07FC288
:101ED0008B3651E0950709F4AFC08C36914009F07C
:101EE00076C2809179018C278093590180936B0190
:101EF0006EC2843711E0910709F4A6C08CF48137D3
:101F000031E0930709F470C08237914009F05FC255
:101F1000809179018C27809343018093670157C298
:101F20008A3751E0950709F4D9C18D3701E0900750
:101F300009F4C3C18537914009F049C28091790104
:101F40008C278093430180935F0141C280910401FB
:101F5000811103C080E090E002C08FE090E0FC01BE
:101F6000ED5BFE4F209179012C27208330C28091B8
:101F70000401811103C02FE030E002C020E030E016
:101F8000809179018C27F901ED5BFE4F808380936E
:101F900078011DC2809179018C2780935201909124
:101FA0000401911103C020E030E002C026E030E0DF
:101FB000F901ED5BFE4F80838093770108C2809129
:101FC00079018C278093520190910401911103C0F3
:101FD00020E030E002C027E030E0F901ED5BFE4F89
:101FE000808380937701F3C19091040180917901FE
:101FF000992339F0982F9C279093480190936B0177
:1020000006C0982F9C279093520190935B018C27D8
:1020100080937601DCC190910401809179018C2735
:10202000992329F08093500180936B01D0C1809354
:10203000520180934401CBC1809179018C27809318
:10204000430180936601C3C1809179018C278093FD
:10205000430180935701BBC1209179012C27209324
:10206000430180910401811103C087E090E002C028
:1020700083E090E0FC01ED5BFE4F2083A8C18091DE
:1020800079018C27809343018093470180937501E8
:102090009EC1809179018C278093490198C18091DC
:1020A00079018C2780934A0192C1809179018C2714
:1020B00080935B018CC1809179018C2780935401BE
:1020C00086C1809179018C278093550180C18091D0
:1020D00079018C2780935C017AC1809179018C27EA
:1020E0008093640174C1809179018C278093690188
:1020F0006EC12C27209358016AC1809179018C27E9
:102100008093510164C1809179018C2780935A0199
:102110005EC1809179018C278093620158C12C2780
:102120002093500154C1809179018C2780934801FC
:102130004EC1809179018C278093450148C18091DF
:1021400079018C2780934C0142C1809179018C27C1
:10215000809365013CC1809179018C278093600157
:1021600036C1809179018C2780934D0130C18091D7
:1021700079018C27809353012AC1809179018C27A2
:1021800080934B0124C1809179018C278093470172
:102190001EC1809179018C278093560118C18091CE
:1021A00079018C278093660112C1809179018C2777
:1021B000809367010CC1809179018C2780935F0126
:1021C00006C1809179018C2780934F0100C18091D5
:1021D00079018C2780935601FAC0809179018C2770
:1021E00080935E01F4C02C2720936601F0C02C2759
:1021F00020936701ECC0809179018C2780935F0167
:10220000E6C0809179018C2780935701E0C08091CE
:1022100079018C2780934F01DAC0809179018C2756
:102220008093520180936201D2C0809179018C2702
:102230008093520180935A01CAC0809179018C2702
:102240008093520180936801C2C0809179018C27EC
:102250008093520180936301BAC0809179018C27E9
:102260008093520180935401B2C0809179018C27F0
:102270008093520180935101AAC0809179018C27EB
:102280008093520180936101A2C0809179018C27D3
:102290008093520180935F019AC0809179018C27CD
:1022A0008093520180936A0192C0809179018C27BA
:1022B00080935201809359018AC0909104018091CA
:1022C00079018C27992329F080935A0180936B011F
:1022D0007EC0809343018093560179C090910401A0
:1022E000809179018C27992329F080936201809352
:1022F0006B016DC08093430180935E0168C0809143
:1023000079018C278093510180936B0160C080918B
:1023100079018C278093440180936B0158C0809190
:1023200079018C2780935B0180936B0150C0809171
:1023300079018C278093540180936B0148C0809170
:1023400079018C2780935C0180936B0140C0809160
:1023500079018C278093640180936B0138C0809150
:1023600079018C278093580180936B0130C0809154
:1023700079018C278093610180936B0128C0809143
:1023800079018C2780934D018093520120C0809168
:1023900079018823E1F060917401162F1C271093B6
:1023A000740189E00E940804612F80E090E00E949F
:1023B00014070DC080917901882349F060910401D0
:1023C0006C276093040181E090E00E9414078091E3
:1023D0007801882381F080917701882361F08091D2
:1023E0007601882341F010927801109277011092C3
:1023F00076010E94560880917801882399F1809196
:102400007701882379F180917501882359F1109221
:1024100078011092770110927501E3E4F1E01192D6
:1024200021E0EC36F207D9F70E94120860E08AE05A
:102430000E940804C0934C010E94120864EF71E0EE
:1024400080E090E00E94740461E08AE00E94080449
:102450000E94120864EF71E080E090E00E94740432
:1024600010924C011092790180917A01882319F021
:1024700010927A0102C010927B010E941208809192
:102480008D0190918E01A0918F01B09190019701E3
:102490008601081B190B2A0B3B0B083C1105210573
:1024A000310530F060E086E00E940804109291014E
:1024B0008091890190918A01A0918B01B0918C014A
:1024C000A7019601281B390B4A0B5B0BDA01C901E6
:1024D000883E9340A105B10508F47AC00E948F0997
:1024E000909372018093710186E00E942F09982FCA
:1024F0009695969596959270292F220F220F920FFE
:102500008F70890F8093700185E00E942F09982FAA
:102510009695969596959670292F220F220F920FD9
:102520008F70890F80936F0184E00E942F09982F8C
:102530009695969596959670292F220F220F920FB9
:102540008F70890F80936E0183E00E942F09982F6E
:102550009695969596959E70292F220F220F920F91
:102560008F70890F80936D0182E00E942F09682F80
:102570006695669566956E70962F990F990F690FFF
:102580008F70680F60936C0180E40E946307609114
:102590006D0182E40E94630760916E0184E40E94F1
:1025A000630760916F0187E40E9463076091700187
:1025B00088E40E9463076091710189E40E946307C7
:1025C000C0928901D0928A01E0928B01F0928C0135
:1025D00080910501909106011816190654F5209175
:1025E0008801211126C0409184015091850160919C
:1025F00086017091870197018601041B150B260B3C
:10260000370BB901A801493E53406105710588F0B7
:10261000019790930601809305010E94DE0A809342
:102620008801C0928401D0928501E0928601F092E7
:10263000870180918801882309F472C0809180010C
:1026400090918101A0918201B0918301A70196012F
:10265000281B390B4A0B5B0B25363105410551050B
:1026600008F45EC08BEE90E00E944D0A0E94EF09D4
:10267000082F0E94EF09182F0E94EF09D82F809190
:102680000603882331F00E94EF09282F880F330BAF
:1026900002C020E030E040917F014C2740937F0151
:1026A00010937E01D0937D01502F5270802F847043
:1026B00000FF02C0206101C02F7E20937C01909119
:1026C0007C01552311F0906201C09F7D90937C01A5
:1026D00090917C01882311F0906401C09F7B9093BE
:1026E0007C0190917C01442311F0906801C09F7798
:1026F00090937C01612F8AE00E94630760917D01C5
:102700008BE00E94630760917C018CE00E9463076C
:10271000C0928001D0928101E0928201F092830107
:102720000E94A6015BC9CF93DF93EFE4F2E013822E
:10273000128288EE93E0A0E0B0E084839583A683C4
:10274000B7832BE031E03183208325EC30E03587FF
:10275000248724EC30E03787268720EC30E0318B6B
:10276000208B21EC30E0338B228B22EC30E0358B58
:10277000248B26EC30E0378B268B118E128E138E35
:10278000148EE3EFF2E01382128284839583A68392
:10279000B7838DE191E091838083E2E0F3E083E011
:1027A00090E09183808385E090E09383828314821C
:1027B000D0E5D09301031092F2021092F102109230
:1027C000F0021092EF021092EE02C1E0C093ED020F
:1027D0001092EC0261E082E10E94080461E083E172
:1027E0000E940804E9EBF0E080818E7F8083808185
:1027F0008D7F808388E48093B80085E48093BC005B
:10280000EFEFF2E0D083C183DF91CF910895F99982
:10281000FECF92BD81BDF89A992780B50895262FE5
:10282000F999FECF1FBA92BD81BD20BD0FB6F894B5
:10283000FA9AF99A0FBE01960895991B79E004C09F
:10284000991F961708F0961B881F7A95C9F78095EF
:102850000895EE0FFF1F0590F491E02D099481E09B
:0C28600090E0F8940C943414F894FFCF2E
:10286C00FE01FE01010200000000003D01AA00D59E
:10287C000084010601E400F800000000008D025DF8
:0C288C0002BD023102550241023202007E
:107800000C94343C0C94513C0C94513C0C94513CE1
:107810000C94513C0C94513C0C94513C0C94513CB4
:107820000C94513C0C94513C0C94513C0C94513CA4
:107830000C94513C0C94513C0C94513C0C94513C94
:107840000C94513C0C94513C0C94513C0C94513C84
:107850000C94513C0C94513C0C94513C0C94513C74
:107860000C94513C0C94513C11241FBECFEFD8E036
:10787000DEBFCDBF11E0A0E0B1E0ECE9FFE702C060
:1078800005900D92A230B107D9F712E0A2E0B1E065
:1078900001C01D92AD30B107E1F70E942D3D0C945F
:1078A000CC3F0C94003C982F959595959595959582
:1078B000905D8F708A307CF0282F295A8091C0000B
:1078C00085FFFCCF9093C6008091C00085FFFCCF60
:1078D0002093C6000895282F205DF0CF982F809127
:1078E000C00085FFFCCF9093C6000895EF92FF92F1
:1078F0000F931F93EE24FF2487018091C00087FD22
:1079000017C00894E11CF11C011D111D81E4E8164B
:1079100082E4F8068FE0080780E0180770F3E09132
:107920000401F091050109958091C00087FFE9CF1E
:107930008091C6001F910F91FF90EF9008950E94D3
:10794000763C982F8091C00085FFFCCF9093C600B5
:1079500091362CF490330CF09053892F089597555D
:10796000892F08951F930E949F3C182F0E949F3CCF
:107970001295107F810F1F9108951F93182F882350
:1079800021F00E94763C1150E1F71F9108951F935A
:10799000182F0E94763C803249F0809103018F5F5E
:1079A000809303018530C1F01F9108958091C0003C
:1079B00085FFFCCF84E18093C6008091C00085FFE5
:1079C000FCCF1093C6008091C00085FFFCCF80E102
:1079D0008093C6001F910895E0910401F091050184
:1079E00009951F9108950E94763C803241F0809164
:1079F00003018F5F80930301853081F008958091AA
:107A0000C00085FFFCCF84E18093C6008091C00058
:107A100085FFFCCF80E18093C6000895E0910401CA
:107A2000F09105010995089540E951E08823A1F0FE
:107A30002D9A28EE33E0FA013197F1F721503040CA
:107A4000D1F72D9828EE33E0FA013197F1F7215064
:107A50003040D1F7815061F708953F924F925F9285
:107A60006F927F928F929F92AF92BF92CF92DF924E
:107A7000EF92FF920F931F93CF93DF93000080E16B
:107A80008093C4001092C50088E18093C10086E015
:107A90008093C2005098589A259A81E00E94143D24
:107AA00024E1F22E9EE1E92E85E9D82E0FE0C02ECA
:107AB00010E1B12EAA24A394B1E49B2EA6E58A2E50
:107AC000F2E57F2EE0E26E2E79E4572E63E5462E36
:107AD00050E5352E0E94763C8033B1F18133B9F107
:107AE000803409F46FC0813409F476C0823409F41B
:107AF00085C0853409F488C0803531F1823521F1A3
:107B0000813511F1853509F485C0863509F48DC0BC
:107B1000843609F496C0843709F403C1853709F423
:107B200072C1863709F466C0809103018F5F80932C
:107B30000301853079F6E0910401F0910501099582
:107B40000E94763C803351F60E94F33CC3CF0E94E2
:107B5000763C803249F78091C00085FFFCCFF092DF
:107B6000C6008091C00085FFFCCF9092C600809136
:107B7000C00085FFFCCF8092C6008091C00085FFC9
:107B8000FCCF7092C6008091C00085FFFCCF609250
:107B9000C6008091C00085FFFCCF5092C600809146
:107BA000C00085FFFCCF4092C6008091C00085FFD9
:107BB000FCCF3092C6008091C00085FFFCCFB09210
:107BC000C60088CF0E94763C863808F4BDCF0E945C
:107BD000763C0E94F33C7ECF0E94763C803809F4CC
:107BE0009CC0813809F40BC1823809F43CC1883942
:107BF00009F48FC080E00E94C73C6CCF84E10E94F2
:107C0000BD3C0E94F33C66CF85E00E94BD3C0E94D3
:107C1000F33C60CF0E94763C809306010E94763C44
:107C2000809307010E94F33C55CF0E94763C80333D
:107C300009F41DC183E00E94BD3C80E00E94C73C66
:107C400049CF0E94763C809309020E94763C809343
:107C5000080280910C028E7F80930C020E94763C79
:107C6000853409F415C18091080290910902892B8D
:107C700089F000E010E00E94763CF801E85FFE4FDA
:107C800080830F5F1F4F80910802909109020817AF
:107C9000190788F30E94763C803209F045CF809125
:107CA0000C0280FF01C16091060170910701660F0F
:107CB000771F7093070160930601A0910802B091AD
:107CC00009021097C9F0E8E0F1E09B01AD014E0F09
:107CD0005F1FF999FECF32BD21BD819180BDFA9A17
:107CE000F99A2F5F3F4FE417F50799F76A0F7B1F4B
:107CF00070930701609306018091C00085FFFCCF5F
:107D0000F092C6008091C00085FFFCCFB092C60003
:107D1000E1CE83E00E94C73CDDCE82E00E94C73CFA
:107D2000D9CE0E94763C809309020E94763C8093D3
:107D300008028091060190910701880F991F909386
:107D40000701809306010E94763C853409F4A6C0A1
:107D500080910C028E7F80930C020E94763C8032D0
:107D600009F0B8CE8091C00085FFFCCFF092C6002C
:107D7000609108027091090261157105B9F140E046
:107D800050E080910C02A82FA170B82FB27011C0E2
:107D9000BB2309F45CC0E0910601F0910701319624
:107DA000F0930701E09306014F5F5F4F46175707B7
:107DB000E8F4AA2369F3F999FECF209106013091E6
:107DC000070132BD21BDF89A90B58091C00085FFB2
:107DD000FCCF9093C6002F5F3F4F30930701209355
:107DE00006014F5F5F4F4617570718F38091C00099
:107DF00085FDE5CE8091C00085FFF8CFE0CE81E023
:107E00000E94C73C67CE0E94763C803209F08CCE3F
:107E10008091C00085FFFCCFF092C6008091C00029
:107E200085FFFCCFE092C6008091C00085FFFCCFAB
:107E3000D092C6008091C00085FFFCCFC092C600E2
:107E40008091C00085FFFCCFB092C60043CEE09188
:107E50000601F091070194918091C00085FFFCCF4D
:107E60009093C6009CCF80E10E94C73C33CE0E9415
:107E7000763C0E94763C182F0E94763C112309F430
:107E800083C0113009F484C08FE00E94C73C22CE29
:107E900080910C02816080930C02E5CE80910C02EF
:107EA000816080930C0259CF809107018823880F4D
:107EB000880B8A2180930B02809106019091070123
:107EC000880F991F90930701809306018091080203
:107ED00080FF09C080910802909109020196909359
:107EE000090280930802F894F999FECF1127E091D6
:107EF0000601F0910701C8E0D1E08091080290915D
:107F00000902103091F40091570001700130D9F34B
:107F100003E000935700E89500915700017001308D
:107F2000D9F301E100935700E89509901990009169
:107F3000570001700130D9F301E000935700E89534
:107F40001395103498F011270091570001700130FB
:107F5000D9F305E000935700E895009157000170B0
:107F60000130D9F301E100935700E895329602976A
:107F700009F0C7CF103011F00296E5CF112480919F
:107F8000C00085FFB9CEBCCE8EE10E94C73CA2CD19
:0C7F900085E90E94C73C9ECDF894FFCF0D
:027F9C00800063
:040000030000780081
:00000001FF
