:100000000C9469000C9465030C943E030C949100CD
:100010000C9491000C9491000C9491000C9491001C
:100020000C9491000C9491000C9491000C9491000C
:100030000C9491000C9491000C9491000C949100FC
:100040000C94F4020C9491000C9491000C94910087
:100050000C9491000C9491000C9491000C949100DC
:100060000C948C030C949100DF04E204E504E80492
:10007000EB04EE04F10400000000240027002A0035
:10008000010204081020408001020408102001022F
:1000900004081020040404040404040402020202FC
:1000A00002020303030303030000000025002800ED
:1000B0002B0000000000230026002900000000089B
:1000C000000201000003040700000000000000001F
:1000D000361111241FBECFEFD8E0DEBFCDBF11E037
:1000E000A0E0B1E0E6E3F3E202C005900D92AA3190
:1000F000B107D9F722E0AAE1B1E001C01D92A8350D
:10010000B207E1F710E0C9E6D0E004C02197FE0194
:100110000E948E11C836D107C9F70E9458080C9466
:1001200099110C940000CF92DF92EF92FF920F93FF
:100130001F93CF93DF936C017A018B01C0E0D0E075
:10014000CE15DF0589F0D8016D918D01D601ED91B5
:10015000FC910190F081E02DC6010995892B11F4E5
:100160007E0102C02196ECCFC701DF91CF911F9194
:100170000F91FF90EF90DF90CF900895833081F042
:1001800028F4813099F08230A1F008958730A9F0E9
:100190008830B9F08430D1F4809180008F7D03C025
:1001A000809180008F7780938000089584B58F7749
:1001B00002C084B58F7D84BD08958091B0008F7793
:1001C00003C08091B0008F7D8093B00008950895A2
:1001D00085ED8093BC008091BC0084FDFCCF109223
:1001E0003F0208954091A901262F30E0240F311DD0
:1001F00021323105DCF420913F022430C9F4FC01A6
:1002000080E090E0861758F43091A9012191DC013B
:10021000A957BE4FA30FB11D2C930196F3CF809128
:10022000A901680F6093A90180E0089581E0089515
:1002300082E008950895E091430280914202E81718
:1002400030F4F0E0E952FE4F808190E008958FEFA6
:100250009FEF08959091430280914202981750F4C5
:10026000E92FF0E0E952FE4F208130E09F5F90934C
:10027000430202C02FEF3FEFC9010895809142026F
:1002800090E020914302821B91090895CF92DF9262
:10029000EF92FF920F931F93CF93DF937C01262F52
:1002A000972F8A0180911B02882391F0C62FD72FA8
:1002B0006E01C40ED51ECC15DD0571F06991D70114
:1002C000ED91FC910190F081E02DC7010995F3CFEC
:1002D000642F822F0E94F200C801DF91CF911F91FD
:1002E0000F91FF90EF90DF90CF900895CF93DF9321
:1002F0001F92CDB7DEB7698320911B022223D1F074
:1003000020914002203240F021E030E0FC013383B4
:10031000228380E090E015C080914102E82FF0E058
:10032000E45EFD4F998190838F5F809341028093BB
:10033000400205C061E0CE0101960E94F20081E01A
:1003400090E00F90DF91CF910895089580E090E0C4
:1003500008950E949411CF93DF93282F30E0F90184
:10036000E454FF4F8491F901E058FF4FD491F90113
:10037000EC56FF4FC491CC2391F081110E94BE0036
:10038000EC2FF0E0EE0FFF1FEE54FF4FA591B4915C
:10039000EC91ED2381E090E021F480E002C080E068
:1003A00090E0DF91CF9108951F93CF93DF93282F93
:1003B00030E0F901E454FF4F8491F901E058FF4F18
:1003C000D491F901EC56FF4FC491CC23C9F0162FFC
:1003D00081110E94BE00EC2FF0E0EE0FFF1FE855E8
:1003E000FF4FA591B4918FB7F894111105C09C915E
:1003F000ED2FE095E92302C0EC91ED2BEC938FBF3C
:10040000DF91CF911F910895CF93DF9390E0FC018E
:10041000E058FF4F2491FC01EC56FF4F8491882354
:1004200061F190E0880F991FFC01EA58FF4FC591D8
:10043000D491FC01E855FF4FA591B491611109C019
:100440009FB7F8948881209582238883EC912E238E
:100450000BC0623061F49FB7F8943881822F809589
:1004600083238883EC912E2B2C939FBF06C08FB7DC
:10047000F894E8812E2B28838FBFDF91CF910895C8
:100480003FB7F8948091D3019091D401A091D50108
:10049000B091D60126B5A89B05C02F3F19F0019653
:1004A000A11DB11D3FBFBA2FA92F982F8827820FFA
:1004B000911DA11DB11DBC01CD0142E0660F771F4A
:1004C000881F991F4A95D1F708952FB7F894609126
:1004D000CF017091D0018091D1019091D2012FBFB5
:1004E0000895CF92DF92EF92FF920F931F93CF93D5
:1004F00080911A010E94AB01C82F0E9465020091F1
:1005000083011091840120918501309186016B0156
:100510007C01C01AD10AE20AF30A970186010B3F57
:1005200011052105310510F01092820160938301BD
:10053000709384018093850190938601909182014C
:100540009F5F909382019A3050F4923068F491301A
:1005500009F040C010928101109280013DC09A3094
:10056000B1F09B3001F136C0809180018C0F8093F7
:1005700080012091810130E035952795C11102C09D
:1005800080E001C080E8282B2093810125C0909154
:10059000800191709C1719F0909380011DC08DEF20
:1005A0008093800119C0809180018D3F98F48091E3
:1005B0002B018F5F803108F080E090912C0189172A
:1005C00049F0E82FF0E090918101E55EFE4F9083C5
:1005D00080932B0110928201CF911F910F91FF9078
:1005E000EF90DF90CF9008951F920F920FB60F9269
:1005F00011242F933F938F939F93AF93BF93809139
:10060000CF019091D001A091D101B091D201309150
:10061000CE0123E0230F2D3720F40196A11DB11D3B
:1006200005C026E8230F0296A11DB11D2093CE011F
:100630008093CF019093D001A093D101B093D201C8
:100640008091D3019091D401A091D501B091D601B0
:100650000196A11DB11D8093D3019093D401A09365
:10066000D501B093D601BF91AF919F918F913F91EA
:100670002F910F900FBE0F901F9018951F920F9201
:100680000FB60F9211242F933F934F935F936F9365
:100690007F938F939F93AF93BF93EF93FF93E091DB
:1006A0000201F09103010995FF91EF91BF91AF9184
:1006B0009F918F917F916F915F914F913F912F917A
:1006C0000F900FBE0F901F9018951F920F920FB6AC
:1006D0000F9211242F933F934F935F936F937F93C8
:1006E0008F939F93AF93BF93EF93FF93E09100019C
:1006F000F09101010995FF91EF91BF91AF919F9109
:100700008F917F916F915F914F913F912F910F90BA
:100710000FBE0F901F9018951F920F920FB60F9259
:1007200011242F933F934F935F936F937F938F93F6
:100730009F93AF93BF93EF93FF938091B900887F0E
:10074000803609F49CC068F5883209F45BC090F4E7
:10075000803109F454C038F4882309F4F6C0883095
:1007600009F44DC0F6C0883109F44CC0803209F458
:100770005DC0EFC0803409F468C048F4803309F4E8
:1007800055C0883309F0E5C080931A02D8C080357F
:1007900009F44FC0883509F45DC0883409F0D9C028
:1007A000D6C0883909F4C7C0A8F4883709F467C0EF
:1007B00038F4883609F463C0803709F460C0C9C0D2
:1007C000883809F4B8C0803909F45FC0803809F06E
:1007D000C0C05BC0803B09F486C038F4803A09F49D
:1007E00066C0883A09F47FC0B4C0803C09F4A7C051
:1007F000883C09F4A4C0883B09F48AC0AAC080914F
:10080000F70110C09091190280911802981770F5A5
:10081000E091190281E08E0F80931902F0E0E85018
:10082000FE4F80818093BB0085EC86C080931A02C6
:100830008EC0E091190281E08E0F809319028091A1
:10084000BB00F0E0E850FE4F808390911902809148
:1008500018026EC0E091190281E08E0F8093190298
:100860008091BB00F0E0E850FE4F808380913E0213
:1008700081116DC081E080933D0284EA61C083E014
:1008800080933F021092CD01CFCF8091CD01803275
:1008900008F051C0E091CD0181E08E0F8093CD0131
:1008A0008091BB00F0E0E355FE4F8083BDCF85EC27
:1008B0008093BC0010923F028091CD01803230F4D1
:1008C000E091CD01F0E0E355FE4F10826091CD0143
:1008D00070E0E091AB01F091AC018DEA91E00995F7
:1008E0001092CD0136C084E080933F021092AA019D
:1008F0001092A901E091A701F091A80109958091BA
:10090000A901811105C081E08093A901109287019E
:10091000E091AA0181E08E0F8093AA01F0E0E957EF
:10092000FE4F80818093BB009091AA018091A90124
:10093000981708F479CF85E88093BC000AC085EC4D
:100940008093BC0010923F0204C010921A020E94D1
:10095000E800FF91EF91BF91AF919F918F917F91AF
:100960006F915F914F913F912F910F900FBE0F901C
:100970001F90189590912C0180912B01981749F0A8
:1009800080912C0190912B01891B87FF03C0805F10
:10099000089580E00895BF92CF92DF92EF92FF9288
:1009A0000F931F93CF93DF9390E0FC01B197E73053
:1009B000F10508F0DDC0EC5CFF4F0C948E116093E4
:1009C0007F01D6C060937E01D3C060937D01D0C00B
:1009D00060937C01CDC060937B01CAC060937A01B3
:1009E000C7C0C0907A0100917B0110917C01F0900A
:1009F0007D01E0907E01D0907F010E94EF06809102
:100A0000520291E090931B0280933C0210924102AB
:100A10001092400282E090E00E9413068D2D2BE39D
:100A20002D1508F48BE36AE00E948211692F30E1F2
:100A3000839F600D112484E492E00E9476018E2D44
:100A40009BE39E1508F48BE36AE00E948211692FF4
:100A500020E1829F600D112484E492E00E947601DF
:100A60008F2D37E13F1508F487E16AE00E9482117B
:100A7000692F20E1829F600D112484E492E00E949E
:100A800076010E9418060E94F7060E94EF06CC2D00
:100A9000D0E0CC5DD7403C2F3C7FB32EC31BD109A7
:100AA0008091520291E090931B0280933C0210923D
:100AB00041021092400285E090E00E94130611234B
:100AC00029F0812F103218F08FE101C081E06AE037
:100AD0000E948211292F30E1839F200D1124CE0125
:100AE00036E0880F991F3A95E1F7622F682B84E46E
:100AF00092E00E947601002329F0802F0D3018F03B
:100B00008CE001C081E06AE00E948211692F20E13F
:100B1000829F600D112484E492E00E9476010E947D
:100B200018068091520291E090931B0280933C0240
:100B3000109241021092400280E190E00E94130660
:100B40006B2D84E492E00E947601CE010E94130690
:100B50000E9418060E94F706D0923201E0923101FD
:100B6000F092300100932E0110932F01C0922D01BD
:100B7000DF91CF911F910F91FF90EF90DF90CF9079
:100B8000BF90089508958EBD00000DB407FEFDCFFF
:100B90008EB508958CBD9DBD0895CF93C82F61E09B
:100BA0000E94040260E08C2FCF910C94D401CF926C
:100BB000DF92EF92FF92CF93DF93EC010E946502E8
:100BC0006B017C010E946502AB01BC014C195D09FF
:100BD0006E097F09483E53406105710548F48091D4
:100BE00053020E94AB018C179D0761F781E001C0A1
:100BF00080E0DF91CF91FF90EF90DF90CF9008954C
:100C0000CF93DF9380E090E00E94D705809155025A
:100C10000E94AB01EC0181E090E00E94D705CE017B
:100C2000DF91CF910895682F84E492E00C947601CF
:100C30002091400290913C02213208F04AC08091FC
:100C40003F028111FCCF32E030933F0231E030931C
:100C50003E023FEF30931A021092190220931802BD
:100C6000ACE1B2E048EF51E0FA013E2F341B3217FD
:100C700018F43D913193F9CF1092F7012091F701CB
:100C8000990F922B9093F70190913D02913061F46E
:100C900010923D029091F7019093BB009091BC009F
:100CA00093FDF8CF95EC01C095EE9093BC00909128
:100CB0003F029230E1F390911A029F3F79F08091C8
:100CC0001A02803241F080911A02803331F084E0C0
:100CD00005C081E003C082E001C083E010924102C0
:100CE0001092400210921B020895CF93C62F90914C
:100CF000520221E020931B0290933C021092410289
:100D000010924002682F84E492E00E9476016C2FDA
:100D100084E492E00E947601CF910C9418069091A1
:100D2000520221E020931B0290933C021092410258
:100D300010924002682F84E492E00E9476010E94A3
:100D400018068091520290913F029111FCCF91E0E0
:100D500090933F0290933E022FEF20931A0210923D
:100D60001902109218029093F7019091F701880FE1
:100D7000892B8093F70180913D02813061F41092BC
:100D80003D028091F7018093BB008091BC0083FD00
:100D9000F8CF85EC01C085EE8093BC0080913F02C6
:100DA0008130E1F380911902811103C08091190211
:100DB00001C081E0A8EFB1E027ED31E0F9019E2FFD
:100DC000921B981718F49D919193F9CF10924302BA
:100DD0008093420284E492E00E942A01089580E018
:100DE0000E948F06682F606880E00C94750680E092
:100DF0000E948F06682F6F7780E00C947506CF9362
:100E0000C82F60E00E94040261E08C2FCF910C9407
:100E1000D4012091550230915602019721F4C90165
:100E20000E94FF0603C0C9010E94CD0581E090E049
:100E30000E94D70580E090E00C94D705CF92DF9216
:100E4000EF92FF920F931F93CF9380915302909153
:100E500054020E94FF0680915502909156020E9412
:100E6000FF0683EC90E00197F1F780E090E00E94AC
:100E7000D7058FE090E00197F1F781E090E00E94C4
:100E8000D70500E010E0C0E0C12CD12C7601C3945E
:100E90000E940006892B61F0D701C601002E04C014
:100EA000880F991FAA1FBB1F0A94D2F7C82B0CC02A
:100EB000D701C601002E04C0880F991FAA1FBB1FAF
:100EC0000A94D2F78095C8230F5F1F4F0830110591
:100ED000F9F60E9400060E9400068091530290914C
:100EE00054020E94CD058C2FCF911F910F91FF903E
:100EF000EF90DF90CF900895BF92CF92DF92EF9264
:100F0000FF920F931F93CF93DF93C82E80915502CA
:100F1000909156020E94FF068091530290915402D4
:100F20000E94FF06CBEAD4E0CE010197F1F7809151
:100F30005302909154020E94CD052197F1F78091C0
:100F40005502909156020E94CD0583E290E00197F0
:100F5000F1F780915302909154020E94FF0680E0C5
:100F600090E00E94D705B82E882309F43FC0EE24F4
:100F7000E394F12CC0E0D0E00C2C000CDD088601DD
:100F80000C2E02C0159507950A94E2F701701127FF
:100F9000C8010E940907E026F1262196C830D10534
:100FA00071F7C7010E94090780915502909156027E
:100FB0000E94FF0683EC90E00197F1F780E090E05B
:100FC0000E94D705809153020E94AB01892BD1F377
:100FD000809155020E94AB01892BA1F380915302AD
:100FE000909154020E94CD050E941E078B2DDF9127
:100FF000CF911F910F91FF90EF90DF90CF90BF9016
:101000000895CF93DF93EC0183EF90E00E947C077B
:10101000CE01DF91CF910C947C07CF938091530246
:10102000909154020E94FF068091550290915602C1
:101030000E94FF068FEF90E00E947C07C82F882354
:10104000A1F10E941E070E941E0788EC90E00E94FA
:10105000010884E690E00E94010880E590E00E948B
:10106000010882EF90E00E947C070E941E0791E039
:10107000833009F090E09093570288EE90E00E9450
:101080007C0783E090E00E947C0786EE90E00E945F
:101090007C0788E290E00E94010880EF90E00E94C7
:1010A0007C078BE891E00197F1F78C2FCF910895A1
:1010B000CF93DF9300D000D0CDB7DEB7789484B55E
:1010C000826084BD84B5816084BD85B5826085BD44
:1010D00085B5816085BD80916E00816080936E00D2
:1010E00010928100809181008260809381008091C4
:1010F0008100816080938100809180008160809375
:1011000080008091B10084608093B1008091B00034
:1011100081608093B00080917A00846080937A002F
:1011200080917A00826080937A0080917A00816059
:1011300080937A0080917A00806880937A00109280
:10114000C1001FB7F89480913301811127C0EEE9E7
:10115000F0E08491EAE8F0E09491E82FF0E0EE0FFF
:10116000FF1FEA58FF4FA591B491EC91E92321F4B8
:1011700061E08AE00E94D40161E08AE00E940402FA
:101180008CB580618CBD8CB580648CBD61E08DE0D8
:101190000E94040261E08BE00E940402809133010E
:1011A0008F5F809333011FBF61E087E00E940402DC
:1011B00061E087E00E94D40161E086E00E940402C1
:1011C00061E086E00E94D40162E082E00E940402B5
:1011D00062E084E00E94040262E083E00E94040274
:1011E00062E085E00E94040261E08AE00E9404025D
:1011F00061E08AE00E94D40161E089E00E9404027B
:1012000061E089E00E94D40161E088E00E9404026C
:1012100061E088E00E94D40162E08FE00E94040255
:1012200061E08EE00E940402EBE3F1E0119221E024
:10123000E436F207D9F760E08AE00E94D4010E9408
:1012400040022B013C0124E6C22ED12CE12CF12CD2
:101250000E944002DC01CB0184199509A609B70957
:10126000883E9340A105B10558F031E0C31AD1087A
:10127000E108F10848EE440E43E0541E611C711C65
:10128000C114D104E104F10419F761E08AE00E947D
:10129000D40184E080931A0162E082E00E9404029B
:1012A00062E084E00E94040210922B0110922C0153
:1012B00081E792E0909301018093000180916900A1
:1012C0008C7F826080936900E89A0E940D08809369
:1012D000700160E086E00E94D401412C512C320163
:1012E00043949924939400E010E00E9465026B01FE
:1012F0007C010E94BA04882371F10E94BA04811112
:1013000002C08FEF12C0E0912C0180912B01E817F1
:10131000C1F3EF5FE03108F0E0E0E0932C01F0E092
:10132000E55EFE4F8081882361F3A82EB12C909258
:101330007901C0927501D0927601E0927701F09226
:10134000780161E086E00E94D40180EEA816B10425
:1013500029F490923A01B12C812C02C591EEA91684
:10136000B10429F490923A0190923901F4CFA0EFA0
:10137000AA16B10439F480913801811103C090920A
:101380003801E9CF80913A01811107C0809139017C
:10139000811103C080E090E002C080E091E08A0DFE
:1013A0009B1D8534910509F477C30CF022C183326B
:1013B000910509F409C30CF091C08E30910509F430
:1013C000EDC30CF04BC08730910509F461C41CF5E6
:1013D0008430910509F42CC47CF48130910509F422
:1013E00047C4039709F073C480913801892580931D
:1013F0004D01809363016BC48530910509F410C4DD
:10140000069709F064C480913801892580936201B0
:10141000809363015CC48B30910509F419C47CF49A
:101420008930910509F42CC40A9709F050C48091C1
:1014300038018925809361018093630148C48C3011
:10144000910509F4FDC30D9709F041C4809138015D
:10145000892580933B018093500139C48A319105DD
:1014600009F414C3D4F48431910509F40BC244F493
:101470008131910509F419C2429709F4F2C127C4D8
:101480008531910509F4DEC2469709F020C48091A8
:101490003801892580933E011AC48D31910509F4E4
:1014A000E9C26CF48B31910509F4D2C24C9709F072
:1014B0000EC480913801892580933C0108C4813293
:1014C000910509F47BC20CF0DBC24E9709F0FFC313
:1014D00080913801892580934601F9C383339105B2
:1014E00009F48AC20CF043C08B32910509F478C22A
:1014F000FCF48632910509F4D5C26CF4843291056E
:1015000009F468C2859709F0E2C380913801892502
:1015100080935601DCC38932910509F449C28A9748
:1015200009F0D5C380913801892580935B01CFC331
:101530008E32910509F4BCC26CF48C32910509F429
:101540008DC28D9709F0C3C380913801892580939E
:101550005501BDC38133910509F464C2C29709F0F6
:10156000B6C380913801892580936201B0C38C3362
:10157000910509F479C2FCF48633910509F49EC201
:101580006CF48433910509F431C2C59709F09FC307
:101590008091380189258093600199C38A33910530
:1015A00009F43AC2CB9709F092C38091380189259A
:1015B000809359018CC38134910509F4B7C26CF44E
:1015C0008D33910509F480C2CE9709F080C38091D4
:1015D0003801892580934F017AC3209138018334E3
:1015E000910509F40FC20CF023C229252093510163
:1015F0006EC38537910509F48DC20CF095C089350D
:10160000910509F42EC10CF048C08D34910509F400
:1016100013C2F4F48A34910509F4A0C24CF4863460
:10162000910509F457C28934910509F487C24FC363
:101630008B34910509F4EAC18C34910509F047C354
:1016400080913801892580934A01809348013FC3E6
:101650008435910509F47AC284F48E34910509F435
:1016600095C28235910509F032C3809138018925F0
:1016700080934A01809340012AC38535910509F47E
:101680007DC28835910509F022C3809138018925F2
:1016900080934A0180933B011AC38B36910509F46C
:1016A00025C21CF58D35910509F460C284F48A3594
:1016B000910509F477C18B35910509F008C3809134
:1016C0003801892580934A018093580100C38636EA
:1016D000910509F45FC18936910509F0F8C280913E
:1016E0003801892580933E01F2C28137910509F4C2
:1016F00025C274F48C36910509F406C28037910531
:1017000009F0E5C280913801892580933F01DFC24D
:10171000209138018337910509F4EEC10CF0F0C136
:10172000292520934601D3C28431B1E09B0709F4F7
:10173000A9C00CF042C08C37910509F437C22CF5D2
:101740008937910509F43AC284F48637910509F482
:101750000EC18837910509F0BAC2809138018925F8
:1017600080933D0180934A01B2C28A37910509F402
:10177000B7C18B37910509F0AAC28091380189253C
:1017800080934A0180935901A2C28338910509F4DC
:1017900067C24CF48D37910509F4C2C18E379105AB
:1017A00009F47EC294C28131F1E09F0709F492C02E
:1017B0008231914009F482C28AC2803731E09307B6
:1017C00009F4B4C00CF5893651E0950709F420C23C
:1017D00054F48A34B1E09B0709F4C0C18A359140C2
:1017E00009F4E0C074C28B36F1E09F0709F4AFC082
:1017F0008C36914009F06BC2809138018925809325
:1018000051018093630163C2843731E0930709F487
:10181000A6C08CF4813751E0950709F470C0823777
:10182000914009F054C280913801892580933B0191
:1018300080935F014CC28A37B1E09B0709F4D7C19E
:101840008D37E1E09E0709F4C1C18537914009F069
:101850003EC280913801892580933B0180935701D6
:1018600036C280910401811103C080E090E002C083
:101870008FE090E0FC01E55CFE4F209138012925C6
:10188000208325C280910401811103C02FE030E044
:1018900002C020E030E0809138018925F901E55C43
:1018A000FE4F80838093370112C2809138018925D1
:1018B00080934A0190910401911103C020E030E02F
:1018C00002C026E030E0F901E55CFE4F80838093A2
:1018D0003601FDC180913801892580934A0190919C
:1018E0000401911103C020E030E002C027E030E0A5
:1018F000F901E55CFE4F808380933601E8C1909149
:10190000040180913801992339F0982F99259093FB
:1019100040019093630106C0982F992590934A0146
:1019200090935301892580933501D1C19091040191
:10193000809138018925992329F08093480180936B
:101940006301C5C180934A0180933C01C0C180916D
:101950003801892580933B0180935E01B8C1809155
:101960003801892580933B0180934F01B0C12091BC
:101970003801292520933B0180910401811103C086
:1019800087E090E002C083E090E0FC01E55CFE4F60
:1019900020839DC180913801892580933B018093EC
:1019A0003F0195C1809138018925809341018FC104
:1019B0008091380189258093420189C18091380145
:1019C00089258093530183C18091380189258093B3
:1019D0004C017DC180913801892580934D0177C1EB
:1019E0008091380189258093540171C1809138011B
:1019F000892580935C016BC1809138018925809392
:101A0000610165C129252093500161C18091380190
:101A10008925809349015BC1809138018925809394
:101A2000520155C180913801892580935A014FC1D7
:101A30002925209348014BC1809138018925809345
:101A4000400145C180913801892580933D013FC106
:101A50008091380189258093440139C180913801F2
:101A6000892580935D0133C1809138018925809358
:101A700058012DC18091380189258093450127C1E6
:101A800080913801892580934B0121C180913801D3
:101A90008925809343011BC180913801892580935A
:101AA0003F0115C180913801892580934E010FC1F6
:101AB00080913801892580935E0109C180913801A8
:101AC000892580935F0103C1809138018925809326
:101AD0005701FDC080913801892580934701F7C0E7
:101AE00080913801892580934E01F1C080913801A1
:101AF000892580935601EBC0292520935E01E7C01C
:101B0000292520935F01E3C08091380189258093C6
:101B10005701DDC080913801892580934F01D7C0DE
:101B200080913801892580934701D1C08091380187
:101B3000892580934A0180935A01C9C08091380158
:101B4000892580934A0180935201C1C08091380158
:101B5000892580934A0180936001B9C08091380142
:101B6000892580934A0180935B01B1C0809138013F
:101B7000892580934A0180934C01A9C08091380146
:101B8000892580934A0180934901A1C08091380141
:101B9000892580934A018093590199C08091380129
:101BA000892580934A018093570191C08091380123
:101BB000892580934A018093620189C08091380110
:101BC000892580934A018093510181C0909104013D
:101BD000809138018925992329F0809352018093BF
:101BE000630175C080933B0180934E0170C090915A
:101BF0000401809138018925992329F080935A01A5
:101C00008093630164C080933B01809356015FC061
:101C1000809138018925809349018093630157C0E1
:101C200080913801892580933C01809363014FC0E6
:101C3000809138018925809353018093630147C0C7
:101C400080913801892580934C01809363013FC0C6
:101C5000809138018925809354018093630137C0B6
:101C600080913801892580935C01809363012FC0A6
:101C7000809138018925809350018093630127C0AA
:101C800080913801892580935901809363011FC099
:101C90008091380189258093450180934A0117C0BE
:101CA00080913801882399F060913401862F89252D
:101CB0008093340189E00E94D40109C080913801E9
:101CC000882329F080910401892580930401609183
:101CD0003701662341F080913601882329F0609115
:101CE0003501692501C061E08AE00E94D4011092AB
:101CF000380180913901882319F0109239012BCBDA
:101D000010923A0128CBEB2DE20FE93268F12F5FF8
:101D10003F4F28303105B9F7809150029091510220
:101D20000E94CA0560E087E00E94D4018394882D58
:101D30000E94C305A82E832D0E94C305382E61E0A2
:101D400087E00E94D4010E94C205AA2021F0632DE1
:101D50008A2D0E94CB0428E0B20E36E0831619F1DA
:101D600020E030E0312CCFCFF0E0E55CFE4F808109
:101D7000882361F0D301C201022E04C0880F991F8D
:101D8000AA1FBB1F0A94D2F7382AC1CFD301C201C0
:101D9000022E04C0880F991FAA1FBB1F0A94D2F7F6
:101DA00080953822B4CF8091750190917601A091F1
:101DB0007701B0917801A7019601281B390B4A0BD6
:101DC0005B0B283C31054105510530F060E086E0B1
:101DD0000E94D40110927901809171019091720159
:101DE000A0917301B0917401A7019601281B390BD2
:101DF0004A0B5B0BDA01C901883E9340A105B1058E
:101E000008F439C185E00E948F06A82EB12C86E027
:101E1000B594A7948A95E1F781E10E948F06882EF8
:101E200080E10E948F06382E8A1461F0A81430F4E5
:101E300044E0340E632D80E10E9475066A2D81E135
:101E40000E947506832D90E08452984FA80EB91E0B
:101E5000A092320186E00E948F06982F9695969563
:101E600096959270292F220F220F920F8F70890F53
:101E70008093310185E00E948F06982F9695969564
:101E800096959670292F220F220F920F8F70890F2F
:101E90008093300184E00E948F06982F9695969546
:101EA00096959670292F220F220F920F8F70890F0F
:101EB00080932F0183E00E948F06982F9695969528
:101EC00096959E70292F220F220F920F8F70890FE7
:101ED00080932E0182E00E948F06982F969596950A
:101EE00096959E70292F220F220F920F8F70890FC7
:101EF00080932D01C0927101D0927201E092730122
:101F0000F092740180915002909151020E94CA0592
:101F100060E087E00E94D40181E10E94C305882E21
:101F20008A2D0E94C305B82E61E087E00E94D4018B
:101F30000E94C205882021F06B2D882D0E94CB04C1
:101F400080915002909151020E94CA0560E087E0A2
:101F50000E94D40182E10E94C305B82E8091310114
:101F60000E94C305A82E61E087E00E94D4010E9470
:101F7000C205BB2021F06A2D8B2D0E94CB048091DD
:101F80005002909151020E94CA0560E087E00E94D1
:101F9000D40183E10E94C305B82E809130010E94D4
:101FA000C305A82E61E087E00E94D4010E94C2050B
:101FB000BB2021F06A2D8B2D0E94CB048091500212
:101FC000909151020E94CA0560E087E00E94D4010E
:101FD00084E10E94C305B82E80912F010E94C305A1
:101FE000A82E61E087E00E94D4010E94C205BB20B8
:101FF00021F06A2D8B2D0E94CB048091500290918C
:1020000051020E94CA0560E087E00E94D40185E188
:102010000E94C305B82E80912E010E94C305A82EF0
:1020200061E087E00E94D4010E94C205BB2021F03C
:102030006A2D8B2D0E94CB04809150029091510209
:102040000E94CA0560E087E00E94D40186E10E94F8
:10205000C305B82E80912D010E94C305A82E61E012
:1020600087E00E94D4010E94C205BB2021F06A2DA6
:102070008B2D0E94CB04609105017091060116160C
:1020800017064CF520917001211125C080916C013B
:1020900090916D01A0916E01B0916F01A701960121
:1020A000281B390B4A0B5B0B293E33404105510578
:1020B00090F0CB01019790930601809305010E9457
:1020C0000D0880937001C0926C01D0926D01E09276
:1020D0006E01F0926F0180917001882309F4BFC0F6
:1020E0008091680190916901A0916A01B0916B01A2
:1020F000A7019601281B390B4A0B5B0B25363105CE
:102100004105510508F4ABC08BEE90E00E947C07BE
:102110000E941E07B82E0E941E07882E0E941E07CE
:10212000A82E80915702882331F00E941E07282F85
:10213000880F330B02C020E030E040916701492551
:102140004093670180926601A09265015B2D5270F9
:102150009B2D9470B0FE02C0206101C02F7E2093A1
:10216000640180916401552311F0806201C08F7D6C
:102170008093640180916401992311F0806401C00F
:102180008F7B8093640190916401442311F09068E7
:1021900001C09F7790936401809150029091510209
:1021A0000E94CA0560E087E00E94D4018AE00E9494
:1021B000C305B82E882D0E94C305882E61E087E0F4
:1021C0000E94D4010E94C205BB2021F0682D8B2DF6
:1021D0000E94CB0480915002909151020E94CA0546
:1021E00060E087E00E94D4018BE00E94C305882E46
:1021F0008A2D0E94C305B82E61E087E00E94D401B9
:102200000E94C205882021F06B2D882D0E94CB04EE
:1022100080915002909151020E94CA0560E087E0CF
:102220000E94D4018CE00E94C305B82E8091640105
:102230000E94C305A82E61E087E00E94D4010E949D
:10224000C205BB2021F06A2D8B2D0E94CB04C092C9
:102250006801D0926901E0926A01F0926B01011568
:10226000110509F442C80E9400003BC8CF93DF93D8
:10227000E4E4F2E01382128288EE93E0A0E0B0E0A2
:1022800084839583A683B7838BE091E091838083D9
:10229000E3E5F2E083E090E09183808385E090E0E5
:1022A000938382831482D0E5D0935202109243022A
:1022B00010924202109241021092400210923F028C
:1022C000C1E0C0933E0210923D0261E082E10E94B3
:1022D000D40161E083E10E94D401E9EBF0E0808168
:1022E0008E7F808380818D7F808388E48093B80097
:1022F00085E48093BC00E0E5F2E0D083C183DF9108
:10230000CF910895991B79E004C0991F961708F0A2
:10231000961B881F7A95C9F780950895EE0FFF1FC9
:102320000590F491E02D099481E090E0F8940C94EC
:062330009911F894FFCFA3
:10233600E700E7000102000000000076014601A662
:0A234600011A013E012A011B0100EB
:107800000C94343C0C94513C0C94513C0C94513CE1
:107810000C94513C0C94513C0C94513C0C94513CB4
:107820000C94513C0C94513C0C94513C0C94513CA4
:107830000C94513C0C94513C0C94513C0C94513C94
:107840000C94513C0C94513C0C94513C0C94513C84
:107850000C94513C0C94513C0C94513C0C94513C74
:107860000C94513C0C94513C11241FBECFEFD8E036
:10787000DEBFCDBF11E0A0E0B1E0ECE9FFE702C060
:1078800005900D92A230B107D9F712E0A2E0B1E065
:1078900001C01D92AD30B107E1F70E942D3D0C945F
:1078A000CC3F0C94003C982F959595959595959582
:1078B000905D8F708A307CF0282F295A8091C0000B
:1078C00085FFFCCF9093C6008091C00085FFFCCF60
:1078D0002093C6000895282F205DF0CF982F809127
:1078E000C00085FFFCCF9093C6000895EF92FF92F1
:1078F0000F931F93EE24FF2487018091C00087FD22
:1079000017C00894E11CF11C011D111D81E4E8164B
:1079100082E4F8068FE0080780E0180770F3E09132
:107920000401F091050109958091C00087FFE9CF1E
:107930008091C6001F910F91FF90EF9008950E94D3
:10794000763C982F8091C00085FFFCCF9093C600B5
:1079500091362CF490330CF09053892F089597555D
:10796000892F08951F930E949F3C182F0E949F3CCF
:107970001295107F810F1F9108951F93182F882350
:1079800021F00E94763C1150E1F71F9108951F935A
:10799000182F0E94763C803249F0809103018F5F5E
:1079A000809303018530C1F01F9108958091C0003C
:1079B00085FFFCCF84E18093C6008091C00085FFE5
:1079C000FCCF1093C6008091C00085FFFCCF80E102
:1079D0008093C6001F910895E0910401F091050184
:1079E00009951F9108950E94763C803241F0809164
:1079F00003018F5F80930301853081F008958091AA
:107A0000C00085FFFCCF84E18093C6008091C00058
:107A100085FFFCCF80E18093C6000895E0910401CA
:107A2000F09105010995089540E951E08823A1F0FE
:107A30002D9A28EE33E0FA013197F1F721503040CA
:107A4000D1F72D9828EE33E0FA013197F1F7215064
:107A50003040D1F7815061F708953F924F925F9285
:107A60006F927F928F929F92AF92BF92CF92DF924E
:107A7000EF92FF920F931F93CF93DF93000080E16B
:107A80008093C4001092C50088E18093C10086E015
:107A90008093C2005098589A259A81E00E94143D24
:107AA00024E1F22E9EE1E92E85E9D82E0FE0C02ECA
:107AB00010E1B12EAA24A394B1E49B2EA6E58A2E50
:107AC000F2E57F2EE0E26E2E79E4572E63E5462E36
:107AD00050E5352E0E94763C8033B1F18133B9F107
:107AE000803409F46FC0813409F476C0823409F41B
:107AF00085C0853409F488C0803531F1823521F1A3
:107B0000813511F1853509F485C0863509F48DC0BC
:107B1000843609F496C0843709F403C1853709F423
:107B200072C1863709F466C0809103018F5F80932C
:107B30000301853079F6E0910401F0910501099582
:107B40000E94763C803351F60E94F33CC3CF0E94E2
:107B5000763C803249F78091C00085FFFCCFF092DF
:107B6000C6008091C00085FFFCCF9092C600809136
:107B7000C00085FFFCCF8092C6008091C00085FFC9
:107B8000FCCF7092C6008091C00085FFFCCF609250
:107B9000C6008091C00085FFFCCF5092C600809146
:107BA000C00085FFFCCF4092C6008091C00085FFD9
:107BB000FCCF3092C6008091C00085FFFCCFB09210
:107BC000C60088CF0E94763C863808F4BDCF0E945C
:107BD000763C0E94F33C7ECF0E94763C803809F4CC
:107BE0009CC0813809F40BC1823809F43CC1883942
:107BF00009F48FC080E00E94C73C6CCF84E10E94F2
:107C0000BD3C0E94F33C66CF85E00E94BD3C0E94D3
:107C1000F33C60CF0E94763C809306010E94763C44
:107C2000809307010E94F33C55CF0E94763C80333D
:107C300009F41DC183E00E94BD3C80E00E94C73C66
:107C400049CF0E94763C809309020E94763C809343
:107C5000080280910C028E7F80930C020E94763C79
:107C6000853409F415C18091080290910902892B8D
:107C700089F000E010E00E94763CF801E85FFE4FDA
:107C800080830F5F1F4F80910802909109020817AF
:107C9000190788F30E94763C803209F045CF809125
:107CA0000C0280FF01C16091060170910701660F0F
:107CB000771F7093070160930601A0910802B091AD
:107CC00009021097C9F0E8E0F1E09B01AD014E0F09
:107CD0005F1FF999FECF32BD21BD819180BDFA9A17
:107CE000F99A2F5F3F4FE417F50799F76A0F7B1F4B
:107CF00070930701609306018091C00085FFFCCF5F
:107D0000F092C6008091C00085FFFCCFB092C60003
:107D1000E1CE83E00E94C73CDDCE82E00E94C73CFA
:107D2000D9CE0E94763C809309020E94763C8093D3
:107D300008028091060190910701880F991F909386
:107D40000701809306010E94763C853409F4A6C0A1
:107D500080910C028E7F80930C020E94763C8032D0
:107D600009F0B8CE8091C00085FFFCCFF092C6002C
:107D7000609108027091090261157105B9F140E046
:107D800050E080910C02A82FA170B82FB27011C0E2
:107D9000BB2309F45CC0E0910601F0910701319624
:107DA000F0930701E09306014F5F5F4F46175707B7
:107DB000E8F4AA2369F3F999FECF209106013091E6
:107DC000070132BD21BDF89A90B58091C00085FFB2
:107DD000FCCF9093C6002F5F3F4F30930701209355
:107DE00006014F5F5F4F4617570718F38091C00099
:107DF00085FDE5CE8091C00085FFF8CFE0CE81E023
:107E00000E94C73C67CE0E94763C803209F08CCE3F
:107E10008091C00085FFFCCFF092C6008091C00029
:107E200085FFFCCFE092C6008091C00085FFFCCFAB
:107E3000D092C6008091C00085FFFCCFC092C600E2
:107E40008091C00085FFFCCFB092C60043CEE09188
:107E50000601F091070194918091C00085FFFCCF4D
:107E60009093C6009CCF80E10E94C73C33CE0E9415
:107E7000763C0E94763C182F0E94763C112309F430
:107E800083C0113009F484C08FE00E94C73C22CE29
:107E900080910C02816080930C02E5CE80910C02EF
:107EA000816080930C0259CF809107018823880F4D
:107EB000880B8A2180930B02809106019091070123
:107EC000880F991F90930701809306018091080203
:107ED00080FF09C080910802909109020196909359
:107EE000090280930802F894F999FECF1127E091D6
:107EF0000601F0910701C8E0D1E08091080290915D
:107F00000902103091F40091570001700130D9F34B
:107F100003E000935700E89500915700017001308D
:107F2000D9F301E100935700E89509901990009169
:107F3000570001700130D9F301E000935700E89534
:107F40001395103498F011270091570001700130FB
:107F5000D9F305E000935700E895009157000170B0
:107F60000130D9F301E100935700E895329602976A
:107F700009F0C7CF103011F00296E5CF112480919F
:107F8000C00085FFB9CEBCCE8EE10E94C73CA2CD19
:0C7F900085E90E94C73C9ECDF894FFCF0D
:027F9C00800063
:040000030000780081
:00000001FF
