:100000000C94FF000C9471060C944A060C94270182
:100010000C9427010C9427010C9427010C942701C0
:100020000C9427010C9427010C9427010C942701B0
:100030000C9427010C9427010C9427010C942701A0
:100040000C9400060C9427010C9470040C944A0440
:100050000C9427010C9427010C9427010C94270180
:100060000C9498060C94270129002028003A003AA5
:100070000020002D002D0000000000250028002B8E
:1000800000000000002300260029000000000800F6
:10009000020100000304070000000000000000004F
:1000A000000000240027002A00010204081020405C
:1000B0008001020408102001020408102004040436
:1000C0000404040404020202020202030303030301
:1000D000034275696C74696E20636F6D6D616E6447
:1000E000733A2048454C502C205345542C2047450A
:1000F00054005A58204B6579626F617264202F203A
:100100006D6F75736520636F6E74726F6C6C657262
:100110002076312E3100496E76616C696420666FFD
:10012000726D617420676976656E2E20506C656112
:100130007365207573652074686520636F6D6D61EC
:100140006E6420746F20736574206461746520741C
:10015000696D653A205345542059595959204D4DE0
:1001600020444420484820494920535320570053F5
:1001700065742074696D65204F4B0043757272651C
:100180006E742074696D652069733A004745543A6E
:10019000005345542059595959204D4D204444206D
:1001A00048482049492053532057202D2077696C17
:1001B0006C207365742052544320746F20746865FA
:1001C00020676976656E20617267756D656E747300
:1001D00000474554202D2077696C6C207072696E41
:1001E0007420612063757272656E74206461746539
:1001F0002F74696D650048454C503A00441811242D
:100200001FBECFEFD8E0DEBFCDBF23E0A2E4B1E058
:1002100001C01D92AF39B207E1F711E0A0E0B1E0F3
:10022000EEE8F7E302C005900D92A234B107D9F7CA
:1002300010E0CFEFD0E004C02197FE010E948119A9
:10024000CE3FD107C9F70E94E30D0C94C51B0C9457
:100250000000CF92DF92EF92FF920F931F93CF9304
:10026000DF936C017A018B01C0E0D0E0CE15DF0591
:1002700089F0D8016D918D01D601ED91FC9101902D
:10028000F081E02DC6010995892B11F47E0102C091
:100290002196ECCFC701DF91CF911F910F91FF9075
:1002A000EF90DF90CF900895FC01538D448D252F62
:1002B00030E0842F90E0821B930B541710F0CF9600
:1002C000089501970895FC01918D828D981761F032
:1002D000828DDF01A80FB11D5D968C91928D9F5F7D
:1002E0009F73928F90E008958FEF9FEF0895FC0128
:1002F000918D828D981731F0828DE80FF11D858DDB
:1003000090E008958FEF9FEF0895FC01918D228D6D
:10031000892F90E0805C9F4F821B91098F739927F2
:10032000089583EE92E00E94850121E0892B09F473
:1003300020E0822F0895FC01848DDF01A80FB11DFC
:10034000A35ABF4F2C91848D90E001968F7399270B
:10035000848FA689B7892C93A089B1898C918064F8
:100360008C93938D848D981306C00288F389E02DB9
:1003700080818F7D80830895EF92FF920F931F936A
:10038000CF93DF93EC0181E0888F9B8D8C8D981348
:1003900005C0E889F989808185FD24C0F62E0B8D82
:1003A00010E00F5F1F4F0F731127E02E8C8DE812A6
:1003B0000CC00FB607FCFACFE889F989808185FF68
:1003C000F5CFCE010E949B01F1CF8B8DFE01E80F8E
:1003D000F11DE35AFF4FF0820B8FEA89FB89808180
:1003E000806207C0EE89FF896083E889F98980818E
:1003F0008064808381E090E0DF91CF911F910F9125
:10040000FF90EF900895CF93DF93EC01888D8823C0
:10041000C9F0EA89FB89808185FD05C0A889B98971
:100420008C9186FD0FC00FB607FCF5CF808185FF4C
:10043000F2CFA889B9898C9185FFEDCFCE010E94BA
:100440009B01E7CFDF91CF91089580E090E0892B69
:1004500029F00E94910181110C94000008958330CD
:1004600081F028F4813099F08230A1F0089587302E
:10047000A9F08830B9F08430D1F4809180008F7D6C
:1004800003C0809180008F7780938000089584B5A9
:100490008F7702C084B58F7D84BD08958091B000B0
:1004A0008F7703C08091B0008F7D8093B000089556
:1004B0003FB7F8948091950190919601A091970192
:1004C000B091980126B5A89B05C02F3F19F0019661
:1004D000A11DB11D3FBFBA2FA92F982F8827820FCA
:1004E000911DA11DB11DBC01CD0142E0660F771F1A
:1004F000881F991F4A95D1F70895089585ED809337
:10050000BC008091BC0084FDFCCF10928203089552
:1005100040916B01262F30E0240F311D213231052F
:10052000DCF4209182032430C9F4FC0180E090E0E7
:10053000861758F430916B012191DC01A75BBE4F07
:10054000A30FB11D2C930196F3CF80916B01680F1F
:1005500060936B0180E0089581E0089582E0089542
:100560000895E091860380918503E81730F4F0E068
:10057000E358FD4F808190E008958FEF9FEF08953D
:100580009091860380918503981750F4E92FF0E04D
:10059000E358FD4F208130E09F5F9093860302C0B7
:1005A0002FEF3FEFC90108958091850390E02091DE
:1005B0008603821B91090895CF92DF92EF92FF92FA
:1005C0000F931F93CF93DF937C01262F972F8A01E0
:1005D0008091C102882391F0C62FD72F6E01C40EDF
:1005E000D51ECC15DD0571F06991D701ED91FC9117
:1005F0000190F081E02DC7010995F3CF642F822F80
:100600000E948802C801DF91CF911F910F91FF9046
:10061000EF90DF90CF900895CF93DF931F92CDB7E7
:10062000DEB769832091C1022223D1F02091830398
:10063000203240F021E030E0FC013383228380E06F
:1006400090E015C080918403E82FF0E0EE53FD4F59
:10065000998190838F5F809384038093830305C087
:1006600061E0CE0101960E94880281E090E00F9047
:10067000DF91CF910895089580E090E008950E9461
:100680007E1BEF92FF920F931F93CF93DF93EC01AA
:100690007B018A0188819981009729F02A813B8119
:1006A00024173507F8F4B8016F5F7F4F0E94B41A22
:1006B000009759F0998388831B830A832C813D819D
:1006C000232B81F4FC0110820DC088819981009751
:1006D00011F00E941C1A198218821D821C821B8232
:1006E0001A8207C01D830C83B701888199810E94FB
:1006F000951BCE01DF91CF911F910F91FF90EF904D
:100700000895CF93DF93DC01ED91FC91EB01A8817B
:10071000B981309711F01097C9F4109759F0EB0197
:100720002C813D81232B31F08C9190E09195819526
:10073000910914C0309781F0DC0114968D919C9141
:100740001597892B49F0808190E008C0BD01CF0149
:10075000DF91CF910C948C1B80E090E0DF91CF91E2
:100760000895FC01808191810C941C1AFB01DC012D
:1007700011961C921E9213961C921E921297159619
:100780001C921E9214978617970749F06081718119
:100790006115710521F0448155810C944103089540
:1007A000FC0111821082138212821582148261155B
:1007B000710551F0FB0101900020E9F73197AF017D
:1007C000461B570B0C9441030895BF92CF92DF92C2
:1007D000EF92FF920F931F93CF93DF937C016B01F6
:1007E000EA0189012417350720F48D2FE901042F30
:1007F000182F61E471E0C7010E94D003D60114965E
:100800008D919C911597C817D907C8F58017910746
:1008100008F48C01D601ED91FC911197E00FF11FC6
:10082000B08010824D915C91BA016C0F7D1F6115F3
:10083000710561F0FB0101900020E9F73197AF01EC
:10084000461B570BC7010E94410313C0F70180816B
:100850009181009711F00E941C1AD70111961C92E9
:100860001E9215961C921E92149713961C921E921D
:100870001297D601ED91FC91E00FF11FB082C701F4
:10088000DF91CF911F910F91FF90EF90DF90CF906C
:10089000BF9008951F920F920FB60F9211242F93BD
:1008A0003F934F935F936F937F938F939F93AF93F8
:1008B000BF93EF93FF9383EE92E00E949B01FF9121
:1008C000EF91BF91AF919F918F917F916F915F91C8
:1008D0004F913F912F910F900FBE0F901F90189541
:1008E0001F920F920FB60F9211242F938F939F9305
:1008F000EF93FF93E091F302F091F4028081E09195
:10090000F902F091FA0282FD12C090818091FC02FE
:100910008F5F8F732091FD02821751F0E091FC02EE
:10092000F0E0ED51FD4F958F8093FC0201C0808176
:10093000FF91EF919F918F912F910F900FBE0F908C
:100940001F901895CF93DF93282F30E0F901E557DA
:10095000FF4F8491F901E755FF4FD491F901E3541A
:10096000FF4FC491CC2391F081110E942F02EC2FF4
:10097000F0E0EE0FFF1FEF57FF4FA591B491EC9100
:10098000ED2381E090E021F480E002C080E090E07F
:10099000DF91CF9108951F93CF93DF93282F30E0FD
:1009A000F901E557FF4F8491F901E755FF4FD491C5
:1009B000F901E354FF4FC491CC23C9F0162F8111E4
:1009C0000E942F02EC2FF0E0EE0FFF1FE958FF4FBF
:1009D000A591B4918FB7F894111105C09C91ED2F9A
:1009E000E095E92302C0EC91ED2BEC938FBFDF91F2
:1009F000CF911F910895CF93DF9390E0FC01E755CD
:100A0000FF4F2491FC01E354FF4F8491882361F14F
:100A100090E0880F991FFC01E156FF4FC591D491DA
:100A2000FC01E958FF4FA591B491611109C09FB72E
:100A3000F8948881209582238883EC912E230BC023
:100A4000623061F49FB7F8943881822F80958323B8
:100A50008883EC912E2B2C939FBF06C08FB7F89400
:100A6000E8812E2B28838FBFDF91CF9108958F923D
:100A70009F92AF92BF92CF92DF92EF92FF926B0163
:100A80007C010E9458024B015C01C114D104E104B5
:100A9000F104F1F00E945802DC01CB018819990998
:100AA000AA09BB09883E9340A105B10570F321E076
:100AB000C21AD108E108F10888EE880E83E0981E7A
:100AC000A11CB11CC114D104E104F10419F7DDCF5C
:100AD000FF90EF90DF90CF90BF90AF909F908F905E
:100AE00008952FB7F89460919101709192018091CF
:100AF0009301909194012FBF0895CF92DF92EF92CE
:100B0000FF920F931F93CF93809199010E94A204AB
:100B1000C82F0E9471050091450110914601209156
:100B20004701309148016B017C01C01AD10AE20AE9
:100B3000F30A970186010B3F11052105310510F0DD
:100B400010924401609345017093460180934701E0
:100B500090934801909144019F5F909344019A3093
:100B600050F4923068F4913009F040C01092430183
:100B7000109242013DC09A30B1F09B3001F136C075
:100B8000809142018C0F809342012091430130E01B
:100B900035952795C11102C080E001C080E8282B5F
:100BA0002093430125C09091420191709C1719F048
:100BB000909342011DC08DEF8093420119C0809136
:100BC00042018D3F98F48091AA018F5F803108F037
:100BD00080E09091AB01891749F0E82FF0E0909107
:100BE0004301E656FE4F90838093AA011092440180
:100BF000CF911F910F91FF90EF90DF90CF900895CC
:100C00001F920F920FB60F9211242F933F938F9341
:100C10009F93AF93BF938091910190919201A09186
:100C20009301B09194013091900123E0230F2D376F
:100C300020F40196A11DB11D05C026E8230F0296E0
:100C4000A11DB11D20939001809391019093920179
:100C5000A0939301B0939401809195019091960196
:100C6000A0919701B09198010196A11DB11D8093AB
:100C7000950190939601A0939701B0939801BF912D
:100C8000AF919F918F913F912F910F900FBE0F9039
:100C90001F9018951F920F920FB60F9211242F9349
:100CA0003F934F935F936F937F938F939F93AF93F4
:100CB000BF93EF93FF93E0910201F0910301099537
:100CC000FF91EF91BF91AF919F918F917F916F9124
:100CD0005F914F913F912F910F900FBE0F901F90FA
:100CE00018951F920F920FB60F9211242F933F93D6
:100CF0004F935F936F937F938F939F93AF93BF9324
:100D0000EF93FF93E0910001F09101010995FF91AC
:100D1000EF91BF91AF919F918F917F916F915F9173
:100D20004F913F912F910F900FBE0F901F901895EC
:100D30001F920F920FB60F9211242F933F934F9350
:100D40005F936F937F938F939F93AF93BF93EF9333
:100D5000FF938091B900887F803609F49CC068F5C4
:100D6000883209F45BC090F4803109F454C038F43F
:100D7000882309F4F6C0883009F44DC0F6C08831E4
:100D800009F44CC0803209F45DC0EFC0803409F42E
:100D900068C048F4803309F455C0883309F0E5C0D1
:100DA0008093C002D8C0803509F44FC0883509F45B
:100DB0005DC0883409F0D9C0D6C0883909F4C7C0ED
:100DC000A8F4883709F467C038F4883609F463C09A
:100DD000803709F460C0C9C0883809F4B8C08039C8
:100DE00009F45FC0803809F0C0C05BC0803B09F4E3
:100DF00086C038F4803A09F466C0883A09F47FC0A6
:100E0000B4C0803C09F4A7C0883C09F4A4C0883B66
:100E100009F48AC0AAC080919D0210C09091BF02BF
:100E20008091BE02981770F5E091BF0281E08E0FAD
:100E30008093BF02F0E0E256FD4F80818093BB00BB
:100E400085EC86C08093C0028EC0E091BF0281E035
:100E50008E0F8093BF028091BB00F0E0E256FD4F01
:100E600080839091BF028091BE026EC0E091BF026C
:100E700081E08E0F8093BF028091BB00F0E0E256CC
:100E8000FD4F80838091810381116DC081E080934B
:100E9000800384EA61C083E08093820310928F0113
:100EA000CFCF80918F01803208F051C0E0918F0147
:100EB00081E08E0F80938F018091BB00F0E0E159BB
:100EC000FE4F8083BDCF85EC8093BC0010928203DF
:100ED00080918F01803230F4E0918F01F0E0E15990
:100EE000FE4F108260918F0170E0E0916D01F091F2
:100EF0006E018FE691E0099510928F0136C084E073
:100F00008093820310926C0110926B01E091690151
:100F1000F0916A01099580916B01811105C081E012
:100F200080936B0110924901E0916C0181E08E0F7A
:100F300080936C01F0E0E75BFE4F80818093BB0003
:100F400090916C0180916B01981708F479CF85E836
:100F50008093BC000AC085EC8093BC001092820391
:100F600004C01092C0020E947E02FF91EF91BF91D7
:100F7000AF919F918F917F916F915F914F913F9131
:100F80002F910F900FBE0F901F9018959091AB016D
:100F90008091AA01981749F08091AB019091AA0124
:100FA000891B87FF03C0805F089580E00895EF925A
:100FB000FF920F931F93CF93DF93CDB7DEB7EDB6BC
:100FC000FEB6FC01448155814F5F5F4F2DB73EB7A0
:100FD000241B350B0FB6F8943EBF0FBE2DBF0DB7C7
:100FE0001EB70F5F1F4F4115510531F00115110557
:100FF00019F0B8010E94B40DC8010E94B8180FB6CC
:10100000F894FEBE0FBEEDBEDF91CF911F910F9100
:10101000FF90EF900895CF92DF92EF92FF92C090F1
:10102000DB01D090DC010D2C000CEE08FF08F7FE70
:1010300014C0E091E302F091E4020190F081E02D10
:101040006DE283EE92E0099566277727CB016C1954
:101050007D098E099F094AE003C04AE0C701B60135
:101060000E94630D85E790E00E94420D6091DA01D5
:1010700070E080E090E04AE00E94630D83E790E03A
:101080000E94420D6091D90170E080E090E04AE05A
:101090000E94630D81E790E00E94420D6091D701AC
:1010A00070E080E090E04AE00E94630D8FE690E0FF
:1010B0000E94420D6091D60170E080E090E04AE02D
:1010C0000E94630D8DE690E00E94420D6091D50173
:1010D00070E080E090E04AE00E94630D8AE690E0D4
:1010E0000E94420D6091D80170E080E090E04AE0FB
:1010F0000E94630D88E690E00E94420DFF90EF9001
:10110000DF90CF900C943A0D0F931F93CF93DF9302
:101110001F92CDB7DEB78C01611102C064E101C03E
:101120006AE0C80169830E94DE186981681741F08E
:10113000C8010F90DF91CF911F910F910C94E61889
:101140000F90DF91CF911F910F910895FF920F9310
:101150001F93CF93DF931F92CDB7DEB78C01F62E8E
:101160000E94DE188A3011F0843129F461E08A305F
:1011700091F060E010C0F11002C064E101C06AE0CB
:10118000C80169830E94DE186981681719F0C801D7
:101190000E94E6186F2D862F0F90DF91CF911F913F
:1011A0000F91FF900895CF92DF92EF92FF920F93ED
:1011B0001F93CF93DF93F090D801C090DB01D090C4
:1011C000DC011091DA010091D901D091D701E090B2
:1011D000D601C091D5010E94F00B8091950391E05A
:1011E0009093C1028093E2021092840310928303D1
:1011F00082E090E00E94E30A8C2FCC3308F08BE36E
:101200006AE00E942B19692F20E1829F600D112452
:1012100087E893E00E940C038E2D8C3308F08BE35B
:101220006AE00E942B19692F30E1839F600D112421
:1012300087E893E00E940C038D2FD83108F087E1F6
:101240006AE00E942B19692F20E1829F600D112412
:1012500087E893E00E940C030E94E80A0E94F80BC2
:101260000E94F00BE601CC5DD7403C2F3C7FE32E83
:10127000C31BD1098091950391E09093C1028093A3
:10128000E202109284031092830385E090E00E94B2
:10129000E30A002329F0802F003218F08FE101C00B
:1012A00081E06AE00E942B19292F30E1839F200DF5
:1012B0001124CE0136E0880F991F3A95E1F7622F8D
:1012C000682B87E893E00E940C03112329F0812FFB
:1012D0001D3018F08CE001C081E06AE00E942B19FB
:1012E00020E1829F900D112436E03F1528F08F2DCC
:1012F0008295880F807E01C080EC682F692B87E87B
:1013000093E00E940C030E94E80A8091950391E00B
:101310009093C1028093E20210928403109283039F
:1013200080E190E00E94E30A6E2D87E893E00E943E
:101330000C03CE010E94E30A0E94E80ADF91CF91DC
:101340001F910F91FF90EF90DF90CF900C94F80BCE
:10135000CF93DF93D82FC62F90919303809194035E
:101360009CBD8DBD60E087E00E94CB04DEBD000027
:101370000DB407FEFDCFDEB5CEBD00000DB407FEF7
:10138000FDCFCEB561E087E00E94CB04DD2369F19B
:1013900080E88D0F8F3348F58630C9F038F48230FD
:1013A00099F0843011F5C093D7011BC08830B9F093
:1013B00098F08930D1F48C2F90E08053984F90931F
:1013C000DC018093DB010DC0C093D6010AC08FEF12
:1013D0008C0F8093D80105C0C093D90102C0C0937F
:1013E000DA01DF91CF910C94D308DF91CF9108956A
:1013F0006091D50180E40E94A8096091D60182E441
:101400000E94A8096091D70184E40E94A809609114
:10141000D8016F5F86E40E94A8096091D90187E432
:101420000E94A8096091DA0188E40E94A8098091CD
:10143000DB019091DC0164E670E00E943719682FAF
:1014400089E40C94A809CF92DF92EF92FF92CF9398
:10145000DF93D0E0C0E0C12CD12C7601C39420E012
:1014600030E060E0ED2FE20FE932F0F4F0E0E45517
:10147000FE4F8081882361F0D701C601022E04C08F
:10148000880F991FAA1FBB1F0A94D2F7682B0CC0A4
:10149000D701C601022E04C0880F991FAA1FBB1FC7
:1014A0000A94D2F7809568232F5F3F4F283031058B
:1014B000C9F6CF5F8C2F0E94A809D85FC63079F695
:1014C000DF91CF91FF90EF90DF90CF90089560E093
:1014D0008AE00E94CB04ECEAF1E0119281E0E53D64
:1014E000F807D9F70E94230A6AE070E080E090E0F4
:1014F0000E94370561E08AE00C94CB04CF93C82F9B
:1015000061E00E94FB0460E08C2FCF910C94CB042F
:10151000CF93C82F60E00E94FB0461E08C2FCF9135
:101520000C94CB04CF92DF92EF92FF92CF93DF9394
:10153000EC010E9471056B017C010E947105AB01F9
:10154000BC014C195D096E097F09483E5340610595
:10155000710548F4809196030E94A2048C179D07A0
:1015600061F781E001C080E0DF91CF91FF90EF90C3
:10157000DF90CF90089520919803309199030197BF
:1015800021F4C9010E94880A03C0C9010E947E0A91
:1015900081E090E00E94920A80E090E00C94920A30
:1015A000CF93DF9380E090E00E94920A80919803AD
:1015B0000E94A204EC0181E090E00E94920ACE0118
:1015C000DF91CF910895682F87E893E00C940C0386
:1015D000209183039091E202213208F04AC0809169
:1015E00082038111FCCF32E03093820331E03093EB
:1015F00081033FEF3093C0021092BF022093BE02DE
:10160000A2ECB2E04EE952E0FA013E2F341B321751
:1016100018F43D913193F9CF10929D0220919D02D3
:10162000990F922B90939D0290918003913061F4D9
:101630001092800390919D029093BB009091BC000A
:1016400093FDF8CF95EC01C095EE9093BC0090917E
:1016500082039230E1F39091C0029F3F79F0809134
:10166000C002803241F08091C002803331F084E0CA
:1016700005C081E003C082E001C083E010928403D2
:10168000109283031092C1020895CF93C62F9091B8
:10169000950321E02093C1029093E202109284030B
:1016A00010928303682F87E893E00E940C036C2F4D
:1016B00087E893E00E940C03CF910C94E80A909184
:1016C000950321E02093C1029093E20210928403DB
:1016D00010928303682F87E893E00E940C030E9416
:1016E000E80A80919503909182039111FCCF91E0DB
:1016F00090938203909381032FEF2093C002109266
:10170000BF021092BE0290939D0290919D02880F9D
:10171000892B80939D0280918003813061F4109227
:10172000800380919D028093BB008091BC0083FD6B
:10173000F8CF85EC01C085EE8093BC0080918203D8
:101740008130E1F38091BF02811103C08091BF021B
:1017500001C081E0AEE9B2E02DE732E0F9019E2F51
:10176000921B981718F49D919193F9CF10928603CC
:101770008093850387E893E00E94C0020895FF925A
:101780000F931F93CF93DF9385E00E945F0B082F89
:1017900010E086E0159507958A95E1F781E10E94B2
:1017A0005F0BF82E80E10E945F0BC82FF01659F0F6
:1017B0000F1528F4CC5F6C2F80E10E94450B602F41
:1017C00081E10E94450B2C2F30E0C9018452984FD3
:1017D000800F911FDF91CF911F910F91FF9008957E
:1017E00080E00E945F0B682F606880E00C94450BDE
:1017F00080E00E945F0B682F6F7780E00C94450BB0
:10180000CF92DF92EF92FF920F931F93CF9380912D
:101810009603909197030E94880A80919803909173
:1018200099030E94880A83EC90E00197F1F780E029
:1018300090E00E94920A8FE090E00197F1F781E03A
:1018400090E00E94920A00E010E0C0E0C12CD12C90
:101850007601C3940E94D00A892B61F0D701C6019A
:10186000002E04C0880F991FAA1FBB1F0A94D2F72D
:10187000C82B0CC0D701C601002E04C0880F991FC9
:10188000AA1FBB1F0A94D2F78095C8230F5F1F4F72
:1018900008301105F9F60E94D00A0E94D00A809102
:1018A0009603909197030E947E0A8C2FCF911F91EF
:1018B0000F91FF90EF90DF90CF900895BF92CF925D
:1018C000DF92EF92FF920F931F93CF93DF93C82E77
:1018D00080919803909199030E94880A80919603C1
:1018E000909197030E94880ACBEAD4E0CE01019739
:1018F000F1F780919603909197030E947E0A2197B9
:10190000F1F780919803909199030E947E0A83E2F7
:1019100090E00197F1F780919603909197030E94D0
:10192000880A80E090E00E94920AB82E882309F489
:101930003FC0EE24E394F12CC0E0D0E00C2C000C6E
:10194000DD0886010C2E02C0159507950A94E2F772
:1019500001701127C8010E94BB0AE026F1262196DA
:10196000C830D10571F7C7010E94BB0A8091980366
:10197000909199030E94880A83EC90E00197F1F717
:1019800080E090E00E94920A809196030E94A20457
:10199000892BD1F3809198030E94A204892BA1F393
:1019A00080919603909197030E947E0A0E94000CFA
:1019B0008B2DDF91CF911F910F91FF90EF90DF90D2
:1019C000CF90BF900895CF93DF93EC0183EF90E029
:1019D0000E945E0CCE01DF91CF910C945E0CCF93F0
:1019E00080919603909197030E94880A80919803B2
:1019F000909199030E94880A8FEF90E00E945E0CFC
:101A0000C82F8823A1F10E94000C0E94000C88ECD2
:101A100090E00E94E30C84E690E00E94E30C80E5F5
:101A200090E00E94E30C82EF90E00E945E0C0E9426
:101A3000000C91E0833009F090E090939A0388EED7
:101A400090E00E945E0C83E090E00E945E0C86EEC7
:101A500090E00E945E0C88E290E00E94E30C80EF30
:101A600090E00E945E0C8BE891E00197F1F78C2FDB
:101A7000CF91089542E050E06FE371E083EE92E091
:101A80000C9429010F931F93CF93DF938C01C0E037
:101A9000D0E0F801EC0FFD1F6491662371F0E09136
:101AA000E302F091E4020190F081E02D83EE92E0F8
:101AB0000995892B11F02196ECCFCE01DF91CF91C2
:101AC0001F910F9108958F929F92AF92BF920F93A3
:101AD0001F93CF93DF93CDB7DEB7A1970FB6F894DE
:101AE000DEBF0FBECDBF19A2423008F44AE08E011E
:101AF0000F5D1F4F842E912CA12CB12CA5019401B8
:101B00000E944B19E62FB901CA0101501109EA30B0
:101B100014F4E05D01C0E95CD801EC93232B242B85
:101B2000252B61F70115110571F0F80101900020D6
:101B3000E9F73197AF01401B510BB80183EE92E0FA
:101B40000E94290102C080E090E0A1960FB6F894AF
:101B5000DEBF0FBECDBFDF91CF911F910F91BF9020
:101B6000AF909F908F9008950F931F93CF93DF9323
:101B7000FC01248135812115310519F4FB01108206
:101B800011C0EA0121972C173D0708F4E9018B01E8
:101B9000FC0160817181AE01C8010E949C1BC00FD5
:101BA000D11F1882DF91CF911F910F910895CF938C
:101BB000DF930E94420DEC010E943A0D8C0F9D1F95
:101BC000DF91CF910895CF93DF93CDB7DEB7E6973E
:101BD0000FB6F894DEBF0FBECDBF789484B5826097
:101BE00084BD84B5816084BD85B5826085BD85B5C1
:101BF000816085BD80916E00816080936E0010923F
:101C000081008091810082608093810080918100B9
:101C1000816080938100809180008160809380004A
:101C20008091B10084608093B1008091B0008160A8
:101C30008093B00080917A00846080937A008091D4
:101C40007A00826080937A0080917A00816080932C
:101C50007A0080917A00806880937A001092C100A7
:101C6000E091F302F091F40282E08083E091EF02D0
:101C7000F091F0021082E091F102F091F20280E125
:101C800080831092FB02E091F702F091F80286E067
:101C90008083E091F502F091F6028081806180837B
:101CA000E091F502F091F602808188608083E091F6
:101CB000F502F091F602808180688083E091F50260
:101CC000F091F60280818F7D808383EE92E00E9406
:101CD00003021FB7F8948091DD01811127C0E7EC62
:101CE000F0E08491E3EBF0E09491E82FF0E0EE0F68
:101CF000FF1FE156FF4FA591B491EC91E92321F428
:101D000061E08AE00E94CB0461E08AE00E94FB046B
:101D10008CB580618CBD8CB580648CBD61E08DE03C
:101D20000E94FB0461E08BE00E94FB048091DD01D6
:101D30008F5F8093DD011FBF61E087E00E94FB049D
:101D400061E087E00E94CB0461E086E00E94FB0432
:101D500061E086E00E94CB0462E082E00E94FB0426
:101D600062E084E00E94FB0462E083E00E94FB04E6
:101D700062E085E00E94FB0461E08AE00E94FB04CF
:101D800061E08AE00E94CB0461E089E00E94FB04EC
:101D900061E089E00E94CB0461E088E00E94FB04DE
:101DA00061E088E00E94CB0462E08FE00E94FB04C7
:101DB00061E08EE00E94FB04ECEAF1E0119201E0A8
:101DC000E53DF007D9F76091DE0180E090E00E94E8
:101DD000A6088093DE016091040181E090E00E94FA
:101DE000A608809304016091DE0181E0682789E004
:101DF0000E94CB0482EF90E00E94D70D0E94670AF8
:101E000084E08093990162E082E00E94FB0462E03A
:101E100084E00E94FB041092AA011092AB018DE7AE
:101E200095E09093010180930001809169008C7F7F
:101E3000826080936900E89A0E94EF0C809373029D
:101E40000E94BF0B9093DC018093DB0186E00E942F
:101E50005F0B982F9695969596959270292F220F45
:101E6000220F920F8F70890F8093DA0185E00E9414
:101E70005F0B982F9695969596959670292F220F21
:101E8000220F920F8F70890F8093D90186E00E94F4
:101E90005F0B90E035E0959587953A95E1F7809353
:101EA000D80184E00E945F0B982F969596959695A1
:101EB0009670292F220F220F920F8F70890F809317
:101EC000D70183E00E945F0B982F96959695969583
:101ED0009E70292F220F220F920F8F70890F8093EF
:101EE000D60182E00E945F0B982F96959695969565
:101EF0009E70292F220F220F920F8F70890F8093CF
:101F0000D5010E94F80981ED90E00E94D70D60E0B4
:101F100086E00E94CB040E9471056B017C010E9447
:101F2000C607882309F4AEC50E94C607811102C006
:101F30008FEF12C0E091AB018091AA01E817C1F3C5
:101F4000EF5FE03108F0E0E0E093AB01F0E0E6564F
:101F5000FE4F8081882361F3082F10E0BB24B394E7
:101F6000B0927C02C0927802D0927902E0927A021A
:101F7000F0927B0261E086E00E94CB04003E1105F6
:101F800019F4B092E5017EC5013E110529F4B09225
:101F9000E501B092E40176C5003F110539F4809166
:101FA000E301811103C0B092E3016CC58091E501AA
:101FB000811107C08091E401811103C080E090E0AD
:101FC00002C080E091E0800F911F8534910509F4F3
:101FD000B6C30CF031C18332910509F435C30CF05E
:101FE00098C08E30910509F441C40CF04FC0873081
:101FF000910509F4C6C42CF58430910509F48BC40D
:1020000084F48130910509F4AAC4039709F0E3C46C
:102010009091E30181E089278093BE018093D401F0
:10202000DAC48530910509F46DC4069709F0D3C46C
:102030009091E30181E089278093D3018093D401BB
:10204000CAC48B30910509F478C484F489309105B1
:1020500009F48EC40A9709F0BEC49091E30181E0AF
:1020600089278093D2018093D401B5C48C30910527
:1020700009F45AC40D9709F0AEC49091E30181E0D0
:1020800089278093AC018093C101A5C48A31910551
:1020900009F44EC3DCF48431910509F423C244F4FD
:1020A0008131910509F432C2429709F409C293C4FF
:1020B0008531910509F412C3469709F08CC49091BB
:1020C000E30181E089278093AF0185C48D319105BB
:1020D00009F420C374F48B31910509F406C34C97BD
:1020E00009F079C49091E30181E089278093AD01E3
:1020F00072C48132910509F4A0C20CF012C34E974C
:1021000009F069C49091E30181E089278093B701C8
:1021100062C48333910509F4B3C20CF047C08B321B
:10212000910509F49FC20CF58632910509F40EC39E
:1021300074F48432910509F48EC2859709F04BC47A
:102140009091E30181E089278093C70144C48932DB
:10215000910509F46BC28A9709F03DC49091E3019F
:1021600081E089278093CC0136C48E32910509F431
:10217000F4C274F48C32910509F4BEC28D9709F053
:102180002AC49091E30181E089278093C60123C48A
:102190008133910509F48EC2C29709F01CC4909155
:1021A000E30181E089278093D30115C48C33910525
:1021B00009F4A9C20CF58633910509F4D5C274F46B
:1021C0008433910509F455C2C59709F004C4909170
:1021D000E30181E089278093D101FDC38A33910512
:1021E00009F461C2CB9709F0F6C39091E30181E055
:1021F00089278093CA01EFC38134910509F4F7C29E
:1022000074F48D33910509F4B6C2CE9709F0E3C397
:102210009091E30181E089278093C001DCC3209184
:10222000E3018334910509F432C20CF04AC281E023
:1022300082278093C201CFC38537910509F4C9C2B3
:102240000CF09CC08935910509F43AC10CF04BC0E3
:102250008D34910509F43BC2FCF48A34910509F4EC
:10226000E1C24CF48634910509F48CC2893491059D
:1022700009F4C6C2B0C38B34910509F40DC28C3485
:10228000910509F0A8C39091E30181E0892780932B
:10229000BB018093B9019FC38435910509F4B9C28C
:1022A0008CF48E34910509F4D8C28235910509F079
:1022B00092C39091E30181E089278093BB018093D1
:1022C000B10189C38535910509F4BEC288359105F0
:1022D00009F081C39091E30181E089278093BB01DC
:1022E0008093AC0178C38B36910509F459C22CF563
:1022F0008D35910509F49FC28CF48A35910509F456
:102300008EC18B35910509F066C39091E30181E0A0
:1023100089278093BB018093C9015DC386369105EF
:1023200009F472C18936910509F055C39091E30112
:1023300081E089278093AF014EC38137910509F46D
:102340005FC27CF48C36910509F43CC2803791055C
:1023500009F041C39091E30181E089278093B001A6
:102360003AC32091E3018337910509F420C20CF0B0
:1023700023C281E082278093B7012DC3843111E00D
:10238000910709F4AFC00CF044C08C37910509F4F3
:1023900076C23CF58937910509F47AC28CF4863708
:1023A000910509F41DC18837910509F014C3909176
:1023B000E30181E089278093AE018093BB010BC3C9
:1023C0008A37910509F4E5C18B37910509F003C3FC
:1023D0009091E30181E089278093BB018093CA013A
:1023E000FAC28338910509F4B1C24CF48D379105D6
:1023F00009F4F6C18E37910509F4CCC2ECC28131E3
:1024000031E0930709F498C08231914009F4D5C2B4
:10241000E2C2803751E0950709F4BCC014F5893653
:1024200011E0910709F465C254F48A3431E093074E
:1024300009F4F8C18A35914009F4F1C0CCC28B3659
:1024400051E0950709F4BAC08C36914009F0C3C237
:102450009091E30181E089278093C2018093D401A8
:10246000BAC2843711E0910709F4B1C094F48137FE
:1024700031E0930709F476C08237914009F0ABC28E
:102480009091E30181E089278093AC018093D00192
:10249000A2C28A3751E0950709F417C28D3701E0CF
:1024A000900709F4FEC18537914009F094C29091DC
:1024B000E30181E089278093AC018093C8018BC23E
:1024C00080910401811103C080E090E002C08FE0A0
:1024D00090E0FC01E455FE4F3091E30121E0232719
:1024E000208379C280910401811103C02FE030E084
:1024F00002C020E030E09091E30181E08927F901FA
:10250000E455FE4F80838093E20165C29091E30120
:1025100081E089278093BB0190910401911103C050
:1025200020E030E002C026E030E0F901E455FE4F43
:1025300080838093E1014FC29091E30181E089277C
:102540008093BB0190910401911103C020E030E021
:1025500002C027E030E0F901E455FE4F808380930C
:10256000E10139C2809104019091E301882339F09F
:1025700081E089278093B1018093D40106C081E076
:1025800089278093BB018093C40181E089278093D0
:10259000E00121C2909104018091E301992339F077
:1025A00091E089278093B9018093D40114C291E00E
:1025B00089278093BB018093AD010DC29091E30107
:1025C00081E089278093AC018093CF0104C2909170
:1025D000E30181E089278093AC018093C001FBC1B6
:1025E0002091E30181E028272093AC018091040130
:1025F000811103C087E090E002C083E090E0FC011D
:10260000E455FE4F2083E7C19091E30181E08927E3
:102610008093AC018093B0018093DF01DCC1909185
:10262000E30181E089278093B201D5C19091E30154
:1026300081E089278093B301CEC19091E30181E0CD
:1026400089278093C401C7C19091E30181E0892764
:102650008093BD01C0C19091E30181E089278093FF
:10266000BE01B9C19091E30181E089278093C50142
:10267000B2C19091E30181E089278093CD01ABC184
:102680009091E30181E089278093D201A4C181E088
:1026900082278093C1019FC19091E30181E0892746
:1026A0008093BA0198C19091E30181E089278093DA
:1026B000C30191C19091E30181E089278093CB010F
:1026C0008AC191E0822F89278093B90184C19091BA
:1026D000E30181E089278093B1017DC19091E301FD
:1026E00081E089278093AE0176C19091E30181E07A
:1026F00089278093B5016FC19091E30181E089271B
:102700008093CE0168C19091E30181E08927809395
:10271000C90161C19091E30181E089278093B601ED
:102720005AC19091E30181E089278093BC0153C194
:102730009091E30181E089278093B4014CC190918D
:10274000E30181E089278093B00145C19091E301C5
:1027500081E089278093BF013EC19091E30181E030
:1027600089278093CF0137C19091E30181E08927C8
:102770008093D00130C19091E30181E0892780935B
:10278000C80129C19091E30181E089278093B801B4
:1027900022C19091E30181E089278093BF011BC191
:1027A0009091E30181E089278093C70114C181E002
:1027B00082278093CF010FC191E0822F89278093D8
:1027C000D00109C19091E30181E089278093C8017C
:1027D00002C19091E30181E089278093C001FBC091
:1027E0009091E30181E089278093B801F4C0909132
:1027F000E30181E089278093BB018093CB01EBC08B
:102800009091E30181E089278093BB018093C3010C
:10281000E2C09091E30181E089278093BB0180931E
:10282000D101D9C09091E30181E089278093BB0158
:102830008093CC01D0C09091E30181E089278093FF
:10284000BB018093BD01C7C09091E30181E089275E
:102850008093BB018093BA01BEC09091E30181E0F7
:1028600089278093BB018093CA01B5C09091E30191
:1028700081E089278093BB018093C801ACC090910F
:10288000E30181E089278093BB018093D301A3C03A
:102890009091E30181E089278093BB018093C2017D
:1028A0009AC0909104018091E301992339F091E05D
:1028B00089278093C3018093D4018DC091E089273B
:1028C0008093AC018093BF0186C0909104018091F8
:1028D000E301992339F091E089278093CB0180931C
:1028E000D40179C091E089278093AC018093C7011E
:1028F00072C09091E30181E089278093BA018093AF
:10290000D40169C09091E30181E089278093AD01F2
:102910008093D40160C09091E30181E08927809386
:10292000C4018093D40157C09091E30181E08927CD
:102930008093BD018093D4014EC09091E30181E06A
:1029400089278093C5018093D40145C09091E3010C
:1029500081E089278093CD018093D4013CC0909180
:10296000E30181E089278093C1018093D40133C0C2
:102970009091E30181E089278093CA018093D4017B
:102980002AC09091E30181E089278093B60180936A
:10299000BB0121C08091E3018823E9F06091DE0151
:1029A00011E016271093DE0189E00E94CB04612F0D
:1029B00080E090E00E9484080EC08091E3018823AB
:1029C00051F06091040181E068276093040181E087
:1029D00090E00E9484088091E201882381F0809138
:1029E000E101882361F08091E001882341F0109299
:1029F000E2011092E1011092E0010E94670A8091C9
:102A0000E2018823A1F18091E101882381F1809185
:102A1000DF01882361F11092E2011092E10110922E
:102A2000DF01ECEAF1E0119221E0E53DF207D9F790
:102A30000E94230A60E08AE00E94CB0481E0809338
:102A4000B5010E94230A64EF71E080E090E00E94EB
:102A5000370561E08AE00E94CB040E94230A64EFFC
:102A600071E080E090E00E9437051092B50110926D
:102A7000E3018091E401882319F01092E40102C07F
:102A80001092E5010E94230A8091780290917902C8
:102A9000A0917A02B0917B0297018601081B190B65
:102AA0002A0B3B0B083C11052105310530F060E095
:102AB00086E00E94CB0410927C0280917402909177
:102AC0007502A0917602B0917702A7019601281BAA
:102AD000390B4A0B5B0BDA01C901883E9340A10513
:102AE000B10508F46BC00E94BF0B9093DC0180938A
:102AF000DB0186E00E945F0B982F96959695969540
:102B00009270292F220F220F920F8F70890F8093BE
:102B1000DA0185E00E945F0B982F96959695969521
:102B20009670292F220F220F920F8F70890F80939A
:102B3000D90186E00E945F0B90E025E0959587958E
:102B40002A95E1F78093D80184E00E945F0B982FCB
:102B50009695969596959670292F220F220F920F93
:102B60008F70890F8093D70183E00E945F0B982FAD
:102B70009695969596959E70292F220F220F920F6B
:102B80008F70890F8093D60182E00E945F0B982F8F
:102B90009695969596959E70292F220F220F920F4B
:102BA0008F70890F8093D5010E94F809C09274023A
:102BB000D0927502E0927602F0927702809106013F
:102BC000909107011816190654F5209173022111EE
:102BD00026C040916F025091700260917102709115
:102BE000720297018601041B150B260B370BB901E6
:102BF000A801493E53406105710588F00197909303
:102C00000701809306010E94EF0C80937302C0922B
:102C10006F02D0927002E0927102F0927202809183
:102C20007302882309F472C080916B0290916C0248
:102C3000A0916D02B0916E02A7019601281B390B7D
:102C40004A0B5B0B253631054105510508F45EC082
:102C50008BEE90E00E945E0C0E94000CB82E0E9449
:102C6000000C082F0E94000C182F80919A038823D3
:102C700031F00E94000C282F880F330B02C020E097
:102C800030E040916A0291E0492740936A02009344
:102C90006902109368029B2D92705B2D5470B0FEF8
:102CA00002C0206101C02F7E2093670280916702DD
:102CB000992311F0806201C08F7D8093670290910B
:102CC0006702552311F0906401C09F7B90936702C7
:102CD00090916702442311F0906801C09F77909310
:102CE0006702602F8AE00E94A809612F8BE00E9492
:102CF000A809609167028CE00E94A809C0926B024B
:102D0000D0926C02E0926D02F0926E0283EE92E03D
:102D10000E948501892B29F4809105018111B0C1A0
:102D200025C011E083EE92E00E948501892BA1F37A
:102D300083EE92E00E9463018A3031F08D3021F001
:102D4000E0916602E7FF03C010920501EBCF1093FC
:102D50000501AE2FB0E0AA51BE4F8C93EF5FE09318
:102D60006602F0E0EA51FE4F1082DCCF66EE71E0C1
:102D7000CE01C1960E94D00362E371E0CE010196BC
:102D80000E94D003BE016F5F7F4FCE01C1960E94AB
:102D900081038C01CE0101960E94B103012B59F4ED
:102DA00086EF91E00E94D70D81ED91E00E94D70D52
:102DB00081E991E056C167E371E0CE0101960E947E
:102DC000D003BE016F5F7F4FCE01C1960E94810389
:102DD0008C01CE0101960E94B103012B59F48CE8BD
:102DE00091E00E94D70D8BE791E00E94D70D0E94E1
:102DF0000B0839C16BE371E0CE0101960E94D0034C
:102E00008DA99EA9892B71F009A91AA969817A81D6
:102E1000C8010E94AB1B009729F0AC01401B510B6D
:102E20008A0102C00FEF1FEFCE0101960E94B1038D
:102E3000012B09F01AC18DA99EA9499709F00FC16C
:102E400028E030E044E050E0BE016F5C7F4FCE01EF
:102E50008B960E94E5032BE030E049E050E0BE0194
:102E60006F5C7F4FCE0185960E94E5032EE030E037
:102E70004CE050E0BE016F5C7F4FCE014F960E9448
:102E8000E50321E130E04FE050E0BE016F5C7F4F91
:102E9000CE0149960E94E50324E130E042E150E092
:102EA000BE016F5C7F4FCE0143960E94E50327E190
:102EB00030E045E150E0BE016F5C7F4FCE010D96E2
:102EC0000E94E50329E130E048E150E0BE016F5C7B
:102ED0007F4FCE0107960E94E503BE01655D7F4FDF
:102EE000CE0101960E94B603EDB6FEB64D815E811D
:102EF0004F5F5F4F8DB79EB7841B950B0FB6F8944D
:102F00009EBF0FBE8DBF0DB71EB70F5F1F4F411580
:102F1000510541F00115110529F0B801CE010196C6
:102F20000E94B40DC8010E94B8180FB6F894FEBEF6
:102F30000FBEEDBE9093DC018093DB01CE010196C4
:102F40000E94B103BE016B5D7F4FCE0101960E94CE
:102F5000B603CE0101960E94D7078093DA01CE0115
:102F600001960E94B103BE01615E7F4FCE010196C2
:102F70000E94B603CE0101960E94D7078093D90123
:102F8000CE0101960E94B103BE01675E7F4FCE0164
:102F900001960E94B603CE0101960E94D707809346
:102FA000D701CE0101960E94B103BE016D5E7F4F35
:102FB000CE0101960E94B603CE0101960E94D7076A
:102FC0008093D601CE0101960E94B103BE01635FDA
:102FD0007F4FCE0101960E94B603CE0101960E945A
:102FE000D7078093D501CE0101960E94B103BE019F
:102FF000695F7F4FCE0101960E94B603CE01019614
:103000000E94D7078093D801CE0101960E94B10398
:103010000E94D3080E940B088FE691E00E94D70D12
:103020000E943A0DCE0107960E94B103CE010D9683
:103030000E94B103CE0143960E94B103CE0149968E
:103040000E94B103CE014F960E94B103CE01859636
:103050000E94B103CE018B960E94B10306C086E1A7
:1030600091E00E94D70D0E943A0DCE01C1960E94B8
:10307000B103109266021092E60181E0809305018F
:103080000E9425020C948B0FCF93DF93E3EEF2E0C6
:103090001382128288EE93E0A0E0B0E084839583EF
:1030A000A683B78322E131E03183208325EC30E031
:1030B0003587248724EC30E03787268720EC30E002
:1030C000318B208B21EC30E0338B228B22EC30E0F3
:1030D000358B248B26EC30E0378B268B118E128EAD
:1030E000138E148EE7E8F3E01382128284839583B3
:1030F000A683B78384E291E091838083E6E9F3E0DD
:1031000083E090E09183808385E090E093838283E5
:103110001482D0E5D0939503109286031092850314
:10312000109284031092830310928203C1E0C09333
:1031300081031092800361E082E10E94CB0461E090
:1031400083E10E94CB04E9EBF0E080818E7F8083F5
:1031500080818D7F808388E48093B80085E48093AC
:10316000BC00E3E9F3E0D083C183DF91CF91089500
:10317000FC0188279927E89421912032E9F329302E
:1031800010F02E30C8F32B3241F02D3239F4689410
:1031900004C00E94D618820F911D219120532A301D
:1031A000C0F31EF4909581959F4F08957AE0979F04
:1031B000902D879F802D910D11240895F999FECFB0
:1031C00092BD81BDF89A992780B50895262FF99967
:1031D000FECF1FBA92BD81BD20BD0FB6F894FA9AFA
:1031E000F99A0FBE019608952F923F924F925F92E7
:1031F0006F927F928F929F92AF92BF92CF92DF9207
:10320000EF92FF920F931F93CF93DF93CDB7DEB76B
:10321000CA1BDB0B0FB6F894DEBF0FBECDBF0994FF
:103220002A88398848885F846E847D848C849B8456
:10323000AA84B984C884DF80EE80FD800C811B8164
:10324000AA81B981CE0FD11D0FB6F894DEBF0FBE93
:10325000CDBFED010895991B79E004C0991F961721
:1032600008F0961B881F7A95C9F78095089597FBFB
:10327000072E16F4009407D077FD09D00E946D192F
:1032800007FC05D03EF4909581959F4F0895709569
:1032900061957F4F0895A1E21A2EAA1BBB1BFD0169
:1032A0000DC0AA1FBB1FEE1FFF1FA217B307E40725
:1032B000F50720F0A21BB30BE40BF50B661F771F7D
:1032C000881F991F1A9469F760957095809590955D
:1032D0009B01AC01BD01CF010895AA1BBB1B51E1AD
:1032E00007C0AA1FBB1FA617B70710F0A61BB70B76
:1032F000881F991F5A95A9F780959095BC01CD011B
:103300000895EE0FFF1F0590F491E02D0994CF93DF
:10331000DF938230910510F482E090E0E0919D030C
:10332000F0919E0320E030E0C0E0D0E0309711F152
:103330004081518148175907C0F04817590761F477
:1033400082819381209719F09B838A832BC090936D
:103350009E0380939D0326C02115310519F0421765
:10336000530718F49A01BE01DF01EF010280F381D7
:10337000E02DDCCF2115310509F1281B390B243054
:10338000310590F412968D919C91139761157105FA
:1033900021F0FB019383828304C090939E0380936A
:1033A0009D03FD01329644C0FD01E20FF31F81939E
:1033B0009193225031092D933C933AC020919B0365
:1033C00030919C03232B41F420910A0130910B0191
:1033D00030939C0320939B032091080130910901B5
:1033E0002115310541F42DB73EB740910C015091A4
:1033F0000D01241B350BE0919B03F0919C03E21718
:10340000F307A0F42E1B3F0B2817390778F0AC0107
:103410004E5F5F4F2417350748F04E0F5F1F5093E4
:103420009C0340939B038193919302C0E0E0F0E002
:10343000CF01DF91CF9108950F931F93CF93DF9327
:10344000009709F48CC0FC0132971382128200911C
:103450009D0310919E030115110581F42081318196
:10346000820F931F20919B0330919C0328173907EB
:1034700079F5F0939C03E0939B0371C0D80140E081
:1034800050E0AE17BF0750F412962D913C91139760
:10349000AD012115310509F1D901F3CF9D01DA0103
:1034A0003383228360817181860F971F8217930770
:1034B00069F4EC0128813981260F371F2E5F3F4FB9
:1034C000318320838A819B8193838283452B29F4D6
:1034D000F0939E03E0939D0342C01396FC93EE93FA
:1034E0001297ED01499159919E01240F351FE21762
:1034F000F30771F480819181840F951F02961196D4
:103500009C938E938281938113969C938E931297B2
:10351000E0E0F0E0D80112968D919C91139700970E
:1035200019F0F8018C01F6CF8D919C9198012E5FD6
:103530003F4F820F931F20919B0330919C032817CC
:10354000390769F4309729F410929E0310929D0375
:1035500002C01382128210939C0300939B03DF919D
:10356000CF911F910F910895A0E0B0E0EAEBFAE14E
:103570000C94F818EC01009721F4CB010E948719F4
:10358000B8C0FC01E60FF71F9C0122503109E21779
:10359000F30708F4ACC0D9010D911C9111970617DF
:1035A0001707B0F00530110508F49FC0C801049753
:1035B0008617970708F499C002501109061B170BCC
:1035C000019311936D937C93CF010E941C1A8DC0BF
:1035D0005B01A01AB10A4C01800E911EA0919D03BF
:1035E000B0919E0340E050E0E12CF12C109709F4DB
:1035F0004AC0A815B905D1F56D907C90119763016B
:1036000082E0C80ED11CCA14DB0480F1A3014A1960
:103610005B096A0182E0C80ED11C1296BC90129719
:103620001396AC91B5E0CB16D10440F0B282A383DF
:1036300051834083D9016D937C930AC00E5F1F4F65
:10364000C301800F911FF90191838083EB2DFA2F25
:10365000E114F10431F0D7011396FC93EE93129725
:1036600044C0F0939E03E0939D033FC08D919C91D5
:1036700011974817590708F4AC017D0112960D9077
:10368000BC91A02DB3CF80919B0390919C03881592
:103690009905E1F446175707C8F480910801909105
:1036A0000901009741F48DB79EB740910C015091EC
:1036B0000D01841B950BE817F907C8F4F0939C03E0
:1036C000E0939B03F901718360830FC0CB010E94DB
:1036D00087197C01009759F0A801BE010E94831B45
:1036E000CE010E941C1AC70104C0CE0102C080E0B6
:1036F00090E0CDB7DEB7EEE00C94141981E090E0D5
:10370000F8940C94C51BFB01DC0102C001900D92E2
:1037100041505040D8F70895FB01DC018D91019094
:1037200080190110D9F3990B0895FB01DC01019078
:103730000D920020E1F70895FB01DC01415050405B
:1037400048F001900D920020C9F701C01D92415030
:103750005040E0F70895FB0151915523A9F0BF01B6
:10376000DC014D9145174111E1F759F4CD0101906C
:10377000002049F04D9140154111C9F3FB01411161
:0E378000EFCF81E090E001970895F894FFCF1D
:10378E007D027D020101020000009F038000000007
:10379E000000BC0129015401030285016301770178
:1037AE00000000000C03DC023C03B002D402C00295
:1037BE00B10248454C500047455400534554000D46
:0237CE000A00EF
:107800000C94343C0C94513C0C94513C0C94513CE1
:107810000C94513C0C94513C0C94513C0C94513CB4
:107820000C94513C0C94513C0C94513C0C94513CA4
:107830000C94513C0C94513C0C94513C0C94513C94
:107840000C94513C0C94513C0C94513C0C94513C84
:107850000C94513C0C94513C0C94513C0C94513C74
:107860000C94513C0C94513C11241FBECFEFD8E036
:10787000DEBFCDBF11E0A0E0B1E0ECE9FFE702C060
:1078800005900D92A230B107D9F712E0A2E0B1E065
:1078900001C01D92AD30B107E1F70E942D3D0C945F
:1078A000CC3F0C94003C982F959595959595959582
:1078B000905D8F708A307CF0282F295A8091C0000B
:1078C00085FFFCCF9093C6008091C00085FFFCCF60
:1078D0002093C6000895282F205DF0CF982F809127
:1078E000C00085FFFCCF9093C6000895EF92FF92F1
:1078F0000F931F93EE24FF2487018091C00087FD22
:1079000017C00894E11CF11C011D111D81E4E8164B
:1079100082E4F8068FE0080780E0180770F3E09132
:107920000401F091050109958091C00087FFE9CF1E
:107930008091C6001F910F91FF90EF9008950E94D3
:10794000763C982F8091C00085FFFCCF9093C600B5
:1079500091362CF490330CF09053892F089597555D
:10796000892F08951F930E949F3C182F0E949F3CCF
:107970001295107F810F1F9108951F93182F882350
:1079800021F00E94763C1150E1F71F9108951F935A
:10799000182F0E94763C803249F0809103018F5F5E
:1079A000809303018530C1F01F9108958091C0003C
:1079B00085FFFCCF84E18093C6008091C00085FFE5
:1079C000FCCF1093C6008091C00085FFFCCF80E102
:1079D0008093C6001F910895E0910401F091050184
:1079E00009951F9108950E94763C803241F0809164
:1079F00003018F5F80930301853081F008958091AA
:107A0000C00085FFFCCF84E18093C6008091C00058
:107A100085FFFCCF80E18093C6000895E0910401CA
:107A2000F09105010995089540E951E08823A1F0FE
:107A30002D9A28EE33E0FA013197F1F721503040CA
:107A4000D1F72D9828EE33E0FA013197F1F7215064
:107A50003040D1F7815061F708953F924F925F9285
:107A60006F927F928F929F92AF92BF92CF92DF924E
:107A7000EF92FF920F931F93CF93DF93000080E16B
:107A80008093C4001092C50088E18093C10086E015
:107A90008093C2005098589A259A81E00E94143D24
:107AA00024E1F22E9EE1E92E85E9D82E0FE0C02ECA
:107AB00010E1B12EAA24A394B1E49B2EA6E58A2E50
:107AC000F2E57F2EE0E26E2E79E4572E63E5462E36
:107AD00050E5352E0E94763C8033B1F18133B9F107
:107AE000803409F46FC0813409F476C0823409F41B
:107AF00085C0853409F488C0803531F1823521F1A3
:107B0000813511F1853509F485C0863509F48DC0BC
:107B1000843609F496C0843709F403C1853709F423
:107B200072C1863709F466C0809103018F5F80932C
:107B30000301853079F6E0910401F0910501099582
:107B40000E94763C803351F60E94F33CC3CF0E94E2
:107B5000763C803249F78091C00085FFFCCFF092DF
:107B6000C6008091C00085FFFCCF9092C600809136
:107B7000C00085FFFCCF8092C6008091C00085FFC9
:107B8000FCCF7092C6008091C00085FFFCCF609250
:107B9000C6008091C00085FFFCCF5092C600809146
:107BA000C00085FFFCCF4092C6008091C00085FFD9
:107BB000FCCF3092C6008091C00085FFFCCFB09210
:107BC000C60088CF0E94763C863808F4BDCF0E945C
:107BD000763C0E94F33C7ECF0E94763C803809F4CC
:107BE0009CC0813809F40BC1823809F43CC1883942
:107BF00009F48FC080E00E94C73C6CCF84E10E94F2
:107C0000BD3C0E94F33C66CF85E00E94BD3C0E94D3
:107C1000F33C60CF0E94763C809306010E94763C44
:107C2000809307010E94F33C55CF0E94763C80333D
:107C300009F41DC183E00E94BD3C80E00E94C73C66
:107C400049CF0E94763C809309020E94763C809343
:107C5000080280910C028E7F80930C020E94763C79
:107C6000853409F415C18091080290910902892B8D
:107C700089F000E010E00E94763CF801E85FFE4FDA
:107C800080830F5F1F4F80910802909109020817AF
:107C9000190788F30E94763C803209F045CF809125
:107CA0000C0280FF01C16091060170910701660F0F
:107CB000771F7093070160930601A0910802B091AD
:107CC00009021097C9F0E8E0F1E09B01AD014E0F09
:107CD0005F1FF999FECF32BD21BD819180BDFA9A17
:107CE000F99A2F5F3F4FE417F50799F76A0F7B1F4B
:107CF00070930701609306018091C00085FFFCCF5F
:107D0000F092C6008091C00085FFFCCFB092C60003
:107D1000E1CE83E00E94C73CDDCE82E00E94C73CFA
:107D2000D9CE0E94763C809309020E94763C8093D3
:107D300008028091060190910701880F991F909386
:107D40000701809306010E94763C853409F4A6C0A1
:107D500080910C028E7F80930C020E94763C8032D0
:107D600009F0B8CE8091C00085FFFCCFF092C6002C
:107D7000609108027091090261157105B9F140E046
:107D800050E080910C02A82FA170B82FB27011C0E2
:107D9000BB2309F45CC0E0910601F0910701319624
:107DA000F0930701E09306014F5F5F4F46175707B7
:107DB000E8F4AA2369F3F999FECF209106013091E6
:107DC000070132BD21BDF89A90B58091C00085FFB2
:107DD000FCCF9093C6002F5F3F4F30930701209355
:107DE00006014F5F5F4F4617570718F38091C00099
:107DF00085FDE5CE8091C00085FFF8CFE0CE81E023
:107E00000E94C73C67CE0E94763C803209F08CCE3F
:107E10008091C00085FFFCCFF092C6008091C00029
:107E200085FFFCCFE092C6008091C00085FFFCCFAB
:107E3000D092C6008091C00085FFFCCFC092C600E2
:107E40008091C00085FFFCCFB092C60043CEE09188
:107E50000601F091070194918091C00085FFFCCF4D
:107E60009093C6009CCF80E10E94C73C33CE0E9415
:107E7000763C0E94763C182F0E94763C112309F430
:107E800083C0113009F484C08FE00E94C73C22CE29
:107E900080910C02816080930C02E5CE80910C02EF
:107EA000816080930C0259CF809107018823880F4D
:107EB000880B8A2180930B02809106019091070123
:107EC000880F991F90930701809306018091080203
:107ED00080FF09C080910802909109020196909359
:107EE000090280930802F894F999FECF1127E091D6
:107EF0000601F0910701C8E0D1E08091080290915D
:107F00000902103091F40091570001700130D9F34B
:107F100003E000935700E89500915700017001308D
:107F2000D9F301E100935700E89509901990009169
:107F3000570001700130D9F301E000935700E89534
:107F40001395103498F011270091570001700130FB
:107F5000D9F305E000935700E895009157000170B0
:107F60000130D9F301E100935700E895329602976A
:107F700009F0C7CF103011F00296E5CF112480919F
:107F8000C00085FFB9CEBCCE8EE10E94C73CA2CD19
:0C7F900085E90E94C73C9ECDF894FFCF0D
:027F9C00800063
:040000030000780081
:00000001FF
