:100000000C9413010C9485060C945E060C943B0131
:100010000C943B010C943B010C943B010C943B0170
:100020000C943B010C943B010C943B010C943B0160
:100030000C943B010C943B010C943B010C943B0150
:100040000C9414060C943B010C9484040C945E04F0
:100050000C943B010C943B010C943B010C943B0130
:100060000C94AC060C943B01000000002400270017
:100070002A00010204081020408001020408102018
:10008000010204081020040404040404040402020D
:10009000020202020303030303034275696C7469DD
:1000A0006E20636F6D6D616E64733A2048454C50ED
:1000B0002C205345542C20474554005A58204B655A
:1000C00079626F617264202F206D6F757365206394
:1000D0006F6E74726F6C6C65722076312E31003ADF
:1000E000003A0020002D002D00496E76616C696495
:1000F00020666F726D617420676976656E2E205080
:100100006C65617365207573652074686520636F25
:100110006D6D616E6420746F20736574206461740A
:10012000652074696D653A205345542059595959D1
:10013000204D4D2044442048482049492053530035
:100140005365742074696D65204F4B005365636F70
:100150006E64733A20004D696E757465733A2000C1
:10016000486F7572733A20004461793A20004D6FF0
:100170006E74683A2000596561723A2000437572C6
:1001800072656E742074696D652069733A00474525
:10019000543A005345542059595959204D4D204443
:1001A00044204848204949205353202D2077696C2A
:1001B0006C207365742052544320746F20746865FA
:1001C00020676976656E20617267756D656E747300
:1001D00000474554202D2077696C6C207072696E41
:1001E0007420612063757272656E74206461746539
:1001F0002F74696D650048454C503A0000000000BE
:10020000250028002B000000000023002600290004
:1002100000000008000201000003040700000000C5
:1002200000000000481811241FBECFEFD8E0DEBF49
:10023000CDBF23E0A2E4B1E001C01D92AE39B20708
:10024000E1F711E0A0E0B1E0E6E4F7E302C00590D9
:100250000D92A234B107D9F711E0C3E1D1E004C097
:100260002197FE010E945D19C231D107C9F70E9492
:10027000940D0C94A11B0C940000CF92DF92EF928E
:10028000FF920F931F93CF93DF936C017A018B0141
:10029000C0E0D0E0CE15DF0589F0D8016D918D0169
:1002A000D601ED91FC910190F081E02DC6010995F8
:1002B000892B11F47E0102C02196ECCFC701DF919A
:1002C000CF911F910F91FF90EF90DF90CF90089505
:1002D000FC01538D448D252F30E0842F90E0821B4C
:1002E000930B541710F0CF96089501970895FC01D1
:1002F000918D828D981761F0828DDF01A80FB11D5D
:100300005D968C91928D9F5F9F73928F90E0089580
:100310008FEF9FEF0895FC01918D828D981731F03A
:10032000828DE80FF11D858D90E008958FEF9FEF8E
:100330000895FC01918D228D892F90E0805C9F4F64
:10034000821B91098F739927089582EE92E00E9493
:10035000990121E0892B09F420E0822F0895FC0106
:10036000848DDF01A80FB11DA35ABF4F2C91848D3E
:1003700090E001968F739927848FA689B7892C9373
:10038000A089B1898C9180648C93938D848D98130E
:1003900006C00288F389E02D80818F7D80830895D7
:1003A000EF92FF920F931F93CF93DF93EC0181E0C5
:1003B000888F9B8D8C8D981305C0E889F989808181
:1003C00085FD24C0F62E0B8D10E00F5F1F4F0F73BD
:1003D0001127E02E8C8DE8120CC00FB607FCFACF67
:1003E000E889F989808185FFF5CFCE010E94AF01B0
:1003F000F1CF8B8DFE01E80FF11DE35AFF4FF08224
:100400000B8FEA89FB898081806207C0EE89FF89B2
:100410006083E889F98980818064808381E090E04D
:10042000DF91CF911F910F91FF90EF900895CF939F
:10043000DF93EC01888D8823C9F0EA89FB898081EC
:1004400085FD05C0A889B9898C9186FD0FC00FB6BE
:1004500007FCF5CF808185FFF2CFA889B9898C91FF
:1004600085FFEDCFCE010E94AF01E7CFDF91CF91A5
:10047000089580E090E0892B29F00E94A501811168
:100480000C9400000895833081F028F4813099F0B5
:100490008230A1F008958730A9F08830B9F0843017
:1004A000D1F4809180008F7D03C0809180008F7790
:1004B00080938000089584B58F7702C084B58F7DC6
:1004C00084BD08958091B0008F7703C08091B00003
:1004D0008F7D8093B00008953FB7F89480917802A3
:1004E00090917902A0917A02B0917B0226B5A89BE7
:1004F00005C02F3F19F00196A11DB11D3FBFBA2FB6
:10050000A92F982F8827820F911DA11DB11DBC0115
:10051000CD0142E0660F771F881F991F4A95D1F7DA
:100520000895089585ED8093BC008091BC0084FD02
:10053000FCCF10928103089540914E02262F30E0A7
:10054000240F311D21323105DCF420918103243048
:10055000C9F4FC0180E090E0861758F430914E0217
:100560002191DC01A45DBD4FA30FB11D2C93019619
:10057000F3CF80914E02680F60934E0280E00895A1
:1005800081E0089582E008950895E09185038091C7
:100590008403E81730F4F0E0E458FD4F808190E0E8
:1005A00008958FEF9FEF08959091850380918403C4
:1005B000981750F4E92FF0E0E458FD4F208130E027
:1005C0009F5F9093850302C02FEF3FEFC90108950D
:1005D0008091840390E020918503821B9109089506
:1005E000CF92DF92EF92FF920F931F93CF93DF93FF
:1005F0007C01262F972F8A018091C002882391F0D9
:10060000C62FD72F6E01C40ED51ECC15DD0571F097
:100610006991D701ED91FC910190F081E02DC70126
:100620000995F3CF642F822F0E949C02C801DF91AD
:10063000CF911F910F91FF90EF90DF90CF90089591
:10064000CF93DF931F92CDB7DEB769832091C002AD
:100650002223D1F020918203203240F021E030E0CB
:10066000FC013383228380E090E015C080918303F6
:10067000E82FF0E0EF53FD4F998190838F5F8093D7
:1006800083038093820305C061E0CE0101960E943E
:100690009C0281E090E00F90DF91CF910895089542
:1006A00080E090E008950E945A1BEF92FF920F9312
:1006B0001F93CF93DF93EC017B018A01888199819D
:1006C000009729F02A813B8124173507F8F4B801F7
:1006D0006F5F7F4F0E94901A009759F0998388832B
:1006E0001B830A832C813D81232B81F4FC01108222
:1006F0000DC088819981009711F00E94F819198224
:1007000018821D821C821B821A8207C01D830C83E3
:10071000B701888199810E94711BCE01DF91CF9131
:100720001F910F91FF90EF900895CF93DF93DC011D
:10073000ED91FC91EB01A881B981309711F01097F0
:10074000C9F4109759F0EB012C813D81232B31F036
:100750008C9190E091958195910914C0309781F02A
:10076000DC0114968D919C911597892B49F080811D
:1007700090E008C0BD01CF01DF91CF910C94681BC0
:1007800080E090E0DF91CF910895FC01808191811C
:100790000C94F819FB01DC0111961C921E92139621
:1007A0001C921E92129715961C921E9214978617F1
:1007B000970749F0608171816115710521F04481CD
:1007C00055810C9455030895FC0111821082138207
:1007D0001282158214826115710551F0FB0101909E
:1007E0000020E9F73197AF01461B570B0C945503D6
:1007F0000895BF92CF92DF92EF92FF920F931F93D3
:10080000CF93DF937C016B01EA018901241735073F
:1008100020F48D2FE901042F182F61E471E0C70146
:100820000E94E403D60114968D919C911597C817E8
:10083000D907C8F58017910708F48C01D601ED910E
:10084000FC911197E00FF11FB08010824D915C91E7
:10085000BA016C0F7D1F6115710561F0FB010190FC
:100860000020E9F73197AF01461B570BC7010E94E3
:10087000550313C0F70180819181009711F00E9408
:10088000F819D70111961C921E9215961C921E9271
:10089000149713961C921E921297D601ED91FC911B
:1008A000E00FF11FB082C701DF91CF911F910F912F
:1008B000FF90EF90DF90CF90BF9008951F920F921E
:1008C0000FB60F9211242F933F934F935F936F9323
:1008D0007F938F939F93AF93BF93EF93FF9382EE9A
:1008E00092E00E94AF01FF91EF91BF91AF919F9174
:1008F0008F917F916F915F914F913F912F910F90C9
:100900000FBE0F901F9018951F920F920FB60F9267
:1009100011242F938F939F93EF93FF93E091F20213
:10092000F091F3028081E091F802F091F90282FDEA
:1009300012C090818091FB028F5F8F732091FC0227
:10094000821751F0E091FB02F0E0EE51FD4F958FE0
:100950008093FB0201C08081FF91EF919F918F9165
:100960002F910F900FBE0F901F901895CF93DF938C
:10097000282F30E0F901E05FFD4F8491F901EE5836
:10098000FF4FD491F901EA57FF4FC491CC2391F066
:1009900081110E944302EC2FF0E0EE0FFF1FEA5F8F
:1009A000FD4FA591B491EC91ED2381E090E021F40D
:1009B00080E002C080E090E0DF91CF9108951F9326
:1009C000CF93DF93282F30E0F901E05FFD4F849152
:1009D000F901EE58FF4FD491F901EA57FF4FC49146
:1009E000CC23C9F0162F81110E944302EC2FF0E0B6
:1009F000EE0FFF1FE450FE4FA591B4918FB7F8940E
:100A0000111105C09C91ED2FE095E92302C0EC91F6
:100A1000ED2BEC938FBFDF91CF911F910895CF9372
:100A2000DF9390E0FC01EE58FF4F2491FC01EA5760
:100A3000FF4F8491882361F190E0880F991FFC019A
:100A4000E859FF4FC591D491FC01E450FE4FA591A8
:100A5000B491611109C09FB7F894888120958223D1
:100A60008883EC912E230BC0623061F49FB7F89419
:100A70003881822F809583238883EC912E2B2C93B1
:100A80009FBF06C08FB7F894E8812E2B28838FBFB5
:100A9000DF91CF9108958F929F92AF92BF92CF92A4
:100AA000DF92EF92FF926B017C010E946C024B017E
:100AB0005C01C114D104E104F104F1F00E946C0264
:100AC000DC01CB0188199909AA09BB09883E93402A
:100AD000A105B10570F321E0C21AD108E108F108BF
:100AE00088EE880E83E0981EA11CB11CC114D104AD
:100AF000E104F10419F7DDCFFF90EF90DF90CF9084
:100B0000BF90AF909F908F9008952FB7F894609109
:100B100074027091750280917602909177022FBFD6
:100B20000895CF92DF92EF92FF920F931F93CF938E
:100B3000809142010E94B604C82F0E948505009151
:100B400028021091290220912A0230912B026B0178
:100B50007C01C01AD10AE20AF30A970186010B3F11
:100B600011052105310510F010922702609328022B
:100B70007093290280932A0290932B02909127026E
:100B80009F5F909327029A3050F4923068F491302E
:100B900009F040C010922602109225023DC09A3002
:100BA000B1F09B3001F136C0809125028C0F80930B
:100BB00025022091260230E035952795C11102C00B
:100BC00080E001C080E8282B2093260225C0909168
:100BD000250291709C1719F0909325021DC08DEF8E
:100BE0008093250219C0809125028D3F98F4809151
:100BF00053018F5F803108F080E090915401891794
:100C000049F0E82FF0E090912602ED5BFE4F9083D3
:100C10008093530110922702CF911F910F91FF9063
:100C2000EF90DF90CF9008951F920F920FB60F9222
:100C300011242F933F938F939F93AF93BF938091F2
:100C4000740290917502A0917602B0917702309172
:100C5000730223E0230F2D3720F40196A11DB11D4F
:100C600005C026E8230F0296A11DB11D2093730233
:100C70008093740290937502A0937602B0937702EA
:100C80008091780290917902A0917A02B0917B02D2
:100C90000196A11DB11D8093780290937902A093D3
:100CA0007A02B0937B02BF91AF919F918F913F9158
:100CB0002F910F900FBE0F901F9018951F920F92BB
:100CC0000FB60F9211242F933F934F935F936F931F
:100CD0007F938F939F93AF93BF93EF93FF93E09195
:100CE0000201F09103010995FF91EF91BF91AF913E
:100CF0009F918F917F916F915F914F913F912F9134
:100D00000F900FBE0F901F9018951F920F920FB665
:100D10000F9211242F933F934F935F936F937F9381
:100D20008F939F93AF93BF93EF93FF93E091000155
:100D3000F09101010995FF91EF91BF91AF919F91C2
:100D40008F917F916F915F914F913F912F910F9074
:100D50000FBE0F901F9018951F920F920FB60F9213
:100D600011242F933F934F935F936F937F938F93B0
:100D70009F93AF93BF93EF93FF938091B900887FC8
:100D8000803609F49CC068F5883209F45BC090F4A1
:100D9000803109F454C038F4882309F4F6C088304F
:100DA00009F44DC0F6C0883109F44CC0803209F412
:100DB0005DC0EFC0803409F468C048F4803309F4A2
:100DC00055C0883309F0E5C08093BF02D8C0803594
:100DD00009F44FC0883509F45DC0883409F0D9C0E2
:100DE000D6C0883909F4C7C0A8F4883709F467C0A9
:100DF00038F4883609F463C0803709F460C0C9C08C
:100E0000883809F4B8C0803909F45FC0803809F027
:100E1000C0C05BC0803B09F486C038F4803A09F456
:100E200066C0883A09F47FC0B4C0803C09F4A7C00A
:100E3000883C09F4A4C0883B09F48AC0AAC0809108
:100E40009C0210C09091BE028091BD02981770F56F
:100E5000E091BE0281E08E0F8093BE02F0E0E35687
:100E6000FD4F80818093BB0085EC86C08093BF02DC
:100E70008EC0E091BE0281E08E0F8093BE02809111
:100E8000BB00F0E0E356FD4F80839091BE0280915D
:100E9000BD026EC0E091BE0281E08E0F8093BE0263
:100EA0008091BB00F0E0E356FD4F8083809180038A
:100EB00081116DC081E080937F0384EA61C083E08B
:100EC0008093810310927202CFCF809172028032A0
:100ED00008F051C0E091720281E08E0F809372029F
:100EE0008091BB00F0E0EE5AFD4F8083BDCF85ECD2
:100EF0008093BC001092810380917202803230F4A2
:100F0000E0917202F0E0EE5AFD4F108260917202A1
:100F100070E0E0915002F091510282E592E0099573
:100F20001092720236C084E08093810310924F02C7
:100F300010924E02E0914C02F0914D020995809181
:100F40004E02811105C081E080934E0210922C0266
:100F5000E0914F0281E08E0F80934F02F0E0E45D5C
:100F6000FD4F80818093BB0090914F0280914E0293
:100F7000981708F479CF85E88093BC000AC085EC07
:100F80008093BC001092810304C01092BF020E94A3
:100F90009202FF91EF91BF91AF919F918F917F91BD
:100FA0006F915F914F913F912F910F900FBE0F90D6
:100FB0001F9018959091540180915301981749F012
:100FC0008091540190915301891B87FF03C0805F7A
:100FD000089580E00895EF92FF920F931F93CF93AF
:100FE000DF93CDB7DEB7EDB6FEB6FC014481558187
:100FF0004F5F5F4F2DB73EB7241B350B0FB6F894EC
:101000003EBF0FBE2DBF0DB71EB70F5F1F4F41155F
:10101000510531F00115110519F0B8010E94540D68
:10102000C8010E94BC180FB6F894FEBE0FBEEDBEFC
:10103000DF91CF911F910F91FF90EF9008950F9343
:101040001F93CF93DF931F92CDB7DEB78C01611151
:1010500002C064E101C06AE0C80169830E94E2182D
:101060006981681741F0C8010F90DF91CF911F91FE
:101070000F910C94EA180F90DF91CF911F910F916F
:101080000895FF920F931F93CF93DF931F92CDB7D5
:10109000DEB78C01F62E0E94E2188A3011F08431FE
:1010A00029F461E08A3091F060E010C0F11002C0D4
:1010B00064E101C06AE0C80169830E94E2186981A5
:1010C000681719F0C8010E94EA186F2D862F0F903B
:1010D000DF91CF911F910F91FF900895DF92EF92D2
:1010E000FF920F931F93CF93DF93C0918301D09111
:1010F00084011091820100918101F0908001E090C3
:101100007F01D0907E010E94690B8091940391E051
:101110009093C0028093E1021092830310928203A5
:1011200082E090E00E945C0A8D2D8C3308F08BE306
:101130006AE00E942F19692F20E1829F600D11241F
:1011400086E893E00E9420038E2D8C3308F08BE319
:101150006AE00E942F19692F30E1839F600D1124EE
:1011600086E893E00E9420038F2D883108F087E104
:101170006AE00E942F19692F20E1829F600D1124DF
:1011800086E893E00E9420030E94610A0E94710B8E
:101190000E94690BCC5DD7403C2F3C7FF32EC31BD4
:1011A000D1098091940391E09093C0028093E10271
:1011B000109283031092820385E090E00E945C0A03
:1011C000002329F0802F003218F08FE101C081E068
:1011D0006AE00E942F19292F30E1839F200D1124EE
:1011E000CE0136E0880F991F3A95E1F7622F682B00
:1011F00086E893E00E942003112329F0812F1D30FF
:1012000018F08CE001C081E06AE00E942F19692F7C
:1012100020E1829F600D112486E893E00E94200364
:101220000E94610A8091940391E09093C0028093A0
:10123000E102109283031092820380E190E00E9409
:101240005C0A6F2D86E893E00E942003CE010E9485
:101250005C0A0E94610ADF91CF911F910F91FF906C
:10126000EF90DF900C94710BCF93DF93C82FD62FA4
:1012700090919203809193039CBD8DBD60E087E0C7
:101280000E94DF04CEBD00000DB407FEFDCFCEB539
:10129000DEBD00000DB407FEFDCFDEB561E087E0E6
:1012A0000E94DF04CC2339F180E88C0F8F3318F5CE
:1012B0008730C1F038F4823091F08430E1F4D0937B
:1012C000800115C0883089F08930A9F48D2F90E015
:1012D0008053984F909384018093830108C0D093EA
:1012E0007F0105C0D093810102C0D0938201DF91BC
:1012F000CF910C946E08DF91CF91089560917E019B
:1013000080E40E94340960917F0182E40E943409E4
:101310006091800184E40E9434096091810187E436
:101320000E9434096091820188E40E94340960912E
:10133000830189E40C943409CF92DF92EF92FF92FB
:10134000CF93DF93D0E0C0E0C12CD12C7601C394C1
:1013500020E030E060E0ED2FE20FE932F0F4F0E061
:10136000EB5AFE4F8081882361F0D701C601022E1F
:1013700004C0880F991FAA1FBB1F0A94D2F7682BBD
:101380000CC0D701C601022E04C0880F991FAA1FE6
:10139000BB1F0A94D2F7809568232F5F3F4F2830F8
:1013A0003105C9F6CF5F8C2F0E943409D85FC63053
:1013B00079F6DF91CF91FF90EF90DF90CF90089575
:1013C00060E08AE00E94DF04E5E5F1E0119281E04F
:1013D000EE37F807D9F70E949C096AE070E080E0D8
:1013E00090E00E944B0561E08AE00C94DF04CF930B
:1013F000C82F61E00E940F0560E08C2FCF910C9404
:10140000DF04CF93C82F60E00E940F0561E08C2FAE
:10141000CF910C94DF04CF92DF92EF92FF92CF93A3
:10142000DF93EC010E9485056B017C010E9485051C
:10143000AB01BC014C195D096E097F09483E534060
:101440006105710548F4809195030E94B6048C17DC
:101450009D0761F781E001C080E0DF91CF91FF90AF
:10146000EF90DF90CF9008952091970330919803EB
:10147000019721F4C9010E94010A03C0C9010E9419
:10148000F70981E090E00E940B0A80E090E00C9464
:101490000B0ACF93DF9380E090E00E940B0A8091CB
:1014A00097030E94B604EC0181E090E00E940B0AD1
:1014B000CE01DF91CF910895682F86E893E00C94D8
:1014C0002003209182039091E102213208F04AC06A
:1014D000809181038111FCCF32E03093810331E0B0
:1014E000309380033FEF3093BF021092BE022093EF
:1014F000BD02A1ECB2E04DE952E0FA013E2F341BEF
:10150000321718F43D913193F9CF10929C0220913B
:101510009C02990F922B90939C0290917F039130A3
:1015200061F410927F0390919C029093BB00909184
:10153000BC0093FDF8CF95EC01C095EE9093BC00F4
:10154000909181039230E1F39091BF029F3F79F037
:101550008091BF02803241F08091BF02803331F030
:1015600084E005C081E003C082E001C083E0109206
:101570008303109282031092C0020895CF93C62F66
:101580009091940321E02093C0029093E102109285
:10159000830310928203682F86E893E00E94200361
:1015A0006C2F86E893E00E942003CF910C94610A8F
:1015B0009091940321E02093C0029093E102109255
:1015C000830310928203682F86E893E00E94200331
:1015D0000E94610A80919403909181039111FCCF44
:1015E00091E090938103909380032FEF2093BF02AB
:1015F0001092BE021092BD0290939C0290919C02A8
:10160000880F892B80939C0280917F03813061F445
:1016100010927F0380919C028093BB008091BC005C
:1016200083FDF8CF85EC01C085EE8093BC008091EE
:1016300081038130E1F38091BE02811103C080916A
:10164000BE0201C081E0ADE9B2E02CE732E0F90171
:101650009E2F921B981718F49D919193F9CF109299
:1016600085038093840386E893E00E94D402089562
:10167000FF920F931F93CF93DF9385E00E94D80AC8
:10168000082F10E086E0159507958A95E1F781E12E
:101690000E94D80AF82E80E10E94D80AC82FF016BE
:1016A00059F00F1528F4CC5F6C2F80E10E94BE0A20
:1016B000602F81E10E94BE0A2C2F30E0C9018452C4
:1016C000984F800F911FDF91CF911F910F91FF9045
:1016D000089580E00E94D80A682F606880E00C942A
:1016E000BE0A80E00E94D80A682F6F7780E00C94D1
:1016F000BE0ACF92DF92EF92FF920F931F93CF9388
:1017000080919503909196030E94010A809197031E
:10171000909198030E94010A83EC90E00197F1F701
:1017200080E090E00E940B0A8FE090E00197F1F7D3
:1017300081E090E00E940B0A00E010E0C0E0C12CC4
:10174000D12C7601C3940E94490A892B61F0D701FC
:10175000C601002E04C0880F991FAA1FBB1F0A9440
:10176000D2F7C82B0CC0D701C601002E04C0880FC9
:10177000991FAA1FBB1F0A94D2F78095C8230F5F39
:101780001F4F08301105F9F60E94490A0E94490AC4
:1017900080919503909196030E94F7098C2FCF9129
:1017A0001F910F91FF90EF90DF90CF900895BF921F
:1017B000CF92DF92EF92FF920F931F93CF93DF931D
:1017C000C82E80919703909198030E94010A8091FE
:1017D0009503909196030E94010ACBEAD4E0CE01D2
:1017E0000197F1F780919503909196030E94F70974
:1017F0002197F1F780919703909198030E94F70940
:1018000083E290E00197F1F7809195039091960320
:101810000E94010A80E090E00E940B0AB82E882303
:1018200009F43FC0EE24E394F12CC0E0D0E00C2C8E
:10183000000CDD0886010C2E02C0159507950A9450
:10184000E2F701701127C8010E94340AE026F12650
:101850002196C830D10571F7C7010E94340A8091E2
:101860009703909198030E94010A83EC90E00197FE
:10187000F1F780E090E00E940B0A809195030E94AE
:10188000B604892BD1F3809197030E94B604892B6B
:10189000A1F380919503909196030E94F7090E940D
:1018A000790B8B2DDF91CF911F910F91FF90EF90CE
:1018B000DF90CF90BF900895CF93DF93EC0183EF3B
:1018C00090E00E94D70BCE01DF91CF910C94D70B03
:1018D000CF9380919503909196030E94010A809185
:1018E0009703909198030E94010A8FEF90E00E9465
:1018F000D70BC82F8823A1F10E94790B0E94790B86
:1019000088EC90E00E945C0C84E690E00E945C0C05
:1019100080E590E00E945C0C82EF90E00E94D70B83
:101920000E94790B91E0833009F090E09093990345
:1019300088EE90E00E94D70B83E090E00E94D70BE6
:1019400086EE90E00E94D70B88E290E00E945C0C4B
:1019500080EF90E00E94D70B8BE891E00197F1F7C0
:101960008C2FCF91089542E050E06FE371E082EE5A
:1019700092E00C943D018F929F92AF92BF920F9391
:101980001F93CF93DF93CDB7DEB7A1970FB6F8942F
:10199000DEBF0FBECDBF19A2423008F44AE08E016F
:1019A0000F5D1F4F842E912CA12CB12CA501940109
:1019B0000E943B19E62FB901CA0101501109EA3012
:1019C00014F4E05D01C0E95CD801EC93232B242BD7
:1019D000252B61F70115110571F0F8010190002028
:1019E000E9F73197AF01401B510BB80182EE92E04D
:1019F0000E943D0102C080E090E0A1960FB6F894ED
:101A0000DEBF0FBECDBFDF91CF911F910F91BF9071
:101A1000AF909F908F9008950F931F93CF93DF9374
:101A20008C01C0E0D0E0F801EC0FFD1F649166234B
:101A300071F0E091E202F091E3020190F081E02D7B
:101A400082EE92E00995892B11F02196ECCFCE0120
:101A5000DF91CF911F910F910895CF92DF92EF9276
:101A6000FF92CF93DF936B017C01E091E202F09152
:101A7000E3020190F081E02D6DE282EE92E00995A3
:101A8000EC0166277727CB016C197D098E099F0928
:101A90004AE00E94BB0C8C0F9D1FDF91CF91FF90FD
:101AA000EF90DF90CF9008950F931F93CF93DF9324
:101AB000FC01248135812115310519F4FB011082C7
:101AC00011C0EA0121972C173D0708F4E9018B01A9
:101AD000FC0160817181AE01C8010E94781BC00FBA
:101AE000D11F1882DF91CF911F910F910895CF934D
:101AF000DF930E940C0DEC010E94B30C8C0F9D1F14
:101B0000DF91CF910895CF93DF93682F70E080E04D
:101B100090E04AE00E94BB0CEC010E94B30C8C0FD9
:101B20009D1FDF91CF910895CF93DF93CDB7DEB79F
:101B3000E0970FB6F894DEBF0FBECDBF789484B5A2
:101B4000826084BD84B5816084BD85B5826085BDB9
:101B500085B5816085BD80916E00816080936E0047
:101B60001092810080918100826080938100809139
:101B700081008160809381008091800081608093EA
:101B800080008091B10084608093B1008091B000AA
:101B900081608093B00080917A00846080937A00A5
:101BA00080917A00826080937A0080917A008160CF
:101BB00080937A0080917A00806880937A001092F6
:101BC000C100E091F202F091F30282E08083E091A3
:101BD000EE02F091EF021082E091F002F091F1023A
:101BE00080E180831092FA02E091F602F091F70210
:101BF00086E08083E091F402F091F50280818061BB
:101C00008083E091F402F091F50280818860808306
:101C1000E091F402F091F502808180688083E09188
:101C2000F402F091F50280818F7D808382EE92E054
:101C30000E9417021FB7F89480918501811127C077
:101C4000E0E9F0E08491ECE7F0E09491E82FF0E037
:101C5000EE0FFF1FE859FF4FA591B491EC91E923D6
:101C600021F461E08AE00E94DF0461E08AE00E94E2
:101C70000F058CB580618CBD8CB580648CBD61E036
:101C80008DE00E940F0561E08BE00E940F058091BE
:101C900085018F5F809385011FBF61E087E00E940F
:101CA0000F0561E087E00E94DF0461E086E00E94AA
:101CB0000F0561E086E00E94DF0462E082E00E949E
:101CC0000F0562E084E00E940F0562E083E00E945D
:101CD0000F0562E085E00E940F0561E08AE00E9446
:101CE0000F0561E08AE00E94DF0461E089E00E9464
:101CF0000F0561E089E00E94DF0461E088E00E9456
:101D00000F0561E088E00E94DF0462E08FE00E943E
:101D10000F0561E08EE00E940F05E5E5F1E011920C
:101D200001E0EE37F007D9F76091860180E090E09E
:101D30000E944108809386016091040181E090E057
:101D40000E944108809304016091860181E0682728
:101D500089E00E94DF048BEB90E00E94770D0E94E7
:101D6000E00984E08093420162E082E00E940F0576
:101D700062E084E00E940F0510925301109254011A
:101D800081E995E0909301018093000180916900C1
:101D90008C7F826080936900E89A0E94680C80932F
:101DA0001B020E94380B909384018093830186E08C
:101DB0000E94D80A982F9695969596959270292FFD
:101DC000220F220F920F8F70890F8093820185E07E
:101DD0000E94D80A982F9695969596959670292FD9
:101DE000220F220F920F8F70890F8093810184E060
:101DF0000E94D80A982F9695969596959670292FB9
:101E0000220F220F920F8F70890F8093800183E041
:101E10000E94D80A982F9695969596959E70292F90
:101E2000220F220F920F8F70890F80937F0182E023
:101E30000E94D80A982F9695969596959E70292F70
:101E4000220F220F920F8F70890F80937E010E94C4
:101E50007E098AE990E00E94770D60E086E00E94AA
:101E6000DF040E9485056B017C010E94DA0788234C
:101E700009F4AEC50E94DA07811102C08FEF12C0CB
:101E8000E091540180915301E817C1F3EF5FE03115
:101E900008F0E0E0E0935401F0E0ED5BFE4F80815C
:101EA000882361F3082F10E0BB24B394B09224027E
:101EB000C0922002D0922102E0922202F0922302EC
:101EC00061E086E00E94DF04003E110519F4B09243
:101ED0008D017EC5013E110529F4B0928D01B092AD
:101EE0008C0176C5003F110539F480918B01811179
:101EF00003C0B0928B016CC580918D01811107C028
:101F000080918C01811103C080E090E002C080E0EC
:101F100091E0800F911F8534910509F4B6C30CF050
:101F200031C18332910509F435C30CF098C08E306D
:101F3000910509F441C40CF04FC08730910509F4B4
:101F4000C6C42CF58430910509F48BC484F4813027
:101F5000910509F4AAC4039709F0E3C490918B0199
:101F600081E089278093670180937D01DAC4853001
:101F7000910509F46DC4069709F0D3C490918B01C3
:101F800081E0892780937C0180937D01CAC48B30D6
:101F9000910509F478C484F48930910509F48EC45C
:101FA0000A9709F0BEC490918B0181E08927809344
:101FB0007B0180937D01B5C48C30910509F45AC42E
:101FC0000D9709F0AEC490918B0181E08927809331
:101FD000550180936A01A5C48A31910509F44EC365
:101FE000DCF48431910509F423C244F48131910574
:101FF00009F432C2429709F409C293C485319105AC
:1020000009F412C3469709F08CC490918B0181E0CA
:1020100089278093580185C48D31910509F420C327
:1020200074F48B31910509F406C34C9709F079C417
:1020300090918B0181E089278093560172C481328F
:10204000910509F4A0C20CF012C34E9709F069C4BF
:1020500090918B0181E089278093600162C4833372
:10206000910509F4B3C20CF047C08B32910509F415
:102070009FC20CF58632910509F40EC374F48432C4
:10208000910509F48EC2859709F04BC490918B019C
:1020900081E089278093700144C48932910509F455
:1020A0006BC28A9709F03DC490918B0181E089272A
:1020B0008093750136C48E32910509F4F4C274F42C
:1020C0008C32910509F4BEC28D9709F02AC4909113
:1020D0008B0181E0892780936F0123C481339105AF
:1020E00009F48EC2C29709F01CC490918B0181E063
:1020F000892780937C0115C48C33910509F4A9C20A
:102100000CF58633910509F4D5C274F48433910536
:1021100009F455C2C59709F004C490918B0181E080
:10212000892780937A01FDC38A33910509F461C23E
:10213000CB9709F0F6C390918B0181E089278093BA
:102140007301EFC38134910509F4F7C274F48D3340
:10215000910509F4B6C2CE9709F0E3C390918B01C3
:1021600081E0892780936901DCC320918B0183344E
:10217000910509F432C20CF04AC281E082278093B3
:102180006B01CFC38537910509F4C9C20CF09CC01F
:102190008935910509F43AC10CF04BC08D34910595
:1021A00009F43BC2FCF48A34910509F4E1C24CF411
:1021B0008634910509F48CC28934910509F4C6C2AC
:1021C000B0C38B34910509F40DC28C34910509F02C
:1021D000A8C390918B0181E089278093640180934B
:1021E00062019FC38435910509F4B9C28CF48E3421
:1021F000910509F4D8C28235910509F092C39091F6
:102200008B0181E089278093640180935A0189C3FF
:102210008535910509F4BEC28835910509F081C361
:1022200090918B0181E0892780936401809355010F
:1022300078C38B36910509F459C22CF58D3591057B
:1022400009F49FC28CF48A35910509F48EC18B354F
:10225000910509F066C390918B0181E089278093F5
:102260006401809372015DC38636910509F472C1E1
:102270008936910509F055C390918B0181E089273A
:10228000809358014EC38137910509F45FC27CF4F5
:102290008C36910509F43CC28037910509F041C3A1
:1022A00090918B0181E08927809359013AC3209155
:1022B0008B018337910509F420C20CF023C281E021
:1022C0008227809360012DC3843111E0910709F4C6
:1022D000AFC00CF044C08C37910509F476C23CF5D0
:1022E0008937910509F47AC28CF48637910509F48F
:1022F0001DC18837910509F014C390918B0181E0CD
:10230000892780935701809364010BC38A37910515
:1023100009F4E5C18B37910509F003C390918B0156
:1023200081E089278093640180937301FAC2833826
:10233000910509F4B1C24CF48D37910509F4F6C149
:102340008E37910509F4CCC2ECC2813131E093079C
:1023500009F498C08231914009F4D5C2E2C28037B5
:1023600051E0950709F4BCC014F5893611E09107D6
:1023700009F465C254F48A3431E0930709F4F8C1D2
:102380008A35914009F4F1C0CCC28B3651E09507F3
:1023900009F4BAC08C36914009F0C3C290918B0108
:1023A00081E0892780936B0180937D01BAC28437D5
:1023B00011E0910709F4B1C094F4813731E093073B
:1023C00009F476C08237914009F0ABC290918B013D
:1023D00081E089278093550180937901A2C28A37D1
:1023E00051E0950709F417C28D3701E0900709F411
:1023F000FEC18537914009F094C290918B0181E034
:10240000892780935501809371018BC280910401CB
:10241000811103C080E090E002C08FE090E0FC01F9
:10242000EB5AFE4F30918B0121E02327208379C2A4
:1024300080910401811103C02FE030E002C020E050
:1024400030E090918B0181E08927F901EB5AFE4F32
:10245000808380938A0165C290918B0181E08927F6
:102460008093640190910401911103C020E030E059
:1024700002C026E030E0F901EB5AFE4F80838093E2
:1024800089014FC290918B0181E08927809364017B
:1024900090910401911103C020E030E002C027E0D8
:1024A00030E0F901EB5AFE4F80838093890139C2F5
:1024B0008091040190918B01882339F081E0892774
:1024C00080935A0180937D0106C081E08927809323
:1024D000640180936D0181E089278093880121C286
:1024E0009091040180918B01992339F091E0892723
:1024F0008093620180937D0114C291E089278093CB
:102500006401809356010DC290918B0181E089276F
:10251000809355018093780104C290918B0181E0F2
:1025200089278093550180936901FBC120918B011C
:1025300081E028272093550180910401811103C077
:1025400087E090E002C083E090E0FC01EB5AFE4F90
:102550002083E7C190918B0181E089278093550109
:102560008093590180938701DCC190918B0181E0B8
:10257000892780935B01D5C190918B0181E08927E8
:1025800080935C01CEC190918B0181E0892780937B
:102590006D01C7C190918B0181E08927809366010D
:1025A000C0C190918B0181E0892780936701B9C1F7
:1025B00090918B0181E0892780936E01B2C1909147
:1025C0008B0181E0892780937601ABC190918B01CB
:1025D00081E0892780937B01A4C181E082278093D9
:1025E0006A019FC190918B0181E0892780936301EB
:1025F00098C190918B0181E0892780936C0191C1F2
:1026000090918B0181E08927809374018AC191E0C8
:10261000822F89278093620184C190918B0181E090
:10262000892780935A017DC190918B0181E0892790
:102630008093570176C190918B0181E08927809327
:102640005E016FC190918B0181E0892780937701B2
:1026500068C190918B0181E089278093720161C1EB
:1026600090918B0181E0892780935F015AC19091FD
:102670008B0181E089278093650153C190918B0183
:1026800081E0892780935D014CC190918B0181E0AD
:1026900089278093590145C190918B0181E0892759
:1026A000809368013EC190918B0181E089278093DE
:1026B000780137C190918B0181E08927809379015E
:1026C00030C190918B0181E089278093710129C1EC
:1026D00090918B0181E089278093610122C19091C3
:1026E0008B0181E08927809368011BC190918B0148
:1026F00081E089278093700114C181E08227809353
:1027000078010FC191E0822F89278093790109C157
:1027100090918B0181E089278093710102C1909192
:102720008B0181E0892780936901FBC090918B0127
:1027300081E0892780936101F4C090918B0181E051
:1027400089278093640180937401EBC090918B0181
:1027500081E089278093640180936C01E2C09091AD
:102760008B0181E089278093640180937A01D9C02D
:1027700090918B0181E0892780936401809375019A
:10278000D0C090918B0181E0892780936401809370
:102790006601C7C090918B0181E089278093640115
:1027A00080936301BEC090918B0181E08927809363
:1027B000640180937301B5C090918B0181E08927FA
:1027C0008093640180937101ACC090918B0181E092
:1027D00089278093640180937C01A3C090918B0131
:1027E00081E089278093640180936B019AC0909166
:1027F000040180918B01992339F091E0892780931E
:102800006C0180937D018DC091E0892780935501F3
:102810008093680186C09091040180918B01992377
:1028200039F091E089278093740180937D0179C00C
:1028300091E08927809355018093700172C0909137
:102840008B0181E089278093630180937D0169C0BA
:1028500090918B0181E089278093560180937D01BF
:1028600060C090918B0181E0892780936D018093F6
:102870007D0157C090918B0181E08927809366018B
:1028800080937D014EC090918B0181E089278093D8
:102890006E0180937D0145C090918B0181E0892775
:1028A0008093760180937D013CC090918B0181E003
:1028B000892780936A0180937D0133C090918B01B9
:1028C00081E089278093730180937D012AC09091D4
:1028D0008B0181E0892780935F018093640121C08F
:1028E00080918B018823E9F06091860111E0162721
:1028F0001093860189E00E94DF04612F80E090E060
:102900000E941F080EC080918B01882351F06091B6
:10291000040181E068276093040181E090E00E9457
:102920001F0880918A01882381F080918901882382
:1029300061F080918801882341F010928A01109201
:102940008901109288010E94E00980918A01882300
:10295000A1F180918901882381F1809187018823E9
:1029600061F110928A011092890110928701E5E5C8
:10297000F1E0119221E0EE37F207D9F70E949C09AD
:1029800060E08AE00E94DF0481E080935E010E94A3
:102990009C0964EF71E080E090E00E944B0561E0EB
:1029A0008AE00E94DF040E949C0964EF71E080E0ED
:1029B00090E00E944B0510925E0110928B01809175
:1029C0008C01882319F010928C0102C010928D01A5
:1029D0000E949C098091200290912102A0912202E4
:1029E000B091230297018601081B190B2A0B3B0BA0
:1029F000083C11052105310530F060E086E00E94B9
:102A0000DF041092240280911C0290911D02A0917B
:102A10001E02B0911F02A7019601281B390B4A0B19
:102A20005B0BDA01C901883E9340A105B10508F4AA
:102A300060C00E94380B909384018093830186E0EC
:102A40000E94D80A982F9695969596959270292F60
:102A5000220F220F920F8F70890F8093820185E0E1
:102A60000E94D80A982F9695969596959670292F3C
:102A7000220F220F920F8F70890F8093810184E0C3
:102A80000E94D80A982F9695969596959670292F1C
:102A9000220F220F920F8F70890F8093800183E0A5
:102AA0000E94D80A982F9695969596959E70292FF4
:102AB000220F220F920F8F70890F80937F0182E087
:102AC0000E94D80A982F9695969596959E70292FD4
:102AD000220F220F920F8F70890F80937E010E9428
:102AE0007E09C0921C02D0921D02E0921E02F0925A
:102AF0001F0280910601909107011816190654F5DE
:102B000020911B02211126C04091170250911802FA
:102B10006091190270911A0297018601041B150B2E
:102B2000260B370BB901A801493E534061057105D9
:102B300088F0019790930701809306010E94680C2A
:102B400080931B02C0921702D0921802E0921902E1
:102B5000F0921A0280911B02882309F472C08091BE
:102B6000130290911402A0911502B0911602A701D0
:102B70009601281B390B4A0B5B0B253631054105A5
:102B8000510508F45EC08BEE90E00E94D70B0E94C6
:102B9000790BB82E0E94790B082F0E94790B182F01
:102BA00080919903882331F00E94790B282F880F98
:102BB000330B02C020E030E04091120291E049273F
:102BC0004093120200931102109310029B2D9270F9
:102BD0005B2D5470B0FE02C0206101C02F7E209397
:102BE0000F0280910F02992311F0806201C08F7D46
:102BF00080930F0290910F02552311F0906401C051
:102C00009F7B90930F0290910F02442311F09068E4
:102C100001C09F7790930F02602F8AE00E943409D1
:102C2000612F8BE00E94340960910F028CE00E94BA
:102C30003409C0921302D0921402E0921502F0926D
:102C4000160282EE92E00E949901892B29F480916C
:102C50000501811119C225C011E082EE92E00E94A7
:102C60009901892BA1F382EE92E00E9477018A30CC
:102C700031F08D3021F0E0910E02E7FF03C0109299
:102C80000501EBCF10930501AE2FB0E0A257BE4F68
:102C90008C93EF5FE0930E02F0E0E257FE4F10825C
:102CA000DCCF6EE871E0CE018B960E94E40362E314
:102CB00071E0CE0101960E94E403BE016F5F7F4F79
:102CC000CE018B960E9495038C01CE0101960E9445
:102CD000C503012B59F486EF91E00E94770D81ED39
:102CE00091E00E94770D83E991E0BFC167E371E055
:102CF000CE0101960E94E403BE016F5F7F4FCE01BB
:102D00008B960E9495038C01CE0101960E94C5030B
:102D1000012B09F057C08EE891E00E94770D8DE7F6
:102D200091E00E94770D6091830170918401072EDC
:102D3000000C880B990B97FF03C00E942D0D03C058
:102D40004AE00E94BB0C87EE90E00E940C0D60915F
:102D5000820170E080E090E04AE00E94BB0C85EECA
:102D600090E00E940C0D6091810170E080E090E0A5
:102D70004AE00E94BB0C83EE90E00E940C0D609133
:102D8000800170E080E090E04AE00E94BB0C81EEA0
:102D900090E00E940C0D60917F0170E080E090E077
:102DA0004AE00E94BB0C8FED90E00E940C0D6091F8
:102DB0007E0170E080E090E04AE00E94BB0C0E943F
:102DC000B30C55C16BE371E0CE0101960E94E403A0
:102DD0008FA598A9892B71F00BA51CA569817A8113
:102DE000C8010E94871B009729F0AC01401B510BC2
:102DF0008A0102C00FEF1FEFCE0101960E94C503AA
:102E0000012B09F036C18FA598A9479709F02BC16E
:102E100028E030E044E050E0BE01655D7F4FCE0128
:102E200085960E94F9032BE030E049E050E0BE01B6
:102E3000655D7F4FCE014F960E94F9032EE030E092
:102E40004CE050E0BE01655D7F4FCE0149960E9487
:102E5000F90321E130E04FE050E0BE01655D7F4FB6
:102E6000CE0143960E94F90324E130E042E150E0B4
:102E7000BE01655D7F4FCE010D960E94F90327E1EB
:102E800030E045E150E0BE01655D7F4FCE01079621
:102E90000E94F903BE016B5D7F4FCE0101960E9437
:102EA000CA03EDB6FEB64D815E814F5F5F4F8DB7B1
:102EB0009EB7841B950B0FB6F8949EBF0FBE8DBFB7
:102EC0000DB71EB70F5F1F4F4115510541F001159A
:102ED000110529F0B801CE0101960E94540DC801D8
:102EE0000E94BC180FB6F894FEBE0FBEEDBE9093C4
:102EF000840180938301CE0101960E94C503BE0127
:102F0000615E7F4FCE0101960E94CA03CE010196F9
:102F10000E94EB0780938201CE0101960E94C503B7
:102F2000BE01675E7F4FCE0101960E94CA03CE01AB
:102F300001960E94EB0780938101CE0101960E94C9
:102F4000C503BE016D5E7F4FCE0101960E94CA038C
:102F5000CE0101960E94EB0780938001CE0101967D
:102F60000E94C503BE01635F7F4FCE0101960E94A0
:102F7000CA03CE0101960E94EB0780937F01CE0128
:102F800001960E94C503BE01695F7F4FCE01019685
:102F90000E94CA03CE0101960E94EB0780937E0136
:102FA000CE0101960E94C5030E946E0886E791E05B
:102FB0000E940C0D6091830170918401072E000C1A
:102FC000880B990B97FF03C00E942D0D03C04AE0A8
:102FD0000E94BB0C0E94B30C8EE691E00E940C0D87
:102FE000809182010E94830D88E691E00E940C0D81
:102FF000809181010E94830D80E691E00E940C0D7A
:10300000809180010E94830D86E591E00E940C0D65
:1030100080917F010E94830D8CE491E00E940C0D51
:1030200080917E010E94830D80E491E00E94770DE3
:103030000E94B30CCE0107960E94C503CE010D96E7
:103040000E94C503CE0143960E94C503CE01499656
:103050000E94C503CE014F960E94C503CE018596FE
:103060000E94C50306C089EE90E00E94770D0E9481
:10307000B30CCE018B960E94C50310920E021092E3
:103080008E0181E0809305010E9439020C94310F7A
:10309000CF93DF93E2EEF2E01382128288EE93E0A8
:1030A000A0E0B0E084839583A683B78322E131E07A
:1030B0003183208325EC30E03587248724EC30E011
:1030C0003787268720EC30E0318B208B21EC30E0F5
:1030D000338B228B22EC30E0358B248B26EC30E0D6
:1030E000378B268B118E128E138E148EE6E8F3E04A
:1030F0001382128284839583A683B78384E291E04E
:1031000091838083E5E9F3E083E090E0918380831D
:1031100085E090E0938382831482D0E5D09394037A
:1031200010928503109284031092830310928203FD
:1031300010928103C1E0C093800310927F0361E08D
:1031400082E10E94DF0461E083E10E94DF04E9EB99
:10315000F0E080818E7F808380818D7F808388E412
:103160008093B80085E48093BC00E2E9F3E0D0836B
:10317000C183DF91CF910895FC0188279927E894B6
:1031800021912032E9F3293010F02E30C8F32B3290
:1031900041F02D3239F4689404C00E94DA18820F8D
:1031A000911D219120532A30C0F31EF490958195F2
:1031B0009F4F08957AE0979F902D879F802D910DC6
:1031C00011240895F999FECF92BD81BDF89A9927EF
:1031D00080B50895262FF999FECF1FBA92BD81BD03
:1031E00020BD0FB6F894FA9AF99A0FBE0196089589
:1031F0002F923F924F925F926F927F928F929F9207
:10320000AF92BF92CF92DF92EF92FF920F931F93F4
:10321000CF93DF93CDB7DEB7CA1BDB0B0FB6F894A5
:10322000DEBF0FBECDBF09942A88398848885F84E5
:103230006E847D848C849B84AA84B984C884DF8056
:10324000EE80FD800C811B81AA81B981CE0FD11D3A
:103250000FB6F894DEBF0FBECDBFED010895991BE8
:1032600079E004C0991F961708F0961B881F7A957D
:10327000C9F780950895A1E21A2EAA1BBB1BFD0178
:103280000DC0AA1FBB1FEE1FFF1FA217B307E40745
:10329000F50720F0A21BB30BE40BF50B661F771F9D
:1032A000881F991F1A9469F760957095809590957D
:1032B0009B01AC01BD01CF010895EE0FFF1F0590EA
:1032C000F491E02D0994CF93DF938230910510F4AF
:1032D00082E090E0E0919C03F0919D0320E030E0DB
:1032E000C0E0D0E0309711F1408151814817590773
:1032F000C0F04817590761F482819381209719F033
:103300009B838A832BC090939D0380939C0326C04C
:103310002115310519F04217530718F49A01BE011F
:10332000DF01EF010280F381E02DDCCF21153105B3
:1033300009F1281B390B2430310590F412968D9138
:103340009C9113976115710521F0FB019383828392
:1033500004C090939D0380939C03FD01329644C06A
:10336000FD01E20FF31F81939193225031092D93B8
:103370003C933AC020919A0330919B03232B41F454
:1033800020910A0130910B0130939B0320939A0303
:1033900020910801309109012115310541F42DB723
:1033A0003EB740910C0150910D01241B350BE0916B
:1033B0009A03F0919B03E217F307A0F42E1B3F0B37
:1033C0002817390778F0AC014E5F5F4F2417350797
:1033D00048F04E0F5F1F50939B0340939A038193D5
:1033E000919302C0E0E0F0E0CF01DF91CF9108952A
:1033F0000F931F93CF93DF93009709F48CC0FC01C8
:1034000032971382128200919C0310919D03011543
:10341000110581F420813181820F931F20919A033D
:1034200030919B032817390779F5F0939B03E093BC
:103430009A0371C0D80140E050E0AE17BF0750F4C6
:1034400012962D913C911397AD012115310509F18B
:10345000D901F3CF9D01DA01338322836081718129
:10346000860F971F8217930769F4EC012881398131
:10347000260F371F2E5F3F4F318320838A819B8128
:1034800093838283452B29F4F0939D03E0939C035F
:1034900042C01396FC93EE931297ED014991599116
:1034A0009E01240F351FE217F30771F4808191818B
:1034B000840F951F029611969C938E93828193811F
:1034C00013969C938E931297E0E0F0E0D801129649
:1034D0008D919C911397009719F0F8018C01F6CF0C
:1034E0008D919C9198012E5F3F4F820F931F2091E9
:1034F0009A0330919B032817390769F4309729F410
:1035000010929D0310929C0302C0138212821093AA
:103510009B0300939A03DF91CF911F910F91089520
:10352000A0E0B0E0E6E9FAE10C94FC18EC010097A9
:1035300021F4CB010E946319B8C0FC01E60FF71F0C
:103540009C0122503109E217F30708F4ACC0D901FD
:103550000D911C91119706171707B0F00530110552
:1035600008F49FC0C80104978617970708F499C00C
:1035700002501109061B170B019311936D937C9355
:10358000CF010E94F8198DC05B01A01AB10A4C014D
:10359000800E911EA0919C03B0919D0340E050E0ED
:1035A000E12CF12C109709F44AC0A815B905D1F502
:1035B0006D907C901197630182E0C80ED11CCA14F3
:1035C000DB0480F1A3014A195B096A0182E0C80E9D
:1035D000D11C1296BC9012971396AC91B5E0CB1605
:1035E000D10440F0B282A38351834083D9016D930B
:1035F0007C930AC00E5F1F4FC301800F911FF9011A
:1036000091838083EB2DFA2FE114F10431F0D7017F
:103610001396FC93EE93129744C0F0939D03E093AE
:103620009C033FC08D919C9111974817590708F44E
:10363000AC017D0112960D90BC91A02DB3CF80916D
:103640009A0390919B0388159905E1F44617570753
:10365000C8F48091080190910901009741F48DB759
:103660009EB740910C0150910D01841B950BE817FA
:10367000F907C8F4F0939B03E0939A03F90171836F
:1036800060830FC0CB010E9463197C01009759F041
:10369000A801BE010E945F1BCE010E94F819C7015C
:1036A00004C0CE0102C080E090E0CDB7DEB7EEE00E
:1036B0000C94181981E090E0F8940C94A11BFB0184
:1036C000DC0102C001900D9241505040D8F708959E
:1036D000FB01DC018D91019080190110D9F3990B48
:1036E0000895FB01DC0101900D920020E1F708959F
:1036F000FB01DC014150504048F001900D92002048
:10370000C9F701C01D9241505040E0F70895FB01F8
:1037100051915523A9F0BF01DC014D91451741118D
:10372000E1F759F4CD010190002049F04D91401589
:103730004111C9F3FB014111EFCF81E090E0019706
:063740000895F894FFCF8C
:10374600910291020101020000009E038000000028
:103756000000D0013D0168011702990177018B0134
:10376600000000002003F0025003C402E802D40265
:10377600C50248454C500047455400534554000D7A
:023786000A0037
:00000001FF
