:100000000C9483000C94E1030C94BA030C94AB00A1
:100010000C94AB000C94AB000C94AB000C94AB00B4
:100020000C94AB000C94AB000C94AB000C94AB00A4
:100030000C94AB000C94AB000C94AB000C94AB0094
:100040000C9470030C94AB000C941A020C94F40101
:100050000C94AB000C94AB000C94AB000C94AB0074
:100060000C94AB000C94AB000000000024002700AF
:100070002A0000000000250028002B0000000000DE
:1000800023002600290004040404040404040202DA
:100090000202020203030303030301020408102007
:1000A0004080010204081020010204081020000012
:1000B0000008000201000003040700000000000027
:1000C00000004D6F7573652070726573656E740006
:1000D0004D6F75736520646F6573206E6F74206556
:1000E0007869737473005A58204B6579626F617236
:1000F000642076312E300009773D0009793D0009F2
:10010000783D0000660D11241FBECFEFD8E0DEBFA2
:10011000CDBF11E0A0E0B1E0EAE9FBE102C005904B
:100120000D92AA31B107D9F722E0AAE1B1E001C0EE
:100130001D92AC32B207E1F710E0C3E8D0E004C092
:100140002197FE010E94C00DC238D107C9F70E9455
:1001500028060C94CB0D0C940000CF92DF92EF9206
:10016000FF920F931F93CF93DF936C017A018B0162
:10017000C0E0D0E0CE15DF0589F0D8016D918D018A
:10018000D601ED91FC910190F081E02DC601099519
:10019000892B11F47E0102C02196ECCFC701DF91BB
:1001A000CF911F910F91FF90EF90DF90CF90089526
:1001B000089580E090E00895FC01538D448D252F33
:1001C00030E0842F90E0821B930B541710F0CF96F1
:1001D000089501970895FC01918D828D981761F023
:1001E000828DDF01A80FB11D5D968C91928D9F5F6E
:1001F0009F73928F90E008958FEF9FEF0895FC0119
:10020000918D828D981731F0828DE80FF11D858DCB
:1002100090E008958FEF9FEF0895FC01918D228D5E
:10022000892F90E0805C9F4F821B91098F739927E3
:1002300008958AE891E00E940D0121E0892B09F4DC
:1002400020E0822F0895FC01848DDF01A80FB11DED
:10025000A35ABF4F2C91848D90E001968F739927FC
:10026000848FA689B7892C93A089B1898C918064E9
:100270008C93938D848D981306C00288F389E02DAA
:1002800080818F7D80830895EF92FF920F931F935B
:10029000CF93DF93EC0181E0888F9B8D8C8D981339
:1002A00005C0E889F989808185FD24C0F62E0B8D73
:1002B00010E00F5F1F4F0F731127E02E8C8DE81297
:1002C0000CC00FB607FCFACFE889F989808185FF59
:1002D000F5CFCE010E942301F1CF8B8DFE01E80FF7
:1002E000F11DE35AFF4FF0820B8FEA89FB89808171
:1002F000806207C0EE89FF896083E889F98980817F
:100300008064808381E090E0DF91CF911F910F9115
:10031000FF90EF900895CF93DF93EC01888D8823B1
:10032000C9F0EA89FB89808185FD05C0A889B98962
:100330008C9186FD0FC00FB607FCF5CF808185FF3D
:10034000F2CFA889B9898C9185FFEDCFCE010E94AB
:100350002301E7CFDF91CF91089580E090E0892BD2
:1003600029F00E94190181110C9400000895833036
:1003700081F028F4813099F08230A1F0089587301F
:10038000A9F08830B9F08430D1F4809180008F7D5D
:1003900003C0809180008F7780938000089584B59A
:1003A0008F7702C084B58F7D84BD08958091B000A1
:1003B0008F7703C08091B0008F7D8093B000089547
:1003C000089590913C0180913B01981749F08091EC
:1003D0003C0190913B01891B87FF03C0805F08951A
:1003E00080E008950E94C60D1F920F920FB60F92E3
:1003F00011242F933F934F935F936F937F938F932A
:100400009F93AF93BF93EF93FF938AE891E00E948D
:100410002301FF91EF91BF91AF919F918F917F91B8
:100420006F915F914F913F912F910F900FBE0F9061
:100430001F9018951F920F920FB60F9211242F93B1
:100440008F939F93EF93FF93E0919A01F0919B011B
:100450008081E091A001F091A10182FD12C0908104
:100460008091A3018F5F8F732091A401821751F0B7
:10047000E091A301F0E0E657FE4F958F8093A30132
:1004800001C08081FF91EF919F918F912F910F90EB
:100490000FBE0F901F901895CF93DF93282F30E059
:1004A000F901E255FF4F8491F901E656FF4FD491CF
:1004B000F901EA57FF4FC491CC2391F081110E94BA
:1004C000B701EC2FF0E0EE0FFF1FE458FF4FA591AE
:1004D000B491EC91ED2381E090E021F480E002C042
:1004E00080E090E0DF91CF9108951F93CF93DF9349
:1004F000282F30E0F901E255FF4F8491F901E656CB
:10050000FF4FD491F901EA57FF4FC491CC23C9F0B2
:10051000162F81110E94B701EC2FF0E0EE0FFF1FA4
:10052000EE58FF4FA591B4918FB7F894111105C003
:100530009C91ED2FE095E92302C0EC91ED2BEC931B
:100540008FBFDF91CF911F910895CF93DF9390E0FC
:10055000FC01E656FF4F2491FC01EA57FF4F8491BE
:10056000882361F190E0880F991FFC01E859FF4F43
:10057000C591D491FC01EE58FF4FA591B491611142
:1005800009C09FB7F8948881209582238883EC91D5
:100590002E230BC0623061F49FB7F8943881822F0C
:1005A000809583238883EC912E2B2C939FBF06C0CC
:1005B0008FB7F894E8812E2B28838FBFDF91CF91DE
:1005C00008952FB7F89460912601709127018091CA
:1005D0002801909129012FBF0895CF92DF92EF92C9
:1005E000FF920F931F93CF9380912A010E944C0298
:1005F000C82F0E94E10200911D0110911E0120915F
:100600001F01309120016B017C01C01AD10AE20A5E
:10061000F30A970186010B3F11052105310510F002
:1006200010921C0160931D0170931E0180931F01A5
:100630009093200190911C019F5F90931C019A3030
:1006400050F4923068F4913009F040C010921B01D0
:1006500010921A013DC09A30B1F09B3001F136C0C2
:1006600080911A018C0F80931A0120911B0130E0B8
:1006700035952795C11102C080E001C080E8282B84
:1006800020931B0125C090911A0191709C1719F0BD
:1006900090931A011DC08DEF80931A0119C08091AB
:1006A0001A018D3F98F480913B018F5F803108F0F3
:1006B00080E090913C01891749F0E82FF0E090919B
:1006C0001B01E55DFE4F908380933B0110921C015E
:1006D000CF911F910F91FF90EF90DF90CF900895F1
:1006E0001F920F920FB60F9211242F933F938F9367
:1006F0009F93AF93BF938091260190912701A09182
:100700002801B09129013091250123E0230F2D37D5
:1007100020F40196A11DB11D05C026E8230F029605
:10072000A11DB11D209325018093260190932701DF
:10073000A0932801B0932901809121019091220179
:10074000A0912301B09124010196A11DB11D8093B8
:10075000210190932201A0932301B0932401BF9122
:10076000AF919F918F913F912F910F900FBE0F905E
:100770001F9018951F920F920FB60F9211242F936E
:100780003F934F935F936F937F938F939F93AF9319
:10079000BF93EF93FF93E0910201F091030109955C
:1007A000FF91EF91BF91AF919F918F917F916F9149
:1007B0005F914F913F912F910F900FBE0F901F901F
:1007C00018951F920F920FB60F9211242F933F93FB
:1007D0004F935F936F937F938F939F93AF93BF9349
:1007E000EF93FF93E0910001F09101010995FF91D2
:1007F000EF91BF91AF919F918F917F916F915F9199
:100800004F913F912F910F900FBE0F901F90189511
:10081000CF93C82F61E00E94A50260E08C2FCF919A
:100820000C947502CF92DF92EF92FF92CF93DF93F9
:10083000EC010E94E1026B017C010E94E102AB012C
:10084000BC014C195D096E097F09483E53406105A2
:10085000710548F4809127020E944C028C179D0775
:1008600061F781E001C080E0DF91CF91FF90EF90D0
:10087000DF90CF900895CF93DF9380E090E00E94C7
:100880001204809129020E944C02EC0181E090E068
:100890000E941204CE01DF91CF910895009769F074
:1008A000FC0101900020E9F73197AF01481B590B7B
:1008B000BC018AE891E00C94AD0080E090E00895DE
:1008C0000F931F93CF93DF938C01C0E0D0E0F8012A
:1008D000EC0FFD1F6491662371F0E0918A01F091A5
:1008E0008B010190F081E02D8AE891E00995892B38
:1008F00011F02196ECCFCE01DF91CF911F910F9196
:100900000895CF93DF930E946004EC0187E191E0AA
:100910000E944E048C0F9D1FDF91CF910895CF93BD
:10092000C82F60E00E94A50261E08C2FCF910C944B
:1009300075022091290230912A02019721F4C90100
:100940000E948F0403C0C9010E94080481E090E066
:100950000E94120480E090E00C941204CF92DF9287
:10096000EF92FF920F931F93CF9380912702909164
:1009700028020E948F048091290290912A020E94ED
:100980008F0483EC90E00197F1F780E090E00E9403
:1009900012048FE090E00197F1F781E090E00E946F
:1009A000120400E010E0C0E0C12CD12C7601C39409
:1009B0000E943B04892B61F0D701C601002E04C0C0
:1009C000880F991FAA1FBB1F0A94D2F7C82B0CC00F
:1009D000D701C601002E04C0880F991FAA1FBB1F94
:1009E0000A94D2F78095C8230F5F1F4F0830110576
:1009F000F9F60E943B040E943B04809127029091EB
:100A000028020E9408048C2FCF911F910F91FF9014
:100A1000EF90DF90CF900895BF92CF92DF92EF9248
:100A2000FF920F931F93CF93DF93C82E80912902DB
:100A300090912A020E948F048091270290912802AF
:100A40000E948F04CBEAD4E0CE010197F1F78091A8
:100A50002702909128020E9408042197F1F78091C3
:100A6000290290912A020E94080483E290E00197F3
:100A7000F1F780912702909128020E948F0480E074
:100A800090E00E941204B82E882309F43FC0EE249F
:100A9000E394F12CC0E0D0E00C2C000CDD088601C2
:100AA0000C2E02C0159507950A94E2F701701127E4
:100AB000C8010E949904E026F1262196C830D1058C
:100AC00071F7C7010E9499048091290290912A022E
:100AD0000E948F0483EC90E00197F1F780E090E0B2
:100AE0000E941204809127020E944C02892BD1F3AC
:100AF000809129020E944C02892BA1F38091270248
:100B0000909128020E9408040E94AE048B2DDF9170
:100B1000CF911F910F91FF90EF90DF90CF90BF90FA
:100B20000895CF93DF93EC0183EF90E00E940C05D2
:100B3000CE01DF91CF910C940C058F929F92AF92D2
:100B4000BF920F931F93CF93DF93CDB7DEB7A197DB
:100B50000FB6F894DEBF0FBECDBF19A2423008F425
:100B60004AE08E010F5D1F4F842E912CA12CB12CD9
:100B7000A50194010E949E0DE62FB901CA01015002
:100B80001109EA3014F4E05D01C0E95CD801EC938E
:100B9000232B242B252B61F7C8010E944E04A1961C
:100BA0000FB6F894DEBF0FBECDBFDF91CF911F917E
:100BB0000F91BF90AF909F908F900895CF92DF924A
:100BC000EF92FF92CF93DF936B017C0141155105AA
:100BD00081F4E0918A01F0918B010190F081E02D88
:100BE0008AE891E0DF91CF91FF90EF90DF90CF9076
:100BF00009944A30510511F597FF1FC0E0918A0111
:100C0000F0918B010190F081E02D6DE28AE891E096
:100C10000995EC0166277727CB016C197D098E09B0
:100C20009F094AE00E949D058C0F9D1FDF91CF9187
:100C3000FF90EF90DF90CF9008954AE0C701B60192
:100C4000DF91CF91FF90EF90DF90CF900C949D05B6
:100C5000789484B5826084BD84B5816084BD85B597
:100C6000826085BD85B5816085BD80916E008160A3
:100C700080936E0010928100809181008260809349
:100C8000810080918100816080938100809180004B
:100C90008160809380008091B10084608093B10076
:100CA0008091B00081608093B00080917A00846070
:100CB00080937A0080917A00826080937A0080919C
:100CC0007A00816080937A0080917A0080688093B6
:100CD0007A001092C100E0919A01F0919B0182E0AC
:100CE0008083E0919601F09197011082E091980144
:100CF000F091990180E180831092A201E0919E0120
:100D0000F0919F0186E08083E0919C01F0919D012C
:100D1000808180618083E0919C01F0919D018081C0
:100D200088608083E0919C01F0919D0180818068C2
:100D30008083E0919C01F0919D0180818F7D808373
:100D400086EE90E00E94810462E082E00E94A502AB
:100D500062E084E00E94A50262E083E00E94A502B6
:100D600062E085E00E94A50261E08BE00E94A5029E
:100D700061E08CE00E94A50261E08DE00E94A50286
:100D800060E08BE00E94750260E08CE00E947502DA
:100D900060E08DE00E94750261E08AE00E94A50299
:100DA00061E08AE00E94750261E089E00E94A5028C
:100DB00061E089E00E94750261E088E00E94A5027E
:100DC00061E088E00E947502E4E4F1E0119221E024
:100DD000E538F207D9F784E080932A0162E082E0E7
:100DE0000E94A50262E084E00E94A50210923B01ED
:100DF00010923C018DEE92E09093010180930001EE
:100E0000809169008C7F826080936900E89A80916C
:100E10002702909128020E948F04809129029091CC
:100E20002A020E948F048FEF90E00E940C05C82FC9
:100E30008823A1F10E94AE040E94AE0488EC90E0E9
:100E40000E94910584E690E00E94910580E590E083
:100E50000E94910582EF90E00E940C050E94AE0472
:100E600091E0833009F090E090932B0288EE90E0BF
:100E70000E940C0583E090E00E940C0586EE90E055
:100E80000E940C0588E290E00E94910580EF90E0BE
:100E90000E940C058BE891E00197F1F7C09389015E
:100EA000C11103C080ED90E002C082EC90E00E948E
:100EB0008104C1E00E94E101882309F4F2C40E9488
:100EC000E101811102C08FEF12C0E0913C018091DD
:100ED0003B01E817C1F3EF5FE03108F0E0E0E09399
:100EE0003C01F0E0E55DFE4F8081882361F3282F0F
:100EF00030E0203E310519F4C0934301D2C4213EB5
:100F0000310529F4C0934301C0934201CAC4203F74
:100F1000310539F480914101811103C0C093410131
:100F2000C0C480914301811107C0809142018111A9
:100F300003C080E090E002C080E091E0820F931F48
:100F40008534910509F477C30CF022C183329105F1
:100F500009F409C30CF091C08E30910509F4EDC37A
:100F60000CF04BC08730910509F461C41CF5843046
:100F7000910509F42CC47CF48130910509F447C42F
:100F8000039709F073C4809141018C278093560127
:100F900080936C016BC48530910509F410C40697E9
:100FA00009F064C4809141018C2780936B01809388
:100FB0006C015CC48B30910509F419C47CF4893050
:100FC000910509F42CC40A9709F050C4809141019D
:100FD0008C2780936A0180936C0148C48C30910502
:100FE00009F4FDC30D9709F041C4809141018C279C
:100FF000809344018093590139C48A31910509F4E1
:1010000014C3D4F48431910509F40BC244F4813142
:10101000910509F419C2429709F4F2C127C4853138
:10102000910509F4DEC2469709F020C48091410180
:101030008C27809347011AC48D31910509F4E9C2C8
:101040006CF48B31910509F4D2C24C9709F00EC4AF
:10105000809141018C278093450108C4813291051C
:1010600009F47BC20CF0DBC24E9709F0FFC38091FC
:1010700041018C2780934F01F9C38333910509F413
:101080008AC20CF043C08B32910509F478C2FCF49B
:101090008632910509F4D5C26CF48432910509F4C5
:1010A00068C2859709F0E2C3809141018C27809343
:1010B0005F01DCC38932910509F449C28A9709F0BE
:1010C000D5C3809141018C2780936401CFC38E32B8
:1010D000910509F4BCC26CF48C32910509F48DC2FF
:1010E0008D9709F0C3C3809141018C2780935E01E5
:1010F000BDC38133910509F464C2C29709F0B6C338
:10110000809141018C2780936B01B0C38C33910592
:1011100009F479C2FCF48633910509F49EC26CF49B
:101120008433910509F431C2C59709F09FC38091BA
:1011300041018C278093690199C38A33910509F491
:101140003AC2CB9709F092C3809141018C278093DA
:1011500062018CC38134910509F4B7C26CF48D33FC
:10116000910509F480C2CE9709F080C380914101B6
:101170008C27809358017AC32091410183349105D3
:1011800009F40FC20CF023C22C2720935A016EC31E
:101190008537910509F48DC20CF095C0893591050C
:1011A00009F42EC10CF048C08D34910509F413C226
:1011B000F4F48A34910509F4A0C24CF48634910504
:1011C00009F457C28934910509F487C24FC38B349F
:1011D000910509F4EAC18C34910509F047C3809167
:1011E00041018C2780935301809351013FC3843583
:1011F000910509F47AC284F48E34910509F495C2FC
:101200008235910509F032C3809141018C2780938A
:101210005301809349012AC38535910509F47DC2A4
:101220008835910509F022C3809141018C27809374
:101230005301809344011AC38B36910509F425C2EA
:101240001CF58D35910509F460C284F48A35910549
:1012500009F477C18B35910509F008C380914101EC
:101260008C27809353018093610100C386369105DA
:1012700009F45FC18936910509F0F8C280914101F6
:101280008C2780934701F2C28137910509F425C26A
:1012900074F48C36910509F406C28037910509F083
:1012A000E5C2809141018C2780934801DFC22091E3
:1012B00041018337910509F4EEC10CF0F0C12C27F0
:1012C00020934F01D3C2843131E0930709F4A9C0C0
:1012D0000CF042C08C37910509F437C22CF58937E0
:1012E000910509F43AC284F48637910509F40EC1D8
:1012F0008837910509F0BAC2809141018C2780930B
:10130000460180935301B2C28A37910509F4B7C1EF
:101310008B37910509F0AAC2809141018C278093F7
:10132000530180936201A2C28338910509F467C218
:101330004CF48D37910509F4C2C18E37910509F43B
:101340007EC294C2813151E0950709F492C0823186
:10135000914009F482C28AC28037F1E09F0709F404
:10136000B4C00CF5893631E0930709F420C254F477
:101370008A3451E0950709F4C0C18A35914009F4D7
:10138000E0C074C28B36F1E09F0709F4AFC08C3621
:10139000914009F06BC2809141018C2780935A01E2
:1013A00080936C0163C2843731E0930709F4A6C0CF
:1013B0008CF4813751E0950709F470C08237914071
:1013C00009F054C2809141018C278093440180939D
:1013D00068014CC28A37F1E09F0709F4D7C18D3705
:1013E00021E0920709F4C1C18537914009F03EC25E
:1013F000809141018C27809344018093600136C223
:1014000080910401811103C080E090E002C08FE070
:1014100090E0FC01EC5BFE4F209141012C272083E2
:1014200025C280910401811103C02FE030E002C089
:1014300020E030E0809141018C27F901EC5BFE4F08
:1014400080838093400112C2809141018C27809358
:10145000530190910401911103C020E030E002C0DB
:1014600026E030E0F901EC5BFE4F808380933F0182
:10147000FDC1809141018C2780935301909104011B
:10148000911103C020E030E002C027E030E0F90114
:10149000EC5BFE4F808380933F01E8C19091040193
:1014A00080914101992339F0982F9C27909349010D
:1014B00090936C0106C0982F9C27909353019093B2
:1014C0005C018C2780933E01D1C1909104018091F1
:1014D00041018C27992329F08093510180936C015D
:1014E000C5C18093530180934501C0C180914101E2
:1014F0008C278093440180936701B8C1809141019A
:101500008C278093440180935801B0C12091410100
:101510002C272093440180910401811103C087E0AE
:1015200090E002C083E090E0FC01EC5BFE4F208382
:101530009DC1809141018C27809344018093480193
:1015400095C1809141018C2780934A018FC1809180
:1015500041018C2780934B0189C1809141018C27E7
:1015600080935C0183C1809141018C278093550158
:101570007DC1809141018C278093560177C1809174
:1015800041018C2780935D0171C1809141018C27BD
:10159000809365016BC1809141018C2780936A0122
:1015A00065C12C272093590161C1809141018C278D
:1015B000809352015BC1809141018C2780935B0134
:1015C00055C1809141018C27809363014FC12C2725
:1015D000209351014BC1809141018C278093490197
:1015E00045C1809141018C27809346013FC1809184
:1015F00041018C2780934D0139C1809141018C2795
:101600008093660133C1809141018C2780936101F1
:101610002DC1809141018C2780934E0127C180917B
:1016200041018C278093540121C1809141018C2775
:1016300080934C011BC1809141018C27809348010C
:1016400015C1809141018C27809357010FC1809172
:1016500041018C278093670109C1809141018C274A
:101660008093680103C1809141018C2780936001C0
:10167000FDC0809141018C2780935001F7C080917B
:1016800041018C2780935701F1C0809141018C2743
:1016900080935F01EBC02C2720936701E7C02C27C4
:1016A00020936801E3C0809141018C278093600101
:1016B000DDC0809141018C2780935801D7C0809173
:1016C00041018C2780935001D1C0809141018C272A
:1016D0008093530180936301C9C0809141018C279D
:1016E0008093530180935B01C1C0809141018C279D
:1016F0008093530180936901B9C0809141018C2787
:101700008093530180936401B1C0809141018C2783
:101710008093530180935501A9C0809141018C278A
:101720008093530180935201A1C0809141018C2785
:10173000809353018093620199C0809141018C276D
:10174000809353018093600191C0809141018C2767
:101750008093530180936B0189C0809141018C2754
:101760008093530180935A0181C09091040180912C
:1017700041018C27992329F080935B0180936C01B0
:1017800075C0809344018093570170C0909104010B
:10179000809141018C27992329F0809363018093E4
:1017A0006C0164C08093440180935F015FC08091AD
:1017B00041018C278093520180936C0157C0809126
:1017C00041018C278093450180936C014FC080912B
:1017D00041018C2780935C0180936C0147C080910C
:1017E00041018C278093550180936C013FC080910B
:1017F00041018C2780935D0180936C0137C08091FB
:1018000041018C278093650180936C012FC08091EA
:1018100041018C278093590180936C0127C08091EE
:1018200041018C278093620180936C011FC08091DD
:1018300041018C2780934E018093530117C0809102
:101840004101882399F060913D01862F8C27809378
:101850003D0189E00E94750209C080914101882301
:1018600029F0809104018C2780930401609140014C
:10187000662341F080913F01882329F060913E0169
:101880006C2701C061E08AE00E947502109241015C
:1018900080914201882319F01092420102C01092F7
:1018A00043010E94E1022B013C01809189018823C0
:1018B00009F4E9C08091850190918601A09187018A
:1018C000B0918801A3019201281B390B4A0B5B0BD5
:1018D00025363105410551050CF4D5C08BEE90E05D
:1018E0000E940C050E94AE04E82E0E94AE04F82E61
:1018F000A82E880FBB080E94AE04D82FC82E880FD0
:10190000DD0880912B02882331F00E94AE04082F5D
:10191000880F110B02C000E010E08F2D81708093C2
:101920006D01F1FA882780F980936E01F2FA882719
:1019300080F980936F01F3FA882780F98093700112
:10194000F4FA882780F980937101F5FA882780F9E5
:1019500080937201F6FA882780F980937301C5019C
:10196000880F892F881F990B91958170809374013E
:101970008D2F817080937501D1FB882780F980932A
:101980007601D2FB882780F980937701D3FB8827E3
:1019900080F980937801D4FB882780F980937901BE
:1019A000D5FB882780F980937A01D6FB882780F9B8
:1019B00080937B01C601880F892F881F990B919511
:1019C000817080937C018E2D817080937D01E1FA7E
:1019D000882780F980937E01E2FA882780F9809336
:1019E0007F01802F81708093800101FB882780F91F
:1019F0008093810102FB882780F98093820103FB99
:101A0000882780F980938301809184018C278093BB
:101A10008401409285015092860160928701709204
:101A200088016E2DEE0C770B880B990B42E00E941B
:101A30009D058FEF90E00E9460046F2DFF0C770BE7
:101A4000880B990B4AE050E00E94DE058BEF90E096
:101A50000E9460046D2FDD0F770B880B990B4AE015
:101A600050E00E94DE0587EF90E00E946004B8011C
:101A7000110F880B990B4AE050E00E94DE0587E1C8
:101A800091E00E944E0461E08CE00E94750260E0EB
:101A90008CE00E94750204E411E0F80161918F016D
:101AA0008DE00E94750261E08BE00E94750260E0AB
:101AB0008BE00E947502F1E005381F0771F760E0C6
:101AC0008DE00E9475020E94AD01F4C9EAE8F1E0E0
:101AD0001382128288EE93E0A0E0B0E084839583C5
:101AE000A683B78389E091E09183808385EC90E0C1
:101AF0009587848784EC90E09787868780EC90E0D8
:101B0000918B808B81EC90E0938B828B82EC90E0C8
:101B1000958B848B86EC90E0978B868B118E128E42
:101B2000138E148EE7E2F2E083E090E091838083ED
:101B300085E090E09383828314820895A1E21A2EB7
:101B4000AA1BBB1BFD010DC0AA1FBB1FEE1FFF1F61
:101B5000A217B307E407F50720F0A21BB30BE40BB1
:101B6000F50B661F771F881F991F1A9469F76095F8
:101B70007095809590959B01AC01BD01CF010895B2
:101B8000EE0FFF1F0590F491E02D099481E090E0A5
:0A1B9000F8940C94CB0DF894FFCFED
:101B9A00E001E00101000000004401AD00DC008B1F
:0A1BAA00010D01EB00FF000D0A0021
:00000001FF
