:10000000C6C253C079C01895189518954CC009C040
:10001000189574C29FC2189518951895189518953B
:1000200018954FB730E732BF309167003A9530935B
:100030006700B9F534E63093670030911002306103
:10004000309310027F7D309111023395C32FCF7012
:10005000CA3008F03A5F30931102303610F133277E
:1000600030931102309112023395C32FCF70CA30F2
:1000700008F03A5F30931202303698F0332730930D
:100080001202309113023395C32FCF70CA3008F09B
:100090003A5F30931302343220F033273093130247
:1000A00070644FBF1895716018954FB729991BC0A0
:1000B00002FD20C03FEF459B3F7B05FF10C0C89B62
:1000C0003821C99B3921CA9B3A21CB9B3B21CC9B30
:1000D0003C21CD9B3D21CE9B3E21CF9B3F2197983C
:1000E0003BBB3FEF3ABB9698829BFECF33273ABB90
:1000F000979A969A4FBF18954FB739B3332351F457
:1001000029991DC0FF93EF93FFE0EFEF3491EF913A
:10011000FF9111C0849960C03A7F3A3FC9F4309191
:1001200072003F3F41F029990AC0362DC89B03C099
:10013000342DCA99352D97983BBB3FEF3ABB969823
:10014000839BFECF33273ABB979A969A4FBF189559
:10015000387F3038A1F72999F2CFD0E0C9B3C77002
:10016000C05AC736388139F7372DE5CFD2E0C9B349
:10017000C770C85F29992AC030914202332321F504
:10018000C930E1F0C83001F5C0910A02D0910B02EC
:100190003C2F3D2B91F02197C0930A02D0930B0284
:1001A000EF93FF93E0910C02F0910D023591E093F3
:1001B0000C02F0930D02FF91EF91BDCF30910A0236
:1001C000D0910B023D2BB7CF3881B5CF979800C0A7
:1001D00000C039B33883DDC08599E9C0387F383F26
:1001E00039F0383D19F2303E21F0383E79F1A7CF91
:1001F0004DC0D2E0C9B3C770C05F299913C0C031E8
:1002000029F0309110023F7E30931002C43119F46E
:1002100038813F7390CFC53119F438813F718BCF4E
:10022000388189CF979800C000C039B3C03131F40C
:1002300070683F701F931881312B05C070621F9347
:1002400010E0109367001F913883A3C039B332FDCB
:10025000A7C0C32FD2E0C370C45E299902C0388101
:100260006ACF979800C000C039B33883C1FD0DC074
:10027000C0911C02D0911D020F921F92CD9F00923F
:100280001E0210921F021F900F9083C0D2E0C9B3CC
:10029000C770299935C03881CC23A9F4D0E03091BA
:1002A0007700332361F03A9530937700C09179005D
:1002B0003991CE3F09F4C0E8C09379003CCFC0919A
:1002C0007900388138CFC63079F4C25031FF05C08B
:1002D000309177003E370CF4A898229638813F7C05
:1002E000999B306330680AC0C53049F4309177007B
:1002F0003323388111F0316001C03E7F38831BCF3A
:10030000979800C000C039B3388371FF0BC0C33069
:1003100041F437FD3EC07D7F7061C0E0388130938D
:10032000710037C0C33019F437FD726032C0C43079
:1003300051F431FD02C0A89A2CC0309177003E37AD
:10034000D4F7A89826C0C03021F530917A00332325
:1003500039F45D9B05C0A99903C038813CB919C027
:100360003395303230F03F93C5E038813F793883A0
:100370003F9130937A00C0E03881D2E0C0917C0098
:100380003993C03409F4C0E2C0937C005598A99B0E
:10039000559A9698839BFECF979A969A4FBF189539
:1003A0003F3E11F13C3EE1F13D3E91F008C03F3E41
:1003B000D9F03F3BA9F13F3D59F03F3FE9F4299B7C
:1003C0001BC0979800C000C039B330931B02E1CF27
:1003D000299B12C0979800C000C039B3309319020E
:1003E000332730931B02D5CF29990FC030911A02C1
:1003F00097983BBB3FEF3ABB9698839BFECF332742
:100400003ABB979A969A4FBF1895979800C000C02C
:1004100039B330931A0237FD02C075FD7068B9CF49
:1004200030911A0237FFE8CF299B2BC0979800C064
:1004300000C039B3D0911902C1E1DD23D9F0C2E186
:10044000D230C1F0C3E1D430A9F0C7E1D63091F089
:10045000C4E1D73079F0C5E1D83061F0C6E1D930D8
:1004600049F0E199FECFDEBBDD27DFBB3DBBE29A61
:10047000E19A8FCFD2E03883706230E0309367002A
:1004800088CFC091190230911102CC2381F13091B3
:100490001202C23061F130911302C43041F1309147
:1004A0001702C63021F1309114023F73C730F9F0C2
:1004B000309115023F71C830D1F030911602C93029
:1004C000B1F030E2CA3099F032E0CB3081F030E068
:1004D000CD3069F030911002CC3051F0E199FECF6F
:1004E000CEBBCC27CFBBE09AE099FECF3DB380CF07
:1004F000C0911002CF7EC09310027ACF4FB7D0E0E8
:10050000C09178003CB13993CE3F08F0C0E8C09369
:1005100078003091770033953E3768F049F03A958E
:10052000C0917900C395CE3F08F0C0E8C093790030
:100530003093770007C0309377003091040231FD8B
:10054000A89831FFA89A30910502316030930502D6
:100550004FBF18954FB7D2E030917A00332311F492
:1005600055980EC0C0917B003A9530937A0009F4FB
:10057000559839913CB9C03408F0C0E2C0937B0073
:10058000309105023066309305024FBF18951FE584
:100590001DBF12E01EBFADD172D2C0981BD430D4A3
:1005A000772788271FEF612E362C10E8412E10E6A2
:1005B000512E62D3F7D216E0109371007061C09A89
:1005C00010D2A79AA59A74FDD9D377FD6DD476FD84
:1005D00017D462D275D2A798A59870FD10C010915B
:1005E00072001F3F11F09C9B0DC0109166001870A7
:1005F000A1F79E99F2CFA59A5BD21FD361C007FDE8
:1006000034C1DFCFA79A54D290D3D8F2909590936B
:10061000730085D3B0F29093750081D390F29093DC
:10062000760090917200992319F079D308F0390E71
:1006300073FD35C010917300137079F190917200C1
:100640001FEF992309F0132D1295107F90917300DD
:1006500097709860912B1091660014FF06C010915E
:10066000730010FB91F911FB90F9692E90917300C2
:10067000909596FB17F994FB16F99091750071D33C
:10068000490E90917300909597FB17F995FB16F919
:100690009091760066D3590E94CF786092CF1091E6
:1006A00073001370133009F08CCF777F9091660040
:1006B00010E1912790936600D4D1C0CF0260B7D2E9
:1006C00008F47FCF903FD1F3993309F499E198353D
:1006D00009F491E1993509F492E1943809F499E02B
:1006E0009B3808F0915801FD57C0791609F469CF7D
:1006F000792E9C3011F4086064CF923139F4006196
:100700001091660010641093660068C0973511F46C
:10071000EED103C09E3519F4EFD1772452CF923633
:10072000C9F403FD0C94010F046055E080D2F0F38E
:100730005A95E1F7F8940B7F82990BC01FEF9798B9
:100740001BBB1ABB9698829BFECF11271ABB979AA8
:10075000969A36CF963539F49091660010E291273B
:100760009093660007C0963711F4E1D103C09F351E
:1007700019F4E3D176D124CF943121F4D2D104FD00
:10078000CCCF94E1BB27A0E61D91112311F49E93D9
:1007900025C0A636C9F715CF0D7F9C3041F4E091F6
:1007A0004002F0914102319609F000680ACF92317F
:1007B00011F4016013C0973509F403CF9E3509F495
:1007C00000CFA0E668941D91191721F477247E923A
:1007D000E894A395A636B9F70EF4F2CEA8E61FEF7B
:1007E0001D93A037E9F703FD27C0E894A0E61D910B
:1007F000112349F0F7E1E0E0E10F08F4F395C89523
:10080000AF939AD0AF91A63691F726F097D004FF18
:10081000D7CEBED001D0D5CEA8E6FF27E8E0F89429
:100820002D912193A4FFFCCF006210916600106807
:100830001093660078940895A0E61D91112341F469
:10084000A636D9F71FEF1093410210934002B9CE9C
:10085000F6E1E0E0110FE10FC89500924102E39547
:10086000C89500924002077FACCE0BD1A8E61FEFDF
:100870001D93A4FFFDCFE0914002F0914102C89585
:100880000394D1F00A9471F012F406FC16C0071418
:1008900011F47724BFCF172D113321F47724BCDF57
:1008A000ECD08FCE702C3196E0934002F093410251
:1008B000002009F053D0AECF83CE702C3196E09358
:1008C0004002F0934102102D1F73110FEAEDFAE080
:1008D000E10F08F4F3951591F491E12F319609F4A5
:1008E00099CF3197EF93FF9397DFFF91EF910995A0
:1008F00091CF1AE015BF15E013BF12E819BF14E03D
:100900001EBD10E01ABB1FEF1BBB10E016B917E0AD
:1009100017B911E014BB10E015BB17EB17BB17EFAD
:1009200018BB10EC11BB10E812BB18E91AB91EE88D
:1009300010BD10E418B90895002049F400FF08958F
:100940000E7E109166001F7B10936600089507FECF
:1009500002C006FC20C0F2DF04FD1AD0689407FC38
:1009600014D006FC15D0102D1770112E1EEF1A94FE
:1009700019F00894111FFBCFA02DAA0FA295A77004
:10098000A8591C9011221C920895A8E61EEFF9CFD9
:10099000AFE61DEFF6CF05FE02C004FC0CC0102D23
:1009A0001F73110FF7E1E0E8E10FC89504FFD6CF00
:1009B000E395C895D3CF102D1F70F7E1E0EFE10F5D
:1009C000C895689407FCE1DF06FCE2DF102D177084
:1009D000112E1EEF1A9419F00894111FFBCF1F7DE2
:1009E000CBCFBB27A0E611271D93A636E9F7F894D5
:1009F000A8E01FEF1D93A4FFFDCF109340021093BA
:100A0000410277240027109166001F73109366003F
:100A100015FFC29815FDC29A13FF07C08A9A929AD1
:100A200010E81BBF969A7894089511708A9810EC7C
:100A3000C1F3F4CF9DEECED001D0CCC0E199FECF72
:100A400010E01EBB10E01FBBE09AE099FECF9DB303
:100A50009373109166001C7F912B909366009770A2
:100A6000089590916600E199FECF10E01EBB10E062
:100A70001FBB9DBBE29AE19A089522E303C024E6DE
:100A800001C02FE003D02A95E9F7089514E6112E4E
:100A900003D01A94E9F7089514E601C015E000C0E8
:100AA00000C000C000C000C000C01A95C1F7089582
:100AB0001FEF1DBD1DE80EC01CEF1DBD10EA0AC0D2
:100AC0001BEF1DBD10E806C01FE81DBD10E81FE1AB
:100AD0001DBD10E01CBD7E7F089577057C05810556
:100AE0008B05910597059D05A705C702BF05C09811
:100AF000CDDF86D1C09A0895C198C8DF81D1C19A4F
:100B00000895E0914002F09141022591E093400266
:100B1000F0934102B7CF9DEE5DD090916600987F33
:100B200012C09DEE57D01091660094E00BC09DEE70
:100B300051D01091660092E005C09DEE4BD010910F
:100B4000660091E0912790936600977043C0E09112
:100B50004002F0914102159110930D0215911093EE
:100B60000C02159110930B02159110930A02112794
:100B700010934202E0934002F09341020895A59839
:100B80008BDFE0914002F091410225912F939591E6
:100B900099D02F912A95D1F7E0934002F09341022A
:100BA000A59A089563E06DDF9FEF14D018F46A955D
:100BB000D1F703C08CDF3CD020F418E0109366001E
:100BC000089510E01093660035DF90EF03D093E0B6
:100BD00001D098EF07D028F02AD018F09E3FD1F32B
:100BE0009A3F0895A79A58DFA69A58DFA79864DF1E
:100BF0003BD0D0F05DDF28E0222401C035D09795AE
:100C000010F0A69A02C0A698239428D02A95B1F78E
:100C10002BD0A69820FCA69A21D026D0A6981ED02C
:100C200023D01CD0989401C01894A698089548DF4A
:100C3000A79870FD1FC09E99FCCF16D00FD028E05A
:100C400013D088949E990894979508D02A95C1F757
:100C50000BD004D009D002D0A79A089570FD0AC025
:100C60009F9BFCCF8894089570FD04C09F99FCCF92
:100C700088940895089408959FEF24D0F8F027DF12
:100C80004FD0E0F04DD093EF1DD0C0F098EC1AD0CB
:100C9000A8F093EF17D090F094E614D078F093EF8B
:100CA00011D060F090E50ED048F092EF0BD030F00C
:100CB00036D020F09093720094EF04C09FEF909391
:100CC0007200089507D028F02AD018F09E3FD1F383
:100CD0009A3F0895A59AE0DEA49AE0DEA598ECDE9E
:100CE00038D0D0F0E5DE28E0222401C032D097953C
:100CF00010F0A49A02C0A498239425D02A95B1F7A5
:100D000028D0A49820FCA49A1ED023D0A4981BD04D
:100D100020D019D0989401C01894A4980895D0DEDA
:100D2000A59870FD1CC09C99FCCF13D00CD028E076
:100D300010D088949C990894979505D02A95C1F76E
:100D400008D001D006D070FD0AC09D9BFCCF8894CE
:100D5000089570FD04C09D99FCCF8894089508946F
:100D6000089516FD919517FF97FD9927992309F48A
:100D700008959695939516FD919508957F7E10910F
:100D80007100112371F0599A153019F4EAE3FF2725
:100D900006C0112E10E1119EE02DF12D3197E9B919
:100DA000F0BD11271093770010937A0010E810938C
:100DB00078001093790010E210937B0010937C0070
:100DC000B2E0A5E0112710661C93A6E01C91106804
:100DD0001C930895F89410E010937E009AD028F4A4
:100DE00010E810931002789408956C7F29F46093B2
:100DF00010027F757894089510E0109310024CC093
:100E00007F7B1091100217FDF4CFF89410EA109335
:100E10007D0012E010937E00E6D011EA10937D0071
:100E20008AD0B2E0A1E1E894A9D06D93A731D9F7B7
:100E30006894A4D060931602C3D073D063701091ED
:100E40001402111F111F111F13701617D9F011234F
:100E500009F414E0161B609116021F936395162F78
:100E60001F701A3008F06A5F603A08F066271F9119
:100E70001A9599F76093160218E010937E0060931C
:100E80007F004BD010911502111F111F111F111F50
:100E9000139517701093170210E010937E001093B3
:100EA0007F003BD0789408951091100217FDA1CFD8
:100EB0007F7775FFAACF109117021A95179517958E
:100EC00017951795107E609115026F71162B109370
:100ED00015026091160225D0679567956795607C2D
:100EE000109114021F73162B10931402F8947F7D37
:100EF00010E010937E0077D060E828D0B2E0A0E147
:100F00006D9124D0A731E1F7609116021FD058D01F
:100F1000C3CF10EA10937D0049C010EA10937D0002
:100F20005BC06F9362956F701AE0619F602D1F9197
:100F30001F70610F08954CD0A39A4CD0A29848D04E
:100F4000A39848D0A29A46D060917D000894661F6D
:100F5000A39A10F4A29802C0A29A00C03BD0A39812
:100F600039D0660FA9F7A39A35D0A29833D0A398A9
:100F70009B9BFECF88949A9908942AC0A29861E01E
:100F8000A39A28D0A39826D088949A990894661F8B
:100F9000B8F7A39A1FD016F4A29801C0A29A1AD04B
:100FA000A3989B9BFECF16D0A39A14C01CD0D0F060
:100FB00010917D00139510937D00BDDF6894DEDFF6
:100FC0008894A39A07D0A29A03D0A39803D0A2989A
:100FD00018E065CD14E063CD06D020F060917F006D
:100FE000B5DFEECF0895AEDFE8F360917E00AECFBF
:020FFE00761C5F
:1010000019296B217C216A311A0C0972214C1C317F
:101010001B320B72416B631D2323251B74097D1A40
:101020001D2562423215720B74257D4114630B45F8
:10103000192562311C29156A6939696A311D3C0913
:10104000422900693939393969420D19311431FFA2
:1010500019296B217C216A311A29416B251C1A1A26
:101060001B6A693939696A311B29416B251C1C24AB
:10107000226A693939696A311C29416B251D1D2194
:101080001B6A693939696A311D11416B251C1C24A1
:10109000227C416B251D1D211B45197B1D31250D12
:1010A00019311431FF19296B217C216A311A0C097D
:1010B00072214C24311B321572416B631B1A2222A0
:1010C0001973097D1A1D2562311C29156A69396950
:1010D0006A311D3C09422900693939393969420DA3
:1010E00019311431FFC0FFC71200029019031A1CF6
:1010F000231B19311A3209721A1C231B1A31240CB2
:101100002B72214C191D31232A09732B7C416B1D35
:101110001D1D1B1D423C2B3122154132093114315A
:10112000FFC8C902E800FFC902E801FFC902E802DE
:10113000FFC902E803FF29006902033B041A3905CD
:0C1140007B1A7B233929142A0C2B69FF31
:1012000021106101EFD9ED78280605EDA218F40050
:10121000CD6B0D3E02CD0116AF32415C323B5CFD21
:10122000CB01DE211762CD1062AF3291631805CF7A
:101230000CCD6B0D210000228F63CDEE62219463F3
:10124000228B63228D63FD3652FF3E5FD73E08D767
:10125000FDCB016E28633A085CFDCB01AEFE203861
:1012600004FE803851FE0D284DFE0828C2FE0A28D3
:10127000C0FE0C283CFE06282D214661E521008099
:10128000FE042812FE05C0CD096222926321646229
:10129000CD1062C33163CD09623A9163B72801E989
:1012A000216D62C310623A6A5CEE08326A5CC34622
:1012B00061CD09623E08CD77620664CDCB62200421
:1012C00010F91819CDBB622A8B637723228B632A0E
:1012D0008F6323228F63CB6428E1CDE6622A8F637C
:1012E0007CB5CA3A612B228F632A8D637E23228DBF
:1012F00063E67FCA4661FE0ACA4661FE0920023ED5
:1013000020FD3652FFD7C346613E20D73E08D7C9DD
:101310007EB7C8D72318F92A2054696E79546572AC
:101320006D20762E312E30202A0D43532B35202D63
:1013300020517569742C2043532B36202D20434CAB
:10134000530D43532B34202D204C6F61642C2043CC
:10135000532B33202D2052554E0D004F4B0D004581
:1013600052520D000D584D4F44454D0D000D4E6F1E
:101370002066696C650D00C54FCDD5622007CDF89C
:101380006230F6C1C979CDC362B7C1C9CDA462309C
:10139000FB3E0618E2CDA46230FB3E1518D9D511EC
:1013A00000001804D5110020CDCB6220081B7AB3B1
:1013B00020F637D1C9CDBB62B7D1C9C501EFF8ED71
:1013C00078C1C9C501EFF8ED79C1C9C501EFFDEDDF
:1013D00078E601C1C9C501EFFEED78E610280505E4
:1013E000ED78E620C1C9C501EFFC3E011806C50134
:1013F000EFFC3E03ED79C1C93E7FDBFE1F38093E9D
:10140000FEDBFE1F3802AF3D3FC9CDA462D84FCDF1
:10141000A462D82FB937C021946306801600CDA4EA
:1014200062D87723825710F6CDA462D8BA79C8372C
:10143000C90E00CD9562060ACD9E62300FCD956231
:1014400010F6215F62AF329163C31062FE04200A7E
:10145000CD8C62215B623EFF18ECFE0120D5C5CD2C
:101460000A63C138CEB92005CD8C6218C60CB928E4
:10147000030D18BFC5219463ED5B9263018000EDFD
:0B148000B0ED539263C1CD8C6218AB3D
:10160000FFFFFFFFFFFFFFFFFFFFFFFFFFFF1000D8
:10161000FFFFFFFFFFFFFFFFFFFFFFFFFFFF105078
:10162000FFFFFFFFFFFFFFFFFFFFFFFF112210E79C
:10163000FFFFFFFFFFFFFFFFFFFFFFFF112710A5C9
:10164000FFFFFFFFFFFFFFFFFFFF1131112CFFFF27
:10165000FFFFFFFF1136FFFFFFFFFFFFFFFFFFFF51
:10166000FFFFFFFFFFFFFFFFFFFFFFFFFFFFFFFF8A
:10167000FFFFFFFFFFFFFFFFFFFFFFFFFFFFFFFF7A
:10168000FFFFFFFFFFFFFFFFFFFFFFFFFFFFFFFF6A
:10169000FFFFFFFFFFFFFFFFFFFFFFFFFFFFFFFF5A
:1016A000FFFFFFFFFFFFFFFFFFFFFFFFFFFFFFFF4A
:1016B000FFFFFFFFFFFFFFFFFFFFFFFFFFFFFFFF3A
:1016C000FFFFFFFFFFFFFFFFFFFFFFFFFFFFFFFF2A
:1016D000FFFFFFFFFFFFFFFFFFFFFFFFFFFFFFFF1A
:1016E000112110E5FFFFFFFFFFFFFFFFFFFFFFFFDF
:1016F000FFFFFFFFFFFFFFFFFFFFFFFFFFFFFFFFFA
:10170000FFFFFFFFFFFFFFF0BA747171B199C0F1E5
:10171000FF013AFFD01119F2FF9B020A09121AF3D6
:10172000FF04030B131C1BF4FF39050C15141DF5E6
:10173000FF3C3D350D2DCBF6FF9C3B342CCCCDF73B
:10174000FFC1332B2ACFCEF8FFC2C332C429C5F95B
:10175000FFFFC6FFC7C80000000031C9CAFF000074
:10176000A59D00A4FAFBA1FCFF19A31C24FDFEFF0C
:10177000217B1A1D25230045FF311BFF73227DFFAE
:1017800043497C547B5545446A42746164696D4C9D
:1017900072736C4D4B4A25752465237D226321624B
:0217A0009A00AD
:1017F000093D040B130C0D352B3429322A3C333BA5
:101E000025C045C01DD0F12FE02F27BFE895F7FF73
:101E1000000016C015D0F32FE22F112E002E21E066
:101E200027BFE895F7FF00000BC00AD0F12FE02F85
:101E300020FD27BFC895002DE395C895102D089566
:101E4000022E27B720FDFCCF202D08950DE90DBFF0
:101E500000E00EBF00E00ABB0FEF0BBB00E006B9CD
:101E600007E007B901E004BB00E005BB03E007BBE6
:101E70000FEF08BB00E601BB00E402BB3A9A2A9BC5
:101E800006C0EE27FF27C895039409F00995F8943A
:101E900000E000BD0FE209B908E10AB906E800BD9B
:101EA00004C009E501C00DE083D086D00136C9F336
:101EB000013439F481D0902F7FD0802F880F991F63
:101EC000F2CF033619F478D0402EEDCF033441F42D
:101ED00073D0502F442D9C018A019CDF0296E3CFE2
:101EE000053511F0053669F48827992707C023E0E6
:101EF0008C0188DF21E18C0185DF80969831B8F371
:101F0000D2CF0D3639F425E08C017CDF21E18C0144
:101F100079DFC9CF003511F00C3409F4C4CF003794
:101F200011F403E5C1CF023551F420E08C017DDFCF
:101F3000A02F012F3DD00A2F3BD00296B6CF0436FA
:101F400031F48EBB9FBB0196E09A0DB3ADCF043741
:101F500021F40BE32DD000E0A7CF083721F009379B
:101F600011F0043511F428D09ECF033571F401E44B
:101F70001FD006E51DD002E51BD002E419D00FE406
:101F800017D00FE415D004E58FCF063521F401E317
:101F90000FD000E389CF033731F40EE109D003E914
:101FA00007D006E081CF0B3109F47FCF0FE37CCF60
:101FB0005D9BFECF0CB908955F9BFECF0CB10895D9
:101FE000426F6F74204C6F6164657220666F72205F
:101FF0005A585F4D636172642F6D383531350D0A63
:00000001FF
